{
  "_format": "hh-sol-artifact-1",
  "contractName": "MockPriceFeed",
  "sourceName": "contracts/MockPriceFeed.sol",
  "abi": [
    {
      "inputs": [
        {
          "internalType": "address",
          "name": "initialOwner",
          "type": "address"
        }
      ],
      "stateMutability": "nonpayable",
      "type": "constructor"
    },
    {
      "inputs": [
        {
          "internalType": "address",
          "name": "owner",
          "type": "address"
        }
      ],
      "name": "OwnableInvalidOwner",
      "type": "error"
    },
    {
      "inputs": [
        {
          "internalType": "address",
          "name": "account",
          "type": "address"
        }
      ],
      "name": "OwnableUnauthorizedAccount",
      "type": "error"
    },
    {
      "inputs": [],
      "name": "PriceNotSet",
      "type": "error"
    },
    {
      "inputs": [],
      "name": "ZeroAddress",
      "type": "error"
    },
    {
      "anonymous": false,
      "inputs": [
        {
          "indexed": true,
          "internalType": "address",
          "name": "previousOwner",
          "type": "address"
        },
        {
          "indexed": true,
          "internalType": "address",
          "name": "newOwner",
          "type": "address"
        }
      ],
      "name": "OwnershipTransferred",
      "type": "event"
    },
    {
      "anonymous": false,
      "inputs": [
        {
          "indexed": true,
          "internalType": "address",
          "name": "token",
          "type": "address"
        },
        {
          "indexed": false,
          "internalType": "uint256",
          "name": "price",
          "type": "uint256"
        },
        {
          "indexed": false,
          "internalType": "uint8",
          "name": "decimals",
          "type": "uint8"
        }
      ],
      "name": "PriceSet",
      "type": "event"
    },
    {
      "inputs": [
        {
          "internalType": "address",
          "name": "token",
          "type": "address"
        }
      ],
      "name": "getPrice",
      "outputs": [
        {
          "internalType": "uint256",
          "name": "price",
          "type": "uint256"
        },
        {
          "internalType": "uint8",
          "name": "decimals",
          "type": "uint8"
        }
      ],
      "stateMutability": "view",
      "type": "function"
    },
    {
      "inputs": [
        {
          "internalType": "address",
          "name": "token",
          "type": "address"
        }
      ],
      "name": "hasPrice",
      "outputs": [
        {
          "internalType": "bool",
          "name": "",
          "type": "bool"
        }
      ],
      "stateMutability": "view",
      "type": "function"
    },
    {
      "inputs": [],
      "name": "owner",
      "outputs": [
        {
          "internalType": "address",
          "name": "",
          "type": "address"
        }
      ],
      "stateMutability": "view",
      "type": "function"
    },
    {
      "inputs": [],
      "name": "renounceOwnership",
      "outputs": [],
      "stateMutability": "nonpayable",
      "type": "function"
    },
    {
      "inputs": [
        {
          "internalType": "address",
          "name": "token",
          "type": "address"
        },
        {
          "internalType": "uint256",
          "name": "price",
          "type": "uint256"
        },
        {
          "internalType": "uint8",
          "name": "decimals",
          "type": "uint8"
        }
      ],
      "name": "setPrice",
      "outputs": [],
      "stateMutability": "nonpayable",
      "type": "function"
    },
    {
      "inputs": [
        {
          "internalType": "address",
          "name": "newOwner",
          "type": "address"
        }
      ],
      "name": "transferOwnership",
      "outputs": [],
      "stateMutability": "nonpayable",
      "type": "function"
    }
  ],
  "bytecode": "0x608060405234801561001057600080fd5b50604051610a16380380610a16833981810160405281019061003291906101e2565b80600073ffffffffffffffffffffffffffffffffffffffff168173ffffffffffffffffffffffffffffffffffffffff16036100a55760006040517f1e4fbdf700000000000000000000000000000000000000000000000000000000815260040161009c919061021e565b60405180910390fd5b6100b4816100bb60201b60201c565b5050610239565b60008060009054906101000a900473ffffffffffffffffffffffffffffffffffffffff169050816000806101000a81548173ffffffffffffffffffffffffffffffffffffffff021916908373ffffffffffffffffffffffffffffffffffffffff1602179055508173ffffffffffffffffffffffffffffffffffffffff168173ffffffffffffffffffffffffffffffffffffffff167f8be0079c531659141344cd1fd0a4f28419497f9722a3daafe3b4186f6b6457e060405160405180910390a35050565b600080fd5b600073ffffffffffffffffffffffffffffffffffffffff82169050919050565b60006101af82610184565b9050919050565b6101bf816101a4565b81146101ca57600080fd5b50565b6000815190506101dc816101b6565b92915050565b6000602082840312156101f8576101f761017f565b5b6000610206848285016101cd565b91505092915050565b610218816101a4565b82525050565b6000602082019050610233600083018461020f565b92915050565b6107ce806102486000396000f3fe608060405234801561001057600080fd5b50600436106100625760003560e01c806341976e09146100675780635112047414610098578063715018a6146100b45780638da5cb5b146100be578063c4164cd4146100dc578063f2fde38b1461010c575b600080fd5b610081600480360381019061007c9190610602565b610128565b60405161008f929190610664565b60405180910390f35b6100b260048036038101906100ad91906106e5565b6101f2565b005b6100bc61033a565b005b6100c661034e565b6040516100d39190610747565b60405180910390f35b6100f660048036038101906100f19190610602565b610377565b604051610103919061077d565b60405180910390f35b61012660048036038101906101219190610602565b6103c6565b005b6000806000600160008573ffffffffffffffffffffffffffffffffffffffff1673ffffffffffffffffffffffffffffffffffffffff168152602001908152602001600020604051806040016040529081600082015481526020016001820160009054906101000a900460ff1660ff1660ff1681525050905060008160000151036101de576040517f27515afa00000000000000000000000000000000000000000000000000000000815260040160405180910390fd5b806000015181602001519250925050915091565b6101fa61044c565b600073ffffffffffffffffffffffffffffffffffffffff168373ffffffffffffffffffffffffffffffffffffffff1603610260576040517fd92e233d00000000000000000000000000000000000000000000000000000000815260040160405180910390fd5b60405180604001604052808381526020018260ff16815250600160008573ffffffffffffffffffffffffffffffffffffffff1673ffffffffffffffffffffffffffffffffffffffff1681526020019081526020016000206000820151816000015560208201518160010160006101000a81548160ff021916908360ff1602179055509050508273ffffffffffffffffffffffffffffffffffffffff167f5603ea3ce24518cf423f481e3653abd893420fe310ebd9991d46488bb1559ec1838360405161032d929190610664565b60405180910390a2505050565b61034261044c565b61034c60006104d3565b565b60008060009054906101000a900473ffffffffffffffffffffffffffffffffffffffff16905090565b600080600160008473ffffffffffffffffffffffffffffffffffffffff1673ffffffffffffffffffffffffffffffffffffffff1681526020019081526020016000206000015414159050919050565b6103ce61044c565b600073ffffffffffffffffffffffffffffffffffffffff168173ffffffffffffffffffffffffffffffffffffffff16036104405760006040517f1e4fbdf70000000000000000000000000000000000000000000000000000000081526004016104379190610747565b60405180910390fd5b610449816104d3565b50565b610454610597565b73ffffffffffffffffffffffffffffffffffffffff1661047261034e565b73ffffffffffffffffffffffffffffffffffffffff16146104d157610495610597565b6040517f118cdaa70000000000000000000000000000000000000000000000000000000081526004016104c89190610747565b60405180910390fd5b565b60008060009054906101000a900473ffffffffffffffffffffffffffffffffffffffff169050816000806101000a81548173ffffffffffffffffffffffffffffffffffffffff021916908373ffffffffffffffffffffffffffffffffffffffff1602179055508173ffffffffffffffffffffffffffffffffffffffff168173ffffffffffffffffffffffffffffffffffffffff167f8be0079c531659141344cd1fd0a4f28419497f9722a3daafe3b4186f6b6457e060405160405180910390a35050565b600033905090565b600080fd5b600073ffffffffffffffffffffffffffffffffffffffff82169050919050565b60006105cf826105a4565b9050919050565b6105df816105c4565b81146105ea57600080fd5b50565b6000813590506105fc816105d6565b92915050565b6000602082840312156106185761061761059f565b5b6000610626848285016105ed565b91505092915050565b6000819050919050565b6106428161062f565b82525050565b600060ff82169050919050565b61065e81610648565b82525050565b60006040820190506106796000830185610639565b6106866020830184610655565b9392505050565b6106968161062f565b81146106a157600080fd5b50565b6000813590506106b38161068d565b92915050565b6106c281610648565b81146106cd57600080fd5b50565b6000813590506106df816106b9565b92915050565b6000806000606084860312156106fe576106fd61059f565b5b600061070c868287016105ed565b935050602061071d868287016106a4565b925050604061072e868287016106d0565b9150509250925092565b610741816105c4565b82525050565b600060208201905061075c6000830184610738565b92915050565b60008115159050919050565b61077781610762565b82525050565b6000602082019050610792600083018461076e565b9291505056fea2646970667358221220621b22694da63430eb704114d6216f60d02b1109d0d592d4236a8c0eaa00937364736f6c634300081c0033",
  "linkReferences": {},
  "deployedLinkReferences": {}
}