{
  "_format": "hh-sol-artifact-1",
  "contractName": "TokenRegistry",
  "sourceName": "contracts/TokenRegistry.sol",
  "abi": [
    {
      "inputs": [],
      "stateMutability": "nonpayable",
      "type": "constructor"
    },
    {
      "inputs": [],
      "name": "InvalidSymbol",
      "type": "error"
    },
    {
      "inputs": [
        {
          "internalType": "address",
          "name": "owner",
          "type": "address"
        }
      ],
      "name": "OwnableInvalidOwner",
      "type": "error"
    },
    {
      "inputs": [
        {
          "internalType": "address",
          "name": "account",
          "type": "address"
        }
      ],
      "name": "OwnableUnauthorizedAccount",
      "type": "error"
    },
    {
      "inputs": [],
      "name": "TokenAlreadyRegistered",
      "type": "error"
    },
    {
      "inputs": [],
      "name": "TokenNotRegistered",
      "type": "error"
    },
    {
      "inputs": [],
      "name": "ZeroAddress",
      "type": "error"
    },
    {
      "anonymous": false,
      "inputs": [
        {
          "indexed": true,
          "internalType": "address",
          "name": "previousOwner",
          "type": "address"
        },
        {
          "indexed": true,
          "internalType": "address",
          "name": "newOwner",
          "type": "address"
        }
      ],
      "name": "OwnershipTransferred",
      "type": "event"
    },
    {
      "anonymous": false,
      "inputs": [
        {
          "indexed": true,
          "internalType": "address",
          "name": "token",
          "type": "address"
        },
        {
          "indexed": false,
          "internalType": "string",
          "name": "symbol",
          "type": "string"
        },
        {
          "indexed": false,
          "internalType": "uint8",
          "name": "decimals",
          "type": "uint8"
        }
      ],
      "name": "TokenRegistered",
      "type": "event"
    },
    {
      "anonymous": false,
      "inputs": [
        {
          "indexed": true,
          "internalType": "address",
          "name": "token",
          "type": "address"
        }
      ],
      "name": "TokenUnregistered",
      "type": "event"
    },
    {
      "inputs": [],
      "name": "getRegisteredTokens",
      "outputs": [
        {
          "components": [
            {
              "internalType": "address",
              "name": "tokenAddress",
              "type": "address"
            },
            {
              "internalType": "string",
              "name": "symbol",
              "type": "string"
            },
            {
              "internalType": "uint8",
              "name": "decimals",
              "type": "uint8"
            },
            {
              "internalType": "bool",
              "name": "isRegistered",
              "type": "bool"
            }
          ],
          "internalType": "struct TokenRegistry.TokenInfo[]",
          "name": "tokens",
          "type": "tuple[]"
        }
      ],
      "stateMutability": "view",
      "type": "function"
    },
    {
      "inputs": [],
      "name": "getTokenCount",
      "outputs": [
        {
          "internalType": "uint256",
          "name": "",
          "type": "uint256"
        }
      ],
      "stateMutability": "view",
      "type": "function"
    },
    {
      "inputs": [
        {
          "internalType": "address",
          "name": "token",
          "type": "address"
        }
      ],
      "name": "getTokenDecimals",
      "outputs": [
        {
          "internalType": "uint8",
          "name": "",
          "type": "uint8"
        }
      ],
      "stateMutability": "view",
      "type": "function"
    },
    {
      "inputs": [
        {
          "internalType": "address",
          "name": "tokenAddress",
          "type": "address"
        }
      ],
      "name": "isTokenRegistered",
      "outputs": [
        {
          "internalType": "bool",
          "name": "",
          "type": "bool"
        }
      ],
      "stateMutability": "view",
      "type": "function"
    },
    {
      "inputs": [],
      "name": "owner",
      "outputs": [
        {
          "internalType": "address",
          "name": "",
          "type": "address"
        }
      ],
      "stateMutability": "view",
      "type": "function"
    },
    {
      "inputs": [
        {
          "internalType": "address",
          "name": "tokenAddress",
          "type": "address"
        },
        {
          "internalType": "string",
          "name": "symbol",
          "type": "string"
        },
        {
          "internalType": "uint8",
          "name": "decimals",
          "type": "uint8"
        }
      ],
      "name": "registerToken",
      "outputs": [],
      "stateMutability": "nonpayable",
      "type": "function"
    },
    {
      "inputs": [
        {
          "internalType": "address",
          "name": "",
          "type": "address"
        }
      ],
      "name": "registeredTokens",
      "outputs": [
        {
          "internalType": "address",
          "name": "tokenAddress",
          "type": "address"
        },
        {
          "internalType": "string",
          "name": "symbol",
          "type": "string"
        },
        {
          "internalType": "uint8",
          "name": "decimals",
          "type": "uint8"
        },
        {
          "internalType": "bool",
          "name": "isRegistered",
          "type": "bool"
        }
      ],
      "stateMutability": "view",
      "type": "function"
    },
    {
      "inputs": [],
      "name": "renounceOwnership",
      "outputs": [],
      "stateMutability": "nonpayable",
      "type": "function"
    },
    {
      "inputs": [
        {
          "internalType": "address",
          "name": "token",
          "type": "address"
        },
        {
          "internalType": "bool",
          "name": "active",
          "type": "bool"
        }
      ],
      "name": "setTokenActive",
      "outputs": [],
      "stateMutability": "nonpayable",
      "type": "function"
    },
    {
      "inputs": [
        {
          "internalType": "uint256",
          "name": "",
          "type": "uint256"
        }
      ],
      "name": "tokenAddresses",
      "outputs": [
        {
          "internalType": "address",
          "name": "",
          "type": "address"
        }
      ],
      "stateMutability": "view",
      "type": "function"
    },
    {
      "inputs": [
        {
          "internalType": "address",
          "name": "newOwner",
          "type": "address"
        }
      ],
      "name": "transferOwnership",
      "outputs": [],
      "stateMutability": "nonpayable",
      "type": "function"
    },
    {
      "inputs": [
        {
          "internalType": "address",
          "name": "tokenAddress",
          "type": "address"
        }
      ],
      "name": "unregisterToken",
      "outputs": [],
      "stateMutability": "nonpayable",
      "type": "function"
    }
  ],
  "bytecode": "0x608060405234801561001057600080fd5b5033600073ffffffffffffffffffffffffffffffffffffffff168173ffffffffffffffffffffffffffffffffffffffff16036100845760006040517f1e4fbdf700000000000000000000000000000000000000000000000000000000815260040161007b919061019e565b60405180910390fd5b6100938161009960201b60201c565b506101b9565b60008060009054906101000a900473ffffffffffffffffffffffffffffffffffffffff169050816000806101000a81548173ffffffffffffffffffffffffffffffffffffffff021916908373ffffffffffffffffffffffffffffffffffffffff1602179055508173ffffffffffffffffffffffffffffffffffffffff168173ffffffffffffffffffffffffffffffffffffffff167f8be0079c531659141344cd1fd0a4f28419497f9722a3daafe3b4186f6b6457e060405160405180910390a35050565b600073ffffffffffffffffffffffffffffffffffffffff82169050919050565b60006101888261015d565b9050919050565b6101988161017d565b82525050565b60006020820190506101b3600083018461018f565b92915050565b611cda806101c86000396000f3fe608060405234801561001057600080fd5b50600436106100b45760003560e01c806378a895671161007157806378a89567146101795780638c0bd916146101975780638da5cb5b146101ca578063e2f1b792146101e8578063e5df8b8414610204578063f2fde38b14610234576100b4565b806314cbd993146100b957806326aa101f146100d7578063457aa3c614610107578063715018a61461012357806377860cdd1461012d578063785c7cf614610149575b600080fd5b6100c1610250565b6040516100ce9190611421565b60405180910390f35b6100f160048036038101906100ec9190611483565b6105bd565b6040516100fe91906114bf565b60405180910390f35b610121600480360381019061011c919061163b565b610616565b005b61012b61091b565b005b61014760048036038101906101429190611483565b61092f565b005b610163600480360381019061015e9190611483565b610be5565b60405161017091906116b9565b60405180910390f35b610181610cc4565b60405161018e91906116ed565b60405180910390f35b6101b160048036038101906101ac9190611483565b610d92565b6040516101c19493929190611761565b60405180910390f35b6101d2610e84565b6040516101df91906117ad565b60405180910390f35b61020260048036038101906101fd91906117f4565b610ead565b005b61021e60048036038101906102199190611860565b610f99565b60405161022b91906117ad565b60405180910390f35b61024e60048036038101906102499190611483565b610fd8565b005b60606000805b60028054905081101561031257600160006002838154811061027b5761027a61188d565b5b9060005260206000200160009054906101000a900473ffffffffffffffffffffffffffffffffffffffff1673ffffffffffffffffffffffffffffffffffffffff1673ffffffffffffffffffffffffffffffffffffffff16815260200190815260200160002060020160019054906101000a900460ff1615610305578180610301906118eb565b9250505b8080600101915050610256565b508067ffffffffffffffff81111561032d5761032c6114e4565b5b60405190808252806020026020018201604052801561036657816020015b6103536111b1565b81526020019060019003908161034b5790505b5091506000805b6002805490508110156105b7576000600282815481106103905761038f61188d565b5b9060005260206000200160009054906101000a900473ffffffffffffffffffffffffffffffffffffffff169050600160008273ffffffffffffffffffffffffffffffffffffffff1673ffffffffffffffffffffffffffffffffffffffff16815260200190815260200160002060020160019054906101000a900460ff16156105a957600160008273ffffffffffffffffffffffffffffffffffffffff1673ffffffffffffffffffffffffffffffffffffffff1681526020019081526020016000206040518060800160405290816000820160009054906101000a900473ffffffffffffffffffffffffffffffffffffffff1673ffffffffffffffffffffffffffffffffffffffff1673ffffffffffffffffffffffffffffffffffffffff1681526020016001820180546104c290611962565b80601f01602080910402602001604051908101604052809291908181526020018280546104ee90611962565b801561053b5780601f106105105761010080835404028352916020019161053b565b820191906000526020600020905b81548152906001019060200180831161051e57829003601f168201915b505050505081526020016002820160009054906101000a900460ff1660ff1660ff1681526020016002820160019054906101000a900460ff16151515158152505085848151811061058f5761058e61188d565b5b602002602001018190525082806105a5906118eb565b9350505b50808060010191505061036d565b50505090565b6000600160008373ffffffffffffffffffffffffffffffffffffffff1673ffffffffffffffffffffffffffffffffffffffff16815260200190815260200160002060020160019054906101000a900460ff169050919050565b61061e61105e565b600073ffffffffffffffffffffffffffffffffffffffff168373ffffffffffffffffffffffffffffffffffffffff1603610684576040517fd92e233d00000000000000000000000000000000000000000000000000000000815260040160405180910390fd5b60008251036106bf576040517f04119bc400000000000000000000000000000000000000000000000000000000815260040160405180910390fd5b600160008473ffffffffffffffffffffffffffffffffffffffff1673ffffffffffffffffffffffffffffffffffffffff16815260200190815260200160002060020160019054906101000a900460ff1615610746576040517f7d4fffb200000000000000000000000000000000000000000000000000000000815260040160405180910390fd5b60405180608001604052808473ffffffffffffffffffffffffffffffffffffffff1681526020018381526020018260ff16815260200160011515815250600160008573ffffffffffffffffffffffffffffffffffffffff1673ffffffffffffffffffffffffffffffffffffffff16815260200190815260200160002060008201518160000160006101000a81548173ffffffffffffffffffffffffffffffffffffffff021916908373ffffffffffffffffffffffffffffffffffffffff160217905550602082015181600101908161081e9190611b3f565b5060408201518160020160006101000a81548160ff021916908360ff16021790555060608201518160020160016101000a81548160ff0219169083151502179055509050506002839080600181540180825580915050600190039060005260206000200160009091909190916101000a81548173ffffffffffffffffffffffffffffffffffffffff021916908373ffffffffffffffffffffffffffffffffffffffff1602179055508273ffffffffffffffffffffffffffffffffffffffff167fcf66acda7673c71cd9458c59067eb30a473eeaf2fa05d008acf47616cbbbe01c838360405161090e929190611c11565b60405180910390a2505050565b61092361105e565b61092d60006110e5565b565b61093761105e565b600160008273ffffffffffffffffffffffffffffffffffffffff1673ffffffffffffffffffffffffffffffffffffffff16815260200190815260200160002060020160019054906101000a900460ff166109bd576040517f259ba1ad00000000000000000000000000000000000000000000000000000000815260040160405180910390fd5b6000600160008373ffffffffffffffffffffffffffffffffffffffff1673ffffffffffffffffffffffffffffffffffffffff16815260200190815260200160002060020160016101000a81548160ff02191690831515021790555060005b600280549050811015610b9e578173ffffffffffffffffffffffffffffffffffffffff1660028281548110610a5357610a5261188d565b5b9060005260206000200160009054906101000a900473ffffffffffffffffffffffffffffffffffffffff1673ffffffffffffffffffffffffffffffffffffffff1603610b915760026001600280549050610aad9190611c41565b81548110610abe57610abd61188d565b5b9060005260206000200160009054906101000a900473ffffffffffffffffffffffffffffffffffffffff1660028281548110610afd57610afc61188d565b5b9060005260206000200160006101000a81548173ffffffffffffffffffffffffffffffffffffffff021916908373ffffffffffffffffffffffffffffffffffffffff1602179055506002805480610b5757610b56611c75565b5b6001900381819060005260206000200160006101000a81549073ffffffffffffffffffffffffffffffffffffffff02191690559055610b9e565b8080600101915050610a1b565b508073ffffffffffffffffffffffffffffffffffffffff167fb02d270f645215800cec778b856004c753ad0c8c6ca520a91a8399acf4c63d4b60405160405180910390a250565b6000600160008373ffffffffffffffffffffffffffffffffffffffff1673ffffffffffffffffffffffffffffffffffffffff16815260200190815260200160002060020160019054906101000a900460ff16610c6d576040517f259ba1ad00000000000000000000000000000000000000000000000000000000815260040160405180910390fd5b600160008373ffffffffffffffffffffffffffffffffffffffff1673ffffffffffffffffffffffffffffffffffffffff16815260200190815260200160002060020160009054906101000a900460ff169050919050565b6000806000905060005b600280549050811015610d8a576001600060028381548110610cf357610cf261188d565b5b9060005260206000200160009054906101000a900473ffffffffffffffffffffffffffffffffffffffff1673ffffffffffffffffffffffffffffffffffffffff1673ffffffffffffffffffffffffffffffffffffffff16815260200190815260200160002060020160019054906101000a900460ff1615610d7d578180610d79906118eb565b9250505b8080600101915050610cce565b508091505090565b60016020528060005260406000206000915090508060000160009054906101000a900473ffffffffffffffffffffffffffffffffffffffff1690806001018054610ddb90611962565b80601f0160208091040260200160405190810160405280929190818152602001828054610e0790611962565b8015610e545780601f10610e2957610100808354040283529160200191610e54565b820191906000526020600020905b815481529060010190602001808311610e3757829003601f168201915b5050505050908060020160009054906101000a900460ff16908060020160019054906101000a900460ff16905084565b60008060009054906101000a900473ffffffffffffffffffffffffffffffffffffffff16905090565b610eb561105e565b600160008373ffffffffffffffffffffffffffffffffffffffff1673ffffffffffffffffffffffffffffffffffffffff16815260200190815260200160002060020160019054906101000a900460ff16610f3b576040517f259ba1ad00000000000000000000000000000000000000000000000000000000815260040160405180910390fd5b80600160008473ffffffffffffffffffffffffffffffffffffffff1673ffffffffffffffffffffffffffffffffffffffff16815260200190815260200160002060020160016101000a81548160ff0219169083151502179055505050565b60028181548110610fa957600080fd5b906000526020600020016000915054906101000a900473ffffffffffffffffffffffffffffffffffffffff1681565b610fe061105e565b600073ffffffffffffffffffffffffffffffffffffffff168173ffffffffffffffffffffffffffffffffffffffff16036110525760006040517f1e4fbdf700000000000000000000000000000000000000000000000000000000815260040161104991906117ad565b60405180910390fd5b61105b816110e5565b50565b6110666111a9565b73ffffffffffffffffffffffffffffffffffffffff16611084610e84565b73ffffffffffffffffffffffffffffffffffffffff16146110e3576110a76111a9565b6040517f118cdaa70000000000000000000000000000000000000000000000000000000081526004016110da91906117ad565b60405180910390fd5b565b60008060009054906101000a900473ffffffffffffffffffffffffffffffffffffffff169050816000806101000a81548173ffffffffffffffffffffffffffffffffffffffff021916908373ffffffffffffffffffffffffffffffffffffffff1602179055508173ffffffffffffffffffffffffffffffffffffffff168173ffffffffffffffffffffffffffffffffffffffff167f8be0079c531659141344cd1fd0a4f28419497f9722a3daafe3b4186f6b6457e060405160405180910390a35050565b600033905090565b6040518060800160405280600073ffffffffffffffffffffffffffffffffffffffff16815260200160608152602001600060ff1681526020016000151581525090565b600081519050919050565b600082825260208201905092915050565b6000819050602082019050919050565b600073ffffffffffffffffffffffffffffffffffffffff82169050919050565b600061124b82611220565b9050919050565b61125b81611240565b82525050565b600081519050919050565b600082825260208201905092915050565b60005b8381101561129b578082015181840152602081019050611280565b60008484015250505050565b6000601f19601f8301169050919050565b60006112c382611261565b6112cd818561126c565b93506112dd81856020860161127d565b6112e6816112a7565b840191505092915050565b600060ff82169050919050565b611307816112f1565b82525050565b60008115159050919050565b6113228161130d565b82525050565b60006080830160008301516113406000860182611252565b506020830151848203602086015261135882826112b8565b915050604083015161136d60408601826112fe565b5060608301516113806060860182611319565b508091505092915050565b60006113978383611328565b905092915050565b6000602082019050919050565b60006113b7826111f4565b6113c181856111ff565b9350836020820285016113d385611210565b8060005b8581101561140f57848403895281516113f0858261138b565b94506113fb8361139f565b925060208a019950506001810190506113d7565b50829750879550505050505092915050565b6000602082019050818103600083015261143b81846113ac565b905092915050565b6000604051905090565b600080fd5b600080fd5b61146081611240565b811461146b57600080fd5b50565b60008135905061147d81611457565b92915050565b6000602082840312156114995761149861144d565b5b60006114a78482850161146e565b91505092915050565b6114b98161130d565b82525050565b60006020820190506114d460008301846114b0565b92915050565b600080fd5b600080fd5b7f4e487b7100000000000000000000000000000000000000000000000000000000600052604160045260246000fd5b61151c826112a7565b810181811067ffffffffffffffff8211171561153b5761153a6114e4565b5b80604052505050565b600061154e611443565b905061155a8282611513565b919050565b600067ffffffffffffffff82111561157a576115796114e4565b5b611583826112a7565b9050602081019050919050565b82818337600083830152505050565b60006115b26115ad8461155f565b611544565b9050828152602081018484840111156115ce576115cd6114df565b5b6115d9848285611590565b509392505050565b600082601f8301126115f6576115f56114da565b5b813561160684826020860161159f565b91505092915050565b611618816112f1565b811461162357600080fd5b50565b6000813590506116358161160f565b92915050565b6000806000606084860312156116545761165361144d565b5b60006116628682870161146e565b935050602084013567ffffffffffffffff81111561168357611682611452565b5b61168f868287016115e1565b92505060406116a086828701611626565b9150509250925092565b6116b3816112f1565b82525050565b60006020820190506116ce60008301846116aa565b92915050565b6000819050919050565b6116e7816116d4565b82525050565b600060208201905061170260008301846116de565b92915050565b61171181611240565b82525050565b600082825260208201905092915050565b600061173382611261565b61173d8185611717565b935061174d81856020860161127d565b611756816112a7565b840191505092915050565b60006080820190506117766000830187611708565b81810360208301526117888186611728565b905061179760408301856116aa565b6117a460608301846114b0565b95945050505050565b60006020820190506117c26000830184611708565b92915050565b6117d18161130d565b81146117dc57600080fd5b50565b6000813590506117ee816117c8565b92915050565b6000806040838503121561180b5761180a61144d565b5b60006118198582860161146e565b925050602061182a858286016117df565b9150509250929050565b61183d816116d4565b811461184857600080fd5b50565b60008135905061185a81611834565b92915050565b6000602082840312156118765761187561144d565b5b60006118848482850161184b565b91505092915050565b7f4e487b7100000000000000000000000000000000000000000000000000000000600052603260045260246000fd5b7f4e487b7100000000000000000000000000000000000000000000000000000000600052601160045260246000fd5b60006118f6826116d4565b91507fffffffffffffffffffffffffffffffffffffffffffffffffffffffffffffffff8203611928576119276118bc565b5b600182019050919050565b7f4e487b7100000000000000000000000000000000000000000000000000000000600052602260045260246000fd5b6000600282049050600182168061197a57607f821691505b60208210810361198d5761198c611933565b5b50919050565b60008190508160005260206000209050919050565b60006020601f8301049050919050565b600082821b905092915050565b6000600883026119f57fffffffffffffffffffffffffffffffffffffffffffffffffffffffffffffffff826119b8565b6119ff86836119b8565b95508019841693508086168417925050509392505050565b6000819050919050565b6000611a3c611a37611a32846116d4565b611a17565b6116d4565b9050919050565b6000819050919050565b611a5683611a21565b611a6a611a6282611a43565b8484546119c5565b825550505050565b600090565b611a7f611a72565b611a8a818484611a4d565b505050565b5b81811015611aae57611aa3600082611a77565b600181019050611a90565b5050565b601f821115611af357611ac481611993565b611acd846119a8565b81016020851015611adc578190505b611af0611ae8856119a8565b830182611a8f565b50505b505050565b600082821c905092915050565b6000611b1660001984600802611af8565b1980831691505092915050565b6000611b2f8383611b05565b9150826002028217905092915050565b611b4882611261565b67ffffffffffffffff811115611b6157611b606114e4565b5b611b6b8254611962565b611b76828285611ab2565b600060209050601f831160018114611ba95760008415611b97578287015190505b611ba18582611b23565b865550611c09565b601f198416611bb786611993565b60005b82811015611bdf57848901518255600182019150602085019450602081019050611bba565b86831015611bfc5784890151611bf8601f891682611b05565b8355505b6001600288020188555050505b505050505050565b60006040820190508181036000830152611c2b8185611728565b9050611c3a60208301846116aa565b9392505050565b6000611c4c826116d4565b9150611c57836116d4565b9250828203905081811115611c6f57611c6e6118bc565b5b92915050565b7f4e487b7100000000000000000000000000000000000000000000000000000000600052603160045260246000fdfea2646970667358221220538b133342010f759ceb29ecb35e9f537daeb9a400e05cac9c9d46ec66e9a18564736f6c634300081c0033",
  "linkReferences": {},
  "deployedLinkReferences": {}
}