{
  "_format": "hh-sol-artifact-1",
  "contractName": "Vault",
  "sourceName": "contracts/Vault.sol",
  "abi": [
    {
      "inputs": [
        {
          "internalType": "contract IERC20",
          "name": "asset_",
          "type": "address"
        },
        {
          "internalType": "string",
          "name": "label",
          "type": "string"
        },
        {
          "internalType": "address",
          "name": "treasury_",
          "type": "address"
        },
        {
          "internalType": "contract TokenRegistry",
          "name": "registry_",
          "type": "address"
        },
        {
          "internalType": "contract IPriceOracle",
          "name": "oracle_",
          "type": "address"
        }
      ],
      "stateMutability": "nonpayable",
      "type": "constructor"
    },
    {
      "inputs": [],
      "name": "AccessControlBadConfirmation",
      "type": "error"
    },
    {
      "inputs": [
        {
          "internalType": "address",
          "name": "account",
          "type": "address"
        },
        {
          "internalType": "bytes32",
          "name": "neededRole",
          "type": "bytes32"
        }
      ],
      "name": "AccessControlUnauthorizedAccount",
      "type": "error"
    },
    {
      "inputs": [
        {
          "internalType": "address",
          "name": "spender",
          "type": "address"
        },
        {
          "internalType": "uint256",
          "name": "allowance",
          "type": "uint256"
        },
        {
          "internalType": "uint256",
          "name": "needed",
          "type": "uint256"
        }
      ],
      "name": "ERC20InsufficientAllowance",
      "type": "error"
    },
    {
      "inputs": [
        {
          "internalType": "address",
          "name": "sender",
          "type": "address"
        },
        {
          "internalType": "uint256",
          "name": "balance",
          "type": "uint256"
        },
        {
          "internalType": "uint256",
          "name": "needed",
          "type": "uint256"
        }
      ],
      "name": "ERC20InsufficientBalance",
      "type": "error"
    },
    {
      "inputs": [
        {
          "internalType": "address",
          "name": "approver",
          "type": "address"
        }
      ],
      "name": "ERC20InvalidApprover",
      "type": "error"
    },
    {
      "inputs": [
        {
          "internalType": "address",
          "name": "receiver",
          "type": "address"
        }
      ],
      "name": "ERC20InvalidReceiver",
      "type": "error"
    },
    {
      "inputs": [
        {
          "internalType": "address",
          "name": "sender",
          "type": "address"
        }
      ],
      "name": "ERC20InvalidSender",
      "type": "error"
    },
    {
      "inputs": [
        {
          "internalType": "address",
          "name": "spender",
          "type": "address"
        }
      ],
      "name": "ERC20InvalidSpender",
      "type": "error"
    },
    {
      "inputs": [
        {
          "internalType": "address",
          "name": "receiver",
          "type": "address"
        },
        {
          "internalType": "uint256",
          "name": "assets",
          "type": "uint256"
        },
        {
          "internalType": "uint256",
          "name": "max",
          "type": "uint256"
        }
      ],
      "name": "ERC4626ExceededMaxDeposit",
      "type": "error"
    },
    {
      "inputs": [
        {
          "internalType": "address",
          "name": "receiver",
          "type": "address"
        },
        {
          "internalType": "uint256",
          "name": "shares",
          "type": "uint256"
        },
        {
          "internalType": "uint256",
          "name": "max",
          "type": "uint256"
        }
      ],
      "name": "ERC4626ExceededMaxMint",
      "type": "error"
    },
    {
      "inputs": [
        {
          "internalType": "address",
          "name": "owner",
          "type": "address"
        },
        {
          "internalType": "uint256",
          "name": "shares",
          "type": "uint256"
        },
        {
          "internalType": "uint256",
          "name": "max",
          "type": "uint256"
        }
      ],
      "name": "ERC4626ExceededMaxRedeem",
      "type": "error"
    },
    {
      "inputs": [
        {
          "internalType": "address",
          "name": "owner",
          "type": "address"
        },
        {
          "internalType": "uint256",
          "name": "assets",
          "type": "uint256"
        },
        {
          "internalType": "uint256",
          "name": "max",
          "type": "uint256"
        }
      ],
      "name": "ERC4626ExceededMaxWithdraw",
      "type": "error"
    },
    {
      "inputs": [],
      "name": "EnforcedPause",
      "type": "error"
    },
    {
      "inputs": [],
      "name": "EtherNotAccepted",
      "type": "error"
    },
    {
      "inputs": [],
      "name": "ExpectedPause",
      "type": "error"
    },
    {
      "inputs": [],
      "name": "InvalidAmount",
      "type": "error"
    },
    {
      "inputs": [],
      "name": "InvalidWeightSum",
      "type": "error"
    },
    {
      "inputs": [],
      "name": "ManagementFeeCooldownNotMet",
      "type": "error"
    },
    {
      "inputs": [],
      "name": "ManagementFeeNotConfigured",
      "type": "error"
    },
    {
      "inputs": [
        {
          "internalType": "uint256",
          "name": "min",
          "type": "uint256"
        }
      ],
      "name": "MinimumDepositNotMet",
      "type": "error"
    },
    {
      "inputs": [
        {
          "internalType": "uint256",
          "name": "min",
          "type": "uint256"
        }
      ],
      "name": "MinimumRedeemNotMet",
      "type": "error"
    },
    {
      "inputs": [
        {
          "internalType": "uint256",
          "name": "min",
          "type": "uint256"
        }
      ],
      "name": "MinimumWithdrawNotMet",
      "type": "error"
    },
    {
      "inputs": [],
      "name": "Pausable__Paused",
      "type": "error"
    },
    {
      "inputs": [],
      "name": "ReentrancyGuardReentrantCall",
      "type": "error"
    },
    {
      "inputs": [
        {
          "internalType": "address",
          "name": "token",
          "type": "address"
        }
      ],
      "name": "SafeERC20FailedOperation",
      "type": "error"
    },
    {
      "inputs": [],
      "name": "TokenNotRegistered",
      "type": "error"
    },
    {
      "inputs": [],
      "name": "VaultAlreadyBootstrapped",
      "type": "error"
    },
    {
      "inputs": [],
      "name": "ZeroAddress",
      "type": "error"
    },
    {
      "anonymous": false,
      "inputs": [
        {
          "indexed": true,
          "internalType": "address",
          "name": "token",
          "type": "address"
        },
        {
          "indexed": false,
          "internalType": "uint256",
          "name": "amount",
          "type": "uint256"
        }
      ],
      "name": "Allocated",
      "type": "event"
    },
    {
      "anonymous": false,
      "inputs": [
        {
          "indexed": true,
          "internalType": "address",
          "name": "admin",
          "type": "address"
        }
      ],
      "name": "AllocationsUpdated",
      "type": "event"
    },
    {
      "anonymous": false,
      "inputs": [
        {
          "indexed": true,
          "internalType": "address",
          "name": "owner",
          "type": "address"
        },
        {
          "indexed": true,
          "internalType": "address",
          "name": "spender",
          "type": "address"
        },
        {
          "indexed": false,
          "internalType": "uint256",
          "name": "value",
          "type": "uint256"
        }
      ],
      "name": "Approval",
      "type": "event"
    },
    {
      "anonymous": false,
      "inputs": [
        {
          "indexed": true,
          "internalType": "address",
          "name": "sender",
          "type": "address"
        },
        {
          "indexed": true,
          "internalType": "address",
          "name": "owner",
          "type": "address"
        },
        {
          "indexed": false,
          "internalType": "uint256",
          "name": "assets",
          "type": "uint256"
        },
        {
          "indexed": false,
          "internalType": "uint256",
          "name": "shares",
          "type": "uint256"
        }
      ],
      "name": "Deposit",
      "type": "event"
    },
    {
      "anonymous": false,
      "inputs": [
        {
          "indexed": true,
          "internalType": "address",
          "name": "user",
          "type": "address"
        },
        {
          "indexed": false,
          "internalType": "uint256",
          "name": "amount",
          "type": "uint256"
        }
      ],
      "name": "Deposited",
      "type": "event"
    },
    {
      "anonymous": false,
      "inputs": [
        {
          "indexed": true,
          "internalType": "address",
          "name": "user",
          "type": "address"
        },
        {
          "indexed": false,
          "internalType": "uint256",
          "name": "assets",
          "type": "uint256"
        },
        {
          "indexed": false,
          "internalType": "uint256",
          "name": "fee",
          "type": "uint256"
        }
      ],
      "name": "ExitFeeApplied",
      "type": "event"
    },
    {
      "anonymous": false,
      "inputs": [
        {
          "indexed": false,
          "internalType": "uint256",
          "name": "exitFeeBps",
          "type": "uint256"
        },
        {
          "indexed": false,
          "internalType": "uint256",
          "name": "managementFeeBps",
          "type": "uint256"
        }
      ],
      "name": "FeesUpdated",
      "type": "event"
    },
    {
      "anonymous": false,
      "inputs": [
        {
          "indexed": true,
          "internalType": "address",
          "name": "receiver",
          "type": "address"
        },
        {
          "indexed": false,
          "internalType": "uint256",
          "name": "shares",
          "type": "uint256"
        }
      ],
      "name": "ManagementFeeAccrued",
      "type": "event"
    },
    {
      "anonymous": false,
      "inputs": [
        {
          "indexed": false,
          "internalType": "uint256",
          "name": "timestamp",
          "type": "uint256"
        },
        {
          "indexed": false,
          "internalType": "uint256",
          "name": "shares",
          "type": "uint256"
        },
        {
          "indexed": false,
          "internalType": "uint256",
          "name": "totalSupply",
          "type": "uint256"
        }
      ],
      "name": "ManagementFeeScheduled",
      "type": "event"
    },
    {
      "anonymous": false,
      "inputs": [
        {
          "indexed": false,
          "internalType": "address",
          "name": "account",
          "type": "address"
        }
      ],
      "name": "Paused",
      "type": "event"
    },
    {
      "anonymous": false,
      "inputs": [
        {
          "indexed": true,
          "internalType": "bytes32",
          "name": "role",
          "type": "bytes32"
        },
        {
          "indexed": true,
          "internalType": "bytes32",
          "name": "previousAdminRole",
          "type": "bytes32"
        },
        {
          "indexed": true,
          "internalType": "bytes32",
          "name": "newAdminRole",
          "type": "bytes32"
        }
      ],
      "name": "RoleAdminChanged",
      "type": "event"
    },
    {
      "anonymous": false,
      "inputs": [
        {
          "indexed": true,
          "internalType": "bytes32",
          "name": "role",
          "type": "bytes32"
        },
        {
          "indexed": true,
          "internalType": "address",
          "name": "account",
          "type": "address"
        },
        {
          "indexed": true,
          "internalType": "address",
          "name": "sender",
          "type": "address"
        }
      ],
      "name": "RoleGranted",
      "type": "event"
    },
    {
      "anonymous": false,
      "inputs": [
        {
          "indexed": true,
          "internalType": "bytes32",
          "name": "role",
          "type": "bytes32"
        },
        {
          "indexed": true,
          "internalType": "address",
          "name": "account",
          "type": "address"
        },
        {
          "indexed": true,
          "internalType": "address",
          "name": "sender",
          "type": "address"
        }
      ],
      "name": "RoleRevoked",
      "type": "event"
    },
    {
      "anonymous": false,
      "inputs": [
        {
          "indexed": true,
          "internalType": "address",
          "name": "from",
          "type": "address"
        },
        {
          "indexed": true,
          "internalType": "address",
          "name": "to",
          "type": "address"
        },
        {
          "indexed": false,
          "internalType": "uint256",
          "name": "value",
          "type": "uint256"
        }
      ],
      "name": "Transfer",
      "type": "event"
    },
    {
      "anonymous": false,
      "inputs": [
        {
          "indexed": true,
          "internalType": "address",
          "name": "to",
          "type": "address"
        },
        {
          "indexed": false,
          "internalType": "uint256",
          "name": "amount",
          "type": "uint256"
        }
      ],
      "name": "TreasuryWithdrawn",
      "type": "event"
    },
    {
      "anonymous": false,
      "inputs": [
        {
          "indexed": false,
          "internalType": "address",
          "name": "account",
          "type": "address"
        }
      ],
      "name": "Unpaused",
      "type": "event"
    },
    {
      "anonymous": false,
      "inputs": [
        {
          "indexed": false,
          "internalType": "uint256",
          "name": "assets",
          "type": "uint256"
        },
        {
          "indexed": false,
          "internalType": "uint256",
          "name": "shares",
          "type": "uint256"
        }
      ],
      "name": "VaultBootstrapped",
      "type": "event"
    },
    {
      "anonymous": false,
      "inputs": [
        {
          "indexed": true,
          "internalType": "address",
          "name": "sender",
          "type": "address"
        },
        {
          "indexed": true,
          "internalType": "address",
          "name": "receiver",
          "type": "address"
        },
        {
          "indexed": true,
          "internalType": "address",
          "name": "owner",
          "type": "address"
        },
        {
          "indexed": false,
          "internalType": "uint256",
          "name": "assets",
          "type": "uint256"
        },
        {
          "indexed": false,
          "internalType": "uint256",
          "name": "shares",
          "type": "uint256"
        }
      ],
      "name": "Withdraw",
      "type": "event"
    },
    {
      "anonymous": false,
      "inputs": [
        {
          "indexed": true,
          "internalType": "address",
          "name": "user",
          "type": "address"
        },
        {
          "indexed": true,
          "internalType": "address",
          "name": "receiver",
          "type": "address"
        },
        {
          "indexed": false,
          "internalType": "uint256",
          "name": "assets",
          "type": "uint256"
        }
      ],
      "name": "WithdrawExecuted",
      "type": "event"
    },
    {
      "stateMutability": "payable",
      "type": "fallback"
    },
    {
      "inputs": [],
      "name": "ADMIN_ROLE",
      "outputs": [
        {
          "internalType": "bytes32",
          "name": "",
          "type": "bytes32"
        }
      ],
      "stateMutability": "view",
      "type": "function"
    },
    {
      "inputs": [],
      "name": "DEFAULT_ADMIN_ROLE",
      "outputs": [
        {
          "internalType": "bytes32",
          "name": "",
          "type": "bytes32"
        }
      ],
      "stateMutability": "view",
      "type": "function"
    },
    {
      "inputs": [],
      "name": "MANAGEMENT_FEE_COOLDOWN",
      "outputs": [
        {
          "internalType": "uint256",
          "name": "",
          "type": "uint256"
        }
      ],
      "stateMutability": "view",
      "type": "function"
    },
    {
      "inputs": [],
      "name": "MAX_FEE_BPS",
      "outputs": [
        {
          "internalType": "uint256",
          "name": "",
          "type": "uint256"
        }
      ],
      "stateMutability": "view",
      "type": "function"
    },
    {
      "inputs": [],
      "name": "MINIMUM_AMOUNT",
      "outputs": [
        {
          "internalType": "uint256",
          "name": "",
          "type": "uint256"
        }
      ],
      "stateMutability": "view",
      "type": "function"
    },
    {
      "inputs": [
        {
          "internalType": "uint256",
          "name": "shares",
          "type": "uint256"
        }
      ],
      "name": "accrueManagementFee",
      "outputs": [],
      "stateMutability": "nonpayable",
      "type": "function"
    },
    {
      "inputs": [
        {
          "internalType": "uint256",
          "name": "",
          "type": "uint256"
        }
      ],
      "name": "allocations",
      "outputs": [
        {
          "internalType": "address",
          "name": "token",
          "type": "address"
        },
        {
          "internalType": "uint256",
          "name": "weight",
          "type": "uint256"
        },
        {
          "internalType": "bool",
          "name": "active",
          "type": "bool"
        }
      ],
      "stateMutability": "view",
      "type": "function"
    },
    {
      "inputs": [
        {
          "internalType": "address",
          "name": "owner",
          "type": "address"
        },
        {
          "internalType": "address",
          "name": "spender",
          "type": "address"
        }
      ],
      "name": "allowance",
      "outputs": [
        {
          "internalType": "uint256",
          "name": "",
          "type": "uint256"
        }
      ],
      "stateMutability": "view",
      "type": "function"
    },
    {
      "inputs": [
        {
          "internalType": "address",
          "name": "spender",
          "type": "address"
        },
        {
          "internalType": "uint256",
          "name": "value",
          "type": "uint256"
        }
      ],
      "name": "approve",
      "outputs": [
        {
          "internalType": "bool",
          "name": "",
          "type": "bool"
        }
      ],
      "stateMutability": "nonpayable",
      "type": "function"
    },
    {
      "inputs": [],
      "name": "asset",
      "outputs": [
        {
          "internalType": "address",
          "name": "",
          "type": "address"
        }
      ],
      "stateMutability": "view",
      "type": "function"
    },
    {
      "inputs": [
        {
          "internalType": "address",
          "name": "account",
          "type": "address"
        }
      ],
      "name": "balanceOf",
      "outputs": [
        {
          "internalType": "uint256",
          "name": "",
          "type": "uint256"
        }
      ],
      "stateMutability": "view",
      "type": "function"
    },
    {
      "inputs": [],
      "name": "bootstrapVault",
      "outputs": [],
      "stateMutability": "nonpayable",
      "type": "function"
    },
    {
      "inputs": [],
      "name": "calculateManagementFee",
      "outputs": [
        {
          "internalType": "uint256",
          "name": "",
          "type": "uint256"
        }
      ],
      "stateMutability": "view",
      "type": "function"
    },
    {
      "inputs": [
        {
          "internalType": "uint256",
          "name": "shares",
          "type": "uint256"
        }
      ],
      "name": "convertToAssets",
      "outputs": [
        {
          "internalType": "uint256",
          "name": "",
          "type": "uint256"
        }
      ],
      "stateMutability": "view",
      "type": "function"
    },
    {
      "inputs": [
        {
          "internalType": "uint256",
          "name": "assets",
          "type": "uint256"
        }
      ],
      "name": "convertToShares",
      "outputs": [
        {
          "internalType": "uint256",
          "name": "",
          "type": "uint256"
        }
      ],
      "stateMutability": "view",
      "type": "function"
    },
    {
      "inputs": [],
      "name": "decimals",
      "outputs": [
        {
          "internalType": "uint8",
          "name": "",
          "type": "uint8"
        }
      ],
      "stateMutability": "view",
      "type": "function"
    },
    {
      "inputs": [
        {
          "internalType": "uint256",
          "name": "assets",
          "type": "uint256"
        },
        {
          "internalType": "address",
          "name": "receiver",
          "type": "address"
        }
      ],
      "name": "deposit",
      "outputs": [
        {
          "internalType": "uint256",
          "name": "",
          "type": "uint256"
        }
      ],
      "stateMutability": "nonpayable",
      "type": "function"
    },
    {
      "inputs": [],
      "name": "exitFeeBps",
      "outputs": [
        {
          "internalType": "uint256",
          "name": "",
          "type": "uint256"
        }
      ],
      "stateMutability": "view",
      "type": "function"
    },
    {
      "inputs": [],
      "name": "feeReceiver",
      "outputs": [
        {
          "internalType": "address",
          "name": "",
          "type": "address"
        }
      ],
      "stateMutability": "view",
      "type": "function"
    },
    {
      "inputs": [],
      "name": "getAllocations",
      "outputs": [
        {
          "components": [
            {
              "internalType": "address",
              "name": "token",
              "type": "address"
            },
            {
              "internalType": "uint256",
              "name": "weight",
              "type": "uint256"
            },
            {
              "internalType": "bool",
              "name": "active",
              "type": "bool"
            }
          ],
          "internalType": "struct Vault.AssetAllocation[]",
          "name": "",
          "type": "tuple[]"
        }
      ],
      "stateMutability": "view",
      "type": "function"
    },
    {
      "inputs": [
        {
          "internalType": "bytes32",
          "name": "role",
          "type": "bytes32"
        }
      ],
      "name": "getRoleAdmin",
      "outputs": [
        {
          "internalType": "bytes32",
          "name": "",
          "type": "bytes32"
        }
      ],
      "stateMutability": "view",
      "type": "function"
    },
    {
      "inputs": [
        {
          "internalType": "bytes32",
          "name": "role",
          "type": "bytes32"
        },
        {
          "internalType": "address",
          "name": "account",
          "type": "address"
        }
      ],
      "name": "grantRole",
      "outputs": [],
      "stateMutability": "nonpayable",
      "type": "function"
    },
    {
      "inputs": [
        {
          "internalType": "bytes32",
          "name": "role",
          "type": "bytes32"
        },
        {
          "internalType": "address",
          "name": "account",
          "type": "address"
        }
      ],
      "name": "hasRole",
      "outputs": [
        {
          "internalType": "bool",
          "name": "",
          "type": "bool"
        }
      ],
      "stateMutability": "view",
      "type": "function"
    },
    {
      "inputs": [
        {
          "internalType": "address",
          "name": "",
          "type": "address"
        }
      ],
      "name": "isWhitelisted",
      "outputs": [
        {
          "internalType": "bool",
          "name": "",
          "type": "bool"
        }
      ],
      "stateMutability": "view",
      "type": "function"
    },
    {
      "inputs": [],
      "name": "lastManagementFeeTimestamp",
      "outputs": [
        {
          "internalType": "uint256",
          "name": "",
          "type": "uint256"
        }
      ],
      "stateMutability": "view",
      "type": "function"
    },
    {
      "inputs": [],
      "name": "managementFeeBps",
      "outputs": [
        {
          "internalType": "uint256",
          "name": "",
          "type": "uint256"
        }
      ],
      "stateMutability": "view",
      "type": "function"
    },
    {
      "inputs": [
        {
          "internalType": "address",
          "name": "",
          "type": "address"
        }
      ],
      "name": "maxDeposit",
      "outputs": [
        {
          "internalType": "uint256",
          "name": "",
          "type": "uint256"
        }
      ],
      "stateMutability": "view",
      "type": "function"
    },
    {
      "inputs": [
        {
          "internalType": "address",
          "name": "",
          "type": "address"
        }
      ],
      "name": "maxMint",
      "outputs": [
        {
          "internalType": "uint256",
          "name": "",
          "type": "uint256"
        }
      ],
      "stateMutability": "view",
      "type": "function"
    },
    {
      "inputs": [
        {
          "internalType": "address",
          "name": "owner",
          "type": "address"
        }
      ],
      "name": "maxRedeem",
      "outputs": [
        {
          "internalType": "uint256",
          "name": "",
          "type": "uint256"
        }
      ],
      "stateMutability": "view",
      "type": "function"
    },
    {
      "inputs": [
        {
          "internalType": "address",
          "name": "owner",
          "type": "address"
        }
      ],
      "name": "maxWithdraw",
      "outputs": [
        {
          "internalType": "uint256",
          "name": "",
          "type": "uint256"
        }
      ],
      "stateMutability": "view",
      "type": "function"
    },
    {
      "inputs": [
        {
          "internalType": "uint256",
          "name": "shares",
          "type": "uint256"
        },
        {
          "internalType": "address",
          "name": "receiver",
          "type": "address"
        }
      ],
      "name": "mint",
      "outputs": [
        {
          "internalType": "uint256",
          "name": "",
          "type": "uint256"
        }
      ],
      "stateMutability": "nonpayable",
      "type": "function"
    },
    {
      "inputs": [],
      "name": "name",
      "outputs": [
        {
          "internalType": "string",
          "name": "",
          "type": "string"
        }
      ],
      "stateMutability": "view",
      "type": "function"
    },
    {
      "inputs": [],
      "name": "oracle",
      "outputs": [
        {
          "internalType": "contract IPriceOracle",
          "name": "",
          "type": "address"
        }
      ],
      "stateMutability": "view",
      "type": "function"
    },
    {
      "inputs": [],
      "name": "pause",
      "outputs": [],
      "stateMutability": "nonpayable",
      "type": "function"
    },
    {
      "inputs": [],
      "name": "paused",
      "outputs": [
        {
          "internalType": "bool",
          "name": "",
          "type": "bool"
        }
      ],
      "stateMutability": "view",
      "type": "function"
    },
    {
      "inputs": [
        {
          "internalType": "uint256",
          "name": "assets",
          "type": "uint256"
        }
      ],
      "name": "previewDeposit",
      "outputs": [
        {
          "internalType": "uint256",
          "name": "",
          "type": "uint256"
        }
      ],
      "stateMutability": "view",
      "type": "function"
    },
    {
      "inputs": [
        {
          "internalType": "uint256",
          "name": "shares",
          "type": "uint256"
        }
      ],
      "name": "previewMint",
      "outputs": [
        {
          "internalType": "uint256",
          "name": "",
          "type": "uint256"
        }
      ],
      "stateMutability": "view",
      "type": "function"
    },
    {
      "inputs": [
        {
          "internalType": "uint256",
          "name": "shares",
          "type": "uint256"
        }
      ],
      "name": "previewRedeem",
      "outputs": [
        {
          "internalType": "uint256",
          "name": "",
          "type": "uint256"
        }
      ],
      "stateMutability": "view",
      "type": "function"
    },
    {
      "inputs": [
        {
          "internalType": "uint256",
          "name": "assets",
          "type": "uint256"
        }
      ],
      "name": "previewWithdraw",
      "outputs": [
        {
          "internalType": "uint256",
          "name": "",
          "type": "uint256"
        }
      ],
      "stateMutability": "view",
      "type": "function"
    },
    {
      "inputs": [
        {
          "internalType": "uint256",
          "name": "shares",
          "type": "uint256"
        },
        {
          "internalType": "address",
          "name": "receiver",
          "type": "address"
        },
        {
          "internalType": "address",
          "name": "owner",
          "type": "address"
        }
      ],
      "name": "redeem",
      "outputs": [
        {
          "internalType": "uint256",
          "name": "",
          "type": "uint256"
        }
      ],
      "stateMutability": "nonpayable",
      "type": "function"
    },
    {
      "inputs": [],
      "name": "registry",
      "outputs": [
        {
          "internalType": "contract TokenRegistry",
          "name": "",
          "type": "address"
        }
      ],
      "stateMutability": "view",
      "type": "function"
    },
    {
      "inputs": [
        {
          "internalType": "bytes32",
          "name": "role",
          "type": "bytes32"
        },
        {
          "internalType": "address",
          "name": "callerConfirmation",
          "type": "address"
        }
      ],
      "name": "renounceRole",
      "outputs": [],
      "stateMutability": "nonpayable",
      "type": "function"
    },
    {
      "inputs": [
        {
          "internalType": "bytes32",
          "name": "role",
          "type": "bytes32"
        },
        {
          "internalType": "address",
          "name": "account",
          "type": "address"
        }
      ],
      "name": "revokeRole",
      "outputs": [],
      "stateMutability": "nonpayable",
      "type": "function"
    },
    {
      "inputs": [],
      "name": "scheduleManagementFee",
      "outputs": [],
      "stateMutability": "nonpayable",
      "type": "function"
    },
    {
      "inputs": [
        {
          "internalType": "address",
          "name": "_addr",
          "type": "address"
        },
        {
          "internalType": "bool",
          "name": "_status",
          "type": "bool"
        }
      ],
      "name": "setAdmin",
      "outputs": [],
      "stateMutability": "nonpayable",
      "type": "function"
    },
    {
      "inputs": [
        {
          "components": [
            {
              "internalType": "address",
              "name": "token",
              "type": "address"
            },
            {
              "internalType": "uint256",
              "name": "weight",
              "type": "uint256"
            },
            {
              "internalType": "bool",
              "name": "active",
              "type": "bool"
            }
          ],
          "internalType": "struct Vault.AssetAllocation[]",
          "name": "newAllocations",
          "type": "tuple[]"
        }
      ],
      "name": "setAllocations",
      "outputs": [],
      "stateMutability": "nonpayable",
      "type": "function"
    },
    {
      "inputs": [
        {
          "internalType": "address",
          "name": "newReceiver",
          "type": "address"
        }
      ],
      "name": "setFeeReceiver",
      "outputs": [],
      "stateMutability": "nonpayable",
      "type": "function"
    },
    {
      "inputs": [
        {
          "internalType": "uint256",
          "name": "_exitFeeBps",
          "type": "uint256"
        },
        {
          "internalType": "uint256",
          "name": "_managementFeeBps",
          "type": "uint256"
        }
      ],
      "name": "setFees",
      "outputs": [],
      "stateMutability": "nonpayable",
      "type": "function"
    },
    {
      "inputs": [
        {
          "internalType": "address",
          "name": "_addr",
          "type": "address"
        },
        {
          "internalType": "bool",
          "name": "_status",
          "type": "bool"
        }
      ],
      "name": "setWhitelisted",
      "outputs": [],
      "stateMutability": "nonpayable",
      "type": "function"
    },
    {
      "inputs": [],
      "name": "strategyLabel",
      "outputs": [
        {
          "internalType": "string",
          "name": "",
          "type": "string"
        }
      ],
      "stateMutability": "view",
      "type": "function"
    },
    {
      "inputs": [
        {
          "internalType": "bytes4",
          "name": "interfaceId",
          "type": "bytes4"
        }
      ],
      "name": "supportsInterface",
      "outputs": [
        {
          "internalType": "bool",
          "name": "",
          "type": "bool"
        }
      ],
      "stateMutability": "view",
      "type": "function"
    },
    {
      "inputs": [],
      "name": "symbol",
      "outputs": [
        {
          "internalType": "string",
          "name": "",
          "type": "string"
        }
      ],
      "stateMutability": "view",
      "type": "function"
    },
    {
      "inputs": [],
      "name": "totalAssets",
      "outputs": [
        {
          "internalType": "uint256",
          "name": "",
          "type": "uint256"
        }
      ],
      "stateMutability": "view",
      "type": "function"
    },
    {
      "inputs": [],
      "name": "totalSupply",
      "outputs": [
        {
          "internalType": "uint256",
          "name": "",
          "type": "uint256"
        }
      ],
      "stateMutability": "view",
      "type": "function"
    },
    {
      "inputs": [
        {
          "internalType": "address",
          "name": "to",
          "type": "address"
        },
        {
          "internalType": "uint256",
          "name": "value",
          "type": "uint256"
        }
      ],
      "name": "transfer",
      "outputs": [
        {
          "internalType": "bool",
          "name": "",
          "type": "bool"
        }
      ],
      "stateMutability": "nonpayable",
      "type": "function"
    },
    {
      "inputs": [
        {
          "internalType": "address",
          "name": "from",
          "type": "address"
        },
        {
          "internalType": "address",
          "name": "to",
          "type": "address"
        },
        {
          "internalType": "uint256",
          "name": "value",
          "type": "uint256"
        }
      ],
      "name": "transferFrom",
      "outputs": [
        {
          "internalType": "bool",
          "name": "",
          "type": "bool"
        }
      ],
      "stateMutability": "nonpayable",
      "type": "function"
    },
    {
      "inputs": [],
      "name": "treasury",
      "outputs": [
        {
          "internalType": "address",
          "name": "",
          "type": "address"
        }
      ],
      "stateMutability": "view",
      "type": "function"
    },
    {
      "inputs": [],
      "name": "treasuryBalance",
      "outputs": [
        {
          "internalType": "uint256",
          "name": "",
          "type": "uint256"
        }
      ],
      "stateMutability": "view",
      "type": "function"
    },
    {
      "inputs": [],
      "name": "unpause",
      "outputs": [],
      "stateMutability": "nonpayable",
      "type": "function"
    },
    {
      "inputs": [
        {
          "internalType": "uint256",
          "name": "assets",
          "type": "uint256"
        },
        {
          "internalType": "address",
          "name": "receiver",
          "type": "address"
        },
        {
          "internalType": "address",
          "name": "owner",
          "type": "address"
        }
      ],
      "name": "withdraw",
      "outputs": [
        {
          "internalType": "uint256",
          "name": "",
          "type": "uint256"
        }
      ],
      "stateMutability": "nonpayable",
      "type": "function"
    },
    {
      "inputs": [
        {
          "internalType": "address",
          "name": "to",
          "type": "address"
        },
        {
          "internalType": "uint256",
          "name": "amount",
          "type": "uint256"
        }
      ],
      "name": "withdrawTreasury",
      "outputs": [],
      "stateMutability": "nonpayable",
      "type": "function"
    },
    {
      "stateMutability": "payable",
      "type": "receive"
    }
  ],
  "bytecode": "0x61012060405234801561001157600080fd5b50604051616bda380380616bda8339818101604052810190610033919061086e565b846040518060400160405280601381526020017f4b696e6f736869205661756c74205368617265000000000000000000000000008152506040518060400160405280600681526020017f4b4e53485653000000000000000000000000000000000000000000000000000081525081600390816100af9190610b26565b5080600490816100bf9190610b26565b5050506000806100d48361036060201b60201c565b91509150816100e45760126100e6565b805b60ff1660a08160ff16815250508273ffffffffffffffffffffffffffffffffffffffff1660808173ffffffffffffffffffffffffffffffffffffffff16815250505050506001600781905550600073ffffffffffffffffffffffffffffffffffffffff168373ffffffffffffffffffffffffffffffffffffffff1603610198576040517fd92e233d00000000000000000000000000000000000000000000000000000000815260040160405180910390fd5b600073ffffffffffffffffffffffffffffffffffffffff168273ffffffffffffffffffffffffffffffffffffffff16036101fe576040517fd92e233d00000000000000000000000000000000000000000000000000000000815260040160405180910390fd5b600073ffffffffffffffffffffffffffffffffffffffff168173ffffffffffffffffffffffffffffffffffffffff1603610264576040517fd92e233d00000000000000000000000000000000000000000000000000000000815260040160405180910390fd5b83600990816102739190610b26565b508273ffffffffffffffffffffffffffffffffffffffff1660c08173ffffffffffffffffffffffffffffffffffffffff16815250508173ffffffffffffffffffffffffffffffffffffffff1660e08173ffffffffffffffffffffffffffffffffffffffff16815250508073ffffffffffffffffffffffffffffffffffffffff166101008173ffffffffffffffffffffffffffffffffffffffff16815250506103246000801b3361047060201b60201c565b506103557fa49807205ce4d355092ef5a8a18f56e8913cf4a201fbe287825b095693c217753361047060201b60201c565b505050505050610caf565b6000806000808473ffffffffffffffffffffffffffffffffffffffff1660405160240160405160208183030381529060405263313ce56760e01b6020820180517bffffffffffffffffffffffffffffffffffffffffffffffffffffffff83818316178352505050506040516103d59190610c3f565b600060405180830381855afa9150503d8060008114610410576040519150601f19603f3d011682016040523d82523d6000602084013e610415565b606091505b509150915081801561042957506020815110155b15610461576000818060200190518101906104449190610c82565b905060ff8016811161045f576001819450945050505061046b565b505b6000809350935050505b915091565b6000610482838361056e60201b60201c565b6105635760016005600085815260200190815260200160002060000160008473ffffffffffffffffffffffffffffffffffffffff1673ffffffffffffffffffffffffffffffffffffffff16815260200190815260200160002060006101000a81548160ff0219169083151502179055506105006105d960201b60201c565b73ffffffffffffffffffffffffffffffffffffffff168273ffffffffffffffffffffffffffffffffffffffff16847f2f8788117e7eff1d82e926ec794901d17c78024a50270940304540a733656f0d60405160405180910390a460019050610568565b600090505b92915050565b60006005600084815260200190815260200160002060000160008373ffffffffffffffffffffffffffffffffffffffff1673ffffffffffffffffffffffffffffffffffffffff16815260200190815260200160002060009054906101000a900460ff16905092915050565b600033905090565b6000604051905090565b600080fd5b600080fd5b600073ffffffffffffffffffffffffffffffffffffffff82169050919050565b6000610620826105f5565b9050919050565b600061063282610615565b9050919050565b61064281610627565b811461064d57600080fd5b50565b60008151905061065f81610639565b92915050565b600080fd5b600080fd5b6000601f19601f8301169050919050565b7f4e487b7100000000000000000000000000000000000000000000000000000000600052604160045260246000fd5b6106b88261066f565b810181811067ffffffffffffffff821117156106d7576106d6610680565b5b80604052505050565b60006106ea6105e1565b90506106f682826106af565b919050565b600067ffffffffffffffff82111561071657610715610680565b5b61071f8261066f565b9050602081019050919050565b60005b8381101561074a57808201518184015260208101905061072f565b60008484015250505050565b6000610769610764846106fb565b6106e0565b9050828152602081018484840111156107855761078461066a565b5b61079084828561072c565b509392505050565b600082601f8301126107ad576107ac610665565b5b81516107bd848260208601610756565b91505092915050565b6107cf81610615565b81146107da57600080fd5b50565b6000815190506107ec816107c6565b92915050565b60006107fd82610615565b9050919050565b61080d816107f2565b811461081857600080fd5b50565b60008151905061082a81610804565b92915050565b600061083b82610615565b9050919050565b61084b81610830565b811461085657600080fd5b50565b60008151905061086881610842565b92915050565b600080600080600060a0868803121561088a576108896105eb565b5b600061089888828901610650565b955050602086015167ffffffffffffffff8111156108b9576108b86105f0565b5b6108c588828901610798565b94505060406108d6888289016107dd565b93505060606108e78882890161081b565b92505060806108f888828901610859565b9150509295509295909350565b600081519050919050565b7f4e487b7100000000000000000000000000000000000000000000000000000000600052602260045260246000fd5b6000600282049050600182168061095757607f821691505b60208210810361096a57610969610910565b5b50919050565b60008190508160005260206000209050919050565b60006020601f8301049050919050565b600082821b905092915050565b6000600883026109d27fffffffffffffffffffffffffffffffffffffffffffffffffffffffffffffffff82610995565b6109dc8683610995565b95508019841693508086168417925050509392505050565b6000819050919050565b6000819050919050565b6000610a23610a1e610a19846109f4565b6109fe565b6109f4565b9050919050565b6000819050919050565b610a3d83610a08565b610a51610a4982610a2a565b8484546109a2565b825550505050565b600090565b610a66610a59565b610a71818484610a34565b505050565b5b81811015610a9557610a8a600082610a5e565b600181019050610a77565b5050565b601f821115610ada57610aab81610970565b610ab484610985565b81016020851015610ac3578190505b610ad7610acf85610985565b830182610a76565b50505b505050565b600082821c905092915050565b6000610afd60001984600802610adf565b1980831691505092915050565b6000610b168383610aec565b9150826002028217905092915050565b610b2f82610905565b67ffffffffffffffff811115610b4857610b47610680565b5b610b52825461093f565b610b5d828285610a99565b600060209050601f831160018114610b905760008415610b7e578287015190505b610b888582610b0a565b865550610bf0565b601f198416610b9e86610970565b60005b82811015610bc657848901518255600182019150602085019450602081019050610ba1565b86831015610be35784890151610bdf601f891682610aec565b8355505b6001600288020188555050505b505050505050565b600081519050919050565b600081905092915050565b6000610c1982610bf8565b610c238185610c03565b9350610c3381856020860161072c565b80840191505092915050565b6000610c4b8284610c0e565b915081905092915050565b610c5f816109f4565b8114610c6a57600080fd5b50565b600081519050610c7c81610c56565b92915050565b600060208284031215610c9857610c976105eb565b5b6000610ca684828501610c6d565b91505092915050565b60805160a05160c05160e05161010051615ea8610d326000396000818161288801526134610152600081816113c201528181611b5001528181612599015281816128640152613500015260008181611dbe01528181611ee401528181611f440152818161221e015261302201526000611fe30152600061209c0152615ea86000f3fe6080604052600436106103a65760003560e01c806365ed6e23116101e7578063b3d7f6b91161010d578063d55be8c6116100a0578063eca740901161006f578063eca7409014610ee0578063ef8b30f714610f0b578063efdcd97414610f48578063fc97bccc14610f71576103dd565b8063d55be8c614610e12578063d905777e14610e3d578063dd62ed3e14610e7a578063ddc563ca14610eb7576103dd565b8063c63d75b6116100dc578063c63d75b614610d32578063c6e6f59214610d6f578063ce96cb7714610dac578063d547741f14610de9576103dd565b8063b3d7f6b914610c50578063b3f0067414610c8d578063b460af9414610cb8578063ba08765214610cf5576103dd565b806391d14854116101855780639733fa80116101545780639733fa8014610ba65780639f75494114610bd1578063a217fddf14610be8578063a9059cbb14610c13576103dd565b806391d1485414610ad85780639281aa0b14610b1557806394bf804d14610b3e57806395d89b4114610b7b576103dd565b806375b238fc116101c157806375b238fc14610a405780637b10399914610a6b5780637dc0d1d014610a965780638456cb5914610ac1576103dd565b806365ed6e231461099b5780636e553f65146109c657806370a0823114610a03576103dd565b80632f2ff15d116102cc5780633f4ba83a1161026a57806357b17a521161023957806357b17a52146108ef578063592b79fe1461091a5780635c975abb1461094557806361d027b314610970576103dd565b80633f4ba83a14610835578063402d267d1461084c5780634b0bddd2146108895780634cdad506146108b2576103dd565b806336568abe116102a657806336568abe146107795780633813c35a146107a257806338d52e0f146107cd5780633af32abf146107f8576103dd565b80632f2ff15d146106fa578063313ce56714610723578063313dab201461074e576103dd565b80630b78f9c01161034457806323b872dd1161031357806323b872dd1461063e578063248a9ca31461067b578063257d9bb8146106b857806328f72834146106e3576103dd565b80630b78f9c0146105985780630d86419a146105c157806313466679146105ea57806318160ddd14610613576103dd565b806307a2d13a1161038057806307a2d13a146104a2578063095ea7b3146104df5780630a2642bf1461051c5780630a28a4771461055b576103dd565b806301e1d1141461040f57806301ffc9a71461043a57806306fdde0314610477576103dd565b366103dd576040517f3733483400000000000000000000000000000000000000000000000000000000815260040160405180910390fd5b6040517f3733483400000000000000000000000000000000000000000000000000000000815260040160405180910390fd5b34801561041b57600080fd5b50610424610f9c565b6040516104319190614aec565b60405180910390f35b34801561044657600080fd5b50610461600480360381019061045c9190614b73565b6114d2565b60405161046e9190614bbb565b60405180910390f35b34801561048357600080fd5b5061048c61154c565b6040516104999190614c66565b60405180910390f35b3480156104ae57600080fd5b506104c960048036038101906104c49190614cb4565b6115de565b6040516104d69190614aec565b60405180910390f35b3480156104eb57600080fd5b5061050660048036038101906105019190614d3f565b6115f2565b6040516105139190614bbb565b60405180910390f35b34801561052857600080fd5b50610543600480360381019061053e9190614cb4565b611615565b60405161055293929190614d8e565b60405180910390f35b34801561056757600080fd5b50610582600480360381019061057d9190614cb4565b61167c565b60405161058f9190614aec565b60405180910390f35b3480156105a457600080fd5b506105bf60048036038101906105ba9190614dc5565b611690565b005b3480156105cd57600080fd5b506105e860048036038101906105e39190614d3f565b611790565b005b3480156105f657600080fd5b50610611600480360381019061060c9190614fe2565b611960565b005b34801561061f57600080fd5b50610628611d00565b6040516106359190614aec565b60405180910390f35b34801561064a57600080fd5b506106656004803603810190610660919061502b565b611d0a565b6040516106729190614bbb565b60405180910390f35b34801561068757600080fd5b506106a2600480360381019061069d91906150b4565b611d39565b6040516106af91906150f0565b60405180910390f35b3480156106c457600080fd5b506106cd611d59565b6040516106da9190614aec565b60405180910390f35b3480156106ef57600080fd5b506106f8611d61565b005b34801561070657600080fd5b50610721600480360381019061071c919061510b565b611fb5565b005b34801561072f57600080fd5b50610738611fd7565b6040516107459190615167565b60405180910390f35b34801561075a57600080fd5b50610763612011565b6040516107709190614aec565b60405180910390f35b34801561078557600080fd5b506107a0600480360381019061079b919061510b565b612017565b005b3480156107ae57600080fd5b506107b7612092565b6040516107c49190614aec565b60405180910390f35b3480156107d957600080fd5b506107e2612098565b6040516107ef9190615182565b60405180910390f35b34801561080457600080fd5b5061081f600480360381019061081a919061519d565b6120c0565b60405161082c9190614bbb565b60405180910390f35b34801561084157600080fd5b5061084a6120e0565b005b34801561085857600080fd5b50610873600480360381019061086e919061519d565b6120f8565b6040516108809190614aec565b60405180910390f35b34801561089557600080fd5b506108b060048036038101906108ab91906151ca565b612122565b005b3480156108be57600080fd5b506108d960048036038101906108d49190614cb4565b612196565b6040516108e69190614aec565b60405180910390f35b3480156108fb57600080fd5b506109046121aa565b6040516109119190614aec565b60405180910390f35b34801561092657600080fd5b5061092f6121b0565b60405161093c9190614aec565b60405180910390f35b34801561095157600080fd5b5061095a612205565b6040516109679190614bbb565b60405180910390f35b34801561097c57600080fd5b5061098561221c565b6040516109929190615182565b60405180910390f35b3480156109a757600080fd5b506109b0612240565b6040516109bd9190615328565b60405180910390f35b3480156109d257600080fd5b506109ed60048036038101906109e8919061534a565b61231a565b6040516109fa9190614aec565b60405180910390f35b348015610a0f57600080fd5b50610a2a6004803603810190610a25919061519d565b6127f6565b604051610a379190614aec565b60405180910390f35b348015610a4c57600080fd5b50610a5561283e565b604051610a6291906150f0565b60405180910390f35b348015610a7757600080fd5b50610a80612862565b604051610a8d91906153e9565b60405180910390f35b348015610aa257600080fd5b50610aab612886565b604051610ab89190615425565b60405180910390f35b348015610acd57600080fd5b50610ad66128aa565b005b348015610ae457600080fd5b50610aff6004803603810190610afa919061510b565b6128c2565b604051610b0c9190614bbb565b60405180910390f35b348015610b2157600080fd5b50610b3c6004803603810190610b3791906151ca565b61292d565b005b348015610b4a57600080fd5b50610b656004803603810190610b60919061534a565b6129b3565b604051610b729190614aec565b60405180910390f35b348015610b8757600080fd5b50610b90612a35565b604051610b9d9190614c66565b60405180910390f35b348015610bb257600080fd5b50610bbb612ac7565b604051610bc89190614aec565b60405180910390f35b348015610bdd57600080fd5b50610be6612acd565b005b348015610bf457600080fd5b50610bfd612c75565b604051610c0a91906150f0565b60405180910390f35b348015610c1f57600080fd5b50610c3a6004803603810190610c359190614d3f565b612c7c565b604051610c479190614bbb565b60405180910390f35b348015610c5c57600080fd5b50610c776004803603810190610c729190614cb4565b612c9f565b604051610c849190614aec565b60405180910390f35b348015610c9957600080fd5b50610ca2612cb3565b604051610caf9190615182565b60405180910390f35b348015610cc457600080fd5b50610cdf6004803603810190610cda9190615440565b612cd9565b604051610cec9190614aec565b60405180910390f35b348015610d0157600080fd5b50610d1c6004803603810190610d179190615440565b612e43565b604051610d299190614aec565b60405180910390f35b348015610d3e57600080fd5b50610d596004803603810190610d54919061519d565b613122565b604051610d669190614aec565b60405180910390f35b348015610d7b57600080fd5b50610d966004803603810190610d919190614cb4565b61314c565b604051610da39190614aec565b60405180910390f35b348015610db857600080fd5b50610dd36004803603810190610dce919061519d565b613160565b604051610de09190614aec565b60405180910390f35b348015610df557600080fd5b50610e106004803603810190610e0b919061510b565b61317c565b005b348015610e1e57600080fd5b50610e2761319e565b604051610e349190614aec565b60405180910390f35b348015610e4957600080fd5b50610e646004803603810190610e5f919061519d565b6131a4565b604051610e719190614aec565b60405180910390f35b348015610e8657600080fd5b50610ea16004803603810190610e9c9190615493565b6131b6565b604051610eae9190614aec565b60405180910390f35b348015610ec357600080fd5b50610ede6004803603810190610ed99190614cb4565b61323d565b005b348015610eec57600080fd5b50610ef5613274565b604051610f029190614aec565b60405180910390f35b348015610f1757600080fd5b50610f326004803603810190610f2d9190614cb4565b61327b565b604051610f3f9190614aec565b60405180910390f35b348015610f5457600080fd5b50610f6f6004803603810190610f6a919061519d565b61328f565b005b348015610f7d57600080fd5b50610f86613347565b604051610f939190614c66565b60405180910390f35b600080610fa7611d00565b11801561103457506000610fb9612098565b73ffffffffffffffffffffffffffffffffffffffff166370a08231306040518263ffffffff1660e01b8152600401610ff19190615182565b602060405180830381865afa15801561100e573d6000803e3d6000fd5b505050506040513d601f19601f8201168201806040525081019061103291906154e8565b115b15611275576000805b6008805490508110156111e4576008818154811061105e5761105d615515565b5b906000526020600020906003020160020160009054906101000a900460ff168015611101575061108c612098565b73ffffffffffffffffffffffffffffffffffffffff16600882815481106110b6576110b5615515565b5b906000526020600020906003020160000160009054906101000a900473ffffffffffffffffffffffffffffffffffffffff1673ffffffffffffffffffffffffffffffffffffffff1614155b156111d75760006008828154811061111c5761111b615515565b5b906000526020600020906003020160000160009054906101000a900473ffffffffffffffffffffffffffffffffffffffff1673ffffffffffffffffffffffffffffffffffffffff166370a08231306040518263ffffffff1660e01b81526004016111869190615182565b602060405180830381865afa1580156111a3573d6000803e3d6000fd5b505050506040513d601f19601f820116820180604052508101906111c791906154e8565b11156111d657600191506111e4565b5b808060010191505061103d565b5080611273576111f2612098565b73ffffffffffffffffffffffffffffffffffffffff166370a08231306040518263ffffffff1660e01b815260040161122a9190615182565b602060405180830381865afa158015611247573d6000803e3d6000fd5b505050506040513d601f19601f8201168201806040525081019061126b91906154e8565b9150506114cf565b505b6000805b6008805490508110156114c95760006008828154811061129c5761129b615515565b5b90600052602060002090600302016040518060600160405290816000820160009054906101000a900473ffffffffffffffffffffffffffffffffffffffff1673ffffffffffffffffffffffffffffffffffffffff1673ffffffffffffffffffffffffffffffffffffffff168152602001600182015481526020016002820160009054906101000a900460ff16151515158152505090508060400151156114bb576000816000015173ffffffffffffffffffffffffffffffffffffffff166370a08231306040518263ffffffff1660e01b815260040161137b9190615182565b602060405180830381865afa158015611398573d6000803e3d6000fd5b505050506040513d601f19601f820116820180604052508101906113bc91906154e8565b905060007f000000000000000000000000000000000000000000000000000000000000000073ffffffffffffffffffffffffffffffffffffffff1663785c7cf684600001516040518263ffffffff1660e01b815260040161141d9190615182565b602060405180830381865afa15801561143a573d6000803e3d6000fd5b505050506040513d601f19601f8201168201806040525081019061145e9190615570565b9050600061146c83836133d5565b9050600061147e85600001518361344a565b90506000670de0b6b3a764000086602001518361149b91906155cc565b6114a5919061563d565b905080886114b3919061566e565b975050505050505b508080600101915050611279565b50809150505b90565b60007f7965db0b000000000000000000000000000000000000000000000000000000007bffffffffffffffffffffffffffffffffffffffffffffffffffffffff1916827bffffffffffffffffffffffffffffffffffffffffffffffffffffffff191614806115455750611544826135e4565b5b9050919050565b60606003805461155b906156d1565b80601f0160208091040260200160405190810160405280929190818152602001828054611587906156d1565b80156115d45780601f106115a9576101008083540402835291602001916115d4565b820191906000526020600020905b8154815290600101906020018083116115b757829003601f168201915b5050505050905090565b60006115eb82600061364e565b9050919050565b6000806115fd6136a7565b905061160a8185856136af565b600191505092915050565b6008818154811061162557600080fd5b90600052602060002090600302016000915090508060000160009054906101000a900473ffffffffffffffffffffffffffffffffffffffff16908060010154908060020160009054906101000a900460ff16905083565b60006116898260016136c1565b9050919050565b7fa49807205ce4d355092ef5a8a18f56e8913cf4a201fbe287825b095693c217756116ba8161371a565b6103e88311156116ff576040517f08c379a00000000000000000000000000000000000000000000000000000000081526004016116f69061574e565b60405180910390fd5b6103e8821115611744576040517f08c379a000000000000000000000000000000000000000000000000000000000815260040161173b906157ba565b60405180910390fd5b82600a8190555081600b819055507f5c6323bf1c2d7aaea2c091a4751c1c87af7f2864650c336507a77d0557af37a183836040516117839291906157da565b60405180910390a1505050565b7fa49807205ce4d355092ef5a8a18f56e8913cf4a201fbe287825b095693c217756117ba8161371a565b600073ffffffffffffffffffffffffffffffffffffffff168373ffffffffffffffffffffffffffffffffffffffff1603611829576040517f08c379a00000000000000000000000000000000000000000000000000000000081526004016118209061584f565b60405180910390fd5b600d5482111561186e576040517f08c379a0000000000000000000000000000000000000000000000000000000008152600401611865906158bb565b60405180910390fd5b81600d600082825461188091906158db565b9250508190555061188f612098565b73ffffffffffffffffffffffffffffffffffffffff1663a9059cbb84846040518363ffffffff1660e01b81526004016118c992919061590f565b6020604051808303816000875af11580156118e8573d6000803e3d6000fd5b505050506040513d601f19601f8201168201806040525081019061190c919061594d565b508273ffffffffffffffffffffffffffffffffffffffff167f41fdd680478135993bc53fb2ffaf9560951b57ef62ff6badd02b61e018b4f17f836040516119539190614aec565b60405180910390a2505050565b7fa49807205ce4d355092ef5a8a18f56e8913cf4a201fbe287825b095693c2177561198a8161371a565b60008251116119ce576040517f08c379a00000000000000000000000000000000000000000000000000000000081526004016119c5906159c6565b60405180910390fd5b600860006119dc9190614a55565b600080600090505b8351811015611c7657600073ffffffffffffffffffffffffffffffffffffffff16848281518110611a1857611a17615515565b5b60200260200101516000015173ffffffffffffffffffffffffffffffffffffffff1603611a71576040517fd92e233d00000000000000000000000000000000000000000000000000000000815260040160405180910390fd5b6008848281518110611a8657611a85615515565b5b6020026020010151908060018154018082558091505060019003906000526020600020906003020160009091909190915060008201518160000160006101000a81548173ffffffffffffffffffffffffffffffffffffffff021916908373ffffffffffffffffffffffffffffffffffffffff1602179055506020820151816001015560408201518160020160006101000a81548160ff0219169083151502179055505050838181518110611b3d57611b3c615515565b5b60200260200101516040015115611c69577f000000000000000000000000000000000000000000000000000000000000000073ffffffffffffffffffffffffffffffffffffffff166326aa101f858381518110611b9d57611b9c615515565b5b6020026020010151600001516040518263ffffffff1660e01b8152600401611bc59190615182565b602060405180830381865afa158015611be2573d6000803e3d6000fd5b505050506040513d601f19601f82011682018060405250810190611c06919061594d565b611c3c576040517f259ba1ad00000000000000000000000000000000000000000000000000000000815260040160405180910390fd5b838181518110611c4f57611c4e615515565b5b60200260200101516020015182611c66919061566e565b91505b80806001019150506119e4565b50670de0b6b3a76400008114611cb8576040517f940addc700000000000000000000000000000000000000000000000000000000815260040160405180910390fd5b3373ffffffffffffffffffffffffffffffffffffffff167fe12b8d1d4a7f7412a024aee54caca7fbc2f384591f10a085a28f47f518661c6460405160405180910390a2505050565b6000600254905090565b600080611d156136a7565b9050611d2285828561372e565b611d2d8585856137c3565b60019150509392505050565b600060056000838152602001908152602001600020600101549050919050565b6302faf08081565b6000801b611d6e8161371a565b6000611d78611d00565b1115611db0576040517f5f9863ad00000000000000000000000000000000000000000000000000000000815260040160405180910390fd5b6000630bebc2009050611e0d7f00000000000000000000000000000000000000000000000000000000000000003083611de7612098565b73ffffffffffffffffffffffffffffffffffffffff166138b7909392919063ffffffff16565b80611e16612098565b73ffffffffffffffffffffffffffffffffffffffff166370a08231306040518263ffffffff1660e01b8152600401611e4e9190615182565b602060405180830381865afa158015611e6b573d6000803e3d6000fd5b505050506040513d601f19601f82011682018060405250810190611e8f91906154e8565b1015611ed0576040517f08c379a0000000000000000000000000000000000000000000000000000000008152600401611ec790615a32565b60405180910390fd5b6000611edd8260066133d5565b9050611f097f000000000000000000000000000000000000000000000000000000000000000082613939565b7fdaae2c9a5469dd70890ae96297904a986542c0bb3ab3bd176b5e7099ccf2ed748282604051611f3a9291906157da565b60405180910390a17f000000000000000000000000000000000000000000000000000000000000000073ffffffffffffffffffffffffffffffffffffffff167f2da466a7b24304f47e87fa2e1e5a81b9831ce54fec19055ce277ca2f39ba42c483604051611fa89190614aec565b60405180910390a2505050565b611fbe82611d39565b611fc78161371a565b611fd183836139bb565b50505050565b6000611fe1613aad565b7f000000000000000000000000000000000000000000000000000000000000000061200c9190615a52565b905090565b600d5481565b61201f6136a7565b73ffffffffffffffffffffffffffffffffffffffff168173ffffffffffffffffffffffffffffffffffffffff1614612083576040517f6697b23200000000000000000000000000000000000000000000000000000000815260040160405180910390fd5b61208d8282613ab6565b505050565b600b5481565b60007f0000000000000000000000000000000000000000000000000000000000000000905090565b600e6020528060005260406000206000915054906101000a900460ff1681565b6000801b6120ed8161371a565b6120f5613ba9565b50565b60007fffffffffffffffffffffffffffffffffffffffffffffffffffffffffffffffff9050919050565b6000801b61212f8161371a565b81156121655761215f7fa49807205ce4d355092ef5a8a18f56e8913cf4a201fbe287825b095693c21775846139bb565b50612191565b61218f7fa49807205ce4d355092ef5a8a18f56e8913cf4a201fbe287825b095693c2177584613ab6565b505b505050565b60006121a382600061364e565b9050919050565b600a5481565b600080600b5414806121c9575060006121c7611d00565b145b156121d75760009050612202565b6000612710600b546121e7611d00565b6121f191906155cc565b6121fb919061563d565b9050809150505b90565b6000600660009054906101000a900460ff16905090565b7f000000000000000000000000000000000000000000000000000000000000000081565b60606008805480602002602001604051908101604052809291908181526020016000905b8282101561231157838290600052602060002090600302016040518060600160405290816000820160009054906101000a900473ffffffffffffffffffffffffffffffffffffffff1673ffffffffffffffffffffffffffffffffffffffff1673ffffffffffffffffffffffffffffffffffffffff168152602001600182015481526020016002820160009054906101000a900460ff16151515158152505081526020019060010190612264565b50505050905090565b6000612324612205565b1561235b576040517f059519da00000000000000000000000000000000000000000000000000000000815260040160405180910390fd5b60008303612395576040517f2c5211c600000000000000000000000000000000000000000000000000000000815260040160405180910390fd5b6302faf080831080156123af575060006123ad611d00565b115b156123f5576302faf0806040517f187a63750000000000000000000000000000000000000000000000000000000081526004016123ec9190614aec565b60405180910390fd5b60006124018484613c0c565b90508273ffffffffffffffffffffffffffffffffffffffff167f2da466a7b24304f47e87fa2e1e5a81b9831ce54fec19055ce277ca2f39ba42c4856040516124499190614aec565b60405180910390a260005b6008805490508110156127eb5760006008828154811061247757612476615515565b5b90600052602060002090600302016040518060600160405290816000820160009054906101000a900473ffffffffffffffffffffffffffffffffffffffff1673ffffffffffffffffffffffffffffffffffffffff1673ffffffffffffffffffffffffffffffffffffffff168152602001600182015481526020016002820160009054906101000a900460ff1615151515815250509050806040015115806125545750612521612098565b73ffffffffffffffffffffffffffffffffffffffff16816000015173ffffffffffffffffffffffffffffffffffffffff16145b1561255f57506127de565b600061256c8760066133d5565b90506000670de0b6b3a764000083602001518361258991906155cc565b612593919061563d565b905060007f000000000000000000000000000000000000000000000000000000000000000073ffffffffffffffffffffffffffffffffffffffff1663785c7cf685600001516040518263ffffffff1660e01b81526004016125f49190615182565b602060405180830381865afa158015612611573d6000803e3d6000fd5b505050506040513d601f19601f820116820180604052508101906126359190615570565b905060006126438383613c8e565b90506000856000015173ffffffffffffffffffffffffffffffffffffffff16308360405160240161267592919061590f565b6040516020818303038152906040527f40c10f19000000000000000000000000000000000000000000000000000000007bffffffffffffffffffffffffffffffffffffffffffffffffffffffff19166020820180517bffffffffffffffffffffffffffffffffffffffffffffffffffffffff83818316178352505050506040516126ff9190615ace565b6000604051808303816000865af19150503d806000811461273c576040519150601f19603f3d011682016040523d82523d6000602084013e612741565b606091505b5050905080612785576040517f08c379a000000000000000000000000000000000000000000000000000000000815260040161277c90615b31565b60405180910390fd5b856000015173ffffffffffffffffffffffffffffffffffffffff167f472f36e28bb47edb7c69c9e2ac00a77c66b505df54e9c818ac57110b0629e8c3836040516127cf9190614aec565b60405180910390a25050505050505b8080600101915050612454565b508091505092915050565b60008060008373ffffffffffffffffffffffffffffffffffffffff1673ffffffffffffffffffffffffffffffffffffffff168152602001908152602001600020549050919050565b7fa49807205ce4d355092ef5a8a18f56e8913cf4a201fbe287825b095693c2177581565b7f000000000000000000000000000000000000000000000000000000000000000081565b7f000000000000000000000000000000000000000000000000000000000000000081565b6000801b6128b78161371a565b6128bf613d03565b50565b60006005600084815260200190815260200160002060000160008373ffffffffffffffffffffffffffffffffffffffff1673ffffffffffffffffffffffffffffffffffffffff16815260200190815260200160002060009054906101000a900460ff16905092915050565b7fa49807205ce4d355092ef5a8a18f56e8913cf4a201fbe287825b095693c217756129578161371a565b81600e60008573ffffffffffffffffffffffffffffffffffffffff1673ffffffffffffffffffffffffffffffffffffffff16815260200190815260200160002060006101000a81548160ff021916908315150217905550505050565b6000806129bf83613122565b905080841115612a0a578284826040517f284ff667000000000000000000000000000000000000000000000000000000008152600401612a0193929190615b51565b60405180910390fd5b6000612a1585612c9f565b9050612a2a612a226136a7565b858388613d66565b809250505092915050565b606060048054612a44906156d1565b80601f0160208091040260200160405190810160405280929190818152602001828054612a70906156d1565b8015612abd5780601f10612a9257610100808354040283529160200191612abd565b820191906000526020600020905b815481529060010190602001808311612aa057829003601f168201915b5050505050905090565b600f5481565b7fa49807205ce4d355092ef5a8a18f56e8913cf4a201fbe287825b095693c21775612af78161371a565b600073ffffffffffffffffffffffffffffffffffffffff16600c60009054906101000a900473ffffffffffffffffffffffffffffffffffffffff1673ffffffffffffffffffffffffffffffffffffffff1603612b7f576040517fd92e233d00000000000000000000000000000000000000000000000000000000815260040160405180910390fd5b6000600b5403612bbb576040517f02a578dd00000000000000000000000000000000000000000000000000000000815260040160405180910390fd5b60003073ffffffffffffffffffffffffffffffffffffffff1663592b79fe6040518163ffffffff1660e01b8152600401602060405180830381865afa158015612c08573d6000803e3d6000fd5b505050506040513d601f19601f82011682018060405250810190612c2c91906154e8565b905060008103612c68576040517f2c5211c600000000000000000000000000000000000000000000000000000000815260040160405180910390fd5b612c7181613df0565b5050565b6000801b81565b600080612c876136a7565b9050612c948185856137c3565b600191505092915050565b6000612cac82600161364e565b9050919050565b600c60009054906101000a900473ffffffffffffffffffffffffffffffffffffffff1681565b6000612ce3612205565b15612d1a576040517f059519da00000000000000000000000000000000000000000000000000000000815260040160405180910390fd5b612d22613ff0565b60008403612d5c576040517f2c5211c600000000000000000000000000000000000000000000000000000000815260040160405180910390fd5b6302faf08084108015612d765750612d72610f9c565b8414155b15612dbc576302faf0806040517ff6263f25000000000000000000000000000000000000000000000000000000008152600401612db39190614aec565b60405180910390fd5b6000612dc9858585614036565b90508373ffffffffffffffffffffffffffffffffffffffff168373ffffffffffffffffffffffffffffffffffffffff167f29a0bcf57d42cd9503e61240cef8d4ae3c5982196af8c0f63b0585b3a3e87f3987604051612e289190614aec565b60405180910390a380915050612e3c6140ba565b9392505050565b6000612e4d612205565b15612e84576040517f059519da00000000000000000000000000000000000000000000000000000000815260040160405180910390fd5b612e8c613ff0565b60008403612ec6576040517f2c5211c600000000000000000000000000000000000000000000000000000000815260040160405180910390fd5b6000612ed1856115de565b90506302faf08081108015612eed5750612ee9611d00565b8514155b15612f33576302faf0806040517fb3fee7b9000000000000000000000000000000000000000000000000000000008152600401612f2a9190614aec565b60405180910390fd5b6000612710600a5483612f4691906155cc565b612f50919061563d565b905060008183612f6091906158db565b9050612f6d8730876140c4565b50612f76612098565b73ffffffffffffffffffffffffffffffffffffffff1663a9059cbb87836040518363ffffffff1660e01b8152600401612fb092919061590f565b6020604051808303816000875af1158015612fcf573d6000803e3d6000fd5b505050506040513d601f19601f82011682018060405250810190612ff3919061594d565b50600082111561310d57613005612098565b73ffffffffffffffffffffffffffffffffffffffff1663a9059cbb7f0000000000000000000000000000000000000000000000000000000000000000846040518363ffffffff1660e01b815260040161305f92919061590f565b6020604051808303816000875af115801561307e573d6000803e3d6000fd5b505050506040513d601f19601f820116820180604052508101906130a2919061594d565b5081600d60008282546130b5919061566e565b925050819055508473ffffffffffffffffffffffffffffffffffffffff167f4391a67a435a77473a1d86760bc62594cba49fd7a8d4a69696f4a52709fc3c1c84846040516131049291906157da565b60405180910390a25b80935050505061311b6140ba565b9392505050565b60007fffffffffffffffffffffffffffffffffffffffffffffffffffffffffffffffff9050919050565b60006131598260006136c1565b9050919050565b600061317561316e836127f6565b600061364e565b9050919050565b61318582611d39565b61318e8161371a565b6131988383613ab6565b50505050565b6103e881565b60006131af826127f6565b9050919050565b6000600160008473ffffffffffffffffffffffffffffffffffffffff1673ffffffffffffffffffffffffffffffffffffffff16815260200190815260200160002060008373ffffffffffffffffffffffffffffffffffffffff1673ffffffffffffffffffffffffffffffffffffffff16815260200190815260200160002054905092915050565b7fa49807205ce4d355092ef5a8a18f56e8913cf4a201fbe287825b095693c217756132678161371a565b61327082613df0565b5050565b6201518081565b60006132888260006136c1565b9050919050565b6000801b61329c8161371a565b600073ffffffffffffffffffffffffffffffffffffffff168273ffffffffffffffffffffffffffffffffffffffff1603613302576040517fd92e233d00000000000000000000000000000000000000000000000000000000815260040160405180910390fd5b81600c60006101000a81548173ffffffffffffffffffffffffffffffffffffffff021916908373ffffffffffffffffffffffffffffffffffffffff1602179055505050565b60098054613354906156d1565b80601f0160208091040260200160405190810160405280929190818152602001828054613380906156d1565b80156133cd5780601f106133a2576101008083540402835291602001916133cd565b820191906000526020600020905b8154815290600101906020018083116133b057829003601f168201915b505050505081565b600060128260ff16146134405760128260ff1610613416576012826133fa9190615b88565b600a6134069190615cf0565b83613411919061563d565b61343b565b8160126134239190615b88565b600a61342f9190615cf0565b8361343a91906155cc565b5b613442565b825b905092915050565b600080820361345c57600090506135de565b6000807f000000000000000000000000000000000000000000000000000000000000000073ffffffffffffffffffffffffffffffffffffffff166341976e09866040518263ffffffff1660e01b81526004016134b89190615182565b6040805180830381865afa1580156134d4573d6000803e3d6000fd5b505050506040513d601f19601f820116820180604052508101906134f89190615d3b565b9150915060007f000000000000000000000000000000000000000000000000000000000000000073ffffffffffffffffffffffffffffffffffffffff1663785c7cf6876040518263ffffffff1660e01b81526004016135579190615182565b602060405180830381865afa158015613574573d6000803e3d6000fd5b505050506040513d601f19601f820116820180604052508101906135989190615570565b905060006135a684846133d5565b90506000670de0b6b3a764000082886135bf91906155cc565b6135c9919061563d565b90506135d6816006613c8e565b955050505050505b92915050565b60007f01ffc9a7000000000000000000000000000000000000000000000000000000007bffffffffffffffffffffffffffffffffffffffffffffffffffffffff1916827bffffffffffffffffffffffffffffffffffffffffffffffffffffffff1916149050919050565b600061369f600161365d610f9c565b613667919061566e565b61366f613aad565b600a61367b9190615cf0565b613683611d00565b61368d919061566e565b8486614148909392919063ffffffff16565b905092915050565b600033905090565b6136bc8383836001614197565b505050565b60006137126136ce613aad565b600a6136da9190615cf0565b6136e2611d00565b6136ec919061566e565b60016136f6610f9c565b613700919061566e565b8486614148909392919063ffffffff16565b905092915050565b61372b816137266136a7565b61436e565b50565b600061373a84846131b6565b90507fffffffffffffffffffffffffffffffffffffffffffffffffffffffffffffffff8110156137bd57818110156137ad578281836040517ffb8f41b20000000000000000000000000000000000000000000000000000000081526004016137a493929190615b51565b60405180910390fd5b6137bc84848484036000614197565b5b50505050565b600073ffffffffffffffffffffffffffffffffffffffff168373ffffffffffffffffffffffffffffffffffffffff16036138355760006040517f96c6fd1e00000000000000000000000000000000000000000000000000000000815260040161382c9190615182565b60405180910390fd5b600073ffffffffffffffffffffffffffffffffffffffff168273ffffffffffffffffffffffffffffffffffffffff16036138a75760006040517fec442f0500000000000000000000000000000000000000000000000000000000815260040161389e9190615182565b60405180910390fd5b6138b28383836143bf565b505050565b613933848573ffffffffffffffffffffffffffffffffffffffff166323b872dd8686866040516024016138ec93929190615d7b565b604051602081830303815290604052915060e01b6020820180517bffffffffffffffffffffffffffffffffffffffffffffffffffffffff83818316178352505050506145e4565b50505050565b600073ffffffffffffffffffffffffffffffffffffffff168273ffffffffffffffffffffffffffffffffffffffff16036139ab5760006040517fec442f050000000000000000000000000000000000000000000000000000000081526004016139a29190615182565b60405180910390fd5b6139b7600083836143bf565b5050565b60006139c783836128c2565b613aa25760016005600085815260200190815260200160002060000160008473ffffffffffffffffffffffffffffffffffffffff1673ffffffffffffffffffffffffffffffffffffffff16815260200190815260200160002060006101000a81548160ff021916908315150217905550613a3f6136a7565b73ffffffffffffffffffffffffffffffffffffffff168273ffffffffffffffffffffffffffffffffffffffff16847f2f8788117e7eff1d82e926ec794901d17c78024a50270940304540a733656f0d60405160405180910390a460019050613aa7565b600090505b92915050565b6000600c905090565b6000613ac283836128c2565b15613b9e5760006005600085815260200190815260200160002060000160008473ffffffffffffffffffffffffffffffffffffffff1673ffffffffffffffffffffffffffffffffffffffff16815260200190815260200160002060006101000a81548160ff021916908315150217905550613b3b6136a7565b73ffffffffffffffffffffffffffffffffffffffff168273ffffffffffffffffffffffffffffffffffffffff16847ff6391f5c32d9c69d2a47ea670b442974b53935d1edc7fd64eb21e047a839171b60405160405180910390a460019050613ba3565b600090505b92915050565b613bb1614686565b6000600660006101000a81548160ff0219169083151502179055507f5db9ee0a495bf2e6ff9c91a7834c1ba4fdd244a5e8aa4e537bd38aeae4b073aa613bf56136a7565b604051613c029190615182565b60405180910390a1565b600080613c18836120f8565b905080841115613c63578284826040517f79012fb2000000000000000000000000000000000000000000000000000000008152600401613c5a93929190615b51565b60405180910390fd5b6000613c6e8561327b565b9050613c83613c7b6136a7565b858784613d66565b809250505092915050565b600060128260ff1614613cf95760128260ff1610613ccf57601282613cb39190615b88565b600a613cbf9190615cf0565b83613cca91906155cc565b613cf4565b816012613cdc9190615b88565b600a613ce89190615cf0565b83613cf3919061563d565b5b613cfb565b825b905092915050565b613d0b6146c6565b6001600660006101000a81548160ff0219169083151502179055507f62e78cea01bee320cd4e420270b5ea74000d11b0c9f74754ebdbfc544b05a258613d4f6136a7565b604051613d5c9190615182565b60405180910390a1565b613d79613d71612098565b8530856138b7565b613d838382613939565b8273ffffffffffffffffffffffffffffffffffffffff168473ffffffffffffffffffffffffffffffffffffffff167fdcbc1c05240f31ff3ad067ef1ee35ce4997762752e3a095284754544f4c709d78484604051613de29291906157da565b60405180910390a350505050565b60008103613e2a576040517f2c5211c600000000000000000000000000000000000000000000000000000000815260040160405180910390fd5b600073ffffffffffffffffffffffffffffffffffffffff16600c60009054906101000a900473ffffffffffffffffffffffffffffffffffffffff1673ffffffffffffffffffffffffffffffffffffffff1603613eb2576040517fd92e233d00000000000000000000000000000000000000000000000000000000815260040160405180910390fd5b6000600f541115613f085762015180600f54613ece919061566e565b421015613f07576040517fd92d770300000000000000000000000000000000000000000000000000000000815260040160405180910390fd5b5b42600f81905550613f3b600c60009054906101000a900473ffffffffffffffffffffffffffffffffffffffff1682613939565b600c60009054906101000a900473ffffffffffffffffffffffffffffffffffffffff1673ffffffffffffffffffffffffffffffffffffffff167f7fee81b17a478a24780e52511d61b5efa31505eb290535ab360f99a30f7407d682604051613fa39190614aec565b60405180910390a27fa3b6bf16d8fbac0e474e8924c4d1d5f0e23f97a448878e5207395b8ce7431ad64282613fd6611d00565b604051613fe593929190615db2565b60405180910390a150565b60026007540361402c576040517f3ee5aeb500000000000000000000000000000000000000000000000000000000815260040160405180910390fd5b6002600781905550565b60008061404283613160565b90508085111561408d578285826040517ffe9cceec00000000000000000000000000000000000000000000000000000000815260040161408493929190615b51565b60405180910390fd5b60006140988661167c565b90506140ae6140a56136a7565b86868985614707565b80925050509392505050565b6001600781905550565b6000806140d0836131a4565b90508085111561411b578285826040517fb94abeec00000000000000000000000000000000000000000000000000000000815260040161411293929190615b51565b60405180910390fd5b600061412686612196565b905061413c6141336136a7565b8686848a614707565b80925050509392505050565b6000614178614156836147e7565b801561417357506000848061416e5761416d61560e565b5b868809115b614815565b614183868686614821565b61418d919061566e565b9050949350505050565b600073ffffffffffffffffffffffffffffffffffffffff168473ffffffffffffffffffffffffffffffffffffffff16036142095760006040517fe602df050000000000000000000000000000000000000000000000000000000081526004016142009190615182565b60405180910390fd5b600073ffffffffffffffffffffffffffffffffffffffff168373ffffffffffffffffffffffffffffffffffffffff160361427b5760006040517f94280d620000000000000000000000000000000000000000000000000000000081526004016142729190615182565b60405180910390fd5b81600160008673ffffffffffffffffffffffffffffffffffffffff1673ffffffffffffffffffffffffffffffffffffffff16815260200190815260200160002060008573ffffffffffffffffffffffffffffffffffffffff1673ffffffffffffffffffffffffffffffffffffffff168152602001908152602001600020819055508015614368578273ffffffffffffffffffffffffffffffffffffffff168473ffffffffffffffffffffffffffffffffffffffff167f8c5be1e5ebec7d5bd14f71427d1e84f3dd0314c0f7b2291e5b200ac8c7c3b9258460405161435f9190614aec565b60405180910390a35b50505050565b61437882826128c2565b6143bb5780826040517fe2517d3f0000000000000000000000000000000000000000000000000000000081526004016143b2929190615de9565b60405180910390fd5b5050565b600073ffffffffffffffffffffffffffffffffffffffff168373ffffffffffffffffffffffffffffffffffffffff1603614411578060026000828254614405919061566e565b925050819055506144e4565b60008060008573ffffffffffffffffffffffffffffffffffffffff1673ffffffffffffffffffffffffffffffffffffffff1681526020019081526020016000205490508181101561449d578381836040517fe450d38c00000000000000000000000000000000000000000000000000000000815260040161449493929190615b51565b60405180910390fd5b8181036000808673ffffffffffffffffffffffffffffffffffffffff1673ffffffffffffffffffffffffffffffffffffffff16815260200190815260200160002081905550505b600073ffffffffffffffffffffffffffffffffffffffff168273ffffffffffffffffffffffffffffffffffffffff160361452d578060026000828254039250508190555061457a565b806000808473ffffffffffffffffffffffffffffffffffffffff1673ffffffffffffffffffffffffffffffffffffffff168152602001908152602001600020600082825401925050819055505b8173ffffffffffffffffffffffffffffffffffffffff168373ffffffffffffffffffffffffffffffffffffffff167fddf252ad1be2c89b69c2b068fc378daa952ba7f163c4a11628f55a4df523b3ef836040516145d79190614aec565b60405180910390a3505050565b600080602060008451602086016000885af180614607576040513d6000823e3d81fd5b3d92506000519150506000821461462257600181141561463e565b60008473ffffffffffffffffffffffffffffffffffffffff163b145b1561468057836040517f5274afe70000000000000000000000000000000000000000000000000000000081526004016146779190615182565b60405180910390fd5b50505050565b61468e612205565b6146c4576040517f8dfc202b00000000000000000000000000000000000000000000000000000000815260040160405180910390fd5b565b6146ce612205565b15614705576040517fd93c066500000000000000000000000000000000000000000000000000000000815260040160405180910390fd5b565b8273ffffffffffffffffffffffffffffffffffffffff168573ffffffffffffffffffffffffffffffffffffffff16146147465761474583868361372e565b5b6147508382614909565b61476261475b612098565b858461498b565b8273ffffffffffffffffffffffffffffffffffffffff168473ffffffffffffffffffffffffffffffffffffffff168673ffffffffffffffffffffffffffffffffffffffff167ffbde797d201c681b91056529119e0b02407c7bb96a4a2c75c01fc9667232c8db85856040516147d89291906157da565b60405180910390a45050505050565b600060016002836003811115614800576147ff615e12565b5b61480a9190615e41565b60ff16149050919050565b60008115159050919050565b60008060006148308686614a0a565b91509150600082036148565783818161484c5761484b61560e565b5b0492505050614902565b818411614876576148756148706000861460126011614a29565b614a43565b5b600084868809905081811183039250808203915060008560000386169050808604955080830492506001818260000304019050808402831792506000600287600302189050808702600203810290508087026002038102905080870260020381029050808702600203810290508087026002038102905080870260020381029050808402955050505050505b9392505050565b600073ffffffffffffffffffffffffffffffffffffffff168273ffffffffffffffffffffffffffffffffffffffff160361497b5760006040517f96c6fd1e0000000000000000000000000000000000000000000000000000000081526004016149729190615182565b60405180910390fd5b614987826000836143bf565b5050565b614a05838473ffffffffffffffffffffffffffffffffffffffff1663a9059cbb85856040516024016149be92919061590f565b604051602081830303815290604052915060e01b6020820180517bffffffffffffffffffffffffffffffffffffffffffffffffffffffff83818316178352505050506145e4565b505050565b6000806000198385098385029150818110828203039250509250929050565b6000614a3484614815565b82841802821890509392505050565b634e487b71600052806020526024601cfd5b5080546000825560030290600052602060002090810190614a769190614a79565b50565b5b80821115614acf57600080820160006101000a81549073ffffffffffffffffffffffffffffffffffffffff021916905560018201600090556002820160006101000a81549060ff021916905550600301614a7a565b5090565b6000819050919050565b614ae681614ad3565b82525050565b6000602082019050614b016000830184614add565b92915050565b6000604051905090565b600080fd5b600080fd5b60007fffffffff0000000000000000000000000000000000000000000000000000000082169050919050565b614b5081614b1b565b8114614b5b57600080fd5b50565b600081359050614b6d81614b47565b92915050565b600060208284031215614b8957614b88614b11565b5b6000614b9784828501614b5e565b91505092915050565b60008115159050919050565b614bb581614ba0565b82525050565b6000602082019050614bd06000830184614bac565b92915050565b600081519050919050565b600082825260208201905092915050565b60005b83811015614c10578082015181840152602081019050614bf5565b60008484015250505050565b6000601f19601f8301169050919050565b6000614c3882614bd6565b614c428185614be1565b9350614c52818560208601614bf2565b614c5b81614c1c565b840191505092915050565b60006020820190508181036000830152614c808184614c2d565b905092915050565b614c9181614ad3565b8114614c9c57600080fd5b50565b600081359050614cae81614c88565b92915050565b600060208284031215614cca57614cc9614b11565b5b6000614cd884828501614c9f565b91505092915050565b600073ffffffffffffffffffffffffffffffffffffffff82169050919050565b6000614d0c82614ce1565b9050919050565b614d1c81614d01565b8114614d2757600080fd5b50565b600081359050614d3981614d13565b92915050565b60008060408385031215614d5657614d55614b11565b5b6000614d6485828601614d2a565b9250506020614d7585828601614c9f565b9150509250929050565b614d8881614d01565b82525050565b6000606082019050614da36000830186614d7f565b614db06020830185614add565b614dbd6040830184614bac565b949350505050565b60008060408385031215614ddc57614ddb614b11565b5b6000614dea85828601614c9f565b9250506020614dfb85828601614c9f565b9150509250929050565b600080fd5b7f4e487b7100000000000000000000000000000000000000000000000000000000600052604160045260246000fd5b614e4282614c1c565b810181811067ffffffffffffffff82111715614e6157614e60614e0a565b5b80604052505050565b6000614e74614b07565b9050614e808282614e39565b919050565b600067ffffffffffffffff821115614ea057614e9f614e0a565b5b602082029050602081019050919050565b600080fd5b600080fd5b614ec481614ba0565b8114614ecf57600080fd5b50565b600081359050614ee181614ebb565b92915050565b600060608284031215614efd57614efc614eb6565b5b614f076060614e6a565b90506000614f1784828501614d2a565b6000830152506020614f2b84828501614c9f565b6020830152506040614f3f84828501614ed2565b60408301525092915050565b6000614f5e614f5984614e85565b614e6a565b90508083825260208201905060608402830185811115614f8157614f80614eb1565b5b835b81811015614faa5780614f968882614ee7565b845260208401935050606081019050614f83565b5050509392505050565b600082601f830112614fc957614fc8614e05565b5b8135614fd9848260208601614f4b565b91505092915050565b600060208284031215614ff857614ff7614b11565b5b600082013567ffffffffffffffff81111561501657615015614b16565b5b61502284828501614fb4565b91505092915050565b60008060006060848603121561504457615043614b11565b5b600061505286828701614d2a565b935050602061506386828701614d2a565b925050604061507486828701614c9f565b9150509250925092565b6000819050919050565b6150918161507e565b811461509c57600080fd5b50565b6000813590506150ae81615088565b92915050565b6000602082840312156150ca576150c9614b11565b5b60006150d88482850161509f565b91505092915050565b6150ea8161507e565b82525050565b600060208201905061510560008301846150e1565b92915050565b6000806040838503121561512257615121614b11565b5b60006151308582860161509f565b925050602061514185828601614d2a565b9150509250929050565b600060ff82169050919050565b6151618161514b565b82525050565b600060208201905061517c6000830184615158565b92915050565b60006020820190506151976000830184614d7f565b92915050565b6000602082840312156151b3576151b2614b11565b5b60006151c184828501614d2a565b91505092915050565b600080604083850312156151e1576151e0614b11565b5b60006151ef85828601614d2a565b925050602061520085828601614ed2565b9150509250929050565b600081519050919050565b600082825260208201905092915050565b6000819050602082019050919050565b61523f81614d01565b82525050565b61524e81614ad3565b82525050565b61525d81614ba0565b82525050565b6060820160008201516152796000850182615236565b50602082015161528c6020850182615245565b50604082015161529f6040850182615254565b50505050565b60006152b18383615263565b60608301905092915050565b6000602082019050919050565b60006152d58261520a565b6152df8185615215565b93506152ea83615226565b8060005b8381101561531b57815161530288826152a5565b975061530d836152bd565b9250506001810190506152ee565b5085935050505092915050565b6000602082019050818103600083015261534281846152ca565b905092915050565b6000806040838503121561536157615360614b11565b5b600061536f85828601614c9f565b925050602061538085828601614d2a565b9150509250929050565b6000819050919050565b60006153af6153aa6153a584614ce1565b61538a565b614ce1565b9050919050565b60006153c182615394565b9050919050565b60006153d3826153b6565b9050919050565b6153e3816153c8565b82525050565b60006020820190506153fe60008301846153da565b92915050565b600061540f826153b6565b9050919050565b61541f81615404565b82525050565b600060208201905061543a6000830184615416565b92915050565b60008060006060848603121561545957615458614b11565b5b600061546786828701614c9f565b935050602061547886828701614d2a565b925050604061548986828701614d2a565b9150509250925092565b600080604083850312156154aa576154a9614b11565b5b60006154b885828601614d2a565b92505060206154c985828601614d2a565b9150509250929050565b6000815190506154e281614c88565b92915050565b6000602082840312156154fe576154fd614b11565b5b600061550c848285016154d3565b91505092915050565b7f4e487b7100000000000000000000000000000000000000000000000000000000600052603260045260246000fd5b61554d8161514b565b811461555857600080fd5b50565b60008151905061556a81615544565b92915050565b60006020828403121561558657615585614b11565b5b60006155948482850161555b565b91505092915050565b7f4e487b7100000000000000000000000000000000000000000000000000000000600052601160045260246000fd5b60006155d782614ad3565b91506155e283614ad3565b92508282026155f081614ad3565b915082820484148315176156075761560661559d565b5b5092915050565b7f4e487b7100000000000000000000000000000000000000000000000000000000600052601260045260246000fd5b600061564882614ad3565b915061565383614ad3565b9250826156635761566261560e565b5b828204905092915050565b600061567982614ad3565b915061568483614ad3565b925082820190508082111561569c5761569b61559d565b5b92915050565b7f4e487b7100000000000000000000000000000000000000000000000000000000600052602260045260246000fd5b600060028204905060018216806156e957607f821691505b6020821081036156fc576156fb6156a2565b5b50919050565b7f457869742066656520746f6f2068696768000000000000000000000000000000600082015250565b6000615738601183614be1565b915061574382615702565b602082019050919050565b600060208201905081810360008301526157678161572b565b9050919050565b7f4d616e6167656d656e742066656520746f6f2068696768000000000000000000600082015250565b60006157a4601783614be1565b91506157af8261576e565b602082019050919050565b600060208201905081810360008301526157d381615797565b9050919050565b60006040820190506157ef6000830185614add565b6157fc6020830184614add565b9392505050565b7f496e76616c696420616464726573730000000000000000000000000000000000600082015250565b6000615839600f83614be1565b915061584482615803565b602082019050919050565b600060208201905081810360008301526158688161582c565b9050919050565b7f496e73756666696369656e742066756e64730000000000000000000000000000600082015250565b60006158a5601283614be1565b91506158b08261586f565b602082019050919050565b600060208201905081810360008301526158d481615898565b9050919050565b60006158e682614ad3565b91506158f183614ad3565b92508282039050818111156159095761590861559d565b5b92915050565b60006040820190506159246000830185614d7f565b6159316020830184614add565b9392505050565b60008151905061594781614ebb565b92915050565b60006020828403121561596357615962614b11565b5b600061597184828501615938565b91505092915050565b7f416c6c6f636174696f6e732063616e6e6f7420626520656d7074790000000000600082015250565b60006159b0601b83614be1565b91506159bb8261597a565b602082019050919050565b600060208201905081810360008301526159df816159a3565b9050919050565b7f5472616e73666572206661696c65640000000000000000000000000000000000600082015250565b6000615a1c600f83614be1565b9150615a27826159e6565b602082019050919050565b60006020820190508181036000830152615a4b81615a0f565b9050919050565b6000615a5d8261514b565b9150615a688361514b565b9250828201905060ff811115615a8157615a8061559d565b5b92915050565b600081519050919050565b600081905092915050565b6000615aa882615a87565b615ab28185615a92565b9350615ac2818560208601614bf2565b80840191505092915050565b6000615ada8284615a9d565b915081905092915050565b7f4d696e7420525741206661696c65640000000000000000000000000000000000600082015250565b6000615b1b600f83614be1565b9150615b2682615ae5565b602082019050919050565b60006020820190508181036000830152615b4a81615b0e565b9050919050565b6000606082019050615b666000830186614d7f565b615b736020830185614add565b615b806040830184614add565b949350505050565b6000615b938261514b565b9150615b9e8361514b565b9250828203905060ff811115615bb757615bb661559d565b5b92915050565b60008160011c9050919050565b6000808291508390505b6001851115615c1457808604811115615bf057615bef61559d565b5b6001851615615bff5780820291505b8081029050615c0d85615bbd565b9450615bd4565b94509492505050565b600082615c2d5760019050615ce9565b81615c3b5760009050615ce9565b8160018114615c515760028114615c5b57615c8a565b6001915050615ce9565b60ff841115615c6d57615c6c61559d565b5b8360020a915084821115615c8457615c8361559d565b5b50615ce9565b5060208310610133831016604e8410600b8410161715615cbf5782820a905083811115615cba57615cb961559d565b5b615ce9565b615ccc8484846001615bca565b92509050818404811115615ce357615ce261559d565b5b81810290505b9392505050565b6000615cfb82614ad3565b9150615d068361514b565b9250615d337fffffffffffffffffffffffffffffffffffffffffffffffffffffffffffffffff8484615c1d565b905092915050565b60008060408385031215615d5257615d51614b11565b5b6000615d60858286016154d3565b9250506020615d718582860161555b565b9150509250929050565b6000606082019050615d906000830186614d7f565b615d9d6020830185614d7f565b615daa6040830184614add565b949350505050565b6000606082019050615dc76000830186614add565b615dd46020830185614add565b615de16040830184614add565b949350505050565b6000604082019050615dfe6000830185614d7f565b615e0b60208301846150e1565b9392505050565b7f4e487b7100000000000000000000000000000000000000000000000000000000600052602160045260246000fd5b6000615e4c8261514b565b9150615e578361514b565b925082615e6757615e6661560e565b5b82820690509291505056fea264697066735822122001e6bbae451cbd2845f28f74ea49b927baccead4f45e4a7a8f32eb80c0bc4cf564736f6c634300081c0033",
  "linkReferences": {},
  "deployedLinkReferences": {}
}