{
  "_format": "hh-sol-artifact-1",
  "contractName": "Vault",
  "sourceName": "contracts/Vault.sol",
  "abi": [
    {
      "inputs": [
        {
          "internalType": "contract IERC20",
          "name": "asset_",
          "type": "address"
        },
        {
          "internalType": "string",
          "name": "label",
          "type": "string"
        },
        {
          "internalType": "address",
          "name": "treasury_",
          "type": "address"
        },
        {
          "internalType": "contract TokenRegistry",
          "name": "registry_",
          "type": "address"
        },
        {
          "internalType": "contract IPriceOracle",
          "name": "oracle_",
          "type": "address"
        }
      ],
      "stateMutability": "nonpayable",
      "type": "constructor"
    },
    {
      "inputs": [
        {
          "internalType": "address",
          "name": "spender",
          "type": "address"
        },
        {
          "internalType": "uint256",
          "name": "allowance",
          "type": "uint256"
        },
        {
          "internalType": "uint256",
          "name": "needed",
          "type": "uint256"
        }
      ],
      "name": "ERC20InsufficientAllowance",
      "type": "error"
    },
    {
      "inputs": [
        {
          "internalType": "address",
          "name": "sender",
          "type": "address"
        },
        {
          "internalType": "uint256",
          "name": "balance",
          "type": "uint256"
        },
        {
          "internalType": "uint256",
          "name": "needed",
          "type": "uint256"
        }
      ],
      "name": "ERC20InsufficientBalance",
      "type": "error"
    },
    {
      "inputs": [
        {
          "internalType": "address",
          "name": "approver",
          "type": "address"
        }
      ],
      "name": "ERC20InvalidApprover",
      "type": "error"
    },
    {
      "inputs": [
        {
          "internalType": "address",
          "name": "receiver",
          "type": "address"
        }
      ],
      "name": "ERC20InvalidReceiver",
      "type": "error"
    },
    {
      "inputs": [
        {
          "internalType": "address",
          "name": "sender",
          "type": "address"
        }
      ],
      "name": "ERC20InvalidSender",
      "type": "error"
    },
    {
      "inputs": [
        {
          "internalType": "address",
          "name": "spender",
          "type": "address"
        }
      ],
      "name": "ERC20InvalidSpender",
      "type": "error"
    },
    {
      "inputs": [
        {
          "internalType": "address",
          "name": "receiver",
          "type": "address"
        },
        {
          "internalType": "uint256",
          "name": "assets",
          "type": "uint256"
        },
        {
          "internalType": "uint256",
          "name": "max",
          "type": "uint256"
        }
      ],
      "name": "ERC4626ExceededMaxDeposit",
      "type": "error"
    },
    {
      "inputs": [
        {
          "internalType": "address",
          "name": "receiver",
          "type": "address"
        },
        {
          "internalType": "uint256",
          "name": "shares",
          "type": "uint256"
        },
        {
          "internalType": "uint256",
          "name": "max",
          "type": "uint256"
        }
      ],
      "name": "ERC4626ExceededMaxMint",
      "type": "error"
    },
    {
      "inputs": [
        {
          "internalType": "address",
          "name": "owner",
          "type": "address"
        },
        {
          "internalType": "uint256",
          "name": "shares",
          "type": "uint256"
        },
        {
          "internalType": "uint256",
          "name": "max",
          "type": "uint256"
        }
      ],
      "name": "ERC4626ExceededMaxRedeem",
      "type": "error"
    },
    {
      "inputs": [
        {
          "internalType": "address",
          "name": "owner",
          "type": "address"
        },
        {
          "internalType": "uint256",
          "name": "assets",
          "type": "uint256"
        },
        {
          "internalType": "uint256",
          "name": "max",
          "type": "uint256"
        }
      ],
      "name": "ERC4626ExceededMaxWithdraw",
      "type": "error"
    },
    {
      "inputs": [],
      "name": "EnforcedPause",
      "type": "error"
    },
    {
      "inputs": [],
      "name": "EtherNotAccepted",
      "type": "error"
    },
    {
      "inputs": [],
      "name": "ExpectedPause",
      "type": "error"
    },
    {
      "inputs": [],
      "name": "InvalidAmount",
      "type": "error"
    },
    {
      "inputs": [],
      "name": "InvalidWeightSum",
      "type": "error"
    },
    {
      "inputs": [
        {
          "internalType": "uint256",
          "name": "min",
          "type": "uint256"
        }
      ],
      "name": "MinimumDepositNotMet",
      "type": "error"
    },
    {
      "inputs": [
        {
          "internalType": "uint256",
          "name": "min",
          "type": "uint256"
        }
      ],
      "name": "MinimumRedeemNotMet",
      "type": "error"
    },
    {
      "inputs": [
        {
          "internalType": "uint256",
          "name": "min",
          "type": "uint256"
        }
      ],
      "name": "MinimumWithdrawNotMet",
      "type": "error"
    },
    {
      "inputs": [
        {
          "internalType": "address",
          "name": "owner",
          "type": "address"
        }
      ],
      "name": "OwnableInvalidOwner",
      "type": "error"
    },
    {
      "inputs": [
        {
          "internalType": "address",
          "name": "account",
          "type": "address"
        }
      ],
      "name": "OwnableUnauthorizedAccount",
      "type": "error"
    },
    {
      "inputs": [],
      "name": "Pausable__Paused",
      "type": "error"
    },
    {
      "inputs": [],
      "name": "ReentrancyGuardReentrantCall",
      "type": "error"
    },
    {
      "inputs": [
        {
          "internalType": "address",
          "name": "token",
          "type": "address"
        }
      ],
      "name": "SafeERC20FailedOperation",
      "type": "error"
    },
    {
      "inputs": [],
      "name": "TokenNotRegistered",
      "type": "error"
    },
    {
      "inputs": [],
      "name": "VaultAlreadyBootstrapped",
      "type": "error"
    },
    {
      "inputs": [],
      "name": "ZeroAddress",
      "type": "error"
    },
    {
      "anonymous": false,
      "inputs": [
        {
          "indexed": true,
          "internalType": "address",
          "name": "token",
          "type": "address"
        },
        {
          "indexed": false,
          "internalType": "uint256",
          "name": "amount",
          "type": "uint256"
        }
      ],
      "name": "Allocated",
      "type": "event"
    },
    {
      "anonymous": false,
      "inputs": [
        {
          "indexed": true,
          "internalType": "address",
          "name": "admin",
          "type": "address"
        }
      ],
      "name": "AllocationsUpdated",
      "type": "event"
    },
    {
      "anonymous": false,
      "inputs": [
        {
          "indexed": true,
          "internalType": "address",
          "name": "owner",
          "type": "address"
        },
        {
          "indexed": true,
          "internalType": "address",
          "name": "spender",
          "type": "address"
        },
        {
          "indexed": false,
          "internalType": "uint256",
          "name": "value",
          "type": "uint256"
        }
      ],
      "name": "Approval",
      "type": "event"
    },
    {
      "anonymous": false,
      "inputs": [
        {
          "indexed": true,
          "internalType": "address",
          "name": "sender",
          "type": "address"
        },
        {
          "indexed": true,
          "internalType": "address",
          "name": "owner",
          "type": "address"
        },
        {
          "indexed": false,
          "internalType": "uint256",
          "name": "assets",
          "type": "uint256"
        },
        {
          "indexed": false,
          "internalType": "uint256",
          "name": "shares",
          "type": "uint256"
        }
      ],
      "name": "Deposit",
      "type": "event"
    },
    {
      "anonymous": false,
      "inputs": [
        {
          "indexed": true,
          "internalType": "address",
          "name": "user",
          "type": "address"
        },
        {
          "indexed": false,
          "internalType": "uint256",
          "name": "amount",
          "type": "uint256"
        }
      ],
      "name": "Deposited",
      "type": "event"
    },
    {
      "anonymous": false,
      "inputs": [
        {
          "indexed": true,
          "internalType": "address",
          "name": "user",
          "type": "address"
        },
        {
          "indexed": false,
          "internalType": "uint256",
          "name": "assets",
          "type": "uint256"
        },
        {
          "indexed": false,
          "internalType": "uint256",
          "name": "fee",
          "type": "uint256"
        }
      ],
      "name": "ExitFeeApplied",
      "type": "event"
    },
    {
      "anonymous": false,
      "inputs": [
        {
          "indexed": false,
          "internalType": "uint256",
          "name": "exitFeeBps",
          "type": "uint256"
        },
        {
          "indexed": false,
          "internalType": "uint256",
          "name": "managementFeeBps",
          "type": "uint256"
        }
      ],
      "name": "FeesUpdated",
      "type": "event"
    },
    {
      "anonymous": false,
      "inputs": [
        {
          "indexed": true,
          "internalType": "address",
          "name": "receiver",
          "type": "address"
        },
        {
          "indexed": false,
          "internalType": "uint256",
          "name": "shares",
          "type": "uint256"
        }
      ],
      "name": "ManagementFeeAccrued",
      "type": "event"
    },
    {
      "anonymous": false,
      "inputs": [
        {
          "indexed": true,
          "internalType": "address",
          "name": "previousOwner",
          "type": "address"
        },
        {
          "indexed": true,
          "internalType": "address",
          "name": "newOwner",
          "type": "address"
        }
      ],
      "name": "OwnershipTransferred",
      "type": "event"
    },
    {
      "anonymous": false,
      "inputs": [
        {
          "indexed": false,
          "internalType": "address",
          "name": "account",
          "type": "address"
        }
      ],
      "name": "Paused",
      "type": "event"
    },
    {
      "anonymous": false,
      "inputs": [
        {
          "indexed": true,
          "internalType": "address",
          "name": "from",
          "type": "address"
        },
        {
          "indexed": true,
          "internalType": "address",
          "name": "to",
          "type": "address"
        },
        {
          "indexed": false,
          "internalType": "uint256",
          "name": "value",
          "type": "uint256"
        }
      ],
      "name": "Transfer",
      "type": "event"
    },
    {
      "anonymous": false,
      "inputs": [
        {
          "indexed": true,
          "internalType": "address",
          "name": "to",
          "type": "address"
        },
        {
          "indexed": false,
          "internalType": "uint256",
          "name": "amount",
          "type": "uint256"
        }
      ],
      "name": "TreasuryWithdrawn",
      "type": "event"
    },
    {
      "anonymous": false,
      "inputs": [
        {
          "indexed": false,
          "internalType": "address",
          "name": "account",
          "type": "address"
        }
      ],
      "name": "Unpaused",
      "type": "event"
    },
    {
      "anonymous": false,
      "inputs": [
        {
          "indexed": true,
          "internalType": "address",
          "name": "sender",
          "type": "address"
        },
        {
          "indexed": true,
          "internalType": "address",
          "name": "receiver",
          "type": "address"
        },
        {
          "indexed": true,
          "internalType": "address",
          "name": "owner",
          "type": "address"
        },
        {
          "indexed": false,
          "internalType": "uint256",
          "name": "assets",
          "type": "uint256"
        },
        {
          "indexed": false,
          "internalType": "uint256",
          "name": "shares",
          "type": "uint256"
        }
      ],
      "name": "Withdraw",
      "type": "event"
    },
    {
      "anonymous": false,
      "inputs": [
        {
          "indexed": true,
          "internalType": "address",
          "name": "user",
          "type": "address"
        },
        {
          "indexed": true,
          "internalType": "address",
          "name": "receiver",
          "type": "address"
        },
        {
          "indexed": false,
          "internalType": "uint256",
          "name": "assets",
          "type": "uint256"
        }
      ],
      "name": "WithdrawExecuted",
      "type": "event"
    },
    {
      "stateMutability": "payable",
      "type": "fallback"
    },
    {
      "inputs": [],
      "name": "MAX_FEE_BPS",
      "outputs": [
        {
          "internalType": "uint256",
          "name": "",
          "type": "uint256"
        }
      ],
      "stateMutability": "view",
      "type": "function"
    },
    {
      "inputs": [],
      "name": "MINIMUM_AMOUNT",
      "outputs": [
        {
          "internalType": "uint256",
          "name": "",
          "type": "uint256"
        }
      ],
      "stateMutability": "view",
      "type": "function"
    },
    {
      "inputs": [
        {
          "internalType": "uint256",
          "name": "shares",
          "type": "uint256"
        }
      ],
      "name": "accrueManagementFee",
      "outputs": [],
      "stateMutability": "nonpayable",
      "type": "function"
    },
    {
      "inputs": [
        {
          "internalType": "uint256",
          "name": "",
          "type": "uint256"
        }
      ],
      "name": "allocations",
      "outputs": [
        {
          "internalType": "address",
          "name": "token",
          "type": "address"
        },
        {
          "internalType": "uint256",
          "name": "weight",
          "type": "uint256"
        },
        {
          "internalType": "bool",
          "name": "active",
          "type": "bool"
        }
      ],
      "stateMutability": "view",
      "type": "function"
    },
    {
      "inputs": [
        {
          "internalType": "address",
          "name": "owner",
          "type": "address"
        },
        {
          "internalType": "address",
          "name": "spender",
          "type": "address"
        }
      ],
      "name": "allowance",
      "outputs": [
        {
          "internalType": "uint256",
          "name": "",
          "type": "uint256"
        }
      ],
      "stateMutability": "view",
      "type": "function"
    },
    {
      "inputs": [
        {
          "internalType": "address",
          "name": "spender",
          "type": "address"
        },
        {
          "internalType": "uint256",
          "name": "value",
          "type": "uint256"
        }
      ],
      "name": "approve",
      "outputs": [
        {
          "internalType": "bool",
          "name": "",
          "type": "bool"
        }
      ],
      "stateMutability": "nonpayable",
      "type": "function"
    },
    {
      "inputs": [],
      "name": "asset",
      "outputs": [
        {
          "internalType": "address",
          "name": "",
          "type": "address"
        }
      ],
      "stateMutability": "view",
      "type": "function"
    },
    {
      "inputs": [
        {
          "internalType": "address",
          "name": "account",
          "type": "address"
        }
      ],
      "name": "balanceOf",
      "outputs": [
        {
          "internalType": "uint256",
          "name": "",
          "type": "uint256"
        }
      ],
      "stateMutability": "view",
      "type": "function"
    },
    {
      "inputs": [],
      "name": "bootstrapVault",
      "outputs": [],
      "stateMutability": "nonpayable",
      "type": "function"
    },
    {
      "inputs": [
        {
          "internalType": "uint256",
          "name": "shares",
          "type": "uint256"
        }
      ],
      "name": "convertToAssets",
      "outputs": [
        {
          "internalType": "uint256",
          "name": "",
          "type": "uint256"
        }
      ],
      "stateMutability": "view",
      "type": "function"
    },
    {
      "inputs": [
        {
          "internalType": "uint256",
          "name": "assets",
          "type": "uint256"
        }
      ],
      "name": "convertToShares",
      "outputs": [
        {
          "internalType": "uint256",
          "name": "",
          "type": "uint256"
        }
      ],
      "stateMutability": "view",
      "type": "function"
    },
    {
      "inputs": [],
      "name": "decimals",
      "outputs": [
        {
          "internalType": "uint8",
          "name": "",
          "type": "uint8"
        }
      ],
      "stateMutability": "view",
      "type": "function"
    },
    {
      "inputs": [
        {
          "internalType": "uint256",
          "name": "assets",
          "type": "uint256"
        },
        {
          "internalType": "address",
          "name": "receiver",
          "type": "address"
        }
      ],
      "name": "deposit",
      "outputs": [
        {
          "internalType": "uint256",
          "name": "",
          "type": "uint256"
        }
      ],
      "stateMutability": "nonpayable",
      "type": "function"
    },
    {
      "inputs": [],
      "name": "exitFeeBps",
      "outputs": [
        {
          "internalType": "uint256",
          "name": "",
          "type": "uint256"
        }
      ],
      "stateMutability": "view",
      "type": "function"
    },
    {
      "inputs": [],
      "name": "feeReceiver",
      "outputs": [
        {
          "internalType": "address",
          "name": "",
          "type": "address"
        }
      ],
      "stateMutability": "view",
      "type": "function"
    },
    {
      "inputs": [],
      "name": "getAllocations",
      "outputs": [
        {
          "components": [
            {
              "internalType": "address",
              "name": "token",
              "type": "address"
            },
            {
              "internalType": "uint256",
              "name": "weight",
              "type": "uint256"
            },
            {
              "internalType": "bool",
              "name": "active",
              "type": "bool"
            }
          ],
          "internalType": "struct Vault.AssetAllocation[]",
          "name": "",
          "type": "tuple[]"
        }
      ],
      "stateMutability": "view",
      "type": "function"
    },
    {
      "inputs": [
        {
          "internalType": "address",
          "name": "",
          "type": "address"
        }
      ],
      "name": "isAdmin",
      "outputs": [
        {
          "internalType": "bool",
          "name": "",
          "type": "bool"
        }
      ],
      "stateMutability": "view",
      "type": "function"
    },
    {
      "inputs": [
        {
          "internalType": "address",
          "name": "",
          "type": "address"
        }
      ],
      "name": "isWhitelisted",
      "outputs": [
        {
          "internalType": "bool",
          "name": "",
          "type": "bool"
        }
      ],
      "stateMutability": "view",
      "type": "function"
    },
    {
      "inputs": [],
      "name": "managementFeeBps",
      "outputs": [
        {
          "internalType": "uint256",
          "name": "",
          "type": "uint256"
        }
      ],
      "stateMutability": "view",
      "type": "function"
    },
    {
      "inputs": [
        {
          "internalType": "address",
          "name": "",
          "type": "address"
        }
      ],
      "name": "maxDeposit",
      "outputs": [
        {
          "internalType": "uint256",
          "name": "",
          "type": "uint256"
        }
      ],
      "stateMutability": "view",
      "type": "function"
    },
    {
      "inputs": [
        {
          "internalType": "address",
          "name": "",
          "type": "address"
        }
      ],
      "name": "maxMint",
      "outputs": [
        {
          "internalType": "uint256",
          "name": "",
          "type": "uint256"
        }
      ],
      "stateMutability": "view",
      "type": "function"
    },
    {
      "inputs": [
        {
          "internalType": "address",
          "name": "owner",
          "type": "address"
        }
      ],
      "name": "maxRedeem",
      "outputs": [
        {
          "internalType": "uint256",
          "name": "",
          "type": "uint256"
        }
      ],
      "stateMutability": "view",
      "type": "function"
    },
    {
      "inputs": [
        {
          "internalType": "address",
          "name": "owner",
          "type": "address"
        }
      ],
      "name": "maxWithdraw",
      "outputs": [
        {
          "internalType": "uint256",
          "name": "",
          "type": "uint256"
        }
      ],
      "stateMutability": "view",
      "type": "function"
    },
    {
      "inputs": [
        {
          "internalType": "uint256",
          "name": "shares",
          "type": "uint256"
        },
        {
          "internalType": "address",
          "name": "receiver",
          "type": "address"
        }
      ],
      "name": "mint",
      "outputs": [
        {
          "internalType": "uint256",
          "name": "",
          "type": "uint256"
        }
      ],
      "stateMutability": "nonpayable",
      "type": "function"
    },
    {
      "inputs": [],
      "name": "name",
      "outputs": [
        {
          "internalType": "string",
          "name": "",
          "type": "string"
        }
      ],
      "stateMutability": "view",
      "type": "function"
    },
    {
      "inputs": [],
      "name": "oracle",
      "outputs": [
        {
          "internalType": "contract IPriceOracle",
          "name": "",
          "type": "address"
        }
      ],
      "stateMutability": "view",
      "type": "function"
    },
    {
      "inputs": [],
      "name": "owner",
      "outputs": [
        {
          "internalType": "address",
          "name": "",
          "type": "address"
        }
      ],
      "stateMutability": "view",
      "type": "function"
    },
    {
      "inputs": [],
      "name": "pause",
      "outputs": [],
      "stateMutability": "nonpayable",
      "type": "function"
    },
    {
      "inputs": [],
      "name": "paused",
      "outputs": [
        {
          "internalType": "bool",
          "name": "",
          "type": "bool"
        }
      ],
      "stateMutability": "view",
      "type": "function"
    },
    {
      "inputs": [
        {
          "internalType": "uint256",
          "name": "assets",
          "type": "uint256"
        }
      ],
      "name": "previewDeposit",
      "outputs": [
        {
          "internalType": "uint256",
          "name": "",
          "type": "uint256"
        }
      ],
      "stateMutability": "view",
      "type": "function"
    },
    {
      "inputs": [
        {
          "internalType": "uint256",
          "name": "shares",
          "type": "uint256"
        }
      ],
      "name": "previewMint",
      "outputs": [
        {
          "internalType": "uint256",
          "name": "",
          "type": "uint256"
        }
      ],
      "stateMutability": "view",
      "type": "function"
    },
    {
      "inputs": [
        {
          "internalType": "uint256",
          "name": "shares",
          "type": "uint256"
        }
      ],
      "name": "previewRedeem",
      "outputs": [
        {
          "internalType": "uint256",
          "name": "",
          "type": "uint256"
        }
      ],
      "stateMutability": "view",
      "type": "function"
    },
    {
      "inputs": [
        {
          "internalType": "uint256",
          "name": "assets",
          "type": "uint256"
        }
      ],
      "name": "previewWithdraw",
      "outputs": [
        {
          "internalType": "uint256",
          "name": "",
          "type": "uint256"
        }
      ],
      "stateMutability": "view",
      "type": "function"
    },
    {
      "inputs": [
        {
          "internalType": "uint256",
          "name": "shares",
          "type": "uint256"
        },
        {
          "internalType": "address",
          "name": "receiver",
          "type": "address"
        },
        {
          "internalType": "address",
          "name": "owner",
          "type": "address"
        }
      ],
      "name": "redeem",
      "outputs": [
        {
          "internalType": "uint256",
          "name": "",
          "type": "uint256"
        }
      ],
      "stateMutability": "nonpayable",
      "type": "function"
    },
    {
      "inputs": [],
      "name": "registry",
      "outputs": [
        {
          "internalType": "contract TokenRegistry",
          "name": "",
          "type": "address"
        }
      ],
      "stateMutability": "view",
      "type": "function"
    },
    {
      "inputs": [],
      "name": "renounceOwnership",
      "outputs": [],
      "stateMutability": "nonpayable",
      "type": "function"
    },
    {
      "inputs": [
        {
          "internalType": "address",
          "name": "_addr",
          "type": "address"
        },
        {
          "internalType": "bool",
          "name": "_status",
          "type": "bool"
        }
      ],
      "name": "setAdmin",
      "outputs": [],
      "stateMutability": "nonpayable",
      "type": "function"
    },
    {
      "inputs": [
        {
          "components": [
            {
              "internalType": "address",
              "name": "token",
              "type": "address"
            },
            {
              "internalType": "uint256",
              "name": "weight",
              "type": "uint256"
            },
            {
              "internalType": "bool",
              "name": "active",
              "type": "bool"
            }
          ],
          "internalType": "struct Vault.AssetAllocation[]",
          "name": "newAllocations",
          "type": "tuple[]"
        }
      ],
      "name": "setAllocations",
      "outputs": [],
      "stateMutability": "nonpayable",
      "type": "function"
    },
    {
      "inputs": [
        {
          "internalType": "address",
          "name": "newReceiver",
          "type": "address"
        }
      ],
      "name": "setFeeReceiver",
      "outputs": [],
      "stateMutability": "nonpayable",
      "type": "function"
    },
    {
      "inputs": [
        {
          "internalType": "uint256",
          "name": "_exitFeeBps",
          "type": "uint256"
        },
        {
          "internalType": "uint256",
          "name": "_managementFeeBps",
          "type": "uint256"
        }
      ],
      "name": "setFees",
      "outputs": [],
      "stateMutability": "nonpayable",
      "type": "function"
    },
    {
      "inputs": [
        {
          "internalType": "address",
          "name": "_addr",
          "type": "address"
        },
        {
          "internalType": "bool",
          "name": "_status",
          "type": "bool"
        }
      ],
      "name": "setWhitelisted",
      "outputs": [],
      "stateMutability": "nonpayable",
      "type": "function"
    },
    {
      "inputs": [],
      "name": "strategyLabel",
      "outputs": [
        {
          "internalType": "string",
          "name": "",
          "type": "string"
        }
      ],
      "stateMutability": "view",
      "type": "function"
    },
    {
      "inputs": [],
      "name": "symbol",
      "outputs": [
        {
          "internalType": "string",
          "name": "",
          "type": "string"
        }
      ],
      "stateMutability": "view",
      "type": "function"
    },
    {
      "inputs": [],
      "name": "totalAssets",
      "outputs": [
        {
          "internalType": "uint256",
          "name": "",
          "type": "uint256"
        }
      ],
      "stateMutability": "view",
      "type": "function"
    },
    {
      "inputs": [],
      "name": "totalSupply",
      "outputs": [
        {
          "internalType": "uint256",
          "name": "",
          "type": "uint256"
        }
      ],
      "stateMutability": "view",
      "type": "function"
    },
    {
      "inputs": [
        {
          "internalType": "address",
          "name": "to",
          "type": "address"
        },
        {
          "internalType": "uint256",
          "name": "value",
          "type": "uint256"
        }
      ],
      "name": "transfer",
      "outputs": [
        {
          "internalType": "bool",
          "name": "",
          "type": "bool"
        }
      ],
      "stateMutability": "nonpayable",
      "type": "function"
    },
    {
      "inputs": [
        {
          "internalType": "address",
          "name": "from",
          "type": "address"
        },
        {
          "internalType": "address",
          "name": "to",
          "type": "address"
        },
        {
          "internalType": "uint256",
          "name": "value",
          "type": "uint256"
        }
      ],
      "name": "transferFrom",
      "outputs": [
        {
          "internalType": "bool",
          "name": "",
          "type": "bool"
        }
      ],
      "stateMutability": "nonpayable",
      "type": "function"
    },
    {
      "inputs": [
        {
          "internalType": "address",
          "name": "newOwner",
          "type": "address"
        }
      ],
      "name": "transferOwnership",
      "outputs": [],
      "stateMutability": "nonpayable",
      "type": "function"
    },
    {
      "inputs": [],
      "name": "treasury",
      "outputs": [
        {
          "internalType": "address",
          "name": "",
          "type": "address"
        }
      ],
      "stateMutability": "view",
      "type": "function"
    },
    {
      "inputs": [],
      "name": "treasuryBalance",
      "outputs": [
        {
          "internalType": "uint256",
          "name": "",
          "type": "uint256"
        }
      ],
      "stateMutability": "view",
      "type": "function"
    },
    {
      "inputs": [],
      "name": "unpause",
      "outputs": [],
      "stateMutability": "nonpayable",
      "type": "function"
    },
    {
      "inputs": [
        {
          "internalType": "uint256",
          "name": "assets",
          "type": "uint256"
        },
        {
          "internalType": "address",
          "name": "receiver",
          "type": "address"
        },
        {
          "internalType": "address",
          "name": "owner",
          "type": "address"
        }
      ],
      "name": "withdraw",
      "outputs": [
        {
          "internalType": "uint256",
          "name": "",
          "type": "uint256"
        }
      ],
      "stateMutability": "nonpayable",
      "type": "function"
    },
    {
      "inputs": [
        {
          "internalType": "address",
          "name": "to",
          "type": "address"
        },
        {
          "internalType": "uint256",
          "name": "amount",
          "type": "uint256"
        }
      ],
      "name": "withdrawTreasury",
      "outputs": [],
      "stateMutability": "nonpayable",
      "type": "function"
    },
    {
      "stateMutability": "payable",
      "type": "receive"
    }
  ],
  "bytecode": "0x61012060405234801561001157600080fd5b5060405161617338038061617383398181016040528101906100339190610727565b33856040518060400160405280601381526020017f4b696e6f736869205661756c74205368617265000000000000000000000000008152506040518060400160405280600681526020017f4b4e53485653000000000000000000000000000000000000000000000000000081525081600390816100b091906109df565b5080600490816100c091906109df565b5050506000806100d5836102c460201b60201c565b91509150816100e55760126100e7565b805b60ff1660a08160ff16815250508273ffffffffffffffffffffffffffffffffffffffff1660808173ffffffffffffffffffffffffffffffffffffffff1681525050505050600073ffffffffffffffffffffffffffffffffffffffff168173ffffffffffffffffffffffffffffffffffffffff160361019d5760006040517f1e4fbdf70000000000000000000000000000000000000000000000000000000081526004016101949190610ac0565b60405180910390fd5b6101ac816103d460201b60201c565b50600160068190555083600890816101c491906109df565b508273ffffffffffffffffffffffffffffffffffffffff1660c08173ffffffffffffffffffffffffffffffffffffffff16815250508173ffffffffffffffffffffffffffffffffffffffff1660e08173ffffffffffffffffffffffffffffffffffffffff16815250508073ffffffffffffffffffffffffffffffffffffffff166101008173ffffffffffffffffffffffffffffffffffffffff16815250506001600d60003373ffffffffffffffffffffffffffffffffffffffff1673ffffffffffffffffffffffffffffffffffffffff16815260200190815260200160002060006101000a81548160ff0219169083151502179055505050505050610b92565b6000806000808473ffffffffffffffffffffffffffffffffffffffff1660405160240160405160208183030381529060405263313ce56760e01b6020820180517bffffffffffffffffffffffffffffffffffffffffffffffffffffffff83818316178352505050506040516103399190610b22565b600060405180830381855afa9150503d8060008114610374576040519150601f19603f3d011682016040523d82523d6000602084013e610379565b606091505b509150915081801561038d57506020815110155b156103c5576000818060200190518101906103a89190610b65565b905060ff801681116103c357600181945094505050506103cf565b505b6000809350935050505b915091565b6000600560009054906101000a900473ffffffffffffffffffffffffffffffffffffffff16905081600560006101000a81548173ffffffffffffffffffffffffffffffffffffffff021916908373ffffffffffffffffffffffffffffffffffffffff1602179055508173ffffffffffffffffffffffffffffffffffffffff168173ffffffffffffffffffffffffffffffffffffffff167f8be0079c531659141344cd1fd0a4f28419497f9722a3daafe3b4186f6b6457e060405160405180910390a35050565b6000604051905090565b600080fd5b600080fd5b600073ffffffffffffffffffffffffffffffffffffffff82169050919050565b60006104d9826104ae565b9050919050565b60006104eb826104ce565b9050919050565b6104fb816104e0565b811461050657600080fd5b50565b600081519050610518816104f2565b92915050565b600080fd5b600080fd5b6000601f19601f8301169050919050565b7f4e487b7100000000000000000000000000000000000000000000000000000000600052604160045260246000fd5b61057182610528565b810181811067ffffffffffffffff821117156105905761058f610539565b5b80604052505050565b60006105a361049a565b90506105af8282610568565b919050565b600067ffffffffffffffff8211156105cf576105ce610539565b5b6105d882610528565b9050602081019050919050565b60005b838110156106035780820151818401526020810190506105e8565b60008484015250505050565b600061062261061d846105b4565b610599565b90508281526020810184848401111561063e5761063d610523565b5b6106498482856105e5565b509392505050565b600082601f8301126106665761066561051e565b5b815161067684826020860161060f565b91505092915050565b610688816104ce565b811461069357600080fd5b50565b6000815190506106a58161067f565b92915050565b60006106b6826104ce565b9050919050565b6106c6816106ab565b81146106d157600080fd5b50565b6000815190506106e3816106bd565b92915050565b60006106f4826104ce565b9050919050565b610704816106e9565b811461070f57600080fd5b50565b600081519050610721816106fb565b92915050565b600080600080600060a08688031215610743576107426104a4565b5b600061075188828901610509565b955050602086015167ffffffffffffffff811115610772576107716104a9565b5b61077e88828901610651565b945050604061078f88828901610696565b93505060606107a0888289016106d4565b92505060806107b188828901610712565b9150509295509295909350565b600081519050919050565b7f4e487b7100000000000000000000000000000000000000000000000000000000600052602260045260246000fd5b6000600282049050600182168061081057607f821691505b602082108103610823576108226107c9565b5b50919050565b60008190508160005260206000209050919050565b60006020601f8301049050919050565b600082821b905092915050565b60006008830261088b7fffffffffffffffffffffffffffffffffffffffffffffffffffffffffffffffff8261084e565b610895868361084e565b95508019841693508086168417925050509392505050565b6000819050919050565b6000819050919050565b60006108dc6108d76108d2846108ad565b6108b7565b6108ad565b9050919050565b6000819050919050565b6108f6836108c1565b61090a610902826108e3565b84845461085b565b825550505050565b600090565b61091f610912565b61092a8184846108ed565b505050565b5b8181101561094e57610943600082610917565b600181019050610930565b5050565b601f8211156109935761096481610829565b61096d8461083e565b8101602085101561097c578190505b6109906109888561083e565b83018261092f565b50505b505050565b600082821c905092915050565b60006109b660001984600802610998565b1980831691505092915050565b60006109cf83836109a5565b9150826002028217905092915050565b6109e8826107be565b67ffffffffffffffff811115610a0157610a00610539565b5b610a0b82546107f8565b610a16828285610952565b600060209050601f831160018114610a495760008415610a37578287015190505b610a4185826109c3565b865550610aa9565b601f198416610a5786610829565b60005b82811015610a7f57848901518255600182019150602085019450602081019050610a5a565b86831015610a9c5784890151610a98601f8916826109a5565b8355505b6001600288020188555050505b505050505050565b610aba816104ce565b82525050565b6000602082019050610ad56000830184610ab1565b92915050565b600081519050919050565b600081905092915050565b6000610afc82610adb565b610b068185610ae6565b9350610b168185602086016105e5565b80840191505092915050565b6000610b2e8284610af1565b915081905092915050565b610b42816108ad565b8114610b4d57600080fd5b50565b600081519050610b5f81610b39565b92915050565b600060208284031215610b7b57610b7a6104a4565b5b6000610b8984828501610b50565b91505092915050565b60805160a05160c05160e0516101005161555e610c156000396000818161256d015261302c0152600081816111c901528181611a01015281816122990152818161254901526130cb015260008181611c8901528181611d2001528181611d4701528181611f170152612ae801526000611dc301526000611e01015261555e6000f3fe60806040526004361061031e5760003560e01c806365ed6e23116101ab578063b3f00674116100f7578063d905777e11610095578063ef8b30f71161006f578063ef8b30f714610ce2578063efdcd97414610d1f578063f2fde38b14610d48578063fc97bccc14610d7157610355565b8063d905777e14610c3f578063dd62ed3e14610c7c578063ddc563ca14610cb957610355565b8063c63d75b6116100d1578063c63d75b614610b5d578063c6e6f59214610b9a578063ce96cb7714610bd7578063d55be8c614610c1457610355565b8063b3f0067414610ab8578063b460af9414610ae3578063ba08765214610b2057610355565b80638456cb591161016457806394bf804d1161013e57806394bf804d146109d657806395d89b4114610a13578063a9059cbb14610a3e578063b3d7f6b914610a7b57610355565b80638456cb591461096b5780638da5cb5b146109825780639281aa0b146109ad57610355565b806365ed6e23146108595780636e553f651461088457806370a08231146108c1578063715018a6146108fe5780637b103999146109155780637dc0d1d01461094057610355565b806328f728341161026a5780633f4ba83a116102235780634cdad506116101fd5780634cdad5061461079b57806357b17a52146107d85780635c975abb1461080357806361d027b31461082e57610355565b80633f4ba83a1461071e578063402d267d146107355780634b0bddd21461077257610355565b806328f728341461061e578063313ce56714610635578063313dab20146106605780633813c35a1461068b57806338d52e0f146106b65780633af32abf146106e157610355565b80630b78f9c0116102d757806318160ddd116102b157806318160ddd1461054e57806323b872dd1461057957806324d7806c146105b6578063257d9bb8146105f357610355565b80630b78f9c0146104d35780630d86419a146104fc578063134666791461052557610355565b806301e1d1141461038757806306fdde03146103b257806307a2d13a146103dd578063095ea7b31461041a5780630a2642bf146104575780630a28a4771461049657610355565b36610355576040517f3733483400000000000000000000000000000000000000000000000000000000815260040160405180910390fd5b6040517f3733483400000000000000000000000000000000000000000000000000000000815260040160405180910390fd5b34801561039357600080fd5b5061039c610d9c565b6040516103a99190614354565b60405180910390f35b3480156103be57600080fd5b506103c76112d9565b6040516103d491906143ff565b60405180910390f35b3480156103e957600080fd5b5061040460048036038101906103ff9190614461565b61136b565b6040516104119190614354565b60405180910390f35b34801561042657600080fd5b50610441600480360381019061043c91906144ec565b61137f565b60405161044e9190614547565b60405180910390f35b34801561046357600080fd5b5061047e60048036038101906104799190614461565b6113a2565b60405161048d93929190614571565b60405180910390f35b3480156104a257600080fd5b506104bd60048036038101906104b89190614461565b611409565b6040516104ca9190614354565b60405180910390f35b3480156104df57600080fd5b506104fa60048036038101906104f591906145a8565b61141d565b005b34801561050857600080fd5b50610523600480360381019061051e91906144ec565b61157e565b005b34801561053157600080fd5b5061054c600480360381019061054791906147c5565b6117af565b005b34801561055a57600080fd5b50610563611bb0565b6040516105709190614354565b60405180910390f35b34801561058557600080fd5b506105a0600480360381019061059b919061480e565b611bba565b6040516105ad9190614547565b60405180910390f35b3480156105c257600080fd5b506105dd60048036038101906105d89190614861565b611be9565b6040516105ea9190614547565b60405180910390f35b3480156105ff57600080fd5b50610608611c09565b6040516106159190614354565b60405180910390f35b34801561062a57600080fd5b50610633611c11565b005b34801561064157600080fd5b5061064a611db7565b60405161065791906148aa565b60405180910390f35b34801561066c57600080fd5b50610675611df1565b6040516106829190614354565b60405180910390f35b34801561069757600080fd5b506106a0611df7565b6040516106ad9190614354565b60405180910390f35b3480156106c257600080fd5b506106cb611dfd565b6040516106d891906148c5565b60405180910390f35b3480156106ed57600080fd5b5061070860048036038101906107039190614861565b611e25565b6040516107159190614547565b60405180910390f35b34801561072a57600080fd5b50610733611e45565b005b34801561074157600080fd5b5061075c60048036038101906107579190614861565b611e57565b6040516107699190614354565b60405180910390f35b34801561077e57600080fd5b50610799600480360381019061079491906148e0565b611e81565b005b3480156107a757600080fd5b506107c260048036038101906107bd9190614461565b611ee4565b6040516107cf9190614354565b60405180910390f35b3480156107e457600080fd5b506107ed611ef8565b6040516107fa9190614354565b60405180910390f35b34801561080f57600080fd5b50610818611efe565b6040516108259190614547565b60405180910390f35b34801561083a57600080fd5b50610843611f15565b60405161085091906148c5565b60405180910390f35b34801561086557600080fd5b5061086e611f39565b60405161087b9190614a3e565b60405180910390f35b34801561089057600080fd5b506108ab60048036038101906108a69190614a60565b612013565b6040516108b89190614354565b60405180910390f35b3480156108cd57600080fd5b506108e860048036038101906108e39190614861565b6124eb565b6040516108f59190614354565b60405180910390f35b34801561090a57600080fd5b50610913612533565b005b34801561092157600080fd5b5061092a612547565b6040516109379190614aff565b60405180910390f35b34801561094c57600080fd5b5061095561256b565b6040516109629190614b3b565b60405180910390f35b34801561097757600080fd5b5061098061258f565b005b34801561098e57600080fd5b506109976125a1565b6040516109a491906148c5565b60405180910390f35b3480156109b957600080fd5b506109d460048036038101906109cf91906148e0565b6125cb565b005b3480156109e257600080fd5b506109fd60048036038101906109f89190614a60565b61262e565b604051610a0a9190614354565b60405180910390f35b348015610a1f57600080fd5b50610a286126b0565b604051610a3591906143ff565b60405180910390f35b348015610a4a57600080fd5b50610a656004803603810190610a6091906144ec565b612742565b604051610a729190614547565b60405180910390f35b348015610a8757600080fd5b50610aa26004803603810190610a9d9190614461565b612765565b604051610aaf9190614354565b60405180910390f35b348015610ac457600080fd5b50610acd612779565b604051610ada91906148c5565b60405180910390f35b348015610aef57600080fd5b50610b0a6004803603810190610b059190614b56565b61279f565b604051610b179190614354565b60405180910390f35b348015610b2c57600080fd5b50610b476004803603810190610b429190614b56565b612909565b604051610b549190614354565b60405180910390f35b348015610b6957600080fd5b50610b846004803603810190610b7f9190614861565b612be8565b604051610b919190614354565b60405180910390f35b348015610ba657600080fd5b50610bc16004803603810190610bbc9190614461565b612c12565b604051610bce9190614354565b60405180910390f35b348015610be357600080fd5b50610bfe6004803603810190610bf99190614861565b612c26565b604051610c0b9190614354565b60405180910390f35b348015610c2057600080fd5b50610c29612c42565b604051610c369190614354565b60405180910390f35b348015610c4b57600080fd5b50610c666004803603810190610c619190614861565b612c48565b604051610c739190614354565b60405180910390f35b348015610c8857600080fd5b50610ca36004803603810190610c9e9190614ba9565b612c5a565b604051610cb09190614354565b60405180910390f35b348015610cc557600080fd5b50610ce06004803603810190610cdb9190614461565b612ce1565b005b348015610cee57600080fd5b50610d096004803603810190610d049190614461565b612dc2565b604051610d169190614354565b60405180910390f35b348015610d2b57600080fd5b50610d466004803603810190610d419190614861565b612dd6565b005b348015610d5457600080fd5b50610d6f6004803603810190610d6a9190614861565b612e88565b005b348015610d7d57600080fd5b50610d86612f0e565b604051610d9391906143ff565b60405180910390f35b600080610da7611bb0565b118015610e3457506000610db9611dfd565b73ffffffffffffffffffffffffffffffffffffffff166370a08231306040518263ffffffff1660e01b8152600401610df191906148c5565b602060405180830381865afa158015610e0e573d6000803e3d6000fd5b505050506040513d601f19601f82011682018060405250810190610e329190614bfe565b115b1561107c576000805b600780549050811015610feb5760078181548110610e5e57610e5d614c2b565b5b906000526020600020906003020160020160009054906101000a900460ff168015610f015750610e8c611dfd565b73ffffffffffffffffffffffffffffffffffffffff1660078281548110610eb657610eb5614c2b565b5b906000526020600020906003020160000160009054906101000a900473ffffffffffffffffffffffffffffffffffffffff1673ffffffffffffffffffffffffffffffffffffffff1614155b15610fde57600060078281548110610f1c57610f1b614c2b565b5b906000526020600020906003020160000160009054906101000a900473ffffffffffffffffffffffffffffffffffffffff1673ffffffffffffffffffffffffffffffffffffffff166370a08231306040518263ffffffff1660e01b8152600401610f8691906148c5565b602060405180830381865afa158015610fa3573d6000803e3d6000fd5b505050506040513d601f19601f82011682018060405250810190610fc79190614bfe565b90506000811115610fdc576001925050610feb565b505b8080600101915050610e3d565b508061107a57610ff9611dfd565b73ffffffffffffffffffffffffffffffffffffffff166370a08231306040518263ffffffff1660e01b815260040161103191906148c5565b602060405180830381865afa15801561104e573d6000803e3d6000fd5b505050506040513d601f19601f820116820180604052508101906110729190614bfe565b9150506112d6565b505b6000805b6007805490508110156112d0576000600782815481106110a3576110a2614c2b565b5b90600052602060002090600302016040518060600160405290816000820160009054906101000a900473ffffffffffffffffffffffffffffffffffffffff1673ffffffffffffffffffffffffffffffffffffffff1673ffffffffffffffffffffffffffffffffffffffff168152602001600182015481526020016002820160009054906101000a900460ff16151515158152505090508060400151156112c2576000816000015173ffffffffffffffffffffffffffffffffffffffff166370a08231306040518263ffffffff1660e01b815260040161118291906148c5565b602060405180830381865afa15801561119f573d6000803e3d6000fd5b505050506040513d601f19601f820116820180604052508101906111c39190614bfe565b905060007f000000000000000000000000000000000000000000000000000000000000000073ffffffffffffffffffffffffffffffffffffffff1663785c7cf684600001516040518263ffffffff1660e01b815260040161122491906148c5565b602060405180830381865afa158015611241573d6000803e3d6000fd5b505050506040513d601f19601f820116820180604052508101906112659190614c86565b905060006112738383612f9c565b90506000611285856000015183613015565b90506000670de0b6b3a76400008660200151836112a29190614ce2565b6112ac9190614d53565b905080886112ba9190614d84565b975050505050505b508080600101915050611080565b50809150505b90565b6060600380546112e890614de7565b80601f016020809104026020016040519081016040528092919081815260200182805461131490614de7565b80156113615780601f1061133657610100808354040283529160200191611361565b820191906000526020600020905b81548152906001019060200180831161134457829003601f168201915b5050505050905090565b60006113788260006131af565b9050919050565b60008061138a613208565b9050611397818585613210565b600191505092915050565b600781815481106113b257600080fd5b90600052602060002090600302016000915090508060000160009054906101000a900473ffffffffffffffffffffffffffffffffffffffff16908060010154908060020160009054906101000a900460ff16905083565b6000611416826001613222565b9050919050565b600d60003373ffffffffffffffffffffffffffffffffffffffff1673ffffffffffffffffffffffffffffffffffffffff16815260200190815260200160002060009054906101000a900460ff166114a9576040517f08c379a00000000000000000000000000000000000000000000000000000000081526004016114a090614e64565b60405180910390fd5b6103e88211156114ee576040517f08c379a00000000000000000000000000000000000000000000000000000000081526004016114e590614ed0565b60405180910390fd5b6103e8811115611533576040517f08c379a000000000000000000000000000000000000000000000000000000000815260040161152a90614f3c565b60405180910390fd5b8160098190555080600a819055507f5c6323bf1c2d7aaea2c091a4751c1c87af7f2864650c336507a77d0557af37a18282604051611572929190614f5c565b60405180910390a15050565b600d60003373ffffffffffffffffffffffffffffffffffffffff1673ffffffffffffffffffffffffffffffffffffffff16815260200190815260200160002060009054906101000a900460ff1661160a576040517f08c379a000000000000000000000000000000000000000000000000000000000815260040161160190614e64565b60405180910390fd5b600073ffffffffffffffffffffffffffffffffffffffff168273ffffffffffffffffffffffffffffffffffffffff1603611679576040517f08c379a000000000000000000000000000000000000000000000000000000000815260040161167090614fd1565b60405180910390fd5b600c548111156116be576040517f08c379a00000000000000000000000000000000000000000000000000000000081526004016116b59061503d565b60405180910390fd5b80600c60008282546116d0919061505d565b925050819055506116df611dfd565b73ffffffffffffffffffffffffffffffffffffffff1663a9059cbb83836040518363ffffffff1660e01b8152600401611719929190615091565b6020604051808303816000875af1158015611738573d6000803e3d6000fd5b505050506040513d601f19601f8201168201806040525081019061175c91906150cf565b508173ffffffffffffffffffffffffffffffffffffffff167f41fdd680478135993bc53fb2ffaf9560951b57ef62ff6badd02b61e018b4f17f826040516117a39190614354565b60405180910390a25050565b600d60003373ffffffffffffffffffffffffffffffffffffffff1673ffffffffffffffffffffffffffffffffffffffff16815260200190815260200160002060009054906101000a900460ff1661183b576040517f08c379a000000000000000000000000000000000000000000000000000000000815260040161183290614e64565b60405180910390fd5b600081511161187f576040517f08c379a000000000000000000000000000000000000000000000000000000000815260040161187690615148565b60405180910390fd5b6007600061188d91906142bd565b600080600090505b8251811015611b2757600073ffffffffffffffffffffffffffffffffffffffff168382815181106118c9576118c8614c2b565b5b60200260200101516000015173ffffffffffffffffffffffffffffffffffffffff1603611922576040517fd92e233d00000000000000000000000000000000000000000000000000000000815260040160405180910390fd5b600783828151811061193757611936614c2b565b5b6020026020010151908060018154018082558091505060019003906000526020600020906003020160009091909190915060008201518160000160006101000a81548173ffffffffffffffffffffffffffffffffffffffff021916908373ffffffffffffffffffffffffffffffffffffffff1602179055506020820151816001015560408201518160020160006101000a81548160ff02191690831515021790555050508281815181106119ee576119ed614c2b565b5b60200260200101516040015115611b1a577f000000000000000000000000000000000000000000000000000000000000000073ffffffffffffffffffffffffffffffffffffffff166326aa101f848381518110611a4e57611a4d614c2b565b5b6020026020010151600001516040518263ffffffff1660e01b8152600401611a7691906148c5565b602060405180830381865afa158015611a93573d6000803e3d6000fd5b505050506040513d601f19601f82011682018060405250810190611ab791906150cf565b611aed576040517f259ba1ad00000000000000000000000000000000000000000000000000000000815260040160405180910390fd5b828181518110611b0057611aff614c2b565b5b60200260200101516020015182611b179190614d84565b91505b8080600101915050611895565b50670de0b6b3a76400008114611b69576040517f940addc700000000000000000000000000000000000000000000000000000000815260040160405180910390fd5b3373ffffffffffffffffffffffffffffffffffffffff167fe12b8d1d4a7f7412a024aee54caca7fbc2f384591f10a085a28f47f518661c6460405160405180910390a25050565b6000600254905090565b600080611bc5613208565b9050611bd285828561327b565b611bdd858585613310565b60019150509392505050565b600d6020528060005260406000206000915054906101000a900460ff1681565b6302faf08081565b611c19613404565b6000611c23611bb0565b1115611c5b576040517f5f9863ad00000000000000000000000000000000000000000000000000000000815260040160405180910390fd5b6000630bebc2009050611c6c611dfd565b73ffffffffffffffffffffffffffffffffffffffff166323b872dd7f000000000000000000000000000000000000000000000000000000000000000030846040518463ffffffff1660e01b8152600401611cc893929190615168565b6020604051808303816000875af1158015611ce7573d6000803e3d6000fd5b505050506040513d601f19601f82011682018060405250810190611d0b91906150cf565b506000611d19826006612f9c565b9050611d457f00000000000000000000000000000000000000000000000000000000000000008261348b565b7f000000000000000000000000000000000000000000000000000000000000000073ffffffffffffffffffffffffffffffffffffffff167f2da466a7b24304f47e87fa2e1e5a81b9831ce54fec19055ce277ca2f39ba42c483604051611dab9190614354565b60405180910390a25050565b6000611dc161350d565b7f0000000000000000000000000000000000000000000000000000000000000000611dec919061519f565b905090565b600c5481565b600a5481565b60007f0000000000000000000000000000000000000000000000000000000000000000905090565b600e6020528060005260406000206000915054906101000a900460ff1681565b611e4d613404565b611e55613516565b565b60007fffffffffffffffffffffffffffffffffffffffffffffffffffffffffffffffff9050919050565b611e89613404565b80600d60008473ffffffffffffffffffffffffffffffffffffffff1673ffffffffffffffffffffffffffffffffffffffff16815260200190815260200160002060006101000a81548160ff0219169083151502179055505050565b6000611ef18260006131af565b9050919050565b60095481565b6000600560149054906101000a900460ff16905090565b7f000000000000000000000000000000000000000000000000000000000000000081565b60606007805480602002602001604051908101604052809291908181526020016000905b8282101561200a57838290600052602060002090600302016040518060600160405290816000820160009054906101000a900473ffffffffffffffffffffffffffffffffffffffff1673ffffffffffffffffffffffffffffffffffffffff1673ffffffffffffffffffffffffffffffffffffffff168152602001600182015481526020016002820160009054906101000a900460ff16151515158152505081526020019060010190611f5d565b50505050905090565b600061201d611efe565b15612054576040517f059519da00000000000000000000000000000000000000000000000000000000815260040160405180910390fd5b6000830361208e576040517f2c5211c600000000000000000000000000000000000000000000000000000000815260040160405180910390fd5b6302faf080831080156120a8575060006120a6611bb0565b115b156120ee576302faf0806040517f187a63750000000000000000000000000000000000000000000000000000000081526004016120e59190614354565b60405180910390fd5b60006120fa8484613579565b90508273ffffffffffffffffffffffffffffffffffffffff167f2da466a7b24304f47e87fa2e1e5a81b9831ce54fec19055ce277ca2f39ba42c4856040516121429190614354565b60405180910390a260005b6007805490508110156124e0576000600782815481106121705761216f614c2b565b5b90600052602060002090600302016040518060600160405290816000820160009054906101000a900473ffffffffffffffffffffffffffffffffffffffff1673ffffffffffffffffffffffffffffffffffffffff1673ffffffffffffffffffffffffffffffffffffffff168152602001600182015481526020016002820160009054906101000a900460ff1615151515815250509050806040015161221557506124d3565b600081600001519050612226611dfd565b73ffffffffffffffffffffffffffffffffffffffff168173ffffffffffffffffffffffffffffffffffffffff160361225f5750506124d3565b600061226c886006612f9c565b90506000670de0b6b3a76400008460200151836122899190614ce2565b6122939190614d53565b905060007f000000000000000000000000000000000000000000000000000000000000000073ffffffffffffffffffffffffffffffffffffffff1663785c7cf6856040518263ffffffff1660e01b81526004016122f091906148c5565b602060405180830381865afa15801561230d573d6000803e3d6000fd5b505050506040513d601f19601f820116820180604052508101906123319190614c86565b9050600061233f83836135fb565b905060008573ffffffffffffffffffffffffffffffffffffffff16308360405160240161236d929190615091565b6040516020818303038152906040527f40c10f19000000000000000000000000000000000000000000000000000000007bffffffffffffffffffffffffffffffffffffffffffffffffffffffff19166020820180517bffffffffffffffffffffffffffffffffffffffffffffffffffffffff83818316178352505050506040516123f7919061521b565b6000604051808303816000865af19150503d8060008114612434576040519150601f19603f3d011682016040523d82523d6000602084013e612439565b606091505b505090508061247d576040517f08c379a00000000000000000000000000000000000000000000000000000000081526004016124749061527e565b60405180910390fd5b8573ffffffffffffffffffffffffffffffffffffffff167f472f36e28bb47edb7c69c9e2ac00a77c66b505df54e9c818ac57110b0629e8c3836040516124c39190614354565b60405180910390a2505050505050505b808060010191505061214d565b508091505092915050565b60008060008373ffffffffffffffffffffffffffffffffffffffff1673ffffffffffffffffffffffffffffffffffffffff168152602001908152602001600020549050919050565b61253b613404565b6125456000613674565b565b7f000000000000000000000000000000000000000000000000000000000000000081565b7f000000000000000000000000000000000000000000000000000000000000000081565b612597613404565b61259f61373a565b565b6000600560009054906101000a900473ffffffffffffffffffffffffffffffffffffffff16905090565b6125d3613404565b80600e60008473ffffffffffffffffffffffffffffffffffffffff1673ffffffffffffffffffffffffffffffffffffffff16815260200190815260200160002060006101000a81548160ff0219169083151502179055505050565b60008061263a83612be8565b905080841115612685578284826040517f284ff66700000000000000000000000000000000000000000000000000000000815260040161267c9392919061529e565b60405180910390fd5b600061269085612765565b90506126a561269d613208565b85838861379d565b809250505092915050565b6060600480546126bf90614de7565b80601f01602080910402602001604051908101604052809291908181526020018280546126eb90614de7565b80156127385780601f1061270d57610100808354040283529160200191612738565b820191906000526020600020905b81548152906001019060200180831161271b57829003601f168201915b5050505050905090565b60008061274d613208565b905061275a818585613310565b600191505092915050565b60006127728260016131af565b9050919050565b600b60009054906101000a900473ffffffffffffffffffffffffffffffffffffffff1681565b60006127a9611efe565b156127e0576040517f059519da00000000000000000000000000000000000000000000000000000000815260040160405180910390fd5b6127e8613827565b60008403612822576040517f2c5211c600000000000000000000000000000000000000000000000000000000815260040160405180910390fd5b6302faf0808410801561283c5750612838610d9c565b8414155b15612882576302faf0806040517ff6263f250000000000000000000000000000000000000000000000000000000081526004016128799190614354565b60405180910390fd5b600061288f85858561386d565b90508373ffffffffffffffffffffffffffffffffffffffff168373ffffffffffffffffffffffffffffffffffffffff167f29a0bcf57d42cd9503e61240cef8d4ae3c5982196af8c0f63b0585b3a3e87f39876040516128ee9190614354565b60405180910390a3809150506129026138f1565b9392505050565b6000612913611efe565b1561294a576040517f059519da00000000000000000000000000000000000000000000000000000000815260040160405180910390fd5b612952613827565b6000840361298c576040517f2c5211c600000000000000000000000000000000000000000000000000000000815260040160405180910390fd5b60006129978561136b565b90506302faf080811080156129b357506129af611bb0565b8514155b156129f9576302faf0806040517fb3fee7b90000000000000000000000000000000000000000000000000000000081526004016129f09190614354565b60405180910390fd5b600061271060095483612a0c9190614ce2565b612a169190614d53565b905060008183612a26919061505d565b9050612a338730876138fb565b50612a3c611dfd565b73ffffffffffffffffffffffffffffffffffffffff1663a9059cbb87836040518363ffffffff1660e01b8152600401612a76929190615091565b6020604051808303816000875af1158015612a95573d6000803e3d6000fd5b505050506040513d601f19601f82011682018060405250810190612ab991906150cf565b506000821115612bd357612acb611dfd565b73ffffffffffffffffffffffffffffffffffffffff1663a9059cbb7f0000000000000000000000000000000000000000000000000000000000000000846040518363ffffffff1660e01b8152600401612b25929190615091565b6020604051808303816000875af1158015612b44573d6000803e3d6000fd5b505050506040513d601f19601f82011682018060405250810190612b6891906150cf565b5081600c6000828254612b7b9190614d84565b925050819055508473ffffffffffffffffffffffffffffffffffffffff167f4391a67a435a77473a1d86760bc62594cba49fd7a8d4a69696f4a52709fc3c1c8484604051612bca929190614f5c565b60405180910390a25b809350505050612be16138f1565b9392505050565b60007fffffffffffffffffffffffffffffffffffffffffffffffffffffffffffffffff9050919050565b6000612c1f826000613222565b9050919050565b6000612c3b612c34836124eb565b60006131af565b9050919050565b6103e881565b6000612c53826124eb565b9050919050565b6000600160008473ffffffffffffffffffffffffffffffffffffffff1673ffffffffffffffffffffffffffffffffffffffff16815260200190815260200160002060008373ffffffffffffffffffffffffffffffffffffffff1673ffffffffffffffffffffffffffffffffffffffff16815260200190815260200160002054905092915050565b612ce9613404565b60008103612d23576040517f2c5211c600000000000000000000000000000000000000000000000000000000815260040160405180910390fd5b612d4f600b60009054906101000a900473ffffffffffffffffffffffffffffffffffffffff168261348b565b600b60009054906101000a900473ffffffffffffffffffffffffffffffffffffffff1673ffffffffffffffffffffffffffffffffffffffff167f7fee81b17a478a24780e52511d61b5efa31505eb290535ab360f99a30f7407d682604051612db79190614354565b60405180910390a250565b6000612dcf826000613222565b9050919050565b612dde613404565b600073ffffffffffffffffffffffffffffffffffffffff168173ffffffffffffffffffffffffffffffffffffffff1603612e44576040517fd92e233d00000000000000000000000000000000000000000000000000000000815260040160405180910390fd5b80600b60006101000a81548173ffffffffffffffffffffffffffffffffffffffff021916908373ffffffffffffffffffffffffffffffffffffffff16021790555050565b612e90613404565b600073ffffffffffffffffffffffffffffffffffffffff168173ffffffffffffffffffffffffffffffffffffffff1603612f025760006040517f1e4fbdf7000000000000000000000000000000000000000000000000000000008152600401612ef991906148c5565b60405180910390fd5b612f0b81613674565b50565b60088054612f1b90614de7565b80601f0160208091040260200160405190810160405280929190818152602001828054612f4790614de7565b8015612f945780601f10612f6957610100808354040283529160200191612f94565b820191906000526020600020905b815481529060010190602001808311612f7757829003601f168201915b505050505081565b600060128260ff1603612fb15782905061300f565b60128260ff161015612fe857816012612fca91906152d5565b600a612fd6919061543d565b83612fe19190614ce2565b905061300f565b601282612ff591906152d5565b600a613001919061543d565b8361300c9190614d53565b90505b92915050565b600080820361302757600090506131a9565b6000807f000000000000000000000000000000000000000000000000000000000000000073ffffffffffffffffffffffffffffffffffffffff166341976e09866040518263ffffffff1660e01b815260040161308391906148c5565b6040805180830381865afa15801561309f573d6000803e3d6000fd5b505050506040513d601f19601f820116820180604052508101906130c39190615488565b9150915060007f000000000000000000000000000000000000000000000000000000000000000073ffffffffffffffffffffffffffffffffffffffff1663785c7cf6876040518263ffffffff1660e01b815260040161312291906148c5565b602060405180830381865afa15801561313f573d6000803e3d6000fd5b505050506040513d601f19601f820116820180604052508101906131639190614c86565b905060006131718484612f9c565b90506000670de0b6b3a7640000828861318a9190614ce2565b6131949190614d53565b90506131a18160066135fb565b955050505050505b92915050565b600061320060016131be610d9c565b6131c89190614d84565b6131d061350d565b600a6131dc919061543d565b6131e4611bb0565b6131ee9190614d84565b848661397f909392919063ffffffff16565b905092915050565b600033905090565b61321d83838360016139ce565b505050565b600061327361322f61350d565b600a61323b919061543d565b613243611bb0565b61324d9190614d84565b6001613257610d9c565b6132619190614d84565b848661397f909392919063ffffffff16565b905092915050565b60006132878484612c5a565b90507fffffffffffffffffffffffffffffffffffffffffffffffffffffffffffffffff81101561330a57818110156132fa578281836040517ffb8f41b20000000000000000000000000000000000000000000000000000000081526004016132f19392919061529e565b60405180910390fd5b613309848484840360006139ce565b5b50505050565b600073ffffffffffffffffffffffffffffffffffffffff168373ffffffffffffffffffffffffffffffffffffffff16036133825760006040517f96c6fd1e00000000000000000000000000000000000000000000000000000000815260040161337991906148c5565b60405180910390fd5b600073ffffffffffffffffffffffffffffffffffffffff168273ffffffffffffffffffffffffffffffffffffffff16036133f45760006040517fec442f050000000000000000000000000000000000000000000000000000000081526004016133eb91906148c5565b60405180910390fd5b6133ff838383613ba5565b505050565b61340c613208565b73ffffffffffffffffffffffffffffffffffffffff1661342a6125a1565b73ffffffffffffffffffffffffffffffffffffffff16146134895761344d613208565b6040517f118cdaa700000000000000000000000000000000000000000000000000000000815260040161348091906148c5565b60405180910390fd5b565b600073ffffffffffffffffffffffffffffffffffffffff168273ffffffffffffffffffffffffffffffffffffffff16036134fd5760006040517fec442f050000000000000000000000000000000000000000000000000000000081526004016134f491906148c5565b60405180910390fd5b61350960008383613ba5565b5050565b6000600c905090565b61351e613dca565b6000600560146101000a81548160ff0219169083151502179055507f5db9ee0a495bf2e6ff9c91a7834c1ba4fdd244a5e8aa4e537bd38aeae4b073aa613562613208565b60405161356f91906148c5565b60405180910390a1565b60008061358583611e57565b9050808411156135d0578284826040517f79012fb20000000000000000000000000000000000000000000000000000000081526004016135c79392919061529e565b60405180910390fd5b60006135db85612dc2565b90506135f06135e8613208565b85878461379d565b809250505092915050565b600060128260ff16036136105782905061366e565b60128260ff1610156136475781601261362991906152d5565b600a613635919061543d565b836136409190614d53565b905061366e565b60128261365491906152d5565b600a613660919061543d565b8361366b9190614ce2565b90505b92915050565b6000600560009054906101000a900473ffffffffffffffffffffffffffffffffffffffff16905081600560006101000a81548173ffffffffffffffffffffffffffffffffffffffff021916908373ffffffffffffffffffffffffffffffffffffffff1602179055508173ffffffffffffffffffffffffffffffffffffffff168173ffffffffffffffffffffffffffffffffffffffff167f8be0079c531659141344cd1fd0a4f28419497f9722a3daafe3b4186f6b6457e060405160405180910390a35050565b613742613e0a565b6001600560146101000a81548160ff0219169083151502179055507f62e78cea01bee320cd4e420270b5ea74000d11b0c9f74754ebdbfc544b05a258613786613208565b60405161379391906148c5565b60405180910390a1565b6137b06137a8611dfd565b853085613e4b565b6137ba838261348b565b8273ffffffffffffffffffffffffffffffffffffffff168473ffffffffffffffffffffffffffffffffffffffff167fdcbc1c05240f31ff3ad067ef1ee35ce4997762752e3a095284754544f4c709d78484604051613819929190614f5c565b60405180910390a350505050565b600260065403613863576040517f3ee5aeb500000000000000000000000000000000000000000000000000000000815260040160405180910390fd5b6002600681905550565b60008061387983612c26565b9050808511156138c4578285826040517ffe9cceec0000000000000000000000000000000000000000000000000000000081526004016138bb9392919061529e565b60405180910390fd5b60006138cf86611409565b90506138e56138dc613208565b86868985613ecd565b80925050509392505050565b6001600681905550565b60008061390783612c48565b905080851115613952578285826040517fb94abeec0000000000000000000000000000000000000000000000000000000081526004016139499392919061529e565b60405180910390fd5b600061395d86611ee4565b905061397361396a613208565b8686848a613ecd565b80925050509392505050565b60006139af61398d83613fad565b80156139aa5750600084806139a5576139a4614d24565b5b868809115b613fdb565b6139ba868686613fe7565b6139c49190614d84565b9050949350505050565b600073ffffffffffffffffffffffffffffffffffffffff168473ffffffffffffffffffffffffffffffffffffffff1603613a405760006040517fe602df05000000000000000000000000000000000000000000000000000000008152600401613a3791906148c5565b60405180910390fd5b600073ffffffffffffffffffffffffffffffffffffffff168373ffffffffffffffffffffffffffffffffffffffff1603613ab25760006040517f94280d62000000000000000000000000000000000000000000000000000000008152600401613aa991906148c5565b60405180910390fd5b81600160008673ffffffffffffffffffffffffffffffffffffffff1673ffffffffffffffffffffffffffffffffffffffff16815260200190815260200160002060008573ffffffffffffffffffffffffffffffffffffffff1673ffffffffffffffffffffffffffffffffffffffff168152602001908152602001600020819055508015613b9f578273ffffffffffffffffffffffffffffffffffffffff168473ffffffffffffffffffffffffffffffffffffffff167f8c5be1e5ebec7d5bd14f71427d1e84f3dd0314c0f7b2291e5b200ac8c7c3b92584604051613b969190614354565b60405180910390a35b50505050565b600073ffffffffffffffffffffffffffffffffffffffff168373ffffffffffffffffffffffffffffffffffffffff1603613bf7578060026000828254613beb9190614d84565b92505081905550613cca565b60008060008573ffffffffffffffffffffffffffffffffffffffff1673ffffffffffffffffffffffffffffffffffffffff16815260200190815260200160002054905081811015613c83578381836040517fe450d38c000000000000000000000000000000000000000000000000000000008152600401613c7a9392919061529e565b60405180910390fd5b8181036000808673ffffffffffffffffffffffffffffffffffffffff1673ffffffffffffffffffffffffffffffffffffffff16815260200190815260200160002081905550505b600073ffffffffffffffffffffffffffffffffffffffff168273ffffffffffffffffffffffffffffffffffffffff1603613d135780600260008282540392505081905550613d60565b806000808473ffffffffffffffffffffffffffffffffffffffff1673ffffffffffffffffffffffffffffffffffffffff168152602001908152602001600020600082825401925050819055505b8173ffffffffffffffffffffffffffffffffffffffff168373ffffffffffffffffffffffffffffffffffffffff167fddf252ad1be2c89b69c2b068fc378daa952ba7f163c4a11628f55a4df523b3ef83604051613dbd9190614354565b60405180910390a3505050565b613dd2611efe565b613e08576040517f8dfc202b00000000000000000000000000000000000000000000000000000000815260040160405180910390fd5b565b613e12611efe565b15613e49576040517fd93c066500000000000000000000000000000000000000000000000000000000815260040160405180910390fd5b565b613ec7848573ffffffffffffffffffffffffffffffffffffffff166323b872dd868686604051602401613e8093929190615168565b604051602081830303815290604052915060e01b6020820180517bffffffffffffffffffffffffffffffffffffffffffffffffffffffff83818316178352505050506140cf565b50505050565b8273ffffffffffffffffffffffffffffffffffffffff168573ffffffffffffffffffffffffffffffffffffffff1614613f0c57613f0b83868361327b565b5b613f168382614171565b613f28613f21611dfd565b85846141f3565b8273ffffffffffffffffffffffffffffffffffffffff168473ffffffffffffffffffffffffffffffffffffffff168673ffffffffffffffffffffffffffffffffffffffff167ffbde797d201c681b91056529119e0b02407c7bb96a4a2c75c01fc9667232c8db8585604051613f9e929190614f5c565b60405180910390a45050505050565b600060016002836003811115613fc657613fc56154c8565b5b613fd091906154f7565b60ff16149050919050565b60008115159050919050565b6000806000613ff68686614272565b915091506000820361401c5783818161401257614011614d24565b5b04925050506140c8565b81841161403c5761403b6140366000861460126011614291565b6142ab565b5b600084868809905081811183039250808203915060008560000386169050808604955080830492506001818260000304019050808402831792506000600287600302189050808702600203810290508087026002038102905080870260020381029050808702600203810290508087026002038102905080870260020381029050808402955050505050505b9392505050565b600080602060008451602086016000885af1806140f2576040513d6000823e3d81fd5b3d92506000519150506000821461410d576001811415614129565b60008473ffffffffffffffffffffffffffffffffffffffff163b145b1561416b57836040517f5274afe700000000000000000000000000000000000000000000000000000000815260040161416291906148c5565b60405180910390fd5b50505050565b600073ffffffffffffffffffffffffffffffffffffffff168273ffffffffffffffffffffffffffffffffffffffff16036141e35760006040517f96c6fd1e0000000000000000000000000000000000000000000000000000000081526004016141da91906148c5565b60405180910390fd5b6141ef82600083613ba5565b5050565b61426d838473ffffffffffffffffffffffffffffffffffffffff1663a9059cbb8585604051602401614226929190615091565b604051602081830303815290604052915060e01b6020820180517bffffffffffffffffffffffffffffffffffffffffffffffffffffffff83818316178352505050506140cf565b505050565b6000806000198385098385029150818110828203039250509250929050565b600061429c84613fdb565b82841802821890509392505050565b634e487b71600052806020526024601cfd5b50805460008255600302906000526020600020908101906142de91906142e1565b50565b5b8082111561433757600080820160006101000a81549073ffffffffffffffffffffffffffffffffffffffff021916905560018201600090556002820160006101000a81549060ff0219169055506003016142e2565b5090565b6000819050919050565b61434e8161433b565b82525050565b60006020820190506143696000830184614345565b92915050565b600081519050919050565b600082825260208201905092915050565b60005b838110156143a957808201518184015260208101905061438e565b60008484015250505050565b6000601f19601f8301169050919050565b60006143d18261436f565b6143db818561437a565b93506143eb81856020860161438b565b6143f4816143b5565b840191505092915050565b6000602082019050818103600083015261441981846143c6565b905092915050565b6000604051905090565b600080fd5b600080fd5b61443e8161433b565b811461444957600080fd5b50565b60008135905061445b81614435565b92915050565b6000602082840312156144775761447661442b565b5b60006144858482850161444c565b91505092915050565b600073ffffffffffffffffffffffffffffffffffffffff82169050919050565b60006144b98261448e565b9050919050565b6144c9816144ae565b81146144d457600080fd5b50565b6000813590506144e6816144c0565b92915050565b600080604083850312156145035761450261442b565b5b6000614511858286016144d7565b92505060206145228582860161444c565b9150509250929050565b60008115159050919050565b6145418161452c565b82525050565b600060208201905061455c6000830184614538565b92915050565b61456b816144ae565b82525050565b60006060820190506145866000830186614562565b6145936020830185614345565b6145a06040830184614538565b949350505050565b600080604083850312156145bf576145be61442b565b5b60006145cd8582860161444c565b92505060206145de8582860161444c565b9150509250929050565b600080fd5b7f4e487b7100000000000000000000000000000000000000000000000000000000600052604160045260246000fd5b614625826143b5565b810181811067ffffffffffffffff82111715614644576146436145ed565b5b80604052505050565b6000614657614421565b9050614663828261461c565b919050565b600067ffffffffffffffff821115614683576146826145ed565b5b602082029050602081019050919050565b600080fd5b600080fd5b6146a78161452c565b81146146b257600080fd5b50565b6000813590506146c48161469e565b92915050565b6000606082840312156146e0576146df614699565b5b6146ea606061464d565b905060006146fa848285016144d7565b600083015250602061470e8482850161444c565b6020830152506040614722848285016146b5565b60408301525092915050565b600061474161473c84614668565b61464d565b9050808382526020820190506060840283018581111561476457614763614694565b5b835b8181101561478d578061477988826146ca565b845260208401935050606081019050614766565b5050509392505050565b600082601f8301126147ac576147ab6145e8565b5b81356147bc84826020860161472e565b91505092915050565b6000602082840312156147db576147da61442b565b5b600082013567ffffffffffffffff8111156147f9576147f8614430565b5b61480584828501614797565b91505092915050565b6000806000606084860312156148275761482661442b565b5b6000614835868287016144d7565b9350506020614846868287016144d7565b92505060406148578682870161444c565b9150509250925092565b6000602082840312156148775761487661442b565b5b6000614885848285016144d7565b91505092915050565b600060ff82169050919050565b6148a48161488e565b82525050565b60006020820190506148bf600083018461489b565b92915050565b60006020820190506148da6000830184614562565b92915050565b600080604083850312156148f7576148f661442b565b5b6000614905858286016144d7565b9250506020614916858286016146b5565b9150509250929050565b600081519050919050565b600082825260208201905092915050565b6000819050602082019050919050565b614955816144ae565b82525050565b6149648161433b565b82525050565b6149738161452c565b82525050565b60608201600082015161498f600085018261494c565b5060208201516149a2602085018261495b565b5060408201516149b5604085018261496a565b50505050565b60006149c78383614979565b60608301905092915050565b6000602082019050919050565b60006149eb82614920565b6149f5818561492b565b9350614a008361493c565b8060005b83811015614a31578151614a1888826149bb565b9750614a23836149d3565b925050600181019050614a04565b5085935050505092915050565b60006020820190508181036000830152614a5881846149e0565b905092915050565b60008060408385031215614a7757614a7661442b565b5b6000614a858582860161444c565b9250506020614a96858286016144d7565b9150509250929050565b6000819050919050565b6000614ac5614ac0614abb8461448e565b614aa0565b61448e565b9050919050565b6000614ad782614aaa565b9050919050565b6000614ae982614acc565b9050919050565b614af981614ade565b82525050565b6000602082019050614b146000830184614af0565b92915050565b6000614b2582614acc565b9050919050565b614b3581614b1a565b82525050565b6000602082019050614b506000830184614b2c565b92915050565b600080600060608486031215614b6f57614b6e61442b565b5b6000614b7d8682870161444c565b9350506020614b8e868287016144d7565b9250506040614b9f868287016144d7565b9150509250925092565b60008060408385031215614bc057614bbf61442b565b5b6000614bce858286016144d7565b9250506020614bdf858286016144d7565b9150509250929050565b600081519050614bf881614435565b92915050565b600060208284031215614c1457614c1361442b565b5b6000614c2284828501614be9565b91505092915050565b7f4e487b7100000000000000000000000000000000000000000000000000000000600052603260045260246000fd5b614c638161488e565b8114614c6e57600080fd5b50565b600081519050614c8081614c5a565b92915050565b600060208284031215614c9c57614c9b61442b565b5b6000614caa84828501614c71565b91505092915050565b7f4e487b7100000000000000000000000000000000000000000000000000000000600052601160045260246000fd5b6000614ced8261433b565b9150614cf88361433b565b9250828202614d068161433b565b91508282048414831517614d1d57614d1c614cb3565b5b5092915050565b7f4e487b7100000000000000000000000000000000000000000000000000000000600052601260045260246000fd5b6000614d5e8261433b565b9150614d698361433b565b925082614d7957614d78614d24565b5b828204905092915050565b6000614d8f8261433b565b9150614d9a8361433b565b9250828201905080821115614db257614db1614cb3565b5b92915050565b7f4e487b7100000000000000000000000000000000000000000000000000000000600052602260045260246000fd5b60006002820490506001821680614dff57607f821691505b602082108103614e1257614e11614db8565b5b50919050565b7f4e6f742061646d696e0000000000000000000000000000000000000000000000600082015250565b6000614e4e60098361437a565b9150614e5982614e18565b602082019050919050565b60006020820190508181036000830152614e7d81614e41565b9050919050565b7f457869742066656520746f6f2068696768000000000000000000000000000000600082015250565b6000614eba60118361437a565b9150614ec582614e84565b602082019050919050565b60006020820190508181036000830152614ee981614ead565b9050919050565b7f4d616e6167656d656e742066656520746f6f2068696768000000000000000000600082015250565b6000614f2660178361437a565b9150614f3182614ef0565b602082019050919050565b60006020820190508181036000830152614f5581614f19565b9050919050565b6000604082019050614f716000830185614345565b614f7e6020830184614345565b9392505050565b7f496e76616c696420616464726573730000000000000000000000000000000000600082015250565b6000614fbb600f8361437a565b9150614fc682614f85565b602082019050919050565b60006020820190508181036000830152614fea81614fae565b9050919050565b7f496e73756666696369656e742066756e64730000000000000000000000000000600082015250565b600061502760128361437a565b915061503282614ff1565b602082019050919050565b600060208201905081810360008301526150568161501a565b9050919050565b60006150688261433b565b91506150738361433b565b925082820390508181111561508b5761508a614cb3565b5b92915050565b60006040820190506150a66000830185614562565b6150b36020830184614345565b9392505050565b6000815190506150c98161469e565b92915050565b6000602082840312156150e5576150e461442b565b5b60006150f3848285016150ba565b91505092915050565b7f416c6c6f636174696f6e732063616e6e6f7420626520656d7074790000000000600082015250565b6000615132601b8361437a565b915061513d826150fc565b602082019050919050565b6000602082019050818103600083015261516181615125565b9050919050565b600060608201905061517d6000830186614562565b61518a6020830185614562565b6151976040830184614345565b949350505050565b60006151aa8261488e565b91506151b58361488e565b9250828201905060ff8111156151ce576151cd614cb3565b5b92915050565b600081519050919050565b600081905092915050565b60006151f5826151d4565b6151ff81856151df565b935061520f81856020860161438b565b80840191505092915050565b600061522782846151ea565b915081905092915050565b7f4d696e7420525741206661696c65640000000000000000000000000000000000600082015250565b6000615268600f8361437a565b915061527382615232565b602082019050919050565b600060208201905081810360008301526152978161525b565b9050919050565b60006060820190506152b36000830186614562565b6152c06020830185614345565b6152cd6040830184614345565b949350505050565b60006152e08261488e565b91506152eb8361488e565b9250828203905060ff81111561530457615303614cb3565b5b92915050565b60008160011c9050919050565b6000808291508390505b60018511156153615780860481111561533d5761533c614cb3565b5b600185161561534c5780820291505b808102905061535a8561530a565b9450615321565b94509492505050565b60008261537a5760019050615436565b816153885760009050615436565b816001811461539e57600281146153a8576153d7565b6001915050615436565b60ff8411156153ba576153b9614cb3565b5b8360020a9150848211156153d1576153d0614cb3565b5b50615436565b5060208310610133831016604e8410600b841016171561540c5782820a90508381111561540757615406614cb3565b5b615436565b6154198484846001615317565b925090508184048111156154305761542f614cb3565b5b81810290505b9392505050565b60006154488261433b565b91506154538361488e565b92506154807fffffffffffffffffffffffffffffffffffffffffffffffffffffffffffffffff848461536a565b905092915050565b6000806040838503121561549f5761549e61442b565b5b60006154ad85828601614be9565b92505060206154be85828601614c71565b9150509250929050565b7f4e487b7100000000000000000000000000000000000000000000000000000000600052602160045260246000fd5b60006155028261488e565b915061550d8361488e565b92508261551d5761551c614d24565b5b82820690509291505056fea26469706673582212200f7370aed8eff6b37140ee5507df0b2bb2642c3ad46f2a1618f70b7ca0c2730f64736f6c634300081c0033",
  "linkReferences": {},
  "deployedLinkReferences": {}
}