{
  "_format": "hh-sol-artifact-1",
  "contractName": "Vault",
  "sourceName": "contracts/Vault.sol",
  "abi": [
    {
      "inputs": [
        {
          "internalType": "contract IERC20",
          "name": "asset_",
          "type": "address"
        },
        {
          "internalType": "string",
          "name": "label",
          "type": "string"
        },
        {
          "internalType": "address",
          "name": "treasury_",
          "type": "address"
        },
        {
          "internalType": "contract TokenRegistry",
          "name": "registry_",
          "type": "address"
        },
        {
          "internalType": "contract IPriceOracle",
          "name": "oracle_",
          "type": "address"
        }
      ],
      "stateMutability": "nonpayable",
      "type": "constructor"
    },
    {
      "inputs": [],
      "name": "AccessControlBadConfirmation",
      "type": "error"
    },
    {
      "inputs": [
        {
          "internalType": "address",
          "name": "account",
          "type": "address"
        },
        {
          "internalType": "bytes32",
          "name": "neededRole",
          "type": "bytes32"
        }
      ],
      "name": "AccessControlUnauthorizedAccount",
      "type": "error"
    },
    {
      "inputs": [
        {
          "internalType": "address",
          "name": "spender",
          "type": "address"
        },
        {
          "internalType": "uint256",
          "name": "allowance",
          "type": "uint256"
        },
        {
          "internalType": "uint256",
          "name": "needed",
          "type": "uint256"
        }
      ],
      "name": "ERC20InsufficientAllowance",
      "type": "error"
    },
    {
      "inputs": [
        {
          "internalType": "address",
          "name": "sender",
          "type": "address"
        },
        {
          "internalType": "uint256",
          "name": "balance",
          "type": "uint256"
        },
        {
          "internalType": "uint256",
          "name": "needed",
          "type": "uint256"
        }
      ],
      "name": "ERC20InsufficientBalance",
      "type": "error"
    },
    {
      "inputs": [
        {
          "internalType": "address",
          "name": "approver",
          "type": "address"
        }
      ],
      "name": "ERC20InvalidApprover",
      "type": "error"
    },
    {
      "inputs": [
        {
          "internalType": "address",
          "name": "receiver",
          "type": "address"
        }
      ],
      "name": "ERC20InvalidReceiver",
      "type": "error"
    },
    {
      "inputs": [
        {
          "internalType": "address",
          "name": "sender",
          "type": "address"
        }
      ],
      "name": "ERC20InvalidSender",
      "type": "error"
    },
    {
      "inputs": [
        {
          "internalType": "address",
          "name": "spender",
          "type": "address"
        }
      ],
      "name": "ERC20InvalidSpender",
      "type": "error"
    },
    {
      "inputs": [
        {
          "internalType": "address",
          "name": "receiver",
          "type": "address"
        },
        {
          "internalType": "uint256",
          "name": "assets",
          "type": "uint256"
        },
        {
          "internalType": "uint256",
          "name": "max",
          "type": "uint256"
        }
      ],
      "name": "ERC4626ExceededMaxDeposit",
      "type": "error"
    },
    {
      "inputs": [
        {
          "internalType": "address",
          "name": "receiver",
          "type": "address"
        },
        {
          "internalType": "uint256",
          "name": "shares",
          "type": "uint256"
        },
        {
          "internalType": "uint256",
          "name": "max",
          "type": "uint256"
        }
      ],
      "name": "ERC4626ExceededMaxMint",
      "type": "error"
    },
    {
      "inputs": [
        {
          "internalType": "address",
          "name": "owner",
          "type": "address"
        },
        {
          "internalType": "uint256",
          "name": "shares",
          "type": "uint256"
        },
        {
          "internalType": "uint256",
          "name": "max",
          "type": "uint256"
        }
      ],
      "name": "ERC4626ExceededMaxRedeem",
      "type": "error"
    },
    {
      "inputs": [
        {
          "internalType": "address",
          "name": "owner",
          "type": "address"
        },
        {
          "internalType": "uint256",
          "name": "assets",
          "type": "uint256"
        },
        {
          "internalType": "uint256",
          "name": "max",
          "type": "uint256"
        }
      ],
      "name": "ERC4626ExceededMaxWithdraw",
      "type": "error"
    },
    {
      "inputs": [],
      "name": "EnforcedPause",
      "type": "error"
    },
    {
      "inputs": [],
      "name": "EtherNotAccepted",
      "type": "error"
    },
    {
      "inputs": [],
      "name": "ExpectedPause",
      "type": "error"
    },
    {
      "inputs": [],
      "name": "InvalidAmount",
      "type": "error"
    },
    {
      "inputs": [],
      "name": "InvalidWeightSum",
      "type": "error"
    },
    {
      "inputs": [],
      "name": "ManagementFeeCooldownNotMet",
      "type": "error"
    },
    {
      "inputs": [],
      "name": "ManagementFeeNotConfigured",
      "type": "error"
    },
    {
      "inputs": [],
      "name": "Pausable__Paused",
      "type": "error"
    },
    {
      "inputs": [],
      "name": "ReentrancyGuardReentrantCall",
      "type": "error"
    },
    {
      "inputs": [
        {
          "internalType": "address",
          "name": "token",
          "type": "address"
        }
      ],
      "name": "SafeERC20FailedOperation",
      "type": "error"
    },
    {
      "inputs": [],
      "name": "TokenNotRegistered",
      "type": "error"
    },
    {
      "inputs": [],
      "name": "VaultAlreadyBootstrapped",
      "type": "error"
    },
    {
      "inputs": [],
      "name": "WithdrawNotSupported",
      "type": "error"
    },
    {
      "inputs": [],
      "name": "ZeroAddress",
      "type": "error"
    },
    {
      "anonymous": false,
      "inputs": [
        {
          "indexed": true,
          "internalType": "address",
          "name": "token",
          "type": "address"
        },
        {
          "indexed": false,
          "internalType": "uint256",
          "name": "amount",
          "type": "uint256"
        }
      ],
      "name": "Allocated",
      "type": "event"
    },
    {
      "anonymous": false,
      "inputs": [
        {
          "indexed": true,
          "internalType": "address",
          "name": "admin",
          "type": "address"
        }
      ],
      "name": "AllocationsUpdated",
      "type": "event"
    },
    {
      "anonymous": false,
      "inputs": [
        {
          "indexed": true,
          "internalType": "address",
          "name": "owner",
          "type": "address"
        },
        {
          "indexed": true,
          "internalType": "address",
          "name": "spender",
          "type": "address"
        },
        {
          "indexed": false,
          "internalType": "uint256",
          "name": "value",
          "type": "uint256"
        }
      ],
      "name": "Approval",
      "type": "event"
    },
    {
      "anonymous": false,
      "inputs": [
        {
          "indexed": true,
          "internalType": "address",
          "name": "sender",
          "type": "address"
        },
        {
          "indexed": true,
          "internalType": "address",
          "name": "owner",
          "type": "address"
        },
        {
          "indexed": false,
          "internalType": "uint256",
          "name": "assets",
          "type": "uint256"
        },
        {
          "indexed": false,
          "internalType": "uint256",
          "name": "shares",
          "type": "uint256"
        }
      ],
      "name": "Deposit",
      "type": "event"
    },
    {
      "anonymous": false,
      "inputs": [
        {
          "indexed": true,
          "internalType": "address",
          "name": "user",
          "type": "address"
        },
        {
          "indexed": false,
          "internalType": "uint256",
          "name": "amount",
          "type": "uint256"
        }
      ],
      "name": "Deposited",
      "type": "event"
    },
    {
      "anonymous": false,
      "inputs": [
        {
          "indexed": true,
          "internalType": "address",
          "name": "user",
          "type": "address"
        },
        {
          "indexed": false,
          "internalType": "uint256",
          "name": "assets",
          "type": "uint256"
        },
        {
          "indexed": false,
          "internalType": "uint256",
          "name": "fee",
          "type": "uint256"
        }
      ],
      "name": "ExitFeeApplied",
      "type": "event"
    },
    {
      "anonymous": false,
      "inputs": [
        {
          "indexed": false,
          "internalType": "uint256",
          "name": "exitFeeBps",
          "type": "uint256"
        },
        {
          "indexed": false,
          "internalType": "uint256",
          "name": "managementFeeBps",
          "type": "uint256"
        }
      ],
      "name": "FeesUpdated",
      "type": "event"
    },
    {
      "anonymous": false,
      "inputs": [
        {
          "indexed": true,
          "internalType": "address",
          "name": "receiver",
          "type": "address"
        },
        {
          "indexed": false,
          "internalType": "uint256",
          "name": "shares",
          "type": "uint256"
        }
      ],
      "name": "ManagementFeeAccrued",
      "type": "event"
    },
    {
      "anonymous": false,
      "inputs": [
        {
          "indexed": false,
          "internalType": "uint256",
          "name": "timestamp",
          "type": "uint256"
        },
        {
          "indexed": false,
          "internalType": "uint256",
          "name": "shares",
          "type": "uint256"
        },
        {
          "indexed": false,
          "internalType": "uint256",
          "name": "totalSupply",
          "type": "uint256"
        }
      ],
      "name": "ManagementFeeScheduled",
      "type": "event"
    },
    {
      "anonymous": false,
      "inputs": [
        {
          "indexed": false,
          "internalType": "address",
          "name": "account",
          "type": "address"
        }
      ],
      "name": "Paused",
      "type": "event"
    },
    {
      "anonymous": false,
      "inputs": [
        {
          "indexed": true,
          "internalType": "bytes32",
          "name": "role",
          "type": "bytes32"
        },
        {
          "indexed": true,
          "internalType": "bytes32",
          "name": "previousAdminRole",
          "type": "bytes32"
        },
        {
          "indexed": true,
          "internalType": "bytes32",
          "name": "newAdminRole",
          "type": "bytes32"
        }
      ],
      "name": "RoleAdminChanged",
      "type": "event"
    },
    {
      "anonymous": false,
      "inputs": [
        {
          "indexed": true,
          "internalType": "bytes32",
          "name": "role",
          "type": "bytes32"
        },
        {
          "indexed": true,
          "internalType": "address",
          "name": "account",
          "type": "address"
        },
        {
          "indexed": true,
          "internalType": "address",
          "name": "sender",
          "type": "address"
        }
      ],
      "name": "RoleGranted",
      "type": "event"
    },
    {
      "anonymous": false,
      "inputs": [
        {
          "indexed": true,
          "internalType": "bytes32",
          "name": "role",
          "type": "bytes32"
        },
        {
          "indexed": true,
          "internalType": "address",
          "name": "account",
          "type": "address"
        },
        {
          "indexed": true,
          "internalType": "address",
          "name": "sender",
          "type": "address"
        }
      ],
      "name": "RoleRevoked",
      "type": "event"
    },
    {
      "anonymous": false,
      "inputs": [
        {
          "indexed": true,
          "internalType": "address",
          "name": "from",
          "type": "address"
        },
        {
          "indexed": true,
          "internalType": "address",
          "name": "to",
          "type": "address"
        },
        {
          "indexed": false,
          "internalType": "uint256",
          "name": "value",
          "type": "uint256"
        }
      ],
      "name": "Transfer",
      "type": "event"
    },
    {
      "anonymous": false,
      "inputs": [
        {
          "indexed": false,
          "internalType": "address",
          "name": "account",
          "type": "address"
        }
      ],
      "name": "Unpaused",
      "type": "event"
    },
    {
      "anonymous": false,
      "inputs": [
        {
          "indexed": false,
          "internalType": "uint256",
          "name": "assets",
          "type": "uint256"
        },
        {
          "indexed": false,
          "internalType": "uint256",
          "name": "shares",
          "type": "uint256"
        }
      ],
      "name": "VaultBootstrapped",
      "type": "event"
    },
    {
      "anonymous": false,
      "inputs": [
        {
          "indexed": true,
          "internalType": "address",
          "name": "sender",
          "type": "address"
        },
        {
          "indexed": true,
          "internalType": "address",
          "name": "receiver",
          "type": "address"
        },
        {
          "indexed": true,
          "internalType": "address",
          "name": "owner",
          "type": "address"
        },
        {
          "indexed": false,
          "internalType": "uint256",
          "name": "assets",
          "type": "uint256"
        },
        {
          "indexed": false,
          "internalType": "uint256",
          "name": "shares",
          "type": "uint256"
        }
      ],
      "name": "Withdraw",
      "type": "event"
    },
    {
      "anonymous": false,
      "inputs": [
        {
          "indexed": true,
          "internalType": "address",
          "name": "user",
          "type": "address"
        },
        {
          "indexed": true,
          "internalType": "address",
          "name": "receiver",
          "type": "address"
        },
        {
          "indexed": false,
          "internalType": "uint256",
          "name": "assets",
          "type": "uint256"
        }
      ],
      "name": "WithdrawExecuted",
      "type": "event"
    },
    {
      "stateMutability": "payable",
      "type": "fallback"
    },
    {
      "inputs": [],
      "name": "ADMIN_ROLE",
      "outputs": [
        {
          "internalType": "bytes32",
          "name": "",
          "type": "bytes32"
        }
      ],
      "stateMutability": "view",
      "type": "function"
    },
    {
      "inputs": [],
      "name": "DEFAULT_ADMIN_ROLE",
      "outputs": [
        {
          "internalType": "bytes32",
          "name": "",
          "type": "bytes32"
        }
      ],
      "stateMutability": "view",
      "type": "function"
    },
    {
      "inputs": [],
      "name": "MANAGEMENT_FEE_COOLDOWN",
      "outputs": [
        {
          "internalType": "uint256",
          "name": "",
          "type": "uint256"
        }
      ],
      "stateMutability": "view",
      "type": "function"
    },
    {
      "inputs": [],
      "name": "MAX_FEE_BPS",
      "outputs": [
        {
          "internalType": "uint256",
          "name": "",
          "type": "uint256"
        }
      ],
      "stateMutability": "view",
      "type": "function"
    },
    {
      "inputs": [
        {
          "internalType": "uint256",
          "name": "shares",
          "type": "uint256"
        }
      ],
      "name": "accrueManagementFee",
      "outputs": [],
      "stateMutability": "nonpayable",
      "type": "function"
    },
    {
      "inputs": [
        {
          "internalType": "uint256",
          "name": "",
          "type": "uint256"
        }
      ],
      "name": "allocations",
      "outputs": [
        {
          "internalType": "address",
          "name": "token",
          "type": "address"
        },
        {
          "internalType": "uint256",
          "name": "weight",
          "type": "uint256"
        },
        {
          "internalType": "bool",
          "name": "active",
          "type": "bool"
        }
      ],
      "stateMutability": "view",
      "type": "function"
    },
    {
      "inputs": [
        {
          "internalType": "address",
          "name": "owner",
          "type": "address"
        },
        {
          "internalType": "address",
          "name": "spender",
          "type": "address"
        }
      ],
      "name": "allowance",
      "outputs": [
        {
          "internalType": "uint256",
          "name": "",
          "type": "uint256"
        }
      ],
      "stateMutability": "view",
      "type": "function"
    },
    {
      "inputs": [
        {
          "internalType": "address",
          "name": "spender",
          "type": "address"
        },
        {
          "internalType": "uint256",
          "name": "value",
          "type": "uint256"
        }
      ],
      "name": "approve",
      "outputs": [
        {
          "internalType": "bool",
          "name": "",
          "type": "bool"
        }
      ],
      "stateMutability": "nonpayable",
      "type": "function"
    },
    {
      "inputs": [],
      "name": "asset",
      "outputs": [
        {
          "internalType": "address",
          "name": "",
          "type": "address"
        }
      ],
      "stateMutability": "view",
      "type": "function"
    },
    {
      "inputs": [
        {
          "internalType": "address",
          "name": "account",
          "type": "address"
        }
      ],
      "name": "balanceOf",
      "outputs": [
        {
          "internalType": "uint256",
          "name": "",
          "type": "uint256"
        }
      ],
      "stateMutability": "view",
      "type": "function"
    },
    {
      "inputs": [],
      "name": "bootstrapVault",
      "outputs": [],
      "stateMutability": "nonpayable",
      "type": "function"
    },
    {
      "inputs": [],
      "name": "calculateManagementFee",
      "outputs": [
        {
          "internalType": "uint256",
          "name": "",
          "type": "uint256"
        }
      ],
      "stateMutability": "view",
      "type": "function"
    },
    {
      "inputs": [
        {
          "internalType": "uint256",
          "name": "shares",
          "type": "uint256"
        }
      ],
      "name": "convertToAssets",
      "outputs": [
        {
          "internalType": "uint256",
          "name": "",
          "type": "uint256"
        }
      ],
      "stateMutability": "view",
      "type": "function"
    },
    {
      "inputs": [
        {
          "internalType": "uint256",
          "name": "assets",
          "type": "uint256"
        }
      ],
      "name": "convertToShares",
      "outputs": [
        {
          "internalType": "uint256",
          "name": "",
          "type": "uint256"
        }
      ],
      "stateMutability": "view",
      "type": "function"
    },
    {
      "inputs": [],
      "name": "decimals",
      "outputs": [
        {
          "internalType": "uint8",
          "name": "",
          "type": "uint8"
        }
      ],
      "stateMutability": "view",
      "type": "function"
    },
    {
      "inputs": [
        {
          "internalType": "uint256",
          "name": "assets",
          "type": "uint256"
        },
        {
          "internalType": "address",
          "name": "receiver",
          "type": "address"
        }
      ],
      "name": "deposit",
      "outputs": [
        {
          "internalType": "uint256",
          "name": "",
          "type": "uint256"
        }
      ],
      "stateMutability": "nonpayable",
      "type": "function"
    },
    {
      "inputs": [],
      "name": "exitFeeBps",
      "outputs": [
        {
          "internalType": "uint256",
          "name": "",
          "type": "uint256"
        }
      ],
      "stateMutability": "view",
      "type": "function"
    },
    {
      "inputs": [],
      "name": "feeReceiver",
      "outputs": [
        {
          "internalType": "address",
          "name": "",
          "type": "address"
        }
      ],
      "stateMutability": "view",
      "type": "function"
    },
    {
      "inputs": [],
      "name": "getAllocations",
      "outputs": [
        {
          "components": [
            {
              "internalType": "address",
              "name": "token",
              "type": "address"
            },
            {
              "internalType": "uint256",
              "name": "weight",
              "type": "uint256"
            },
            {
              "internalType": "bool",
              "name": "active",
              "type": "bool"
            }
          ],
          "internalType": "struct Vault.AssetAllocation[]",
          "name": "",
          "type": "tuple[]"
        }
      ],
      "stateMutability": "view",
      "type": "function"
    },
    {
      "inputs": [
        {
          "internalType": "bytes32",
          "name": "role",
          "type": "bytes32"
        }
      ],
      "name": "getRoleAdmin",
      "outputs": [
        {
          "internalType": "bytes32",
          "name": "",
          "type": "bytes32"
        }
      ],
      "stateMutability": "view",
      "type": "function"
    },
    {
      "inputs": [
        {
          "internalType": "bytes32",
          "name": "role",
          "type": "bytes32"
        },
        {
          "internalType": "address",
          "name": "account",
          "type": "address"
        }
      ],
      "name": "grantRole",
      "outputs": [],
      "stateMutability": "nonpayable",
      "type": "function"
    },
    {
      "inputs": [
        {
          "internalType": "bytes32",
          "name": "role",
          "type": "bytes32"
        },
        {
          "internalType": "address",
          "name": "account",
          "type": "address"
        }
      ],
      "name": "hasRole",
      "outputs": [
        {
          "internalType": "bool",
          "name": "",
          "type": "bool"
        }
      ],
      "stateMutability": "view",
      "type": "function"
    },
    {
      "inputs": [],
      "name": "lastManagementFeeTimestamp",
      "outputs": [
        {
          "internalType": "uint256",
          "name": "",
          "type": "uint256"
        }
      ],
      "stateMutability": "view",
      "type": "function"
    },
    {
      "inputs": [],
      "name": "managementFeeBps",
      "outputs": [
        {
          "internalType": "uint256",
          "name": "",
          "type": "uint256"
        }
      ],
      "stateMutability": "view",
      "type": "function"
    },
    {
      "inputs": [
        {
          "internalType": "address",
          "name": "",
          "type": "address"
        }
      ],
      "name": "maxDeposit",
      "outputs": [
        {
          "internalType": "uint256",
          "name": "",
          "type": "uint256"
        }
      ],
      "stateMutability": "view",
      "type": "function"
    },
    {
      "inputs": [
        {
          "internalType": "address",
          "name": "",
          "type": "address"
        }
      ],
      "name": "maxMint",
      "outputs": [
        {
          "internalType": "uint256",
          "name": "",
          "type": "uint256"
        }
      ],
      "stateMutability": "view",
      "type": "function"
    },
    {
      "inputs": [
        {
          "internalType": "address",
          "name": "owner",
          "type": "address"
        }
      ],
      "name": "maxRedeem",
      "outputs": [
        {
          "internalType": "uint256",
          "name": "",
          "type": "uint256"
        }
      ],
      "stateMutability": "view",
      "type": "function"
    },
    {
      "inputs": [
        {
          "internalType": "address",
          "name": "owner",
          "type": "address"
        }
      ],
      "name": "maxWithdraw",
      "outputs": [
        {
          "internalType": "uint256",
          "name": "",
          "type": "uint256"
        }
      ],
      "stateMutability": "view",
      "type": "function"
    },
    {
      "inputs": [
        {
          "internalType": "uint256",
          "name": "shares",
          "type": "uint256"
        },
        {
          "internalType": "address",
          "name": "receiver",
          "type": "address"
        }
      ],
      "name": "mint",
      "outputs": [
        {
          "internalType": "uint256",
          "name": "",
          "type": "uint256"
        }
      ],
      "stateMutability": "nonpayable",
      "type": "function"
    },
    {
      "inputs": [],
      "name": "name",
      "outputs": [
        {
          "internalType": "string",
          "name": "",
          "type": "string"
        }
      ],
      "stateMutability": "view",
      "type": "function"
    },
    {
      "inputs": [],
      "name": "oracle",
      "outputs": [
        {
          "internalType": "contract IPriceOracle",
          "name": "",
          "type": "address"
        }
      ],
      "stateMutability": "view",
      "type": "function"
    },
    {
      "inputs": [],
      "name": "pause",
      "outputs": [],
      "stateMutability": "nonpayable",
      "type": "function"
    },
    {
      "inputs": [],
      "name": "paused",
      "outputs": [
        {
          "internalType": "bool",
          "name": "",
          "type": "bool"
        }
      ],
      "stateMutability": "view",
      "type": "function"
    },
    {
      "inputs": [
        {
          "internalType": "uint256",
          "name": "assets",
          "type": "uint256"
        }
      ],
      "name": "previewDeposit",
      "outputs": [
        {
          "internalType": "uint256",
          "name": "",
          "type": "uint256"
        }
      ],
      "stateMutability": "view",
      "type": "function"
    },
    {
      "inputs": [
        {
          "internalType": "uint256",
          "name": "shares",
          "type": "uint256"
        }
      ],
      "name": "previewMint",
      "outputs": [
        {
          "internalType": "uint256",
          "name": "",
          "type": "uint256"
        }
      ],
      "stateMutability": "view",
      "type": "function"
    },
    {
      "inputs": [
        {
          "internalType": "uint256",
          "name": "shares",
          "type": "uint256"
        }
      ],
      "name": "previewRedeem",
      "outputs": [
        {
          "internalType": "uint256",
          "name": "",
          "type": "uint256"
        }
      ],
      "stateMutability": "view",
      "type": "function"
    },
    {
      "inputs": [
        {
          "internalType": "uint256",
          "name": "assets",
          "type": "uint256"
        }
      ],
      "name": "previewWithdraw",
      "outputs": [
        {
          "internalType": "uint256",
          "name": "",
          "type": "uint256"
        }
      ],
      "stateMutability": "view",
      "type": "function"
    },
    {
      "inputs": [
        {
          "internalType": "uint256",
          "name": "shares",
          "type": "uint256"
        },
        {
          "internalType": "address",
          "name": "receiver",
          "type": "address"
        },
        {
          "internalType": "address",
          "name": "owner",
          "type": "address"
        }
      ],
      "name": "redeem",
      "outputs": [
        {
          "internalType": "uint256",
          "name": "",
          "type": "uint256"
        }
      ],
      "stateMutability": "nonpayable",
      "type": "function"
    },
    {
      "inputs": [],
      "name": "registry",
      "outputs": [
        {
          "internalType": "contract TokenRegistry",
          "name": "",
          "type": "address"
        }
      ],
      "stateMutability": "view",
      "type": "function"
    },
    {
      "inputs": [
        {
          "internalType": "bytes32",
          "name": "role",
          "type": "bytes32"
        },
        {
          "internalType": "address",
          "name": "callerConfirmation",
          "type": "address"
        }
      ],
      "name": "renounceRole",
      "outputs": [],
      "stateMutability": "nonpayable",
      "type": "function"
    },
    {
      "inputs": [
        {
          "internalType": "bytes32",
          "name": "role",
          "type": "bytes32"
        },
        {
          "internalType": "address",
          "name": "account",
          "type": "address"
        }
      ],
      "name": "revokeRole",
      "outputs": [],
      "stateMutability": "nonpayable",
      "type": "function"
    },
    {
      "inputs": [],
      "name": "scheduleManagementFee",
      "outputs": [],
      "stateMutability": "nonpayable",
      "type": "function"
    },
    {
      "inputs": [
        {
          "internalType": "address",
          "name": "_addr",
          "type": "address"
        },
        {
          "internalType": "bool",
          "name": "_status",
          "type": "bool"
        }
      ],
      "name": "setAdmin",
      "outputs": [],
      "stateMutability": "nonpayable",
      "type": "function"
    },
    {
      "inputs": [
        {
          "components": [
            {
              "internalType": "address",
              "name": "token",
              "type": "address"
            },
            {
              "internalType": "uint256",
              "name": "weight",
              "type": "uint256"
            },
            {
              "internalType": "bool",
              "name": "active",
              "type": "bool"
            }
          ],
          "internalType": "struct Vault.AssetAllocation[]",
          "name": "newAllocations",
          "type": "tuple[]"
        }
      ],
      "name": "setAllocations",
      "outputs": [],
      "stateMutability": "nonpayable",
      "type": "function"
    },
    {
      "inputs": [
        {
          "internalType": "address",
          "name": "newReceiver",
          "type": "address"
        }
      ],
      "name": "setFeeReceiver",
      "outputs": [],
      "stateMutability": "nonpayable",
      "type": "function"
    },
    {
      "inputs": [
        {
          "internalType": "uint256",
          "name": "_exitFeeBps",
          "type": "uint256"
        },
        {
          "internalType": "uint256",
          "name": "_managementFeeBps",
          "type": "uint256"
        }
      ],
      "name": "setFees",
      "outputs": [],
      "stateMutability": "nonpayable",
      "type": "function"
    },
    {
      "inputs": [],
      "name": "strategyLabel",
      "outputs": [
        {
          "internalType": "string",
          "name": "",
          "type": "string"
        }
      ],
      "stateMutability": "view",
      "type": "function"
    },
    {
      "inputs": [
        {
          "internalType": "bytes4",
          "name": "interfaceId",
          "type": "bytes4"
        }
      ],
      "name": "supportsInterface",
      "outputs": [
        {
          "internalType": "bool",
          "name": "",
          "type": "bool"
        }
      ],
      "stateMutability": "view",
      "type": "function"
    },
    {
      "inputs": [],
      "name": "symbol",
      "outputs": [
        {
          "internalType": "string",
          "name": "",
          "type": "string"
        }
      ],
      "stateMutability": "view",
      "type": "function"
    },
    {
      "inputs": [],
      "name": "totalAssets",
      "outputs": [
        {
          "internalType": "uint256",
          "name": "",
          "type": "uint256"
        }
      ],
      "stateMutability": "view",
      "type": "function"
    },
    {
      "inputs": [],
      "name": "totalSupply",
      "outputs": [
        {
          "internalType": "uint256",
          "name": "",
          "type": "uint256"
        }
      ],
      "stateMutability": "view",
      "type": "function"
    },
    {
      "inputs": [
        {
          "internalType": "address",
          "name": "to",
          "type": "address"
        },
        {
          "internalType": "uint256",
          "name": "value",
          "type": "uint256"
        }
      ],
      "name": "transfer",
      "outputs": [
        {
          "internalType": "bool",
          "name": "",
          "type": "bool"
        }
      ],
      "stateMutability": "nonpayable",
      "type": "function"
    },
    {
      "inputs": [
        {
          "internalType": "address",
          "name": "from",
          "type": "address"
        },
        {
          "internalType": "address",
          "name": "to",
          "type": "address"
        },
        {
          "internalType": "uint256",
          "name": "value",
          "type": "uint256"
        }
      ],
      "name": "transferFrom",
      "outputs": [
        {
          "internalType": "bool",
          "name": "",
          "type": "bool"
        }
      ],
      "stateMutability": "nonpayable",
      "type": "function"
    },
    {
      "inputs": [],
      "name": "treasury",
      "outputs": [
        {
          "internalType": "address",
          "name": "",
          "type": "address"
        }
      ],
      "stateMutability": "view",
      "type": "function"
    },
    {
      "inputs": [],
      "name": "unpause",
      "outputs": [],
      "stateMutability": "nonpayable",
      "type": "function"
    },
    {
      "inputs": [
        {
          "internalType": "uint256",
          "name": "",
          "type": "uint256"
        },
        {
          "internalType": "address",
          "name": "",
          "type": "address"
        },
        {
          "internalType": "address",
          "name": "",
          "type": "address"
        }
      ],
      "name": "withdraw",
      "outputs": [
        {
          "internalType": "uint256",
          "name": "",
          "type": "uint256"
        }
      ],
      "stateMutability": "pure",
      "type": "function"
    },
    {
      "stateMutability": "payable",
      "type": "receive"
    }
  ],
  "bytecode": "0x61012060405234801561001157600080fd5b5060405161628b38038061628b8339818101604052810190610033919061086e565b846040518060400160405280601381526020017f4b696e6f736869205661756c74205368617265000000000000000000000000008152506040518060400160405280600681526020017f4b4e53485653000000000000000000000000000000000000000000000000000081525081600390816100af9190610b26565b5080600490816100bf9190610b26565b5050506000806100d48361036060201b60201c565b91509150816100e45760126100e6565b805b60ff1660a08160ff16815250508273ffffffffffffffffffffffffffffffffffffffff1660808173ffffffffffffffffffffffffffffffffffffffff16815250505050506001600781905550600073ffffffffffffffffffffffffffffffffffffffff168373ffffffffffffffffffffffffffffffffffffffff1603610198576040517fd92e233d00000000000000000000000000000000000000000000000000000000815260040160405180910390fd5b600073ffffffffffffffffffffffffffffffffffffffff168273ffffffffffffffffffffffffffffffffffffffff16036101fe576040517fd92e233d00000000000000000000000000000000000000000000000000000000815260040160405180910390fd5b600073ffffffffffffffffffffffffffffffffffffffff168173ffffffffffffffffffffffffffffffffffffffff1603610264576040517fd92e233d00000000000000000000000000000000000000000000000000000000815260040160405180910390fd5b83600990816102739190610b26565b508273ffffffffffffffffffffffffffffffffffffffff1660c08173ffffffffffffffffffffffffffffffffffffffff16815250508173ffffffffffffffffffffffffffffffffffffffff1660e08173ffffffffffffffffffffffffffffffffffffffff16815250508073ffffffffffffffffffffffffffffffffffffffff166101008173ffffffffffffffffffffffffffffffffffffffff16815250506103246000801b3361047060201b60201c565b506103557fa49807205ce4d355092ef5a8a18f56e8913cf4a201fbe287825b095693c217753361047060201b60201c565b505050505050610caf565b6000806000808473ffffffffffffffffffffffffffffffffffffffff1660405160240160405160208183030381529060405263313ce56760e01b6020820180517bffffffffffffffffffffffffffffffffffffffffffffffffffffffff83818316178352505050506040516103d59190610c3f565b600060405180830381855afa9150503d8060008114610410576040519150601f19603f3d011682016040523d82523d6000602084013e610415565b606091505b509150915081801561042957506020815110155b15610461576000818060200190518101906104449190610c82565b905060ff8016811161045f576001819450945050505061046b565b505b6000809350935050505b915091565b6000610482838361056e60201b60201c565b6105635760016005600085815260200190815260200160002060000160008473ffffffffffffffffffffffffffffffffffffffff1673ffffffffffffffffffffffffffffffffffffffff16815260200190815260200160002060006101000a81548160ff0219169083151502179055506105006105d960201b60201c565b73ffffffffffffffffffffffffffffffffffffffff168273ffffffffffffffffffffffffffffffffffffffff16847f2f8788117e7eff1d82e926ec794901d17c78024a50270940304540a733656f0d60405160405180910390a460019050610568565b600090505b92915050565b60006005600084815260200190815260200160002060000160008373ffffffffffffffffffffffffffffffffffffffff1673ffffffffffffffffffffffffffffffffffffffff16815260200190815260200160002060009054906101000a900460ff16905092915050565b600033905090565b6000604051905090565b600080fd5b600080fd5b600073ffffffffffffffffffffffffffffffffffffffff82169050919050565b6000610620826105f5565b9050919050565b600061063282610615565b9050919050565b61064281610627565b811461064d57600080fd5b50565b60008151905061065f81610639565b92915050565b600080fd5b600080fd5b6000601f19601f8301169050919050565b7f4e487b7100000000000000000000000000000000000000000000000000000000600052604160045260246000fd5b6106b88261066f565b810181811067ffffffffffffffff821117156106d7576106d6610680565b5b80604052505050565b60006106ea6105e1565b90506106f682826106af565b919050565b600067ffffffffffffffff82111561071657610715610680565b5b61071f8261066f565b9050602081019050919050565b60005b8381101561074a57808201518184015260208101905061072f565b60008484015250505050565b6000610769610764846106fb565b6106e0565b9050828152602081018484840111156107855761078461066a565b5b61079084828561072c565b509392505050565b600082601f8301126107ad576107ac610665565b5b81516107bd848260208601610756565b91505092915050565b6107cf81610615565b81146107da57600080fd5b50565b6000815190506107ec816107c6565b92915050565b60006107fd82610615565b9050919050565b61080d816107f2565b811461081857600080fd5b50565b60008151905061082a81610804565b92915050565b600061083b82610615565b9050919050565b61084b81610830565b811461085657600080fd5b50565b60008151905061086881610842565b92915050565b600080600080600060a0868803121561088a576108896105eb565b5b600061089888828901610650565b955050602086015167ffffffffffffffff8111156108b9576108b86105f0565b5b6108c588828901610798565b94505060406108d6888289016107dd565b93505060606108e78882890161081b565b92505060806108f888828901610859565b9150509295509295909350565b600081519050919050565b7f4e487b7100000000000000000000000000000000000000000000000000000000600052602260045260246000fd5b6000600282049050600182168061095757607f821691505b60208210810361096a57610969610910565b5b50919050565b60008190508160005260206000209050919050565b60006020601f8301049050919050565b600082821b905092915050565b6000600883026109d27fffffffffffffffffffffffffffffffffffffffffffffffffffffffffffffffff82610995565b6109dc8683610995565b95508019841693508086168417925050509392505050565b6000819050919050565b6000819050919050565b6000610a23610a1e610a19846109f4565b6109fe565b6109f4565b9050919050565b6000819050919050565b610a3d83610a08565b610a51610a4982610a2a565b8484546109a2565b825550505050565b600090565b610a66610a59565b610a71818484610a34565b505050565b5b81811015610a9557610a8a600082610a5e565b600181019050610a77565b5050565b601f821115610ada57610aab81610970565b610ab484610985565b81016020851015610ac3578190505b610ad7610acf85610985565b830182610a76565b50505b505050565b600082821c905092915050565b6000610afd60001984600802610adf565b1980831691505092915050565b6000610b168383610aec565b9150826002028217905092915050565b610b2f82610905565b67ffffffffffffffff811115610b4857610b47610680565b5b610b52825461093f565b610b5d828285610a99565b600060209050601f831160018114610b905760008415610b7e578287015190505b610b888582610b0a565b865550610bf0565b601f198416610b9e86610970565b60005b82811015610bc657848901518255600182019150602085019450602081019050610ba1565b86831015610be35784890151610bdf601f891682610aec565b8355505b6001600288020188555050505b505050505050565b600081519050919050565b600081905092915050565b6000610c1982610bf8565b610c238185610c03565b9350610c3381856020860161072c565b80840191505092915050565b6000610c4b8284610c0e565b915081905092915050565b610c5f816109f4565b8114610c6a57600080fd5b50565b600081519050610c7c81610c56565b92915050565b600060208284031215610c9857610c976105eb565b5b6000610ca684828501610c6d565b91505092915050565b60805160a05160c05160e05161010051615559610d32600039600081816121f60152612ddc0152600081816114de01528181611e93015281816121d2015281816128060152612e7a0152600081816117440152818161186a015281816118ca01528181611b7801526129d90152600061196901526000611a1c01526155596000f3fe60806040526004361061036f5760003560e01c806370a08231116101c6578063b460af94116100f7578063d905777e11610095578063eca740901161006f578063eca7409014610dc4578063ef8b30f714610def578063efdcd97414610e2c578063fc97bccc14610e55576103a6565b8063d905777e14610d21578063dd62ed3e14610d5e578063ddc563ca14610d9b576103a6565b8063c6e6f592116100d1578063c6e6f59214610c53578063ce96cb7714610c90578063d547741f14610ccd578063d55be8c614610cf6576103a6565b8063b460af9414610b9c578063ba08765214610bd9578063c63d75b614610c16576103a6565b806395d89b4111610164578063a217fddf1161013e578063a217fddf14610acc578063a9059cbb14610af7578063b3d7f6b914610b34578063b3f0067414610b71576103a6565b806395d89b4114610a5f5780639733fa8014610a8a5780639f75494114610ab5576103a6565b80637dc0d1d0116101a05780637dc0d1d0146109a35780638456cb59146109ce57806391d14854146109e557806394bf804d14610a22576103a6565b806370a082311461091057806375b238fc1461094d5780637b10399914610978576103a6565b8063313ce567116102a05780634cdad5061161023e5780635c975abb116102185780635c975abb1461085257806361d027b31461087d57806365ed6e23146108a85780636e553f65146108d3576103a6565b80634cdad506146107bf57806357b17a52146107fc578063592b79fe14610827576103a6565b806338d52e0f1161027a57806338d52e0f146107175780633f4ba83a14610742578063402d267d146107595780634b0bddd214610796576103a6565b8063313ce5671461069857806336568abe146106c35780633813c35a146106ec576103a6565b80630b78f9c01161030d57806323b872dd116102e757806323b872dd146105de578063248a9ca31461061b57806328f72834146106585780632f2ff15d1461066f576103a6565b80630b78f9c014610561578063134666791461058a57806318160ddd146105b3576103a6565b806307a2d13a1161034957806307a2d13a1461046b578063095ea7b3146104a85780630a2642bf146104e55780630a28a47714610524576103a6565b806301e1d114146103d857806301ffc9a71461040357806306fdde0314610440576103a6565b366103a6576040517f3733483400000000000000000000000000000000000000000000000000000000815260040160405180910390fd5b6040517f3733483400000000000000000000000000000000000000000000000000000000815260040160405180910390fd5b3480156103e457600080fd5b506103ed610e80565b6040516103fa9190614275565b60405180910390f35b34801561040f57600080fd5b5061042a600480360381019061042591906142fc565b611030565b6040516104379190614344565b60405180910390f35b34801561044c57600080fd5b506104556110aa565b60405161046291906143ef565b60405180910390f35b34801561047757600080fd5b50610492600480360381019061048d919061443d565b61113c565b60405161049f9190614275565b60405180910390f35b3480156104b457600080fd5b506104cf60048036038101906104ca91906144c8565b611150565b6040516104dc9190614344565b60405180910390f35b3480156104f157600080fd5b5061050c6004803603810190610507919061443d565b611173565b60405161051b93929190614517565b60405180910390f35b34801561053057600080fd5b5061054b6004803603810190610546919061443d565b6111da565b6040516105589190614275565b60405180910390f35b34801561056d57600080fd5b506105886004803603810190610583919061454e565b6111ee565b005b34801561059657600080fd5b506105b160048036038101906105ac919061476b565b6112ee565b005b3480156105bf57600080fd5b506105c861168e565b6040516105d59190614275565b60405180910390f35b3480156105ea57600080fd5b50610605600480360381019061060091906147b4565b611698565b6040516106129190614344565b60405180910390f35b34801561062757600080fd5b50610642600480360381019061063d919061483d565b6116c7565b60405161064f9190614879565b60405180910390f35b34801561066457600080fd5b5061066d6116e7565b005b34801561067b57600080fd5b5061069660048036038101906106919190614894565b61193b565b005b3480156106a457600080fd5b506106ad61195d565b6040516106ba91906148f0565b60405180910390f35b3480156106cf57600080fd5b506106ea60048036038101906106e59190614894565b611997565b005b3480156106f857600080fd5b50610701611a12565b60405161070e9190614275565b60405180910390f35b34801561072357600080fd5b5061072c611a18565b604051610739919061490b565b60405180910390f35b34801561074e57600080fd5b50610757611a40565b005b34801561076557600080fd5b50610780600480360381019061077b9190614926565b611a58565b60405161078d9190614275565b60405180910390f35b3480156107a257600080fd5b506107bd60048036038101906107b89190614953565b611a82565b005b3480156107cb57600080fd5b506107e660048036038101906107e1919061443d565b611af6565b6040516107f39190614275565b60405180910390f35b34801561080857600080fd5b50610811611b0a565b60405161081e9190614275565b60405180910390f35b34801561083357600080fd5b5061083c611b10565b6040516108499190614275565b60405180910390f35b34801561085e57600080fd5b50610867611b5f565b6040516108749190614344565b60405180910390f35b34801561088957600080fd5b50610892611b76565b60405161089f919061490b565b60405180910390f35b3480156108b457600080fd5b506108bd611b9a565b6040516108ca9190614ab1565b60405180910390f35b3480156108df57600080fd5b506108fa60048036038101906108f59190614ad3565b611c74565b6040516109079190614275565b60405180910390f35b34801561091c57600080fd5b5061093760048036038101906109329190614926565b612164565b6040516109449190614275565b60405180910390f35b34801561095957600080fd5b506109626121ac565b60405161096f9190614879565b60405180910390f35b34801561098457600080fd5b5061098d6121d0565b60405161099a9190614b72565b60405180910390f35b3480156109af57600080fd5b506109b86121f4565b6040516109c59190614bae565b60405180910390f35b3480156109da57600080fd5b506109e3612218565b005b3480156109f157600080fd5b50610a0c6004803603810190610a079190614894565b612230565b604051610a199190614344565b60405180910390f35b348015610a2e57600080fd5b50610a496004803603810190610a449190614ad3565b61229b565b604051610a569190614275565b60405180910390f35b348015610a6b57600080fd5b50610a7461231d565b604051610a8191906143ef565b60405180910390f35b348015610a9657600080fd5b50610a9f6123af565b604051610aac9190614275565b60405180910390f35b348015610ac157600080fd5b50610aca6123b5565b005b348015610ad857600080fd5b50610ae161255d565b604051610aee9190614879565b60405180910390f35b348015610b0357600080fd5b50610b1e6004803603810190610b1991906144c8565b612564565b604051610b2b9190614344565b60405180910390f35b348015610b4057600080fd5b50610b5b6004803603810190610b56919061443d565b612587565b604051610b689190614275565b60405180910390f35b348015610b7d57600080fd5b50610b8661259b565b604051610b93919061490b565b60405180910390f35b348015610ba857600080fd5b50610bc36004803603810190610bbe9190614bc9565b6125c1565b604051610bd09190614275565b60405180910390f35b348015610be557600080fd5b50610c006004803603810190610bfb9190614bc9565b6125f5565b604051610c0d9190614275565b60405180910390f35b348015610c2257600080fd5b50610c3d6004803603810190610c389190614926565b612b13565b604051610c4a9190614275565b60405180910390f35b348015610c5f57600080fd5b50610c7a6004803603810190610c75919061443d565b612b3d565b604051610c879190614275565b60405180910390f35b348015610c9c57600080fd5b50610cb76004803603810190610cb29190614926565b612b51565b604051610cc49190614275565b60405180910390f35b348015610cd957600080fd5b50610cf46004803603810190610cef9190614894565b612b6d565b005b348015610d0257600080fd5b50610d0b612b8f565b604051610d189190614275565b60405180910390f35b348015610d2d57600080fd5b50610d486004803603810190610d439190614926565b612b95565b604051610d559190614275565b60405180910390f35b348015610d6a57600080fd5b50610d856004803603810190610d809190614c1c565b612ba7565b604051610d929190614275565b60405180910390f35b348015610da757600080fd5b50610dc26004803603810190610dbd919061443d565b612c2e565b005b348015610dd057600080fd5b50610dd9612c65565b604051610de69190614275565b60405180910390f35b348015610dfb57600080fd5b50610e166004803603810190610e11919061443d565b612c6c565b604051610e239190614275565b60405180910390f35b348015610e3857600080fd5b50610e536004803603810190610e4e9190614926565b612c80565b005b348015610e6157600080fd5b50610e6a612d38565b604051610e7791906143ef565b60405180910390f35b6000806000905060005b60088054905081101561102857600060088281548110610ead57610eac614c5c565b5b90600052602060002090600302016040518060600160405290816000820160009054906101000a900473ffffffffffffffffffffffffffffffffffffffff1673ffffffffffffffffffffffffffffffffffffffff1673ffffffffffffffffffffffffffffffffffffffff168152602001600182015481526020016002820160009054906101000a900460ff161515151581525050905080604001511561101a576000816000015173ffffffffffffffffffffffffffffffffffffffff166370a08231306040518263ffffffff1660e01b8152600401610f8c919061490b565b602060405180830381865afa158015610fa9573d6000803e3d6000fd5b505050506040513d601f19601f82011682018060405250810190610fcd9190614ca0565b90506000610fdf836000015183612dc6565b90506000670de0b6b3a7640000846020015183610ffc9190614cfc565b6110069190614d6d565b905080866110149190614d9e565b95505050505b508080600101915050610e8a565b508091505090565b60007f7965db0b000000000000000000000000000000000000000000000000000000007bffffffffffffffffffffffffffffffffffffffffffffffffffffffff1916827bffffffffffffffffffffffffffffffffffffffffffffffffffffffff191614806110a357506110a282612f5d565b5b9050919050565b6060600380546110b990614e01565b80601f01602080910402602001604051908101604052809291908181526020018280546110e590614e01565b80156111325780601f1061110757610100808354040283529160200191611132565b820191906000526020600020905b81548152906001019060200180831161111557829003601f168201915b5050505050905090565b6000611149826000612fc7565b9050919050565b60008061115b613020565b9050611168818585613028565b600191505092915050565b6008818154811061118357600080fd5b90600052602060002090600302016000915090508060000160009054906101000a900473ffffffffffffffffffffffffffffffffffffffff16908060010154908060020160009054906101000a900460ff16905083565b60006111e782600161303a565b9050919050565b7fa49807205ce4d355092ef5a8a18f56e8913cf4a201fbe287825b095693c2177561121881613093565b6103e883111561125d576040517f08c379a000000000000000000000000000000000000000000000000000000000815260040161125490614e7e565b60405180910390fd5b6103e88211156112a2576040517f08c379a000000000000000000000000000000000000000000000000000000000815260040161129990614eea565b60405180910390fd5b82600a8190555081600b819055507f5c6323bf1c2d7aaea2c091a4751c1c87af7f2864650c336507a77d0557af37a183836040516112e1929190614f0a565b60405180910390a1505050565b7fa49807205ce4d355092ef5a8a18f56e8913cf4a201fbe287825b095693c2177561131881613093565b600082511161135c576040517f08c379a000000000000000000000000000000000000000000000000000000000815260040161135390614f7f565b60405180910390fd5b6008600061136a91906141de565b600080600090505b835181101561160457600073ffffffffffffffffffffffffffffffffffffffff168482815181106113a6576113a5614c5c565b5b60200260200101516000015173ffffffffffffffffffffffffffffffffffffffff16036113ff576040517fd92e233d00000000000000000000000000000000000000000000000000000000815260040160405180910390fd5b600884828151811061141457611413614c5c565b5b6020026020010151908060018154018082558091505060019003906000526020600020906003020160009091909190915060008201518160000160006101000a81548173ffffffffffffffffffffffffffffffffffffffff021916908373ffffffffffffffffffffffffffffffffffffffff1602179055506020820151816001015560408201518160020160006101000a81548160ff02191690831515021790555050508381815181106114cb576114ca614c5c565b5b602002602001015160400151156115f7577f000000000000000000000000000000000000000000000000000000000000000073ffffffffffffffffffffffffffffffffffffffff166326aa101f85838151811061152b5761152a614c5c565b5b6020026020010151600001516040518263ffffffff1660e01b8152600401611553919061490b565b602060405180830381865afa158015611570573d6000803e3d6000fd5b505050506040513d601f19601f820116820180604052508101906115949190614fb4565b6115ca576040517f259ba1ad00000000000000000000000000000000000000000000000000000000815260040160405180910390fd5b8381815181106115dd576115dc614c5c565b5b602002602001015160200151826115f49190614d9e565b91505b8080600101915050611372565b50670de0b6b3a76400008114611646576040517f940addc700000000000000000000000000000000000000000000000000000000815260040160405180910390fd5b3373ffffffffffffffffffffffffffffffffffffffff167fe12b8d1d4a7f7412a024aee54caca7fbc2f384591f10a085a28f47f518661c6460405160405180910390a2505050565b6000600254905090565b6000806116a3613020565b90506116b08582856130a7565b6116bb85858561313c565b60019150509392505050565b600060056000838152602001908152602001600020600101549050919050565b6000801b6116f481613093565b60006116fe61168e565b1115611736576040517f5f9863ad00000000000000000000000000000000000000000000000000000000815260040160405180910390fd5b6000630bebc20090506117937f0000000000000000000000000000000000000000000000000000000000000000308361176d611a18565b73ffffffffffffffffffffffffffffffffffffffff16613230909392919063ffffffff16565b8061179c611a18565b73ffffffffffffffffffffffffffffffffffffffff166370a08231306040518263ffffffff1660e01b81526004016117d4919061490b565b602060405180830381865afa1580156117f1573d6000803e3d6000fd5b505050506040513d601f19601f820116820180604052508101906118159190614ca0565b1015611856576040517f08c379a000000000000000000000000000000000000000000000000000000000815260040161184d9061502d565b60405180910390fd5b60006118638260066132b2565b905061188f7f000000000000000000000000000000000000000000000000000000000000000082613327565b7fdaae2c9a5469dd70890ae96297904a986542c0bb3ab3bd176b5e7099ccf2ed7482826040516118c0929190614f0a565b60405180910390a17f000000000000000000000000000000000000000000000000000000000000000073ffffffffffffffffffffffffffffffffffffffff167f2da466a7b24304f47e87fa2e1e5a81b9831ce54fec19055ce277ca2f39ba42c48360405161192e9190614275565b60405180910390a2505050565b611944826116c7565b61194d81613093565b61195783836133a9565b50505050565b600061196761349b565b7f0000000000000000000000000000000000000000000000000000000000000000611992919061504d565b905090565b61199f613020565b73ffffffffffffffffffffffffffffffffffffffff168173ffffffffffffffffffffffffffffffffffffffff1614611a03576040517f6697b23200000000000000000000000000000000000000000000000000000000815260040160405180910390fd5b611a0d82826134a4565b505050565b600b5481565b60007f0000000000000000000000000000000000000000000000000000000000000000905090565b6000801b611a4d81613093565b611a55613597565b50565b60007fffffffffffffffffffffffffffffffffffffffffffffffffffffffffffffffff9050919050565b6000801b611a8f81613093565b8115611ac557611abf7fa49807205ce4d355092ef5a8a18f56e8913cf4a201fbe287825b095693c21775846133a9565b50611af1565b611aef7fa49807205ce4d355092ef5a8a18f56e8913cf4a201fbe287825b095693c21775846134a4565b505b505050565b6000611b03826000612fc7565b9050919050565b600a5481565b600080600b541480611b2957506000611b2761168e565b145b15611b375760009050611b5c565b612710600b54611b4561168e565b611b4f9190614cfc565b611b599190614d6d565b90505b90565b6000600660009054906101000a900460ff16905090565b7f000000000000000000000000000000000000000000000000000000000000000081565b60606008805480602002602001604051908101604052809291908181526020016000905b82821015611c6b57838290600052602060002090600302016040518060600160405290816000820160009054906101000a900473ffffffffffffffffffffffffffffffffffffffff1673ffffffffffffffffffffffffffffffffffffffff1673ffffffffffffffffffffffffffffffffffffffff168152602001600182015481526020016002820160009054906101000a900460ff16151515158152505081526020019060010190611bbe565b50505050905090565b6000611c7e611b5f565b15611cb5576040517f059519da00000000000000000000000000000000000000000000000000000000815260040160405180910390fd5b60008303611cef576040517f2c5211c600000000000000000000000000000000000000000000000000000000815260040160405180910390fd5b6000611cfb84846135fa565b90508273ffffffffffffffffffffffffffffffffffffffff167f2da466a7b24304f47e87fa2e1e5a81b9831ce54fec19055ce277ca2f39ba42c485604051611d439190614275565b60405180910390a260005b6008805490508110156120e557600060088281548110611d7157611d70614c5c565b5b90600052602060002090600302016040518060600160405290816000820160009054906101000a900473ffffffffffffffffffffffffffffffffffffffff1673ffffffffffffffffffffffffffffffffffffffff1673ffffffffffffffffffffffffffffffffffffffff168152602001600182015481526020016002820160009054906101000a900460ff161515151581525050905080604001511580611e4e5750611e1b611a18565b73ffffffffffffffffffffffffffffffffffffffff16816000015173ffffffffffffffffffffffffffffffffffffffff16145b15611e5957506120d8565b6000611e668760066132b2565b90506000670de0b6b3a7640000836020015183611e839190614cfc565b611e8d9190614d6d565b905060007f000000000000000000000000000000000000000000000000000000000000000073ffffffffffffffffffffffffffffffffffffffff1663785c7cf685600001516040518263ffffffff1660e01b8152600401611eee919061490b565b602060405180830381865afa158015611f0b573d6000803e3d6000fd5b505050506040513d601f19601f82011682018060405250810190611f2f91906150ae565b90506000611f3d838361367c565b90506000856000015173ffffffffffffffffffffffffffffffffffffffff163083604051602401611f6f9291906150db565b6040516020818303038152906040527f40c10f19000000000000000000000000000000000000000000000000000000007bffffffffffffffffffffffffffffffffffffffffffffffffffffffff19166020820180517bffffffffffffffffffffffffffffffffffffffffffffffffffffffff8381831617835250505050604051611ff9919061514b565b6000604051808303816000865af19150503d8060008114612036576040519150601f19603f3d011682016040523d82523d6000602084013e61203b565b606091505b505090508061207f576040517f08c379a0000000000000000000000000000000000000000000000000000000008152600401612076906151ae565b60405180910390fd5b856000015173ffffffffffffffffffffffffffffffffffffffff167f472f36e28bb47edb7c69c9e2ac00a77c66b505df54e9c818ac57110b0629e8c3836040516120c99190614275565b60405180910390a25050505050505b8080600101915050611d4e565b506120ee611a18565b73ffffffffffffffffffffffffffffffffffffffff16639dc29fac30866040518363ffffffff1660e01b81526004016121289291906150db565b600060405180830381600087803b15801561214257600080fd5b505af1158015612156573d6000803e3d6000fd5b505050508091505092915050565b60008060008373ffffffffffffffffffffffffffffffffffffffff1673ffffffffffffffffffffffffffffffffffffffff168152602001908152602001600020549050919050565b7fa49807205ce4d355092ef5a8a18f56e8913cf4a201fbe287825b095693c2177581565b7f000000000000000000000000000000000000000000000000000000000000000081565b7f000000000000000000000000000000000000000000000000000000000000000081565b6000801b61222581613093565b61222d6136f1565b50565b60006005600084815260200190815260200160002060000160008373ffffffffffffffffffffffffffffffffffffffff1673ffffffffffffffffffffffffffffffffffffffff16815260200190815260200160002060009054906101000a900460ff16905092915050565b6000806122a783612b13565b9050808411156122f2578284826040517f284ff6670000000000000000000000000000000000000000000000000000000081526004016122e9939291906151ce565b60405180910390fd5b60006122fd85612587565b905061231261230a613020565b858388613754565b809250505092915050565b60606004805461232c90614e01565b80601f016020809104026020016040519081016040528092919081815260200182805461235890614e01565b80156123a55780601f1061237a576101008083540402835291602001916123a5565b820191906000526020600020905b81548152906001019060200180831161238857829003601f168201915b5050505050905090565b600d5481565b7fa49807205ce4d355092ef5a8a18f56e8913cf4a201fbe287825b095693c217756123df81613093565b600073ffffffffffffffffffffffffffffffffffffffff16600c60009054906101000a900473ffffffffffffffffffffffffffffffffffffffff1673ffffffffffffffffffffffffffffffffffffffff1603612467576040517fd92e233d00000000000000000000000000000000000000000000000000000000815260040160405180910390fd5b6000600b54036124a3576040517f02a578dd00000000000000000000000000000000000000000000000000000000815260040160405180910390fd5b60003073ffffffffffffffffffffffffffffffffffffffff1663592b79fe6040518163ffffffff1660e01b8152600401602060405180830381865afa1580156124f0573d6000803e3d6000fd5b505050506040513d601f19601f820116820180604052508101906125149190614ca0565b905060008103612550576040517f2c5211c600000000000000000000000000000000000000000000000000000000815260040160405180910390fd5b612559816137de565b5050565b6000801b81565b60008061256f613020565b905061257c81858561313c565b600191505092915050565b6000612594826001612fc7565b9050919050565b600c60009054906101000a900473ffffffffffffffffffffffffffffffffffffffff1681565b60006040517f328abb9600000000000000000000000000000000000000000000000000000000815260040160405180910390fd5b60006125ff611b5f565b15612636576040517f059519da00000000000000000000000000000000000000000000000000000000815260040160405180910390fd5b61263e6139e0565b60008403612678576040517f2c5211c600000000000000000000000000000000000000000000000000000000815260040160405180910390fd5b60006126838561113c565b90506000612710600a54836126989190614cfc565b6126a29190614d6d565b9050600081836126b29190615205565b90506126be8588613a26565b60005b600880549050811015612936576000600882815481106126e4576126e3614c5c565b5b90600052602060002090600302016040518060600160405290816000820160009054906101000a900473ffffffffffffffffffffffffffffffffffffffff1673ffffffffffffffffffffffffffffffffffffffff1673ffffffffffffffffffffffffffffffffffffffff168152602001600182015481526020016002820160009054906101000a900460ff1615151515815250509050806040015115806127c1575061278e611a18565b73ffffffffffffffffffffffffffffffffffffffff16816000015173ffffffffffffffffffffffffffffffffffffffff16145b156127cc5750612929565b60006127d98660066132b2565b90506000670de0b6b3a76400008360200151836127f69190614cfc565b6128009190614d6d565b905060007f000000000000000000000000000000000000000000000000000000000000000073ffffffffffffffffffffffffffffffffffffffff1663785c7cf685600001516040518263ffffffff1660e01b8152600401612861919061490b565b602060405180830381865afa15801561287e573d6000803e3d6000fd5b505050506040513d601f19601f820116820180604052508101906128a291906150ae565b905060006128b0838361367c565b9050846000015173ffffffffffffffffffffffffffffffffffffffff16639dc29fac30836040518363ffffffff1660e01b81526004016128f19291906150db565b600060405180830381600087803b15801561290b57600080fd5b505af115801561291f573d6000803e3d6000fd5b5050505050505050505b80806001019150506126c1565b5061293f611a18565b73ffffffffffffffffffffffffffffffffffffffff166340c10f1987836040518363ffffffff1660e01b81526004016129799291906150db565b600060405180830381600087803b15801561299357600080fd5b505af11580156129a7573d6000803e3d6000fd5b505050506000821115612a99576129bc611a18565b73ffffffffffffffffffffffffffffffffffffffff166340c10f197f0000000000000000000000000000000000000000000000000000000000000000846040518363ffffffff1660e01b8152600401612a169291906150db565b600060405180830381600087803b158015612a3057600080fd5b505af1158015612a44573d6000803e3d6000fd5b505050508473ffffffffffffffffffffffffffffffffffffffff167f4391a67a435a77473a1d86760bc62594cba49fd7a8d4a69696f4a52709fc3c1c8484604051612a90929190614f0a565b60405180910390a25b8573ffffffffffffffffffffffffffffffffffffffff168573ffffffffffffffffffffffffffffffffffffffff167f29a0bcf57d42cd9503e61240cef8d4ae3c5982196af8c0f63b0585b3a3e87f3983604051612af69190614275565b60405180910390a3809350505050612b0c613aa8565b9392505050565b60007fffffffffffffffffffffffffffffffffffffffffffffffffffffffffffffffff9050919050565b6000612b4a82600061303a565b9050919050565b6000612b66612b5f83612164565b6000612fc7565b9050919050565b612b76826116c7565b612b7f81613093565b612b8983836134a4565b50505050565b6103e881565b6000612ba082612164565b9050919050565b6000600160008473ffffffffffffffffffffffffffffffffffffffff1673ffffffffffffffffffffffffffffffffffffffff16815260200190815260200160002060008373ffffffffffffffffffffffffffffffffffffffff1673ffffffffffffffffffffffffffffffffffffffff16815260200190815260200160002054905092915050565b7fa49807205ce4d355092ef5a8a18f56e8913cf4a201fbe287825b095693c21775612c5881613093565b612c61826137de565b5050565b6201518081565b6000612c7982600061303a565b9050919050565b6000801b612c8d81613093565b600073ffffffffffffffffffffffffffffffffffffffff168273ffffffffffffffffffffffffffffffffffffffff1603612cf3576040517fd92e233d00000000000000000000000000000000000000000000000000000000815260040160405180910390fd5b81600c60006101000a81548173ffffffffffffffffffffffffffffffffffffffff021916908373ffffffffffffffffffffffffffffffffffffffff1602179055505050565b60098054612d4590614e01565b80601f0160208091040260200160405190810160405280929190818152602001828054612d7190614e01565b8015612dbe5780601f10612d9357610100808354040283529160200191612dbe565b820191906000526020600020905b815481529060010190602001808311612da157829003601f168201915b505050505081565b6000808203612dd85760009050612f57565b60007f000000000000000000000000000000000000000000000000000000000000000073ffffffffffffffffffffffffffffffffffffffff166341976e09856040518263ffffffff1660e01b8152600401612e33919061490b565b6040805180830381865afa158015612e4f573d6000803e3d6000fd5b505050506040513d601f19601f82011682018060405250810190612e739190615239565b50905060007f000000000000000000000000000000000000000000000000000000000000000073ffffffffffffffffffffffffffffffffffffffff1663785c7cf6866040518263ffffffff1660e01b8152600401612ed1919061490b565b602060405180830381865afa158015612eee573d6000803e3d6000fd5b505050506040513d601f19601f82011682018060405250810190612f1291906150ae565b90506000612f2085836132b2565b90506000670de0b6b3a76400008483612f399190614cfc565b612f439190614d6d565b9050612f5081600661367c565b9450505050505b92915050565b60007f01ffc9a7000000000000000000000000000000000000000000000000000000007bffffffffffffffffffffffffffffffffffffffffffffffffffffffff1916827bffffffffffffffffffffffffffffffffffffffffffffffffffffffff1916149050919050565b60006130186001612fd6610e80565b612fe09190614d9e565b612fe861349b565b600a612ff491906153ac565b612ffc61168e565b6130069190614d9e565b8486613ab2909392919063ffffffff16565b905092915050565b600033905090565b6130358383836001613b01565b505050565b600061308b61304761349b565b600a61305391906153ac565b61305b61168e565b6130659190614d9e565b600161306f610e80565b6130799190614d9e565b8486613ab2909392919063ffffffff16565b905092915050565b6130a48161309f613020565b613cd8565b50565b60006130b38484612ba7565b90507fffffffffffffffffffffffffffffffffffffffffffffffffffffffffffffffff8110156131365781811015613126578281836040517ffb8f41b200000000000000000000000000000000000000000000000000000000815260040161311d939291906151ce565b60405180910390fd5b61313584848484036000613b01565b5b50505050565b600073ffffffffffffffffffffffffffffffffffffffff168373ffffffffffffffffffffffffffffffffffffffff16036131ae5760006040517f96c6fd1e0000000000000000000000000000000000000000000000000000000081526004016131a5919061490b565b60405180910390fd5b600073ffffffffffffffffffffffffffffffffffffffff168273ffffffffffffffffffffffffffffffffffffffff16036132205760006040517fec442f05000000000000000000000000000000000000000000000000000000008152600401613217919061490b565b60405180910390fd5b61322b838383613d29565b505050565b6132ac848573ffffffffffffffffffffffffffffffffffffffff166323b872dd868686604051602401613265939291906153f7565b604051602081830303815290604052915060e01b6020820180517bffffffffffffffffffffffffffffffffffffffffffffffffffffffff8381831617835250505050613f4e565b50505050565b600060128260ff161461331d5760128260ff16106132f3576012826132d7919061542e565b600a6132e391906153ac565b836132ee9190614d6d565b613318565b816012613300919061542e565b600a61330c91906153ac565b836133179190614cfc565b5b61331f565b825b905092915050565b600073ffffffffffffffffffffffffffffffffffffffff168273ffffffffffffffffffffffffffffffffffffffff16036133995760006040517fec442f05000000000000000000000000000000000000000000000000000000008152600401613390919061490b565b60405180910390fd5b6133a560008383613d29565b5050565b60006133b58383612230565b6134905760016005600085815260200190815260200160002060000160008473ffffffffffffffffffffffffffffffffffffffff1673ffffffffffffffffffffffffffffffffffffffff16815260200190815260200160002060006101000a81548160ff02191690831515021790555061342d613020565b73ffffffffffffffffffffffffffffffffffffffff168273ffffffffffffffffffffffffffffffffffffffff16847f2f8788117e7eff1d82e926ec794901d17c78024a50270940304540a733656f0d60405160405180910390a460019050613495565b600090505b92915050565b6000600c905090565b60006134b08383612230565b1561358c5760006005600085815260200190815260200160002060000160008473ffffffffffffffffffffffffffffffffffffffff1673ffffffffffffffffffffffffffffffffffffffff16815260200190815260200160002060006101000a81548160ff021916908315150217905550613529613020565b73ffffffffffffffffffffffffffffffffffffffff168273ffffffffffffffffffffffffffffffffffffffff16847ff6391f5c32d9c69d2a47ea670b442974b53935d1edc7fd64eb21e047a839171b60405160405180910390a460019050613591565b600090505b92915050565b61359f613ff0565b6000600660006101000a81548160ff0219169083151502179055507f5db9ee0a495bf2e6ff9c91a7834c1ba4fdd244a5e8aa4e537bd38aeae4b073aa6135e3613020565b6040516135f0919061490b565b60405180910390a1565b60008061360683611a58565b905080841115613651578284826040517f79012fb2000000000000000000000000000000000000000000000000000000008152600401613648939291906151ce565b60405180910390fd5b600061365c85612c6c565b9050613671613669613020565b858784613754565b809250505092915050565b600060128260ff16146136e75760128260ff16106136bd576012826136a1919061542e565b600a6136ad91906153ac565b836136b89190614cfc565b6136e2565b8160126136ca919061542e565b600a6136d691906153ac565b836136e19190614d6d565b5b6136e9565b825b905092915050565b6136f9614030565b6001600660006101000a81548160ff0219169083151502179055507f62e78cea01bee320cd4e420270b5ea74000d11b0c9f74754ebdbfc544b05a25861373d613020565b60405161374a919061490b565b60405180910390a1565b61376761375f611a18565b853085613230565b6137718382613327565b8273ffffffffffffffffffffffffffffffffffffffff168473ffffffffffffffffffffffffffffffffffffffff167fdcbc1c05240f31ff3ad067ef1ee35ce4997762752e3a095284754544f4c709d784846040516137d0929190614f0a565b60405180910390a350505050565b60008103613818576040517f2c5211c600000000000000000000000000000000000000000000000000000000815260040160405180910390fd5b600073ffffffffffffffffffffffffffffffffffffffff16600c60009054906101000a900473ffffffffffffffffffffffffffffffffffffffff1673ffffffffffffffffffffffffffffffffffffffff16036138a0576040517fd92e233d00000000000000000000000000000000000000000000000000000000815260040160405180910390fd5b6000600d541180156138c1575062015180600d546138be9190614d9e565b42105b156138f8576040517fd92d770300000000000000000000000000000000000000000000000000000000815260040160405180910390fd5b42600d8190555061392b600c60009054906101000a900473ffffffffffffffffffffffffffffffffffffffff1682613327565b600c60009054906101000a900473ffffffffffffffffffffffffffffffffffffffff1673ffffffffffffffffffffffffffffffffffffffff167f7fee81b17a478a24780e52511d61b5efa31505eb290535ab360f99a30f7407d6826040516139939190614275565b60405180910390a27fa3b6bf16d8fbac0e474e8924c4d1d5f0e23f97a448878e5207395b8ce7431ad642826139c661168e565b6040516139d593929190615463565b60405180910390a150565b600260075403613a1c576040517f3ee5aeb500000000000000000000000000000000000000000000000000000000815260040160405180910390fd5b6002600781905550565b600073ffffffffffffffffffffffffffffffffffffffff168273ffffffffffffffffffffffffffffffffffffffff1603613a985760006040517f96c6fd1e000000000000000000000000000000000000000000000000000000008152600401613a8f919061490b565b60405180910390fd5b613aa482600083613d29565b5050565b6001600781905550565b6000613ae2613ac083614071565b8015613add575060008480613ad857613ad7614d3e565b5b868809115b61409f565b613aed8686866140ab565b613af79190614d9e565b9050949350505050565b600073ffffffffffffffffffffffffffffffffffffffff168473ffffffffffffffffffffffffffffffffffffffff1603613b735760006040517fe602df05000000000000000000000000000000000000000000000000000000008152600401613b6a919061490b565b60405180910390fd5b600073ffffffffffffffffffffffffffffffffffffffff168373ffffffffffffffffffffffffffffffffffffffff1603613be55760006040517f94280d62000000000000000000000000000000000000000000000000000000008152600401613bdc919061490b565b60405180910390fd5b81600160008673ffffffffffffffffffffffffffffffffffffffff1673ffffffffffffffffffffffffffffffffffffffff16815260200190815260200160002060008573ffffffffffffffffffffffffffffffffffffffff1673ffffffffffffffffffffffffffffffffffffffff168152602001908152602001600020819055508015613cd2578273ffffffffffffffffffffffffffffffffffffffff168473ffffffffffffffffffffffffffffffffffffffff167f8c5be1e5ebec7d5bd14f71427d1e84f3dd0314c0f7b2291e5b200ac8c7c3b92584604051613cc99190614275565b60405180910390a35b50505050565b613ce28282612230565b613d255780826040517fe2517d3f000000000000000000000000000000000000000000000000000000008152600401613d1c92919061549a565b60405180910390fd5b5050565b600073ffffffffffffffffffffffffffffffffffffffff168373ffffffffffffffffffffffffffffffffffffffff1603613d7b578060026000828254613d6f9190614d9e565b92505081905550613e4e565b60008060008573ffffffffffffffffffffffffffffffffffffffff1673ffffffffffffffffffffffffffffffffffffffff16815260200190815260200160002054905081811015613e07578381836040517fe450d38c000000000000000000000000000000000000000000000000000000008152600401613dfe939291906151ce565b60405180910390fd5b8181036000808673ffffffffffffffffffffffffffffffffffffffff1673ffffffffffffffffffffffffffffffffffffffff16815260200190815260200160002081905550505b600073ffffffffffffffffffffffffffffffffffffffff168273ffffffffffffffffffffffffffffffffffffffff1603613e975780600260008282540392505081905550613ee4565b806000808473ffffffffffffffffffffffffffffffffffffffff1673ffffffffffffffffffffffffffffffffffffffff168152602001908152602001600020600082825401925050819055505b8173ffffffffffffffffffffffffffffffffffffffff168373ffffffffffffffffffffffffffffffffffffffff167fddf252ad1be2c89b69c2b068fc378daa952ba7f163c4a11628f55a4df523b3ef83604051613f419190614275565b60405180910390a3505050565b600080602060008451602086016000885af180613f71576040513d6000823e3d81fd5b3d925060005191505060008214613f8c576001811415613fa8565b60008473ffffffffffffffffffffffffffffffffffffffff163b145b15613fea57836040517f5274afe7000000000000000000000000000000000000000000000000000000008152600401613fe1919061490b565b60405180910390fd5b50505050565b613ff8611b5f565b61402e576040517f8dfc202b00000000000000000000000000000000000000000000000000000000815260040160405180910390fd5b565b614038611b5f565b1561406f576040517fd93c066500000000000000000000000000000000000000000000000000000000815260040160405180910390fd5b565b60006001600283600381111561408a576140896154c3565b5b61409491906154f2565b60ff16149050919050565b60008115159050919050565b60008060006140ba8686614193565b91509150600082036140e0578381816140d6576140d5614d3e565b5b049250505061418c565b818411614100576140ff6140fa60008614601260116141b2565b6141cc565b5b600084868809905081811183039250808203915060008560000386169050808604955080830492506001818260000304019050808402831792506000600287600302189050808702600203810290508087026002038102905080870260020381029050808702600203810290508087026002038102905080870260020381029050808402955050505050505b9392505050565b6000806000198385098385029150818110828203039250509250929050565b60006141bd8461409f565b82841802821890509392505050565b634e487b71600052806020526024601cfd5b50805460008255600302906000526020600020908101906141ff9190614202565b50565b5b8082111561425857600080820160006101000a81549073ffffffffffffffffffffffffffffffffffffffff021916905560018201600090556002820160006101000a81549060ff021916905550600301614203565b5090565b6000819050919050565b61426f8161425c565b82525050565b600060208201905061428a6000830184614266565b92915050565b6000604051905090565b600080fd5b600080fd5b60007fffffffff0000000000000000000000000000000000000000000000000000000082169050919050565b6142d9816142a4565b81146142e457600080fd5b50565b6000813590506142f6816142d0565b92915050565b6000602082840312156143125761431161429a565b5b6000614320848285016142e7565b91505092915050565b60008115159050919050565b61433e81614329565b82525050565b60006020820190506143596000830184614335565b92915050565b600081519050919050565b600082825260208201905092915050565b60005b8381101561439957808201518184015260208101905061437e565b60008484015250505050565b6000601f19601f8301169050919050565b60006143c18261435f565b6143cb818561436a565b93506143db81856020860161437b565b6143e4816143a5565b840191505092915050565b6000602082019050818103600083015261440981846143b6565b905092915050565b61441a8161425c565b811461442557600080fd5b50565b60008135905061443781614411565b92915050565b6000602082840312156144535761445261429a565b5b600061446184828501614428565b91505092915050565b600073ffffffffffffffffffffffffffffffffffffffff82169050919050565b60006144958261446a565b9050919050565b6144a58161448a565b81146144b057600080fd5b50565b6000813590506144c28161449c565b92915050565b600080604083850312156144df576144de61429a565b5b60006144ed858286016144b3565b92505060206144fe85828601614428565b9150509250929050565b6145118161448a565b82525050565b600060608201905061452c6000830186614508565b6145396020830185614266565b6145466040830184614335565b949350505050565b600080604083850312156145655761456461429a565b5b600061457385828601614428565b925050602061458485828601614428565b9150509250929050565b600080fd5b7f4e487b7100000000000000000000000000000000000000000000000000000000600052604160045260246000fd5b6145cb826143a5565b810181811067ffffffffffffffff821117156145ea576145e9614593565b5b80604052505050565b60006145fd614290565b905061460982826145c2565b919050565b600067ffffffffffffffff82111561462957614628614593565b5b602082029050602081019050919050565b600080fd5b600080fd5b61464d81614329565b811461465857600080fd5b50565b60008135905061466a81614644565b92915050565b6000606082840312156146865761468561463f565b5b61469060606145f3565b905060006146a0848285016144b3565b60008301525060206146b484828501614428565b60208301525060406146c88482850161465b565b60408301525092915050565b60006146e76146e28461460e565b6145f3565b9050808382526020820190506060840283018581111561470a5761470961463a565b5b835b81811015614733578061471f8882614670565b84526020840193505060608101905061470c565b5050509392505050565b600082601f8301126147525761475161458e565b5b81356147628482602086016146d4565b91505092915050565b6000602082840312156147815761478061429a565b5b600082013567ffffffffffffffff81111561479f5761479e61429f565b5b6147ab8482850161473d565b91505092915050565b6000806000606084860312156147cd576147cc61429a565b5b60006147db868287016144b3565b93505060206147ec868287016144b3565b92505060406147fd86828701614428565b9150509250925092565b6000819050919050565b61481a81614807565b811461482557600080fd5b50565b60008135905061483781614811565b92915050565b6000602082840312156148535761485261429a565b5b600061486184828501614828565b91505092915050565b61487381614807565b82525050565b600060208201905061488e600083018461486a565b92915050565b600080604083850312156148ab576148aa61429a565b5b60006148b985828601614828565b92505060206148ca858286016144b3565b9150509250929050565b600060ff82169050919050565b6148ea816148d4565b82525050565b600060208201905061490560008301846148e1565b92915050565b60006020820190506149206000830184614508565b92915050565b60006020828403121561493c5761493b61429a565b5b600061494a848285016144b3565b91505092915050565b6000806040838503121561496a5761496961429a565b5b6000614978858286016144b3565b92505060206149898582860161465b565b9150509250929050565b600081519050919050565b600082825260208201905092915050565b6000819050602082019050919050565b6149c88161448a565b82525050565b6149d78161425c565b82525050565b6149e681614329565b82525050565b606082016000820151614a0260008501826149bf565b506020820151614a1560208501826149ce565b506040820151614a2860408501826149dd565b50505050565b6000614a3a83836149ec565b60608301905092915050565b6000602082019050919050565b6000614a5e82614993565b614a68818561499e565b9350614a73836149af565b8060005b83811015614aa4578151614a8b8882614a2e565b9750614a9683614a46565b925050600181019050614a77565b5085935050505092915050565b60006020820190508181036000830152614acb8184614a53565b905092915050565b60008060408385031215614aea57614ae961429a565b5b6000614af885828601614428565b9250506020614b09858286016144b3565b9150509250929050565b6000819050919050565b6000614b38614b33614b2e8461446a565b614b13565b61446a565b9050919050565b6000614b4a82614b1d565b9050919050565b6000614b5c82614b3f565b9050919050565b614b6c81614b51565b82525050565b6000602082019050614b876000830184614b63565b92915050565b6000614b9882614b3f565b9050919050565b614ba881614b8d565b82525050565b6000602082019050614bc36000830184614b9f565b92915050565b600080600060608486031215614be257614be161429a565b5b6000614bf086828701614428565b9350506020614c01868287016144b3565b9250506040614c12868287016144b3565b9150509250925092565b60008060408385031215614c3357614c3261429a565b5b6000614c41858286016144b3565b9250506020614c52858286016144b3565b9150509250929050565b7f4e487b7100000000000000000000000000000000000000000000000000000000600052603260045260246000fd5b600081519050614c9a81614411565b92915050565b600060208284031215614cb657614cb561429a565b5b6000614cc484828501614c8b565b91505092915050565b7f4e487b7100000000000000000000000000000000000000000000000000000000600052601160045260246000fd5b6000614d078261425c565b9150614d128361425c565b9250828202614d208161425c565b91508282048414831517614d3757614d36614ccd565b5b5092915050565b7f4e487b7100000000000000000000000000000000000000000000000000000000600052601260045260246000fd5b6000614d788261425c565b9150614d838361425c565b925082614d9357614d92614d3e565b5b828204905092915050565b6000614da98261425c565b9150614db48361425c565b9250828201905080821115614dcc57614dcb614ccd565b5b92915050565b7f4e487b7100000000000000000000000000000000000000000000000000000000600052602260045260246000fd5b60006002820490506001821680614e1957607f821691505b602082108103614e2c57614e2b614dd2565b5b50919050565b7f457869742066656520746f6f2068696768000000000000000000000000000000600082015250565b6000614e6860118361436a565b9150614e7382614e32565b602082019050919050565b60006020820190508181036000830152614e9781614e5b565b9050919050565b7f4d616e6167656d656e742066656520746f6f2068696768000000000000000000600082015250565b6000614ed460178361436a565b9150614edf82614e9e565b602082019050919050565b60006020820190508181036000830152614f0381614ec7565b9050919050565b6000604082019050614f1f6000830185614266565b614f2c6020830184614266565b9392505050565b7f416c6c6f636174696f6e732063616e6e6f7420626520656d7074790000000000600082015250565b6000614f69601b8361436a565b9150614f7482614f33565b602082019050919050565b60006020820190508181036000830152614f9881614f5c565b9050919050565b600081519050614fae81614644565b92915050565b600060208284031215614fca57614fc961429a565b5b6000614fd884828501614f9f565b91505092915050565b7f5472616e73666572206661696c65640000000000000000000000000000000000600082015250565b6000615017600f8361436a565b915061502282614fe1565b602082019050919050565b600060208201905081810360008301526150468161500a565b9050919050565b6000615058826148d4565b9150615063836148d4565b9250828201905060ff81111561507c5761507b614ccd565b5b92915050565b61508b816148d4565b811461509657600080fd5b50565b6000815190506150a881615082565b92915050565b6000602082840312156150c4576150c361429a565b5b60006150d284828501615099565b91505092915050565b60006040820190506150f06000830185614508565b6150fd6020830184614266565b9392505050565b600081519050919050565b600081905092915050565b600061512582615104565b61512f818561510f565b935061513f81856020860161437b565b80840191505092915050565b6000615157828461511a565b915081905092915050565b7f4d696e7420525741206661696c65640000000000000000000000000000000000600082015250565b6000615198600f8361436a565b91506151a382615162565b602082019050919050565b600060208201905081810360008301526151c78161518b565b9050919050565b60006060820190506151e36000830186614508565b6151f06020830185614266565b6151fd6040830184614266565b949350505050565b60006152108261425c565b915061521b8361425c565b925082820390508181111561523357615232614ccd565b5b92915050565b600080604083850312156152505761524f61429a565b5b600061525e85828601614c8b565b925050602061526f85828601615099565b9150509250929050565b60008160011c9050919050565b6000808291508390505b60018511156152d0578086048111156152ac576152ab614ccd565b5b60018516156152bb5780820291505b80810290506152c985615279565b9450615290565b94509492505050565b6000826152e957600190506153a5565b816152f757600090506153a5565b816001811461530d576002811461531757615346565b60019150506153a5565b60ff84111561532957615328614ccd565b5b8360020a9150848211156153405761533f614ccd565b5b506153a5565b5060208310610133831016604e8410600b841016171561537b5782820a90508381111561537657615375614ccd565b5b6153a5565b6153888484846001615286565b9250905081840481111561539f5761539e614ccd565b5b81810290505b9392505050565b60006153b78261425c565b91506153c2836148d4565b92506153ef7fffffffffffffffffffffffffffffffffffffffffffffffffffffffffffffffff84846152d9565b905092915050565b600060608201905061540c6000830186614508565b6154196020830185614508565b6154266040830184614266565b949350505050565b6000615439826148d4565b9150615444836148d4565b9250828203905060ff81111561545d5761545c614ccd565b5b92915050565b60006060820190506154786000830186614266565b6154856020830185614266565b6154926040830184614266565b949350505050565b60006040820190506154af6000830185614508565b6154bc602083018461486a565b9392505050565b7f4e487b7100000000000000000000000000000000000000000000000000000000600052602160045260246000fd5b60006154fd826148d4565b9150615508836148d4565b92508261551857615517614d3e565b5b82820690509291505056fea2646970667358221220efe5a381e6a55911fcbe8ce503bb7d541f1224acc77adc90b4c65013eaa555c664736f6c634300081c0033",
  "linkReferences": {},
  "deployedLinkReferences": {}
}