{
  "_format": "hh-sol-artifact-1",
  "contractName": "Vault",
  "sourceName": "contracts/Vault.sol",
  "abi": [
    {
      "inputs": [
        {
          "internalType": "contract IERC20",
          "name": "asset_",
          "type": "address"
        },
        {
          "internalType": "string",
          "name": "label",
          "type": "string"
        },
        {
          "internalType": "address",
          "name": "treasury_",
          "type": "address"
        },
        {
          "internalType": "contract TokenRegistry",
          "name": "registry_",
          "type": "address"
        },
        {
          "internalType": "contract IPriceOracle",
          "name": "oracle_",
          "type": "address"
        }
      ],
      "stateMutability": "nonpayable",
      "type": "constructor"
    },
    {
      "inputs": [],
      "name": "AccessControlBadConfirmation",
      "type": "error"
    },
    {
      "inputs": [
        {
          "internalType": "address",
          "name": "account",
          "type": "address"
        },
        {
          "internalType": "bytes32",
          "name": "neededRole",
          "type": "bytes32"
        }
      ],
      "name": "AccessControlUnauthorizedAccount",
      "type": "error"
    },
    {
      "inputs": [
        {
          "internalType": "address",
          "name": "spender",
          "type": "address"
        },
        {
          "internalType": "uint256",
          "name": "allowance",
          "type": "uint256"
        },
        {
          "internalType": "uint256",
          "name": "needed",
          "type": "uint256"
        }
      ],
      "name": "ERC20InsufficientAllowance",
      "type": "error"
    },
    {
      "inputs": [
        {
          "internalType": "address",
          "name": "sender",
          "type": "address"
        },
        {
          "internalType": "uint256",
          "name": "balance",
          "type": "uint256"
        },
        {
          "internalType": "uint256",
          "name": "needed",
          "type": "uint256"
        }
      ],
      "name": "ERC20InsufficientBalance",
      "type": "error"
    },
    {
      "inputs": [
        {
          "internalType": "address",
          "name": "approver",
          "type": "address"
        }
      ],
      "name": "ERC20InvalidApprover",
      "type": "error"
    },
    {
      "inputs": [
        {
          "internalType": "address",
          "name": "receiver",
          "type": "address"
        }
      ],
      "name": "ERC20InvalidReceiver",
      "type": "error"
    },
    {
      "inputs": [
        {
          "internalType": "address",
          "name": "sender",
          "type": "address"
        }
      ],
      "name": "ERC20InvalidSender",
      "type": "error"
    },
    {
      "inputs": [
        {
          "internalType": "address",
          "name": "spender",
          "type": "address"
        }
      ],
      "name": "ERC20InvalidSpender",
      "type": "error"
    },
    {
      "inputs": [
        {
          "internalType": "address",
          "name": "receiver",
          "type": "address"
        },
        {
          "internalType": "uint256",
          "name": "assets",
          "type": "uint256"
        },
        {
          "internalType": "uint256",
          "name": "max",
          "type": "uint256"
        }
      ],
      "name": "ERC4626ExceededMaxDeposit",
      "type": "error"
    },
    {
      "inputs": [
        {
          "internalType": "address",
          "name": "receiver",
          "type": "address"
        },
        {
          "internalType": "uint256",
          "name": "shares",
          "type": "uint256"
        },
        {
          "internalType": "uint256",
          "name": "max",
          "type": "uint256"
        }
      ],
      "name": "ERC4626ExceededMaxMint",
      "type": "error"
    },
    {
      "inputs": [
        {
          "internalType": "address",
          "name": "owner",
          "type": "address"
        },
        {
          "internalType": "uint256",
          "name": "shares",
          "type": "uint256"
        },
        {
          "internalType": "uint256",
          "name": "max",
          "type": "uint256"
        }
      ],
      "name": "ERC4626ExceededMaxRedeem",
      "type": "error"
    },
    {
      "inputs": [
        {
          "internalType": "address",
          "name": "owner",
          "type": "address"
        },
        {
          "internalType": "uint256",
          "name": "assets",
          "type": "uint256"
        },
        {
          "internalType": "uint256",
          "name": "max",
          "type": "uint256"
        }
      ],
      "name": "ERC4626ExceededMaxWithdraw",
      "type": "error"
    },
    {
      "inputs": [],
      "name": "EnforcedPause",
      "type": "error"
    },
    {
      "inputs": [],
      "name": "EtherNotAccepted",
      "type": "error"
    },
    {
      "inputs": [],
      "name": "ExpectedPause",
      "type": "error"
    },
    {
      "inputs": [],
      "name": "InvalidAmount",
      "type": "error"
    },
    {
      "inputs": [],
      "name": "InvalidWeightSum",
      "type": "error"
    },
    {
      "inputs": [],
      "name": "ManagementFeeCooldownNotMet",
      "type": "error"
    },
    {
      "inputs": [],
      "name": "ManagementFeeNotConfigured",
      "type": "error"
    },
    {
      "inputs": [
        {
          "internalType": "uint256",
          "name": "min",
          "type": "uint256"
        }
      ],
      "name": "MinimumDepositNotMet",
      "type": "error"
    },
    {
      "inputs": [
        {
          "internalType": "uint256",
          "name": "min",
          "type": "uint256"
        }
      ],
      "name": "MinimumRedeemNotMet",
      "type": "error"
    },
    {
      "inputs": [
        {
          "internalType": "uint256",
          "name": "min",
          "type": "uint256"
        }
      ],
      "name": "MinimumWithdrawNotMet",
      "type": "error"
    },
    {
      "inputs": [],
      "name": "Pausable__Paused",
      "type": "error"
    },
    {
      "inputs": [],
      "name": "ReentrancyGuardReentrantCall",
      "type": "error"
    },
    {
      "inputs": [
        {
          "internalType": "address",
          "name": "token",
          "type": "address"
        }
      ],
      "name": "SafeERC20FailedOperation",
      "type": "error"
    },
    {
      "inputs": [],
      "name": "TokenNotRegistered",
      "type": "error"
    },
    {
      "inputs": [],
      "name": "VaultAlreadyBootstrapped",
      "type": "error"
    },
    {
      "inputs": [],
      "name": "ZeroAddress",
      "type": "error"
    },
    {
      "anonymous": false,
      "inputs": [
        {
          "indexed": true,
          "internalType": "address",
          "name": "token",
          "type": "address"
        },
        {
          "indexed": false,
          "internalType": "uint256",
          "name": "amount",
          "type": "uint256"
        }
      ],
      "name": "Allocated",
      "type": "event"
    },
    {
      "anonymous": false,
      "inputs": [
        {
          "indexed": true,
          "internalType": "address",
          "name": "admin",
          "type": "address"
        }
      ],
      "name": "AllocationsUpdated",
      "type": "event"
    },
    {
      "anonymous": false,
      "inputs": [
        {
          "indexed": true,
          "internalType": "address",
          "name": "owner",
          "type": "address"
        },
        {
          "indexed": true,
          "internalType": "address",
          "name": "spender",
          "type": "address"
        },
        {
          "indexed": false,
          "internalType": "uint256",
          "name": "value",
          "type": "uint256"
        }
      ],
      "name": "Approval",
      "type": "event"
    },
    {
      "anonymous": false,
      "inputs": [
        {
          "indexed": true,
          "internalType": "address",
          "name": "sender",
          "type": "address"
        },
        {
          "indexed": true,
          "internalType": "address",
          "name": "owner",
          "type": "address"
        },
        {
          "indexed": false,
          "internalType": "uint256",
          "name": "assets",
          "type": "uint256"
        },
        {
          "indexed": false,
          "internalType": "uint256",
          "name": "shares",
          "type": "uint256"
        }
      ],
      "name": "Deposit",
      "type": "event"
    },
    {
      "anonymous": false,
      "inputs": [
        {
          "indexed": true,
          "internalType": "address",
          "name": "user",
          "type": "address"
        },
        {
          "indexed": false,
          "internalType": "uint256",
          "name": "amount",
          "type": "uint256"
        }
      ],
      "name": "Deposited",
      "type": "event"
    },
    {
      "anonymous": false,
      "inputs": [
        {
          "indexed": true,
          "internalType": "address",
          "name": "user",
          "type": "address"
        },
        {
          "indexed": false,
          "internalType": "uint256",
          "name": "assets",
          "type": "uint256"
        },
        {
          "indexed": false,
          "internalType": "uint256",
          "name": "fee",
          "type": "uint256"
        }
      ],
      "name": "ExitFeeApplied",
      "type": "event"
    },
    {
      "anonymous": false,
      "inputs": [
        {
          "indexed": false,
          "internalType": "uint256",
          "name": "exitFeeBps",
          "type": "uint256"
        },
        {
          "indexed": false,
          "internalType": "uint256",
          "name": "managementFeeBps",
          "type": "uint256"
        }
      ],
      "name": "FeesUpdated",
      "type": "event"
    },
    {
      "anonymous": false,
      "inputs": [
        {
          "indexed": true,
          "internalType": "address",
          "name": "receiver",
          "type": "address"
        },
        {
          "indexed": false,
          "internalType": "uint256",
          "name": "shares",
          "type": "uint256"
        }
      ],
      "name": "ManagementFeeAccrued",
      "type": "event"
    },
    {
      "anonymous": false,
      "inputs": [
        {
          "indexed": false,
          "internalType": "uint256",
          "name": "timestamp",
          "type": "uint256"
        },
        {
          "indexed": false,
          "internalType": "uint256",
          "name": "shares",
          "type": "uint256"
        },
        {
          "indexed": false,
          "internalType": "uint256",
          "name": "totalSupply",
          "type": "uint256"
        }
      ],
      "name": "ManagementFeeScheduled",
      "type": "event"
    },
    {
      "anonymous": false,
      "inputs": [
        {
          "indexed": false,
          "internalType": "address",
          "name": "account",
          "type": "address"
        }
      ],
      "name": "Paused",
      "type": "event"
    },
    {
      "anonymous": false,
      "inputs": [
        {
          "indexed": true,
          "internalType": "bytes32",
          "name": "role",
          "type": "bytes32"
        },
        {
          "indexed": true,
          "internalType": "bytes32",
          "name": "previousAdminRole",
          "type": "bytes32"
        },
        {
          "indexed": true,
          "internalType": "bytes32",
          "name": "newAdminRole",
          "type": "bytes32"
        }
      ],
      "name": "RoleAdminChanged",
      "type": "event"
    },
    {
      "anonymous": false,
      "inputs": [
        {
          "indexed": true,
          "internalType": "bytes32",
          "name": "role",
          "type": "bytes32"
        },
        {
          "indexed": true,
          "internalType": "address",
          "name": "account",
          "type": "address"
        },
        {
          "indexed": true,
          "internalType": "address",
          "name": "sender",
          "type": "address"
        }
      ],
      "name": "RoleGranted",
      "type": "event"
    },
    {
      "anonymous": false,
      "inputs": [
        {
          "indexed": true,
          "internalType": "bytes32",
          "name": "role",
          "type": "bytes32"
        },
        {
          "indexed": true,
          "internalType": "address",
          "name": "account",
          "type": "address"
        },
        {
          "indexed": true,
          "internalType": "address",
          "name": "sender",
          "type": "address"
        }
      ],
      "name": "RoleRevoked",
      "type": "event"
    },
    {
      "anonymous": false,
      "inputs": [
        {
          "indexed": true,
          "internalType": "address",
          "name": "from",
          "type": "address"
        },
        {
          "indexed": true,
          "internalType": "address",
          "name": "to",
          "type": "address"
        },
        {
          "indexed": false,
          "internalType": "uint256",
          "name": "value",
          "type": "uint256"
        }
      ],
      "name": "Transfer",
      "type": "event"
    },
    {
      "anonymous": false,
      "inputs": [
        {
          "indexed": true,
          "internalType": "address",
          "name": "to",
          "type": "address"
        },
        {
          "indexed": false,
          "internalType": "uint256",
          "name": "amount",
          "type": "uint256"
        }
      ],
      "name": "TreasuryWithdrawn",
      "type": "event"
    },
    {
      "anonymous": false,
      "inputs": [
        {
          "indexed": false,
          "internalType": "address",
          "name": "account",
          "type": "address"
        }
      ],
      "name": "Unpaused",
      "type": "event"
    },
    {
      "anonymous": false,
      "inputs": [
        {
          "indexed": false,
          "internalType": "uint256",
          "name": "assets",
          "type": "uint256"
        },
        {
          "indexed": false,
          "internalType": "uint256",
          "name": "shares",
          "type": "uint256"
        }
      ],
      "name": "VaultBootstrapped",
      "type": "event"
    },
    {
      "anonymous": false,
      "inputs": [
        {
          "indexed": true,
          "internalType": "address",
          "name": "sender",
          "type": "address"
        },
        {
          "indexed": true,
          "internalType": "address",
          "name": "receiver",
          "type": "address"
        },
        {
          "indexed": true,
          "internalType": "address",
          "name": "owner",
          "type": "address"
        },
        {
          "indexed": false,
          "internalType": "uint256",
          "name": "assets",
          "type": "uint256"
        },
        {
          "indexed": false,
          "internalType": "uint256",
          "name": "shares",
          "type": "uint256"
        }
      ],
      "name": "Withdraw",
      "type": "event"
    },
    {
      "anonymous": false,
      "inputs": [
        {
          "indexed": true,
          "internalType": "address",
          "name": "user",
          "type": "address"
        },
        {
          "indexed": true,
          "internalType": "address",
          "name": "receiver",
          "type": "address"
        },
        {
          "indexed": false,
          "internalType": "uint256",
          "name": "assets",
          "type": "uint256"
        }
      ],
      "name": "WithdrawExecuted",
      "type": "event"
    },
    {
      "stateMutability": "payable",
      "type": "fallback"
    },
    {
      "inputs": [],
      "name": "ADMIN_ROLE",
      "outputs": [
        {
          "internalType": "bytes32",
          "name": "",
          "type": "bytes32"
        }
      ],
      "stateMutability": "view",
      "type": "function"
    },
    {
      "inputs": [],
      "name": "DEFAULT_ADMIN_ROLE",
      "outputs": [
        {
          "internalType": "bytes32",
          "name": "",
          "type": "bytes32"
        }
      ],
      "stateMutability": "view",
      "type": "function"
    },
    {
      "inputs": [],
      "name": "MANAGEMENT_FEE_COOLDOWN",
      "outputs": [
        {
          "internalType": "uint256",
          "name": "",
          "type": "uint256"
        }
      ],
      "stateMutability": "view",
      "type": "function"
    },
    {
      "inputs": [],
      "name": "MAX_FEE_BPS",
      "outputs": [
        {
          "internalType": "uint256",
          "name": "",
          "type": "uint256"
        }
      ],
      "stateMutability": "view",
      "type": "function"
    },
    {
      "inputs": [],
      "name": "MINIMUM_AMOUNT",
      "outputs": [
        {
          "internalType": "uint256",
          "name": "",
          "type": "uint256"
        }
      ],
      "stateMutability": "view",
      "type": "function"
    },
    {
      "inputs": [
        {
          "internalType": "uint256",
          "name": "shares",
          "type": "uint256"
        }
      ],
      "name": "accrueManagementFee",
      "outputs": [],
      "stateMutability": "nonpayable",
      "type": "function"
    },
    {
      "inputs": [
        {
          "internalType": "uint256",
          "name": "",
          "type": "uint256"
        }
      ],
      "name": "allocations",
      "outputs": [
        {
          "internalType": "address",
          "name": "token",
          "type": "address"
        },
        {
          "internalType": "uint256",
          "name": "weight",
          "type": "uint256"
        },
        {
          "internalType": "bool",
          "name": "active",
          "type": "bool"
        }
      ],
      "stateMutability": "view",
      "type": "function"
    },
    {
      "inputs": [
        {
          "internalType": "address",
          "name": "owner",
          "type": "address"
        },
        {
          "internalType": "address",
          "name": "spender",
          "type": "address"
        }
      ],
      "name": "allowance",
      "outputs": [
        {
          "internalType": "uint256",
          "name": "",
          "type": "uint256"
        }
      ],
      "stateMutability": "view",
      "type": "function"
    },
    {
      "inputs": [
        {
          "internalType": "address",
          "name": "spender",
          "type": "address"
        },
        {
          "internalType": "uint256",
          "name": "value",
          "type": "uint256"
        }
      ],
      "name": "approve",
      "outputs": [
        {
          "internalType": "bool",
          "name": "",
          "type": "bool"
        }
      ],
      "stateMutability": "nonpayable",
      "type": "function"
    },
    {
      "inputs": [],
      "name": "asset",
      "outputs": [
        {
          "internalType": "address",
          "name": "",
          "type": "address"
        }
      ],
      "stateMutability": "view",
      "type": "function"
    },
    {
      "inputs": [
        {
          "internalType": "address",
          "name": "account",
          "type": "address"
        }
      ],
      "name": "balanceOf",
      "outputs": [
        {
          "internalType": "uint256",
          "name": "",
          "type": "uint256"
        }
      ],
      "stateMutability": "view",
      "type": "function"
    },
    {
      "inputs": [],
      "name": "bootstrapVault",
      "outputs": [],
      "stateMutability": "nonpayable",
      "type": "function"
    },
    {
      "inputs": [],
      "name": "calculateManagementFee",
      "outputs": [
        {
          "internalType": "uint256",
          "name": "",
          "type": "uint256"
        }
      ],
      "stateMutability": "view",
      "type": "function"
    },
    {
      "inputs": [
        {
          "internalType": "uint256",
          "name": "shares",
          "type": "uint256"
        }
      ],
      "name": "convertToAssets",
      "outputs": [
        {
          "internalType": "uint256",
          "name": "",
          "type": "uint256"
        }
      ],
      "stateMutability": "view",
      "type": "function"
    },
    {
      "inputs": [
        {
          "internalType": "uint256",
          "name": "assets",
          "type": "uint256"
        }
      ],
      "name": "convertToShares",
      "outputs": [
        {
          "internalType": "uint256",
          "name": "",
          "type": "uint256"
        }
      ],
      "stateMutability": "view",
      "type": "function"
    },
    {
      "inputs": [],
      "name": "decimals",
      "outputs": [
        {
          "internalType": "uint8",
          "name": "",
          "type": "uint8"
        }
      ],
      "stateMutability": "view",
      "type": "function"
    },
    {
      "inputs": [
        {
          "internalType": "uint256",
          "name": "assets",
          "type": "uint256"
        },
        {
          "internalType": "address",
          "name": "receiver",
          "type": "address"
        }
      ],
      "name": "deposit",
      "outputs": [
        {
          "internalType": "uint256",
          "name": "",
          "type": "uint256"
        }
      ],
      "stateMutability": "nonpayable",
      "type": "function"
    },
    {
      "inputs": [],
      "name": "exitFeeBps",
      "outputs": [
        {
          "internalType": "uint256",
          "name": "",
          "type": "uint256"
        }
      ],
      "stateMutability": "view",
      "type": "function"
    },
    {
      "inputs": [],
      "name": "feeReceiver",
      "outputs": [
        {
          "internalType": "address",
          "name": "",
          "type": "address"
        }
      ],
      "stateMutability": "view",
      "type": "function"
    },
    {
      "inputs": [],
      "name": "getAllocations",
      "outputs": [
        {
          "components": [
            {
              "internalType": "address",
              "name": "token",
              "type": "address"
            },
            {
              "internalType": "uint256",
              "name": "weight",
              "type": "uint256"
            },
            {
              "internalType": "bool",
              "name": "active",
              "type": "bool"
            }
          ],
          "internalType": "struct Vault.AssetAllocation[]",
          "name": "",
          "type": "tuple[]"
        }
      ],
      "stateMutability": "view",
      "type": "function"
    },
    {
      "inputs": [
        {
          "internalType": "bytes32",
          "name": "role",
          "type": "bytes32"
        }
      ],
      "name": "getRoleAdmin",
      "outputs": [
        {
          "internalType": "bytes32",
          "name": "",
          "type": "bytes32"
        }
      ],
      "stateMutability": "view",
      "type": "function"
    },
    {
      "inputs": [
        {
          "internalType": "bytes32",
          "name": "role",
          "type": "bytes32"
        },
        {
          "internalType": "address",
          "name": "account",
          "type": "address"
        }
      ],
      "name": "grantRole",
      "outputs": [],
      "stateMutability": "nonpayable",
      "type": "function"
    },
    {
      "inputs": [
        {
          "internalType": "bytes32",
          "name": "role",
          "type": "bytes32"
        },
        {
          "internalType": "address",
          "name": "account",
          "type": "address"
        }
      ],
      "name": "hasRole",
      "outputs": [
        {
          "internalType": "bool",
          "name": "",
          "type": "bool"
        }
      ],
      "stateMutability": "view",
      "type": "function"
    },
    {
      "inputs": [
        {
          "internalType": "address",
          "name": "",
          "type": "address"
        }
      ],
      "name": "isWhitelisted",
      "outputs": [
        {
          "internalType": "bool",
          "name": "",
          "type": "bool"
        }
      ],
      "stateMutability": "view",
      "type": "function"
    },
    {
      "inputs": [],
      "name": "lastManagementFeeTimestamp",
      "outputs": [
        {
          "internalType": "uint256",
          "name": "",
          "type": "uint256"
        }
      ],
      "stateMutability": "view",
      "type": "function"
    },
    {
      "inputs": [],
      "name": "managementFeeBps",
      "outputs": [
        {
          "internalType": "uint256",
          "name": "",
          "type": "uint256"
        }
      ],
      "stateMutability": "view",
      "type": "function"
    },
    {
      "inputs": [
        {
          "internalType": "address",
          "name": "",
          "type": "address"
        }
      ],
      "name": "maxDeposit",
      "outputs": [
        {
          "internalType": "uint256",
          "name": "",
          "type": "uint256"
        }
      ],
      "stateMutability": "view",
      "type": "function"
    },
    {
      "inputs": [
        {
          "internalType": "address",
          "name": "",
          "type": "address"
        }
      ],
      "name": "maxMint",
      "outputs": [
        {
          "internalType": "uint256",
          "name": "",
          "type": "uint256"
        }
      ],
      "stateMutability": "view",
      "type": "function"
    },
    {
      "inputs": [
        {
          "internalType": "address",
          "name": "owner",
          "type": "address"
        }
      ],
      "name": "maxRedeem",
      "outputs": [
        {
          "internalType": "uint256",
          "name": "",
          "type": "uint256"
        }
      ],
      "stateMutability": "view",
      "type": "function"
    },
    {
      "inputs": [
        {
          "internalType": "address",
          "name": "owner",
          "type": "address"
        }
      ],
      "name": "maxWithdraw",
      "outputs": [
        {
          "internalType": "uint256",
          "name": "",
          "type": "uint256"
        }
      ],
      "stateMutability": "view",
      "type": "function"
    },
    {
      "inputs": [
        {
          "internalType": "uint256",
          "name": "shares",
          "type": "uint256"
        },
        {
          "internalType": "address",
          "name": "receiver",
          "type": "address"
        }
      ],
      "name": "mint",
      "outputs": [
        {
          "internalType": "uint256",
          "name": "",
          "type": "uint256"
        }
      ],
      "stateMutability": "nonpayable",
      "type": "function"
    },
    {
      "inputs": [],
      "name": "name",
      "outputs": [
        {
          "internalType": "string",
          "name": "",
          "type": "string"
        }
      ],
      "stateMutability": "view",
      "type": "function"
    },
    {
      "inputs": [],
      "name": "oracle",
      "outputs": [
        {
          "internalType": "contract IPriceOracle",
          "name": "",
          "type": "address"
        }
      ],
      "stateMutability": "view",
      "type": "function"
    },
    {
      "inputs": [],
      "name": "pause",
      "outputs": [],
      "stateMutability": "nonpayable",
      "type": "function"
    },
    {
      "inputs": [],
      "name": "paused",
      "outputs": [
        {
          "internalType": "bool",
          "name": "",
          "type": "bool"
        }
      ],
      "stateMutability": "view",
      "type": "function"
    },
    {
      "inputs": [
        {
          "internalType": "uint256",
          "name": "assets",
          "type": "uint256"
        }
      ],
      "name": "previewDeposit",
      "outputs": [
        {
          "internalType": "uint256",
          "name": "",
          "type": "uint256"
        }
      ],
      "stateMutability": "view",
      "type": "function"
    },
    {
      "inputs": [
        {
          "internalType": "uint256",
          "name": "shares",
          "type": "uint256"
        }
      ],
      "name": "previewMint",
      "outputs": [
        {
          "internalType": "uint256",
          "name": "",
          "type": "uint256"
        }
      ],
      "stateMutability": "view",
      "type": "function"
    },
    {
      "inputs": [
        {
          "internalType": "uint256",
          "name": "shares",
          "type": "uint256"
        }
      ],
      "name": "previewRedeem",
      "outputs": [
        {
          "internalType": "uint256",
          "name": "",
          "type": "uint256"
        }
      ],
      "stateMutability": "view",
      "type": "function"
    },
    {
      "inputs": [
        {
          "internalType": "uint256",
          "name": "assets",
          "type": "uint256"
        }
      ],
      "name": "previewWithdraw",
      "outputs": [
        {
          "internalType": "uint256",
          "name": "",
          "type": "uint256"
        }
      ],
      "stateMutability": "view",
      "type": "function"
    },
    {
      "inputs": [
        {
          "internalType": "uint256",
          "name": "shares",
          "type": "uint256"
        },
        {
          "internalType": "address",
          "name": "receiver",
          "type": "address"
        },
        {
          "internalType": "address",
          "name": "owner",
          "type": "address"
        }
      ],
      "name": "redeem",
      "outputs": [
        {
          "internalType": "uint256",
          "name": "",
          "type": "uint256"
        }
      ],
      "stateMutability": "nonpayable",
      "type": "function"
    },
    {
      "inputs": [],
      "name": "registry",
      "outputs": [
        {
          "internalType": "contract TokenRegistry",
          "name": "",
          "type": "address"
        }
      ],
      "stateMutability": "view",
      "type": "function"
    },
    {
      "inputs": [
        {
          "internalType": "bytes32",
          "name": "role",
          "type": "bytes32"
        },
        {
          "internalType": "address",
          "name": "callerConfirmation",
          "type": "address"
        }
      ],
      "name": "renounceRole",
      "outputs": [],
      "stateMutability": "nonpayable",
      "type": "function"
    },
    {
      "inputs": [
        {
          "internalType": "bytes32",
          "name": "role",
          "type": "bytes32"
        },
        {
          "internalType": "address",
          "name": "account",
          "type": "address"
        }
      ],
      "name": "revokeRole",
      "outputs": [],
      "stateMutability": "nonpayable",
      "type": "function"
    },
    {
      "inputs": [],
      "name": "scheduleManagementFee",
      "outputs": [],
      "stateMutability": "nonpayable",
      "type": "function"
    },
    {
      "inputs": [
        {
          "internalType": "address",
          "name": "_addr",
          "type": "address"
        },
        {
          "internalType": "bool",
          "name": "_status",
          "type": "bool"
        }
      ],
      "name": "setAdmin",
      "outputs": [],
      "stateMutability": "nonpayable",
      "type": "function"
    },
    {
      "inputs": [
        {
          "components": [
            {
              "internalType": "address",
              "name": "token",
              "type": "address"
            },
            {
              "internalType": "uint256",
              "name": "weight",
              "type": "uint256"
            },
            {
              "internalType": "bool",
              "name": "active",
              "type": "bool"
            }
          ],
          "internalType": "struct Vault.AssetAllocation[]",
          "name": "newAllocations",
          "type": "tuple[]"
        }
      ],
      "name": "setAllocations",
      "outputs": [],
      "stateMutability": "nonpayable",
      "type": "function"
    },
    {
      "inputs": [
        {
          "internalType": "address",
          "name": "newReceiver",
          "type": "address"
        }
      ],
      "name": "setFeeReceiver",
      "outputs": [],
      "stateMutability": "nonpayable",
      "type": "function"
    },
    {
      "inputs": [
        {
          "internalType": "uint256",
          "name": "_exitFeeBps",
          "type": "uint256"
        },
        {
          "internalType": "uint256",
          "name": "_managementFeeBps",
          "type": "uint256"
        }
      ],
      "name": "setFees",
      "outputs": [],
      "stateMutability": "nonpayable",
      "type": "function"
    },
    {
      "inputs": [
        {
          "internalType": "address",
          "name": "_addr",
          "type": "address"
        },
        {
          "internalType": "bool",
          "name": "_status",
          "type": "bool"
        }
      ],
      "name": "setWhitelisted",
      "outputs": [],
      "stateMutability": "nonpayable",
      "type": "function"
    },
    {
      "inputs": [],
      "name": "strategyLabel",
      "outputs": [
        {
          "internalType": "string",
          "name": "",
          "type": "string"
        }
      ],
      "stateMutability": "view",
      "type": "function"
    },
    {
      "inputs": [
        {
          "internalType": "bytes4",
          "name": "interfaceId",
          "type": "bytes4"
        }
      ],
      "name": "supportsInterface",
      "outputs": [
        {
          "internalType": "bool",
          "name": "",
          "type": "bool"
        }
      ],
      "stateMutability": "view",
      "type": "function"
    },
    {
      "inputs": [],
      "name": "symbol",
      "outputs": [
        {
          "internalType": "string",
          "name": "",
          "type": "string"
        }
      ],
      "stateMutability": "view",
      "type": "function"
    },
    {
      "inputs": [],
      "name": "totalAssets",
      "outputs": [
        {
          "internalType": "uint256",
          "name": "",
          "type": "uint256"
        }
      ],
      "stateMutability": "view",
      "type": "function"
    },
    {
      "inputs": [],
      "name": "totalSupply",
      "outputs": [
        {
          "internalType": "uint256",
          "name": "",
          "type": "uint256"
        }
      ],
      "stateMutability": "view",
      "type": "function"
    },
    {
      "inputs": [
        {
          "internalType": "address",
          "name": "to",
          "type": "address"
        },
        {
          "internalType": "uint256",
          "name": "value",
          "type": "uint256"
        }
      ],
      "name": "transfer",
      "outputs": [
        {
          "internalType": "bool",
          "name": "",
          "type": "bool"
        }
      ],
      "stateMutability": "nonpayable",
      "type": "function"
    },
    {
      "inputs": [
        {
          "internalType": "address",
          "name": "from",
          "type": "address"
        },
        {
          "internalType": "address",
          "name": "to",
          "type": "address"
        },
        {
          "internalType": "uint256",
          "name": "value",
          "type": "uint256"
        }
      ],
      "name": "transferFrom",
      "outputs": [
        {
          "internalType": "bool",
          "name": "",
          "type": "bool"
        }
      ],
      "stateMutability": "nonpayable",
      "type": "function"
    },
    {
      "inputs": [],
      "name": "treasury",
      "outputs": [
        {
          "internalType": "address",
          "name": "",
          "type": "address"
        }
      ],
      "stateMutability": "view",
      "type": "function"
    },
    {
      "inputs": [],
      "name": "treasuryBalance",
      "outputs": [
        {
          "internalType": "uint256",
          "name": "",
          "type": "uint256"
        }
      ],
      "stateMutability": "view",
      "type": "function"
    },
    {
      "inputs": [],
      "name": "unpause",
      "outputs": [],
      "stateMutability": "nonpayable",
      "type": "function"
    },
    {
      "inputs": [
        {
          "internalType": "uint256",
          "name": "assets",
          "type": "uint256"
        },
        {
          "internalType": "address",
          "name": "receiver",
          "type": "address"
        },
        {
          "internalType": "address",
          "name": "owner",
          "type": "address"
        }
      ],
      "name": "withdraw",
      "outputs": [
        {
          "internalType": "uint256",
          "name": "",
          "type": "uint256"
        }
      ],
      "stateMutability": "nonpayable",
      "type": "function"
    },
    {
      "inputs": [
        {
          "internalType": "address",
          "name": "to",
          "type": "address"
        },
        {
          "internalType": "uint256",
          "name": "amount",
          "type": "uint256"
        }
      ],
      "name": "withdrawTreasury",
      "outputs": [],
      "stateMutability": "nonpayable",
      "type": "function"
    },
    {
      "stateMutability": "payable",
      "type": "receive"
    }
  ],
  "bytecode": "0x61012060405234801561001157600080fd5b50604051616ba2380380616ba28339818101604052810190610033919061086e565b846040518060400160405280601381526020017f4b696e6f736869205661756c74205368617265000000000000000000000000008152506040518060400160405280600681526020017f4b4e53485653000000000000000000000000000000000000000000000000000081525081600390816100af9190610b26565b5080600490816100bf9190610b26565b5050506000806100d48361036060201b60201c565b91509150816100e45760126100e6565b805b60ff1660a08160ff16815250508273ffffffffffffffffffffffffffffffffffffffff1660808173ffffffffffffffffffffffffffffffffffffffff16815250505050506001600781905550600073ffffffffffffffffffffffffffffffffffffffff168373ffffffffffffffffffffffffffffffffffffffff1603610198576040517fd92e233d00000000000000000000000000000000000000000000000000000000815260040160405180910390fd5b600073ffffffffffffffffffffffffffffffffffffffff168273ffffffffffffffffffffffffffffffffffffffff16036101fe576040517fd92e233d00000000000000000000000000000000000000000000000000000000815260040160405180910390fd5b600073ffffffffffffffffffffffffffffffffffffffff168173ffffffffffffffffffffffffffffffffffffffff1603610264576040517fd92e233d00000000000000000000000000000000000000000000000000000000815260040160405180910390fd5b83600990816102739190610b26565b508273ffffffffffffffffffffffffffffffffffffffff1660c08173ffffffffffffffffffffffffffffffffffffffff16815250508173ffffffffffffffffffffffffffffffffffffffff1660e08173ffffffffffffffffffffffffffffffffffffffff16815250508073ffffffffffffffffffffffffffffffffffffffff166101008173ffffffffffffffffffffffffffffffffffffffff16815250506103246000801b3361047060201b60201c565b506103557fa49807205ce4d355092ef5a8a18f56e8913cf4a201fbe287825b095693c217753361047060201b60201c565b505050505050610caf565b6000806000808473ffffffffffffffffffffffffffffffffffffffff1660405160240160405160208183030381529060405263313ce56760e01b6020820180517bffffffffffffffffffffffffffffffffffffffffffffffffffffffff83818316178352505050506040516103d59190610c3f565b600060405180830381855afa9150503d8060008114610410576040519150601f19603f3d011682016040523d82523d6000602084013e610415565b606091505b509150915081801561042957506020815110155b15610461576000818060200190518101906104449190610c82565b905060ff8016811161045f576001819450945050505061046b565b505b6000809350935050505b915091565b6000610482838361056e60201b60201c565b6105635760016005600085815260200190815260200160002060000160008473ffffffffffffffffffffffffffffffffffffffff1673ffffffffffffffffffffffffffffffffffffffff16815260200190815260200160002060006101000a81548160ff0219169083151502179055506105006105d960201b60201c565b73ffffffffffffffffffffffffffffffffffffffff168273ffffffffffffffffffffffffffffffffffffffff16847f2f8788117e7eff1d82e926ec794901d17c78024a50270940304540a733656f0d60405160405180910390a460019050610568565b600090505b92915050565b60006005600084815260200190815260200160002060000160008373ffffffffffffffffffffffffffffffffffffffff1673ffffffffffffffffffffffffffffffffffffffff16815260200190815260200160002060009054906101000a900460ff16905092915050565b600033905090565b6000604051905090565b600080fd5b600080fd5b600073ffffffffffffffffffffffffffffffffffffffff82169050919050565b6000610620826105f5565b9050919050565b600061063282610615565b9050919050565b61064281610627565b811461064d57600080fd5b50565b60008151905061065f81610639565b92915050565b600080fd5b600080fd5b6000601f19601f8301169050919050565b7f4e487b7100000000000000000000000000000000000000000000000000000000600052604160045260246000fd5b6106b88261066f565b810181811067ffffffffffffffff821117156106d7576106d6610680565b5b80604052505050565b60006106ea6105e1565b90506106f682826106af565b919050565b600067ffffffffffffffff82111561071657610715610680565b5b61071f8261066f565b9050602081019050919050565b60005b8381101561074a57808201518184015260208101905061072f565b60008484015250505050565b6000610769610764846106fb565b6106e0565b9050828152602081018484840111156107855761078461066a565b5b61079084828561072c565b509392505050565b600082601f8301126107ad576107ac610665565b5b81516107bd848260208601610756565b91505092915050565b6107cf81610615565b81146107da57600080fd5b50565b6000815190506107ec816107c6565b92915050565b60006107fd82610615565b9050919050565b61080d816107f2565b811461081857600080fd5b50565b60008151905061082a81610804565b92915050565b600061083b82610615565b9050919050565b61084b81610830565b811461085657600080fd5b50565b60008151905061086881610842565b92915050565b600080600080600060a0868803121561088a576108896105eb565b5b600061089888828901610650565b955050602086015167ffffffffffffffff8111156108b9576108b86105f0565b5b6108c588828901610798565b94505060406108d6888289016107dd565b93505060606108e78882890161081b565b92505060806108f888828901610859565b9150509295509295909350565b600081519050919050565b7f4e487b7100000000000000000000000000000000000000000000000000000000600052602260045260246000fd5b6000600282049050600182168061095757607f821691505b60208210810361096a57610969610910565b5b50919050565b60008190508160005260206000209050919050565b60006020601f8301049050919050565b600082821b905092915050565b6000600883026109d27fffffffffffffffffffffffffffffffffffffffffffffffffffffffffffffffff82610995565b6109dc8683610995565b95508019841693508086168417925050509392505050565b6000819050919050565b6000819050919050565b6000610a23610a1e610a19846109f4565b6109fe565b6109f4565b9050919050565b6000819050919050565b610a3d83610a08565b610a51610a4982610a2a565b8484546109a2565b825550505050565b600090565b610a66610a59565b610a71818484610a34565b505050565b5b81811015610a9557610a8a600082610a5e565b600181019050610a77565b5050565b601f821115610ada57610aab81610970565b610ab484610985565b81016020851015610ac3578190505b610ad7610acf85610985565b830182610a76565b50505b505050565b600082821c905092915050565b6000610afd60001984600802610adf565b1980831691505092915050565b6000610b168383610aec565b9150826002028217905092915050565b610b2f82610905565b67ffffffffffffffff811115610b4857610b47610680565b5b610b52825461093f565b610b5d828285610a99565b600060209050601f831160018114610b905760008415610b7e578287015190505b610b888582610b0a565b865550610bf0565b601f198416610b9e86610970565b60005b82811015610bc657848901518255600182019150602085019450602081019050610ba1565b86831015610be35784890151610bdf601f891682610aec565b8355505b6001600288020188555050505b505050505050565b600081519050919050565b600081905092915050565b6000610c1982610bf8565b610c238185610c03565b9350610c3381856020860161072c565b80840191505092915050565b6000610c4b8284610c0e565b915081905092915050565b610c5f816109f4565b8114610c6a57600080fd5b50565b600081519050610c7c81610c56565b92915050565b600060208284031215610c9857610c976105eb565b5b6000610ca684828501610c6d565b91505092915050565b60805160a05160c05160e05161010051615e77610d2b600039600081816128f601526134cf0152600081816113c601528181611b4a0152818161259301526128d2015260008181611db801528181611ede01528181611f3e01528181612218015261309001526000611fdd015260006120960152615e776000f3fe6080604052600436106103a65760003560e01c806365ed6e23116101e7578063b3d7f6b91161010d578063d55be8c6116100a0578063eca740901161006f578063eca7409014610ee0578063ef8b30f714610f0b578063efdcd97414610f48578063fc97bccc14610f71576103dd565b8063d55be8c614610e12578063d905777e14610e3d578063dd62ed3e14610e7a578063ddc563ca14610eb7576103dd565b8063c63d75b6116100dc578063c63d75b614610d32578063c6e6f59214610d6f578063ce96cb7714610dac578063d547741f14610de9576103dd565b8063b3d7f6b914610c50578063b3f0067414610c8d578063b460af9414610cb8578063ba08765214610cf5576103dd565b806391d14854116101855780639733fa80116101545780639733fa8014610ba65780639f75494114610bd1578063a217fddf14610be8578063a9059cbb14610c13576103dd565b806391d1485414610ad85780639281aa0b14610b1557806394bf804d14610b3e57806395d89b4114610b7b576103dd565b806375b238fc116101c157806375b238fc14610a405780637b10399914610a6b5780637dc0d1d014610a965780638456cb5914610ac1576103dd565b806365ed6e231461099b5780636e553f65146109c657806370a0823114610a03576103dd565b80632f2ff15d116102cc5780633f4ba83a1161026a57806357b17a521161023957806357b17a52146108ef578063592b79fe1461091a5780635c975abb1461094557806361d027b314610970576103dd565b80633f4ba83a14610835578063402d267d1461084c5780634b0bddd2146108895780634cdad506146108b2576103dd565b806336568abe116102a657806336568abe146107795780633813c35a146107a257806338d52e0f146107cd5780633af32abf146107f8576103dd565b80632f2ff15d146106fa578063313ce56714610723578063313dab201461074e576103dd565b80630b78f9c01161034457806323b872dd1161031357806323b872dd1461063e578063248a9ca31461067b578063257d9bb8146106b857806328f72834146106e3576103dd565b80630b78f9c0146105985780630d86419a146105c157806313466679146105ea57806318160ddd14610613576103dd565b806307a2d13a1161038057806307a2d13a146104a2578063095ea7b3146104df5780630a2642bf1461051c5780630a28a4771461055b576103dd565b806301e1d1141461040f57806301ffc9a71461043a57806306fdde0314610477576103dd565b366103dd576040517f3733483400000000000000000000000000000000000000000000000000000000815260040160405180910390fd5b6040517f3733483400000000000000000000000000000000000000000000000000000000815260040160405180910390fd5b34801561041b57600080fd5b50610424610f9c565b6040516104319190614abb565b60405180910390f35b34801561044657600080fd5b50610461600480360381019061045c9190614b42565b6114cc565b60405161046e9190614b8a565b60405180910390f35b34801561048357600080fd5b5061048c611546565b6040516104999190614c35565b60405180910390f35b3480156104ae57600080fd5b506104c960048036038101906104c49190614c83565b6115d8565b6040516104d69190614abb565b60405180910390f35b3480156104eb57600080fd5b5061050660048036038101906105019190614d0e565b6115ec565b6040516105139190614b8a565b60405180910390f35b34801561052857600080fd5b50610543600480360381019061053e9190614c83565b61160f565b60405161055293929190614d5d565b60405180910390f35b34801561056757600080fd5b50610582600480360381019061057d9190614c83565b611676565b60405161058f9190614abb565b60405180910390f35b3480156105a457600080fd5b506105bf60048036038101906105ba9190614d94565b61168a565b005b3480156105cd57600080fd5b506105e860048036038101906105e39190614d0e565b61178a565b005b3480156105f657600080fd5b50610611600480360381019061060c9190614fb1565b61195a565b005b34801561061f57600080fd5b50610628611cfa565b6040516106359190614abb565b60405180910390f35b34801561064a57600080fd5b5061066560048036038101906106609190614ffa565b611d04565b6040516106729190614b8a565b60405180910390f35b34801561068757600080fd5b506106a2600480360381019061069d9190615083565b611d33565b6040516106af91906150bf565b60405180910390f35b3480156106c457600080fd5b506106cd611d53565b6040516106da9190614abb565b60405180910390f35b3480156106ef57600080fd5b506106f8611d5b565b005b34801561070657600080fd5b50610721600480360381019061071c91906150da565b611faf565b005b34801561072f57600080fd5b50610738611fd1565b6040516107459190615136565b60405180910390f35b34801561075a57600080fd5b5061076361200b565b6040516107709190614abb565b60405180910390f35b34801561078557600080fd5b506107a0600480360381019061079b91906150da565b612011565b005b3480156107ae57600080fd5b506107b761208c565b6040516107c49190614abb565b60405180910390f35b3480156107d957600080fd5b506107e2612092565b6040516107ef9190615151565b60405180910390f35b34801561080457600080fd5b5061081f600480360381019061081a919061516c565b6120ba565b60405161082c9190614b8a565b60405180910390f35b34801561084157600080fd5b5061084a6120da565b005b34801561085857600080fd5b50610873600480360381019061086e919061516c565b6120f2565b6040516108809190614abb565b60405180910390f35b34801561089557600080fd5b506108b060048036038101906108ab9190615199565b61211c565b005b3480156108be57600080fd5b506108d960048036038101906108d49190614c83565b612190565b6040516108e69190614abb565b60405180910390f35b3480156108fb57600080fd5b506109046121a4565b6040516109119190614abb565b60405180910390f35b34801561092657600080fd5b5061092f6121aa565b60405161093c9190614abb565b60405180910390f35b34801561095157600080fd5b5061095a6121ff565b6040516109679190614b8a565b60405180910390f35b34801561097c57600080fd5b50610985612216565b6040516109929190615151565b60405180910390f35b3480156109a757600080fd5b506109b061223a565b6040516109bd91906152f7565b60405180910390f35b3480156109d257600080fd5b506109ed60048036038101906109e89190615319565b612314565b6040516109fa9190614abb565b60405180910390f35b348015610a0f57600080fd5b50610a2a6004803603810190610a25919061516c565b612864565b604051610a379190614abb565b60405180910390f35b348015610a4c57600080fd5b50610a556128ac565b604051610a6291906150bf565b60405180910390f35b348015610a7757600080fd5b50610a806128d0565b604051610a8d91906153b8565b60405180910390f35b348015610aa257600080fd5b50610aab6128f4565b604051610ab891906153f4565b60405180910390f35b348015610acd57600080fd5b50610ad6612918565b005b348015610ae457600080fd5b50610aff6004803603810190610afa91906150da565b612930565b604051610b0c9190614b8a565b60405180910390f35b348015610b2157600080fd5b50610b3c6004803603810190610b379190615199565b61299b565b005b348015610b4a57600080fd5b50610b656004803603810190610b609190615319565b612a21565b604051610b729190614abb565b60405180910390f35b348015610b8757600080fd5b50610b90612aa3565b604051610b9d9190614c35565b60405180910390f35b348015610bb257600080fd5b50610bbb612b35565b604051610bc89190614abb565b60405180910390f35b348015610bdd57600080fd5b50610be6612b3b565b005b348015610bf457600080fd5b50610bfd612ce3565b604051610c0a91906150bf565b60405180910390f35b348015610c1f57600080fd5b50610c3a6004803603810190610c359190614d0e565b612cea565b604051610c479190614b8a565b60405180910390f35b348015610c5c57600080fd5b50610c776004803603810190610c729190614c83565b612d0d565b604051610c849190614abb565b60405180910390f35b348015610c9957600080fd5b50610ca2612d21565b604051610caf9190615151565b60405180910390f35b348015610cc457600080fd5b50610cdf6004803603810190610cda919061540f565b612d47565b604051610cec9190614abb565b60405180910390f35b348015610d0157600080fd5b50610d1c6004803603810190610d17919061540f565b612eb1565b604051610d299190614abb565b60405180910390f35b348015610d3e57600080fd5b50610d596004803603810190610d54919061516c565b613190565b604051610d669190614abb565b60405180910390f35b348015610d7b57600080fd5b50610d966004803603810190610d919190614c83565b6131ba565b604051610da39190614abb565b60405180910390f35b348015610db857600080fd5b50610dd36004803603810190610dce919061516c565b6131ce565b604051610de09190614abb565b60405180910390f35b348015610df557600080fd5b50610e106004803603810190610e0b91906150da565b6131ea565b005b348015610e1e57600080fd5b50610e2761320c565b604051610e349190614abb565b60405180910390f35b348015610e4957600080fd5b50610e646004803603810190610e5f919061516c565b613212565b604051610e719190614abb565b60405180910390f35b348015610e8657600080fd5b50610ea16004803603810190610e9c9190615462565b613224565b604051610eae9190614abb565b60405180910390f35b348015610ec357600080fd5b50610ede6004803603810190610ed99190614c83565b6132ab565b005b348015610eec57600080fd5b50610ef56132e2565b604051610f029190614abb565b60405180910390f35b348015610f1757600080fd5b50610f326004803603810190610f2d9190614c83565b6132e9565b604051610f3f9190614abb565b60405180910390f35b348015610f5457600080fd5b50610f6f6004803603810190610f6a919061516c565b6132fd565b005b348015610f7d57600080fd5b50610f866133b5565b604051610f939190614c35565b60405180910390f35b600080610fa7611cfa565b11801561103457506000610fb9612092565b73ffffffffffffffffffffffffffffffffffffffff166370a08231306040518263ffffffff1660e01b8152600401610ff19190615151565b602060405180830381865afa15801561100e573d6000803e3d6000fd5b505050506040513d601f19601f8201168201806040525081019061103291906154b7565b115b15611275576000805b6008805490508110156111e4576008818154811061105e5761105d6154e4565b5b906000526020600020906003020160020160009054906101000a900460ff168015611101575061108c612092565b73ffffffffffffffffffffffffffffffffffffffff16600882815481106110b6576110b56154e4565b5b906000526020600020906003020160000160009054906101000a900473ffffffffffffffffffffffffffffffffffffffff1673ffffffffffffffffffffffffffffffffffffffff1614155b156111d75760006008828154811061111c5761111b6154e4565b5b906000526020600020906003020160000160009054906101000a900473ffffffffffffffffffffffffffffffffffffffff1673ffffffffffffffffffffffffffffffffffffffff166370a08231306040518263ffffffff1660e01b81526004016111869190615151565b602060405180830381865afa1580156111a3573d6000803e3d6000fd5b505050506040513d601f19601f820116820180604052508101906111c791906154b7565b11156111d657600191506111e4565b5b808060010191505061103d565b5080611273576111f2612092565b73ffffffffffffffffffffffffffffffffffffffff166370a08231306040518263ffffffff1660e01b815260040161122a9190615151565b602060405180830381865afa158015611247573d6000803e3d6000fd5b505050506040513d601f19601f8201168201806040525081019061126b91906154b7565b9150506114c9565b505b6000805b6008805490508110156114c35760006008828154811061129c5761129b6154e4565b5b90600052602060002090600302016040518060600160405290816000820160009054906101000a900473ffffffffffffffffffffffffffffffffffffffff1673ffffffffffffffffffffffffffffffffffffffff1673ffffffffffffffffffffffffffffffffffffffff168152602001600182015481526020016002820160009054906101000a900460ff16151515158152505090508060400151156114b5576000816000015173ffffffffffffffffffffffffffffffffffffffff166370a08231306040518263ffffffff1660e01b815260040161137b9190615151565b602060405180830381865afa158015611398573d6000803e3d6000fd5b505050506040513d601f19601f820116820180604052508101906113bc91906154b7565b90506000611467827f000000000000000000000000000000000000000000000000000000000000000073ffffffffffffffffffffffffffffffffffffffff1663785c7cf686600001516040518263ffffffff1660e01b81526004016114219190615151565b602060405180830381865afa15801561143e573d6000803e3d6000fd5b505050506040513d601f19601f82011682018060405250810190611462919061553f565b613443565b905060006114798460000151836134b8565b90506000670de0b6b3a7640000856020015183611496919061559b565b6114a0919061560c565b905080876114ae919061563d565b9650505050505b508080600101915050611279565b50809150505b90565b60007f7965db0b000000000000000000000000000000000000000000000000000000007bffffffffffffffffffffffffffffffffffffffffffffffffffffffff1916827bffffffffffffffffffffffffffffffffffffffffffffffffffffffff1916148061153f575061153e826135b3565b5b9050919050565b606060038054611555906156a0565b80601f0160208091040260200160405190810160405280929190818152602001828054611581906156a0565b80156115ce5780601f106115a3576101008083540402835291602001916115ce565b820191906000526020600020905b8154815290600101906020018083116115b157829003601f168201915b5050505050905090565b60006115e582600061361d565b9050919050565b6000806115f7613676565b905061160481858561367e565b600191505092915050565b6008818154811061161f57600080fd5b90600052602060002090600302016000915090508060000160009054906101000a900473ffffffffffffffffffffffffffffffffffffffff16908060010154908060020160009054906101000a900460ff16905083565b6000611683826001613690565b9050919050565b7fa49807205ce4d355092ef5a8a18f56e8913cf4a201fbe287825b095693c217756116b4816136e9565b6103e88311156116f9576040517f08c379a00000000000000000000000000000000000000000000000000000000081526004016116f09061571d565b60405180910390fd5b6103e882111561173e576040517f08c379a000000000000000000000000000000000000000000000000000000000815260040161173590615789565b60405180910390fd5b82600a8190555081600b819055507f5c6323bf1c2d7aaea2c091a4751c1c87af7f2864650c336507a77d0557af37a1838360405161177d9291906157a9565b60405180910390a1505050565b7fa49807205ce4d355092ef5a8a18f56e8913cf4a201fbe287825b095693c217756117b4816136e9565b600073ffffffffffffffffffffffffffffffffffffffff168373ffffffffffffffffffffffffffffffffffffffff1603611823576040517f08c379a000000000000000000000000000000000000000000000000000000000815260040161181a9061581e565b60405180910390fd5b600d54821115611868576040517f08c379a000000000000000000000000000000000000000000000000000000000815260040161185f9061588a565b60405180910390fd5b81600d600082825461187a91906158aa565b92505081905550611889612092565b73ffffffffffffffffffffffffffffffffffffffff1663a9059cbb84846040518363ffffffff1660e01b81526004016118c39291906158de565b6020604051808303816000875af11580156118e2573d6000803e3d6000fd5b505050506040513d601f19601f82011682018060405250810190611906919061591c565b508273ffffffffffffffffffffffffffffffffffffffff167f41fdd680478135993bc53fb2ffaf9560951b57ef62ff6badd02b61e018b4f17f8360405161194d9190614abb565b60405180910390a2505050565b7fa49807205ce4d355092ef5a8a18f56e8913cf4a201fbe287825b095693c21775611984816136e9565b60008251116119c8576040517f08c379a00000000000000000000000000000000000000000000000000000000081526004016119bf90615995565b60405180910390fd5b600860006119d69190614a24565b600080600090505b8351811015611c7057600073ffffffffffffffffffffffffffffffffffffffff16848281518110611a1257611a116154e4565b5b60200260200101516000015173ffffffffffffffffffffffffffffffffffffffff1603611a6b576040517fd92e233d00000000000000000000000000000000000000000000000000000000815260040160405180910390fd5b6008848281518110611a8057611a7f6154e4565b5b6020026020010151908060018154018082558091505060019003906000526020600020906003020160009091909190915060008201518160000160006101000a81548173ffffffffffffffffffffffffffffffffffffffff021916908373ffffffffffffffffffffffffffffffffffffffff1602179055506020820151816001015560408201518160020160006101000a81548160ff0219169083151502179055505050838181518110611b3757611b366154e4565b5b60200260200101516040015115611c63577f000000000000000000000000000000000000000000000000000000000000000073ffffffffffffffffffffffffffffffffffffffff166326aa101f858381518110611b9757611b966154e4565b5b6020026020010151600001516040518263ffffffff1660e01b8152600401611bbf9190615151565b602060405180830381865afa158015611bdc573d6000803e3d6000fd5b505050506040513d601f19601f82011682018060405250810190611c00919061591c565b611c36576040517f259ba1ad00000000000000000000000000000000000000000000000000000000815260040160405180910390fd5b838181518110611c4957611c486154e4565b5b60200260200101516020015182611c60919061563d565b91505b80806001019150506119de565b50670de0b6b3a76400008114611cb2576040517f940addc700000000000000000000000000000000000000000000000000000000815260040160405180910390fd5b3373ffffffffffffffffffffffffffffffffffffffff167fe12b8d1d4a7f7412a024aee54caca7fbc2f384591f10a085a28f47f518661c6460405160405180910390a2505050565b6000600254905090565b600080611d0f613676565b9050611d1c8582856136fd565b611d27858585613792565b60019150509392505050565b600060056000838152602001908152602001600020600101549050919050565b6302faf08081565b6000801b611d68816136e9565b6000611d72611cfa565b1115611daa576040517f5f9863ad00000000000000000000000000000000000000000000000000000000815260040160405180910390fd5b6000630bebc2009050611e077f00000000000000000000000000000000000000000000000000000000000000003083611de1612092565b73ffffffffffffffffffffffffffffffffffffffff16613886909392919063ffffffff16565b80611e10612092565b73ffffffffffffffffffffffffffffffffffffffff166370a08231306040518263ffffffff1660e01b8152600401611e489190615151565b602060405180830381865afa158015611e65573d6000803e3d6000fd5b505050506040513d601f19601f82011682018060405250810190611e8991906154b7565b1015611eca576040517f08c379a0000000000000000000000000000000000000000000000000000000008152600401611ec190615a01565b60405180910390fd5b6000611ed7826006613443565b9050611f037f000000000000000000000000000000000000000000000000000000000000000082613908565b7fdaae2c9a5469dd70890ae96297904a986542c0bb3ab3bd176b5e7099ccf2ed748282604051611f349291906157a9565b60405180910390a17f000000000000000000000000000000000000000000000000000000000000000073ffffffffffffffffffffffffffffffffffffffff167f2da466a7b24304f47e87fa2e1e5a81b9831ce54fec19055ce277ca2f39ba42c483604051611fa29190614abb565b60405180910390a2505050565b611fb882611d33565b611fc1816136e9565b611fcb838361398a565b50505050565b6000611fdb613a7c565b7f00000000000000000000000000000000000000000000000000000000000000006120069190615a21565b905090565b600d5481565b612019613676565b73ffffffffffffffffffffffffffffffffffffffff168173ffffffffffffffffffffffffffffffffffffffff161461207d576040517f6697b23200000000000000000000000000000000000000000000000000000000815260040160405180910390fd5b6120878282613a85565b505050565b600b5481565b60007f0000000000000000000000000000000000000000000000000000000000000000905090565b600e6020528060005260406000206000915054906101000a900460ff1681565b6000801b6120e7816136e9565b6120ef613b78565b50565b60007fffffffffffffffffffffffffffffffffffffffffffffffffffffffffffffffff9050919050565b6000801b612129816136e9565b811561215f576121597fa49807205ce4d355092ef5a8a18f56e8913cf4a201fbe287825b095693c217758461398a565b5061218b565b6121897fa49807205ce4d355092ef5a8a18f56e8913cf4a201fbe287825b095693c2177584613a85565b505b505050565b600061219d82600061361d565b9050919050565b600a5481565b600080600b5414806121c3575060006121c1611cfa565b145b156121d157600090506121fc565b6000612710600b546121e1611cfa565b6121eb919061559b565b6121f5919061560c565b9050809150505b90565b6000600660009054906101000a900460ff16905090565b7f000000000000000000000000000000000000000000000000000000000000000081565b60606008805480602002602001604051908101604052809291908181526020016000905b8282101561230b57838290600052602060002090600302016040518060600160405290816000820160009054906101000a900473ffffffffffffffffffffffffffffffffffffffff1673ffffffffffffffffffffffffffffffffffffffff1673ffffffffffffffffffffffffffffffffffffffff168152602001600182015481526020016002820160009054906101000a900460ff1615151515815250508152602001906001019061225e565b50505050905090565b600061231e6121ff565b15612355576040517f059519da00000000000000000000000000000000000000000000000000000000815260040160405180910390fd5b6000830361238f576040517f2c5211c600000000000000000000000000000000000000000000000000000000815260040160405180910390fd5b6302faf080831080156123a9575060006123a7611cfa565b115b156123ef576302faf0806040517f187a63750000000000000000000000000000000000000000000000000000000081526004016123e69190614abb565b60405180910390fd5b60006123fb8484613bdb565b90508273ffffffffffffffffffffffffffffffffffffffff167f2da466a7b24304f47e87fa2e1e5a81b9831ce54fec19055ce277ca2f39ba42c4856040516124439190614abb565b60405180910390a260005b6008805490508110156127e557600060088281548110612471576124706154e4565b5b90600052602060002090600302016040518060600160405290816000820160009054906101000a900473ffffffffffffffffffffffffffffffffffffffff1673ffffffffffffffffffffffffffffffffffffffff1673ffffffffffffffffffffffffffffffffffffffff168152602001600182015481526020016002820160009054906101000a900460ff16151515158152505090508060400151158061254e575061251b612092565b73ffffffffffffffffffffffffffffffffffffffff16816000015173ffffffffffffffffffffffffffffffffffffffff16145b1561255957506127d8565b6000612566876006613443565b90506000670de0b6b3a7640000836020015183612583919061559b565b61258d919061560c565b905060007f000000000000000000000000000000000000000000000000000000000000000073ffffffffffffffffffffffffffffffffffffffff1663785c7cf685600001516040518263ffffffff1660e01b81526004016125ee9190615151565b602060405180830381865afa15801561260b573d6000803e3d6000fd5b505050506040513d601f19601f8201168201806040525081019061262f919061553f565b9050600061263d8383613c5d565b90506000856000015173ffffffffffffffffffffffffffffffffffffffff16308360405160240161266f9291906158de565b6040516020818303038152906040527f40c10f19000000000000000000000000000000000000000000000000000000007bffffffffffffffffffffffffffffffffffffffffffffffffffffffff19166020820180517bffffffffffffffffffffffffffffffffffffffffffffffffffffffff83818316178352505050506040516126f99190615a9d565b6000604051808303816000865af19150503d8060008114612736576040519150601f19603f3d011682016040523d82523d6000602084013e61273b565b606091505b505090508061277f576040517f08c379a000000000000000000000000000000000000000000000000000000000815260040161277690615b00565b60405180910390fd5b856000015173ffffffffffffffffffffffffffffffffffffffff167f472f36e28bb47edb7c69c9e2ac00a77c66b505df54e9c818ac57110b0629e8c3836040516127c99190614abb565b60405180910390a25050505050505b808060010191505061244e565b506127ee612092565b73ffffffffffffffffffffffffffffffffffffffff16639dc29fac33866040518363ffffffff1660e01b81526004016128289291906158de565b600060405180830381600087803b15801561284257600080fd5b505af1158015612856573d6000803e3d6000fd5b505050508091505092915050565b60008060008373ffffffffffffffffffffffffffffffffffffffff1673ffffffffffffffffffffffffffffffffffffffff168152602001908152602001600020549050919050565b7fa49807205ce4d355092ef5a8a18f56e8913cf4a201fbe287825b095693c2177581565b7f000000000000000000000000000000000000000000000000000000000000000081565b7f000000000000000000000000000000000000000000000000000000000000000081565b6000801b612925816136e9565b61292d613cd2565b50565b60006005600084815260200190815260200160002060000160008373ffffffffffffffffffffffffffffffffffffffff1673ffffffffffffffffffffffffffffffffffffffff16815260200190815260200160002060009054906101000a900460ff16905092915050565b7fa49807205ce4d355092ef5a8a18f56e8913cf4a201fbe287825b095693c217756129c5816136e9565b81600e60008573ffffffffffffffffffffffffffffffffffffffff1673ffffffffffffffffffffffffffffffffffffffff16815260200190815260200160002060006101000a81548160ff021916908315150217905550505050565b600080612a2d83613190565b905080841115612a78578284826040517f284ff667000000000000000000000000000000000000000000000000000000008152600401612a6f93929190615b20565b60405180910390fd5b6000612a8385612d0d565b9050612a98612a90613676565b858388613d35565b809250505092915050565b606060048054612ab2906156a0565b80601f0160208091040260200160405190810160405280929190818152602001828054612ade906156a0565b8015612b2b5780601f10612b0057610100808354040283529160200191612b2b565b820191906000526020600020905b815481529060010190602001808311612b0e57829003601f168201915b5050505050905090565b600f5481565b7fa49807205ce4d355092ef5a8a18f56e8913cf4a201fbe287825b095693c21775612b65816136e9565b600073ffffffffffffffffffffffffffffffffffffffff16600c60009054906101000a900473ffffffffffffffffffffffffffffffffffffffff1673ffffffffffffffffffffffffffffffffffffffff1603612bed576040517fd92e233d00000000000000000000000000000000000000000000000000000000815260040160405180910390fd5b6000600b5403612c29576040517f02a578dd00000000000000000000000000000000000000000000000000000000815260040160405180910390fd5b60003073ffffffffffffffffffffffffffffffffffffffff1663592b79fe6040518163ffffffff1660e01b8152600401602060405180830381865afa158015612c76573d6000803e3d6000fd5b505050506040513d601f19601f82011682018060405250810190612c9a91906154b7565b905060008103612cd6576040517f2c5211c600000000000000000000000000000000000000000000000000000000815260040160405180910390fd5b612cdf81613dbf565b5050565b6000801b81565b600080612cf5613676565b9050612d02818585613792565b600191505092915050565b6000612d1a82600161361d565b9050919050565b600c60009054906101000a900473ffffffffffffffffffffffffffffffffffffffff1681565b6000612d516121ff565b15612d88576040517f059519da00000000000000000000000000000000000000000000000000000000815260040160405180910390fd5b612d90613fbf565b60008403612dca576040517f2c5211c600000000000000000000000000000000000000000000000000000000815260040160405180910390fd5b6302faf08084108015612de45750612de0610f9c565b8414155b15612e2a576302faf0806040517ff6263f25000000000000000000000000000000000000000000000000000000008152600401612e219190614abb565b60405180910390fd5b6000612e37858585614005565b90508373ffffffffffffffffffffffffffffffffffffffff168373ffffffffffffffffffffffffffffffffffffffff167f29a0bcf57d42cd9503e61240cef8d4ae3c5982196af8c0f63b0585b3a3e87f3987604051612e969190614abb565b60405180910390a380915050612eaa614089565b9392505050565b6000612ebb6121ff565b15612ef2576040517f059519da00000000000000000000000000000000000000000000000000000000815260040160405180910390fd5b612efa613fbf565b60008403612f34576040517f2c5211c600000000000000000000000000000000000000000000000000000000815260040160405180910390fd5b6000612f3f856115d8565b90506302faf08081108015612f5b5750612f57611cfa565b8514155b15612fa1576302faf0806040517fb3fee7b9000000000000000000000000000000000000000000000000000000008152600401612f989190614abb565b60405180910390fd5b6000612710600a5483612fb4919061559b565b612fbe919061560c565b905060008183612fce91906158aa565b9050612fdb873087614093565b50612fe4612092565b73ffffffffffffffffffffffffffffffffffffffff1663a9059cbb87836040518363ffffffff1660e01b815260040161301e9291906158de565b6020604051808303816000875af115801561303d573d6000803e3d6000fd5b505050506040513d601f19601f82011682018060405250810190613061919061591c565b50600082111561317b57613073612092565b73ffffffffffffffffffffffffffffffffffffffff1663a9059cbb7f0000000000000000000000000000000000000000000000000000000000000000846040518363ffffffff1660e01b81526004016130cd9291906158de565b6020604051808303816000875af11580156130ec573d6000803e3d6000fd5b505050506040513d601f19601f82011682018060405250810190613110919061591c565b5081600d6000828254613123919061563d565b925050819055508473ffffffffffffffffffffffffffffffffffffffff167f4391a67a435a77473a1d86760bc62594cba49fd7a8d4a69696f4a52709fc3c1c84846040516131729291906157a9565b60405180910390a25b809350505050613189614089565b9392505050565b60007fffffffffffffffffffffffffffffffffffffffffffffffffffffffffffffffff9050919050565b60006131c7826000613690565b9050919050565b60006131e36131dc83612864565b600061361d565b9050919050565b6131f382611d33565b6131fc816136e9565b6132068383613a85565b50505050565b6103e881565b600061321d82612864565b9050919050565b6000600160008473ffffffffffffffffffffffffffffffffffffffff1673ffffffffffffffffffffffffffffffffffffffff16815260200190815260200160002060008373ffffffffffffffffffffffffffffffffffffffff1673ffffffffffffffffffffffffffffffffffffffff16815260200190815260200160002054905092915050565b7fa49807205ce4d355092ef5a8a18f56e8913cf4a201fbe287825b095693c217756132d5816136e9565b6132de82613dbf565b5050565b6201518081565b60006132f6826000613690565b9050919050565b6000801b61330a816136e9565b600073ffffffffffffffffffffffffffffffffffffffff168273ffffffffffffffffffffffffffffffffffffffff1603613370576040517fd92e233d00000000000000000000000000000000000000000000000000000000815260040160405180910390fd5b81600c60006101000a81548173ffffffffffffffffffffffffffffffffffffffff021916908373ffffffffffffffffffffffffffffffffffffffff1602179055505050565b600980546133c2906156a0565b80601f01602080910402602001604051908101604052809291908181526020018280546133ee906156a0565b801561343b5780601f106134105761010080835404028352916020019161343b565b820191906000526020600020905b81548152906001019060200180831161341e57829003601f168201915b505050505081565b600060128260ff16146134ae5760128260ff1610613484576012826134689190615b57565b600a6134749190615cbf565b8361347f919061560c565b6134a9565b8160126134919190615b57565b600a61349d9190615cbf565b836134a8919061559b565b5b6134b0565b825b905092915050565b60008082036134ca57600090506135ad565b6000807f000000000000000000000000000000000000000000000000000000000000000073ffffffffffffffffffffffffffffffffffffffff166341976e09866040518263ffffffff1660e01b81526004016135269190615151565b6040805180830381865afa158015613542573d6000803e3d6000fd5b505050506040513d601f19601f820116820180604052508101906135669190615d0a565b9150915060006135768383613443565b90506000670de0b6b3a7640000828761358f919061559b565b613599919061560c565b90506135a6816006613c5d565b9450505050505b92915050565b60007f01ffc9a7000000000000000000000000000000000000000000000000000000007bffffffffffffffffffffffffffffffffffffffffffffffffffffffff1916827bffffffffffffffffffffffffffffffffffffffffffffffffffffffff1916149050919050565b600061366e600161362c610f9c565b613636919061563d565b61363e613a7c565b600a61364a9190615cbf565b613652611cfa565b61365c919061563d565b8486614117909392919063ffffffff16565b905092915050565b600033905090565b61368b8383836001614166565b505050565b60006136e161369d613a7c565b600a6136a99190615cbf565b6136b1611cfa565b6136bb919061563d565b60016136c5610f9c565b6136cf919061563d565b8486614117909392919063ffffffff16565b905092915050565b6136fa816136f5613676565b61433d565b50565b60006137098484613224565b90507fffffffffffffffffffffffffffffffffffffffffffffffffffffffffffffffff81101561378c578181101561377c578281836040517ffb8f41b200000000000000000000000000000000000000000000000000000000815260040161377393929190615b20565b60405180910390fd5b61378b84848484036000614166565b5b50505050565b600073ffffffffffffffffffffffffffffffffffffffff168373ffffffffffffffffffffffffffffffffffffffff16036138045760006040517f96c6fd1e0000000000000000000000000000000000000000000000000000000081526004016137fb9190615151565b60405180910390fd5b600073ffffffffffffffffffffffffffffffffffffffff168273ffffffffffffffffffffffffffffffffffffffff16036138765760006040517fec442f0500000000000000000000000000000000000000000000000000000000815260040161386d9190615151565b60405180910390fd5b61388183838361438e565b505050565b613902848573ffffffffffffffffffffffffffffffffffffffff166323b872dd8686866040516024016138bb93929190615d4a565b604051602081830303815290604052915060e01b6020820180517bffffffffffffffffffffffffffffffffffffffffffffffffffffffff83818316178352505050506145b3565b50505050565b600073ffffffffffffffffffffffffffffffffffffffff168273ffffffffffffffffffffffffffffffffffffffff160361397a5760006040517fec442f050000000000000000000000000000000000000000000000000000000081526004016139719190615151565b60405180910390fd5b6139866000838361438e565b5050565b60006139968383612930565b613a715760016005600085815260200190815260200160002060000160008473ffffffffffffffffffffffffffffffffffffffff1673ffffffffffffffffffffffffffffffffffffffff16815260200190815260200160002060006101000a81548160ff021916908315150217905550613a0e613676565b73ffffffffffffffffffffffffffffffffffffffff168273ffffffffffffffffffffffffffffffffffffffff16847f2f8788117e7eff1d82e926ec794901d17c78024a50270940304540a733656f0d60405160405180910390a460019050613a76565b600090505b92915050565b6000600c905090565b6000613a918383612930565b15613b6d5760006005600085815260200190815260200160002060000160008473ffffffffffffffffffffffffffffffffffffffff1673ffffffffffffffffffffffffffffffffffffffff16815260200190815260200160002060006101000a81548160ff021916908315150217905550613b0a613676565b73ffffffffffffffffffffffffffffffffffffffff168273ffffffffffffffffffffffffffffffffffffffff16847ff6391f5c32d9c69d2a47ea670b442974b53935d1edc7fd64eb21e047a839171b60405160405180910390a460019050613b72565b600090505b92915050565b613b80614655565b6000600660006101000a81548160ff0219169083151502179055507f5db9ee0a495bf2e6ff9c91a7834c1ba4fdd244a5e8aa4e537bd38aeae4b073aa613bc4613676565b604051613bd19190615151565b60405180910390a1565b600080613be7836120f2565b905080841115613c32578284826040517f79012fb2000000000000000000000000000000000000000000000000000000008152600401613c2993929190615b20565b60405180910390fd5b6000613c3d856132e9565b9050613c52613c4a613676565b858784613d35565b809250505092915050565b600060128260ff1614613cc85760128260ff1610613c9e57601282613c829190615b57565b600a613c8e9190615cbf565b83613c99919061559b565b613cc3565b816012613cab9190615b57565b600a613cb79190615cbf565b83613cc2919061560c565b5b613cca565b825b905092915050565b613cda614695565b6001600660006101000a81548160ff0219169083151502179055507f62e78cea01bee320cd4e420270b5ea74000d11b0c9f74754ebdbfc544b05a258613d1e613676565b604051613d2b9190615151565b60405180910390a1565b613d48613d40612092565b853085613886565b613d528382613908565b8273ffffffffffffffffffffffffffffffffffffffff168473ffffffffffffffffffffffffffffffffffffffff167fdcbc1c05240f31ff3ad067ef1ee35ce4997762752e3a095284754544f4c709d78484604051613db19291906157a9565b60405180910390a350505050565b60008103613df9576040517f2c5211c600000000000000000000000000000000000000000000000000000000815260040160405180910390fd5b600073ffffffffffffffffffffffffffffffffffffffff16600c60009054906101000a900473ffffffffffffffffffffffffffffffffffffffff1673ffffffffffffffffffffffffffffffffffffffff1603613e81576040517fd92e233d00000000000000000000000000000000000000000000000000000000815260040160405180910390fd5b6000600f541115613ed75762015180600f54613e9d919061563d565b421015613ed6576040517fd92d770300000000000000000000000000000000000000000000000000000000815260040160405180910390fd5b5b42600f81905550613f0a600c60009054906101000a900473ffffffffffffffffffffffffffffffffffffffff1682613908565b600c60009054906101000a900473ffffffffffffffffffffffffffffffffffffffff1673ffffffffffffffffffffffffffffffffffffffff167f7fee81b17a478a24780e52511d61b5efa31505eb290535ab360f99a30f7407d682604051613f729190614abb565b60405180910390a27fa3b6bf16d8fbac0e474e8924c4d1d5f0e23f97a448878e5207395b8ce7431ad64282613fa5611cfa565b604051613fb493929190615d81565b60405180910390a150565b600260075403613ffb576040517f3ee5aeb500000000000000000000000000000000000000000000000000000000815260040160405180910390fd5b6002600781905550565b600080614011836131ce565b90508085111561405c578285826040517ffe9cceec00000000000000000000000000000000000000000000000000000000815260040161405393929190615b20565b60405180910390fd5b600061406786611676565b905061407d614074613676565b868689856146d6565b80925050509392505050565b6001600781905550565b60008061409f83613212565b9050808511156140ea578285826040517fb94abeec0000000000000000000000000000000000000000000000000000000081526004016140e193929190615b20565b60405180910390fd5b60006140f586612190565b905061410b614102613676565b8686848a6146d6565b80925050509392505050565b6000614147614125836147b6565b801561414257506000848061413d5761413c6155dd565b5b868809115b6147e4565b6141528686866147f0565b61415c919061563d565b9050949350505050565b600073ffffffffffffffffffffffffffffffffffffffff168473ffffffffffffffffffffffffffffffffffffffff16036141d85760006040517fe602df050000000000000000000000000000000000000000000000000000000081526004016141cf9190615151565b60405180910390fd5b600073ffffffffffffffffffffffffffffffffffffffff168373ffffffffffffffffffffffffffffffffffffffff160361424a5760006040517f94280d620000000000000000000000000000000000000000000000000000000081526004016142419190615151565b60405180910390fd5b81600160008673ffffffffffffffffffffffffffffffffffffffff1673ffffffffffffffffffffffffffffffffffffffff16815260200190815260200160002060008573ffffffffffffffffffffffffffffffffffffffff1673ffffffffffffffffffffffffffffffffffffffff168152602001908152602001600020819055508015614337578273ffffffffffffffffffffffffffffffffffffffff168473ffffffffffffffffffffffffffffffffffffffff167f8c5be1e5ebec7d5bd14f71427d1e84f3dd0314c0f7b2291e5b200ac8c7c3b9258460405161432e9190614abb565b60405180910390a35b50505050565b6143478282612930565b61438a5780826040517fe2517d3f000000000000000000000000000000000000000000000000000000008152600401614381929190615db8565b60405180910390fd5b5050565b600073ffffffffffffffffffffffffffffffffffffffff168373ffffffffffffffffffffffffffffffffffffffff16036143e05780600260008282546143d4919061563d565b925050819055506144b3565b60008060008573ffffffffffffffffffffffffffffffffffffffff1673ffffffffffffffffffffffffffffffffffffffff1681526020019081526020016000205490508181101561446c578381836040517fe450d38c00000000000000000000000000000000000000000000000000000000815260040161446393929190615b20565b60405180910390fd5b8181036000808673ffffffffffffffffffffffffffffffffffffffff1673ffffffffffffffffffffffffffffffffffffffff16815260200190815260200160002081905550505b600073ffffffffffffffffffffffffffffffffffffffff168273ffffffffffffffffffffffffffffffffffffffff16036144fc5780600260008282540392505081905550614549565b806000808473ffffffffffffffffffffffffffffffffffffffff1673ffffffffffffffffffffffffffffffffffffffff168152602001908152602001600020600082825401925050819055505b8173ffffffffffffffffffffffffffffffffffffffff168373ffffffffffffffffffffffffffffffffffffffff167fddf252ad1be2c89b69c2b068fc378daa952ba7f163c4a11628f55a4df523b3ef836040516145a69190614abb565b60405180910390a3505050565b600080602060008451602086016000885af1806145d6576040513d6000823e3d81fd5b3d9250600051915050600082146145f157600181141561460d565b60008473ffffffffffffffffffffffffffffffffffffffff163b145b1561464f57836040517f5274afe70000000000000000000000000000000000000000000000000000000081526004016146469190615151565b60405180910390fd5b50505050565b61465d6121ff565b614693576040517f8dfc202b00000000000000000000000000000000000000000000000000000000815260040160405180910390fd5b565b61469d6121ff565b156146d4576040517fd93c066500000000000000000000000000000000000000000000000000000000815260040160405180910390fd5b565b8273ffffffffffffffffffffffffffffffffffffffff168573ffffffffffffffffffffffffffffffffffffffff1614614715576147148386836136fd565b5b61471f83826148d8565b61473161472a612092565b858461495a565b8273ffffffffffffffffffffffffffffffffffffffff168473ffffffffffffffffffffffffffffffffffffffff168673ffffffffffffffffffffffffffffffffffffffff167ffbde797d201c681b91056529119e0b02407c7bb96a4a2c75c01fc9667232c8db85856040516147a79291906157a9565b60405180910390a45050505050565b6000600160028360038111156147cf576147ce615de1565b5b6147d99190615e10565b60ff16149050919050565b60008115159050919050565b60008060006147ff86866149d9565b91509150600082036148255783818161481b5761481a6155dd565b5b04925050506148d1565b8184116148455761484461483f60008614601260116149f8565b614a12565b5b600084868809905081811183039250808203915060008560000386169050808604955080830492506001818260000304019050808402831792506000600287600302189050808702600203810290508087026002038102905080870260020381029050808702600203810290508087026002038102905080870260020381029050808402955050505050505b9392505050565b600073ffffffffffffffffffffffffffffffffffffffff168273ffffffffffffffffffffffffffffffffffffffff160361494a5760006040517f96c6fd1e0000000000000000000000000000000000000000000000000000000081526004016149419190615151565b60405180910390fd5b6149568260008361438e565b5050565b6149d4838473ffffffffffffffffffffffffffffffffffffffff1663a9059cbb858560405160240161498d9291906158de565b604051602081830303815290604052915060e01b6020820180517bffffffffffffffffffffffffffffffffffffffffffffffffffffffff83818316178352505050506145b3565b505050565b6000806000198385098385029150818110828203039250509250929050565b6000614a03846147e4565b82841802821890509392505050565b634e487b71600052806020526024601cfd5b5080546000825560030290600052602060002090810190614a459190614a48565b50565b5b80821115614a9e57600080820160006101000a81549073ffffffffffffffffffffffffffffffffffffffff021916905560018201600090556002820160006101000a81549060ff021916905550600301614a49565b5090565b6000819050919050565b614ab581614aa2565b82525050565b6000602082019050614ad06000830184614aac565b92915050565b6000604051905090565b600080fd5b600080fd5b60007fffffffff0000000000000000000000000000000000000000000000000000000082169050919050565b614b1f81614aea565b8114614b2a57600080fd5b50565b600081359050614b3c81614b16565b92915050565b600060208284031215614b5857614b57614ae0565b5b6000614b6684828501614b2d565b91505092915050565b60008115159050919050565b614b8481614b6f565b82525050565b6000602082019050614b9f6000830184614b7b565b92915050565b600081519050919050565b600082825260208201905092915050565b60005b83811015614bdf578082015181840152602081019050614bc4565b60008484015250505050565b6000601f19601f8301169050919050565b6000614c0782614ba5565b614c118185614bb0565b9350614c21818560208601614bc1565b614c2a81614beb565b840191505092915050565b60006020820190508181036000830152614c4f8184614bfc565b905092915050565b614c6081614aa2565b8114614c6b57600080fd5b50565b600081359050614c7d81614c57565b92915050565b600060208284031215614c9957614c98614ae0565b5b6000614ca784828501614c6e565b91505092915050565b600073ffffffffffffffffffffffffffffffffffffffff82169050919050565b6000614cdb82614cb0565b9050919050565b614ceb81614cd0565b8114614cf657600080fd5b50565b600081359050614d0881614ce2565b92915050565b60008060408385031215614d2557614d24614ae0565b5b6000614d3385828601614cf9565b9250506020614d4485828601614c6e565b9150509250929050565b614d5781614cd0565b82525050565b6000606082019050614d726000830186614d4e565b614d7f6020830185614aac565b614d8c6040830184614b7b565b949350505050565b60008060408385031215614dab57614daa614ae0565b5b6000614db985828601614c6e565b9250506020614dca85828601614c6e565b9150509250929050565b600080fd5b7f4e487b7100000000000000000000000000000000000000000000000000000000600052604160045260246000fd5b614e1182614beb565b810181811067ffffffffffffffff82111715614e3057614e2f614dd9565b5b80604052505050565b6000614e43614ad6565b9050614e4f8282614e08565b919050565b600067ffffffffffffffff821115614e6f57614e6e614dd9565b5b602082029050602081019050919050565b600080fd5b600080fd5b614e9381614b6f565b8114614e9e57600080fd5b50565b600081359050614eb081614e8a565b92915050565b600060608284031215614ecc57614ecb614e85565b5b614ed66060614e39565b90506000614ee684828501614cf9565b6000830152506020614efa84828501614c6e565b6020830152506040614f0e84828501614ea1565b60408301525092915050565b6000614f2d614f2884614e54565b614e39565b90508083825260208201905060608402830185811115614f5057614f4f614e80565b5b835b81811015614f795780614f658882614eb6565b845260208401935050606081019050614f52565b5050509392505050565b600082601f830112614f9857614f97614dd4565b5b8135614fa8848260208601614f1a565b91505092915050565b600060208284031215614fc757614fc6614ae0565b5b600082013567ffffffffffffffff811115614fe557614fe4614ae5565b5b614ff184828501614f83565b91505092915050565b60008060006060848603121561501357615012614ae0565b5b600061502186828701614cf9565b935050602061503286828701614cf9565b925050604061504386828701614c6e565b9150509250925092565b6000819050919050565b6150608161504d565b811461506b57600080fd5b50565b60008135905061507d81615057565b92915050565b60006020828403121561509957615098614ae0565b5b60006150a78482850161506e565b91505092915050565b6150b98161504d565b82525050565b60006020820190506150d460008301846150b0565b92915050565b600080604083850312156150f1576150f0614ae0565b5b60006150ff8582860161506e565b925050602061511085828601614cf9565b9150509250929050565b600060ff82169050919050565b6151308161511a565b82525050565b600060208201905061514b6000830184615127565b92915050565b60006020820190506151666000830184614d4e565b92915050565b60006020828403121561518257615181614ae0565b5b600061519084828501614cf9565b91505092915050565b600080604083850312156151b0576151af614ae0565b5b60006151be85828601614cf9565b92505060206151cf85828601614ea1565b9150509250929050565b600081519050919050565b600082825260208201905092915050565b6000819050602082019050919050565b61520e81614cd0565b82525050565b61521d81614aa2565b82525050565b61522c81614b6f565b82525050565b6060820160008201516152486000850182615205565b50602082015161525b6020850182615214565b50604082015161526e6040850182615223565b50505050565b60006152808383615232565b60608301905092915050565b6000602082019050919050565b60006152a4826151d9565b6152ae81856151e4565b93506152b9836151f5565b8060005b838110156152ea5781516152d18882615274565b97506152dc8361528c565b9250506001810190506152bd565b5085935050505092915050565b600060208201905081810360008301526153118184615299565b905092915050565b600080604083850312156153305761532f614ae0565b5b600061533e85828601614c6e565b925050602061534f85828601614cf9565b9150509250929050565b6000819050919050565b600061537e61537961537484614cb0565b615359565b614cb0565b9050919050565b600061539082615363565b9050919050565b60006153a282615385565b9050919050565b6153b281615397565b82525050565b60006020820190506153cd60008301846153a9565b92915050565b60006153de82615385565b9050919050565b6153ee816153d3565b82525050565b600060208201905061540960008301846153e5565b92915050565b60008060006060848603121561542857615427614ae0565b5b600061543686828701614c6e565b935050602061544786828701614cf9565b925050604061545886828701614cf9565b9150509250925092565b6000806040838503121561547957615478614ae0565b5b600061548785828601614cf9565b925050602061549885828601614cf9565b9150509250929050565b6000815190506154b181614c57565b92915050565b6000602082840312156154cd576154cc614ae0565b5b60006154db848285016154a2565b91505092915050565b7f4e487b7100000000000000000000000000000000000000000000000000000000600052603260045260246000fd5b61551c8161511a565b811461552757600080fd5b50565b60008151905061553981615513565b92915050565b60006020828403121561555557615554614ae0565b5b60006155638482850161552a565b91505092915050565b7f4e487b7100000000000000000000000000000000000000000000000000000000600052601160045260246000fd5b60006155a682614aa2565b91506155b183614aa2565b92508282026155bf81614aa2565b915082820484148315176155d6576155d561556c565b5b5092915050565b7f4e487b7100000000000000000000000000000000000000000000000000000000600052601260045260246000fd5b600061561782614aa2565b915061562283614aa2565b925082615632576156316155dd565b5b828204905092915050565b600061564882614aa2565b915061565383614aa2565b925082820190508082111561566b5761566a61556c565b5b92915050565b7f4e487b7100000000000000000000000000000000000000000000000000000000600052602260045260246000fd5b600060028204905060018216806156b857607f821691505b6020821081036156cb576156ca615671565b5b50919050565b7f457869742066656520746f6f2068696768000000000000000000000000000000600082015250565b6000615707601183614bb0565b9150615712826156d1565b602082019050919050565b60006020820190508181036000830152615736816156fa565b9050919050565b7f4d616e6167656d656e742066656520746f6f2068696768000000000000000000600082015250565b6000615773601783614bb0565b915061577e8261573d565b602082019050919050565b600060208201905081810360008301526157a281615766565b9050919050565b60006040820190506157be6000830185614aac565b6157cb6020830184614aac565b9392505050565b7f496e76616c696420616464726573730000000000000000000000000000000000600082015250565b6000615808600f83614bb0565b9150615813826157d2565b602082019050919050565b60006020820190508181036000830152615837816157fb565b9050919050565b7f496e73756666696369656e742066756e64730000000000000000000000000000600082015250565b6000615874601283614bb0565b915061587f8261583e565b602082019050919050565b600060208201905081810360008301526158a381615867565b9050919050565b60006158b582614aa2565b91506158c083614aa2565b92508282039050818111156158d8576158d761556c565b5b92915050565b60006040820190506158f36000830185614d4e565b6159006020830184614aac565b9392505050565b60008151905061591681614e8a565b92915050565b60006020828403121561593257615931614ae0565b5b600061594084828501615907565b91505092915050565b7f416c6c6f636174696f6e732063616e6e6f7420626520656d7074790000000000600082015250565b600061597f601b83614bb0565b915061598a82615949565b602082019050919050565b600060208201905081810360008301526159ae81615972565b9050919050565b7f5472616e73666572206661696c65640000000000000000000000000000000000600082015250565b60006159eb600f83614bb0565b91506159f6826159b5565b602082019050919050565b60006020820190508181036000830152615a1a816159de565b9050919050565b6000615a2c8261511a565b9150615a378361511a565b9250828201905060ff811115615a5057615a4f61556c565b5b92915050565b600081519050919050565b600081905092915050565b6000615a7782615a56565b615a818185615a61565b9350615a91818560208601614bc1565b80840191505092915050565b6000615aa98284615a6c565b915081905092915050565b7f4d696e7420525741206661696c65640000000000000000000000000000000000600082015250565b6000615aea600f83614bb0565b9150615af582615ab4565b602082019050919050565b60006020820190508181036000830152615b1981615add565b9050919050565b6000606082019050615b356000830186614d4e565b615b426020830185614aac565b615b4f6040830184614aac565b949350505050565b6000615b628261511a565b9150615b6d8361511a565b9250828203905060ff811115615b8657615b8561556c565b5b92915050565b60008160011c9050919050565b6000808291508390505b6001851115615be357808604811115615bbf57615bbe61556c565b5b6001851615615bce5780820291505b8081029050615bdc85615b8c565b9450615ba3565b94509492505050565b600082615bfc5760019050615cb8565b81615c0a5760009050615cb8565b8160018114615c205760028114615c2a57615c59565b6001915050615cb8565b60ff841115615c3c57615c3b61556c565b5b8360020a915084821115615c5357615c5261556c565b5b50615cb8565b5060208310610133831016604e8410600b8410161715615c8e5782820a905083811115615c8957615c8861556c565b5b615cb8565b615c9b8484846001615b99565b92509050818404811115615cb257615cb161556c565b5b81810290505b9392505050565b6000615cca82614aa2565b9150615cd58361511a565b9250615d027fffffffffffffffffffffffffffffffffffffffffffffffffffffffffffffffff8484615bec565b905092915050565b60008060408385031215615d2157615d20614ae0565b5b6000615d2f858286016154a2565b9250506020615d408582860161552a565b9150509250929050565b6000606082019050615d5f6000830186614d4e565b615d6c6020830185614d4e565b615d796040830184614aac565b949350505050565b6000606082019050615d966000830186614aac565b615da36020830185614aac565b615db06040830184614aac565b949350505050565b6000604082019050615dcd6000830185614d4e565b615dda60208301846150b0565b9392505050565b7f4e487b7100000000000000000000000000000000000000000000000000000000600052602160045260246000fd5b6000615e1b8261511a565b9150615e268361511a565b925082615e3657615e356155dd565b5b82820690509291505056fea2646970667358221220160742e20503a9f89b60c8e3e2c0de334f1bad09152ea341c729fba6ca39548c64736f6c634300081c0033",
  "linkReferences": {},
  "deployedLinkReferences": {}
}