{
  "_format": "hh-sol-artifact-1",
  "contractName": "Vault",
  "sourceName": "contracts/Vault.sol",
  "abi": [
    {
      "inputs": [
        {
          "internalType": "contract IERC20",
          "name": "asset_",
          "type": "address"
        },
        {
          "internalType": "string",
          "name": "label",
          "type": "string"
        },
        {
          "internalType": "address",
          "name": "treasury_",
          "type": "address"
        },
        {
          "internalType": "contract TokenRegistry",
          "name": "registry_",
          "type": "address"
        },
        {
          "internalType": "contract IPriceOracle",
          "name": "oracle_",
          "type": "address"
        }
      ],
      "stateMutability": "nonpayable",
      "type": "constructor"
    },
    {
      "inputs": [],
      "name": "AccessControlBadConfirmation",
      "type": "error"
    },
    {
      "inputs": [
        {
          "internalType": "address",
          "name": "account",
          "type": "address"
        },
        {
          "internalType": "bytes32",
          "name": "neededRole",
          "type": "bytes32"
        }
      ],
      "name": "AccessControlUnauthorizedAccount",
      "type": "error"
    },
    {
      "inputs": [
        {
          "internalType": "address",
          "name": "spender",
          "type": "address"
        },
        {
          "internalType": "uint256",
          "name": "allowance",
          "type": "uint256"
        },
        {
          "internalType": "uint256",
          "name": "needed",
          "type": "uint256"
        }
      ],
      "name": "ERC20InsufficientAllowance",
      "type": "error"
    },
    {
      "inputs": [
        {
          "internalType": "address",
          "name": "sender",
          "type": "address"
        },
        {
          "internalType": "uint256",
          "name": "balance",
          "type": "uint256"
        },
        {
          "internalType": "uint256",
          "name": "needed",
          "type": "uint256"
        }
      ],
      "name": "ERC20InsufficientBalance",
      "type": "error"
    },
    {
      "inputs": [
        {
          "internalType": "address",
          "name": "approver",
          "type": "address"
        }
      ],
      "name": "ERC20InvalidApprover",
      "type": "error"
    },
    {
      "inputs": [
        {
          "internalType": "address",
          "name": "receiver",
          "type": "address"
        }
      ],
      "name": "ERC20InvalidReceiver",
      "type": "error"
    },
    {
      "inputs": [
        {
          "internalType": "address",
          "name": "sender",
          "type": "address"
        }
      ],
      "name": "ERC20InvalidSender",
      "type": "error"
    },
    {
      "inputs": [
        {
          "internalType": "address",
          "name": "spender",
          "type": "address"
        }
      ],
      "name": "ERC20InvalidSpender",
      "type": "error"
    },
    {
      "inputs": [
        {
          "internalType": "address",
          "name": "receiver",
          "type": "address"
        },
        {
          "internalType": "uint256",
          "name": "assets",
          "type": "uint256"
        },
        {
          "internalType": "uint256",
          "name": "max",
          "type": "uint256"
        }
      ],
      "name": "ERC4626ExceededMaxDeposit",
      "type": "error"
    },
    {
      "inputs": [
        {
          "internalType": "address",
          "name": "receiver",
          "type": "address"
        },
        {
          "internalType": "uint256",
          "name": "shares",
          "type": "uint256"
        },
        {
          "internalType": "uint256",
          "name": "max",
          "type": "uint256"
        }
      ],
      "name": "ERC4626ExceededMaxMint",
      "type": "error"
    },
    {
      "inputs": [
        {
          "internalType": "address",
          "name": "owner",
          "type": "address"
        },
        {
          "internalType": "uint256",
          "name": "shares",
          "type": "uint256"
        },
        {
          "internalType": "uint256",
          "name": "max",
          "type": "uint256"
        }
      ],
      "name": "ERC4626ExceededMaxRedeem",
      "type": "error"
    },
    {
      "inputs": [
        {
          "internalType": "address",
          "name": "owner",
          "type": "address"
        },
        {
          "internalType": "uint256",
          "name": "assets",
          "type": "uint256"
        },
        {
          "internalType": "uint256",
          "name": "max",
          "type": "uint256"
        }
      ],
      "name": "ERC4626ExceededMaxWithdraw",
      "type": "error"
    },
    {
      "inputs": [],
      "name": "EnforcedPause",
      "type": "error"
    },
    {
      "inputs": [],
      "name": "EtherNotAccepted",
      "type": "error"
    },
    {
      "inputs": [],
      "name": "ExpectedPause",
      "type": "error"
    },
    {
      "inputs": [],
      "name": "InvalidAmount",
      "type": "error"
    },
    {
      "inputs": [],
      "name": "InvalidWeightSum",
      "type": "error"
    },
    {
      "inputs": [],
      "name": "ManagementFeeCooldownNotMet",
      "type": "error"
    },
    {
      "inputs": [],
      "name": "ManagementFeeNotConfigured",
      "type": "error"
    },
    {
      "inputs": [],
      "name": "Pausable__Paused",
      "type": "error"
    },
    {
      "inputs": [],
      "name": "ReentrancyGuardReentrantCall",
      "type": "error"
    },
    {
      "inputs": [
        {
          "internalType": "address",
          "name": "token",
          "type": "address"
        }
      ],
      "name": "SafeERC20FailedOperation",
      "type": "error"
    },
    {
      "inputs": [],
      "name": "TokenNotRegistered",
      "type": "error"
    },
    {
      "inputs": [],
      "name": "VaultAlreadyBootstrapped",
      "type": "error"
    },
    {
      "inputs": [],
      "name": "WithdrawNotSupported",
      "type": "error"
    },
    {
      "inputs": [],
      "name": "ZeroAddress",
      "type": "error"
    },
    {
      "anonymous": false,
      "inputs": [
        {
          "indexed": true,
          "internalType": "address",
          "name": "token",
          "type": "address"
        },
        {
          "indexed": false,
          "internalType": "uint256",
          "name": "amount",
          "type": "uint256"
        }
      ],
      "name": "Allocated",
      "type": "event"
    },
    {
      "anonymous": false,
      "inputs": [
        {
          "indexed": true,
          "internalType": "address",
          "name": "admin",
          "type": "address"
        }
      ],
      "name": "AllocationsUpdated",
      "type": "event"
    },
    {
      "anonymous": false,
      "inputs": [
        {
          "indexed": true,
          "internalType": "address",
          "name": "owner",
          "type": "address"
        },
        {
          "indexed": true,
          "internalType": "address",
          "name": "spender",
          "type": "address"
        },
        {
          "indexed": false,
          "internalType": "uint256",
          "name": "value",
          "type": "uint256"
        }
      ],
      "name": "Approval",
      "type": "event"
    },
    {
      "anonymous": false,
      "inputs": [
        {
          "indexed": true,
          "internalType": "address",
          "name": "sender",
          "type": "address"
        },
        {
          "indexed": true,
          "internalType": "address",
          "name": "owner",
          "type": "address"
        },
        {
          "indexed": false,
          "internalType": "uint256",
          "name": "assets",
          "type": "uint256"
        },
        {
          "indexed": false,
          "internalType": "uint256",
          "name": "shares",
          "type": "uint256"
        }
      ],
      "name": "Deposit",
      "type": "event"
    },
    {
      "anonymous": false,
      "inputs": [
        {
          "indexed": true,
          "internalType": "address",
          "name": "user",
          "type": "address"
        },
        {
          "indexed": false,
          "internalType": "uint256",
          "name": "amount",
          "type": "uint256"
        }
      ],
      "name": "Deposited",
      "type": "event"
    },
    {
      "anonymous": false,
      "inputs": [
        {
          "indexed": true,
          "internalType": "address",
          "name": "user",
          "type": "address"
        },
        {
          "indexed": false,
          "internalType": "uint256",
          "name": "assets",
          "type": "uint256"
        },
        {
          "indexed": false,
          "internalType": "uint256",
          "name": "fee",
          "type": "uint256"
        }
      ],
      "name": "ExitFeeApplied",
      "type": "event"
    },
    {
      "anonymous": false,
      "inputs": [
        {
          "indexed": false,
          "internalType": "uint256",
          "name": "exitFeeBps",
          "type": "uint256"
        },
        {
          "indexed": false,
          "internalType": "uint256",
          "name": "managementFeeBps",
          "type": "uint256"
        }
      ],
      "name": "FeesUpdated",
      "type": "event"
    },
    {
      "anonymous": false,
      "inputs": [
        {
          "indexed": true,
          "internalType": "address",
          "name": "receiver",
          "type": "address"
        },
        {
          "indexed": false,
          "internalType": "uint256",
          "name": "shares",
          "type": "uint256"
        }
      ],
      "name": "ManagementFeeAccrued",
      "type": "event"
    },
    {
      "anonymous": false,
      "inputs": [
        {
          "indexed": false,
          "internalType": "uint256",
          "name": "timestamp",
          "type": "uint256"
        },
        {
          "indexed": false,
          "internalType": "uint256",
          "name": "shares",
          "type": "uint256"
        },
        {
          "indexed": false,
          "internalType": "uint256",
          "name": "totalSupply",
          "type": "uint256"
        }
      ],
      "name": "ManagementFeeScheduled",
      "type": "event"
    },
    {
      "anonymous": false,
      "inputs": [
        {
          "indexed": false,
          "internalType": "address",
          "name": "account",
          "type": "address"
        }
      ],
      "name": "Paused",
      "type": "event"
    },
    {
      "anonymous": false,
      "inputs": [
        {
          "indexed": true,
          "internalType": "bytes32",
          "name": "role",
          "type": "bytes32"
        },
        {
          "indexed": true,
          "internalType": "bytes32",
          "name": "previousAdminRole",
          "type": "bytes32"
        },
        {
          "indexed": true,
          "internalType": "bytes32",
          "name": "newAdminRole",
          "type": "bytes32"
        }
      ],
      "name": "RoleAdminChanged",
      "type": "event"
    },
    {
      "anonymous": false,
      "inputs": [
        {
          "indexed": true,
          "internalType": "bytes32",
          "name": "role",
          "type": "bytes32"
        },
        {
          "indexed": true,
          "internalType": "address",
          "name": "account",
          "type": "address"
        },
        {
          "indexed": true,
          "internalType": "address",
          "name": "sender",
          "type": "address"
        }
      ],
      "name": "RoleGranted",
      "type": "event"
    },
    {
      "anonymous": false,
      "inputs": [
        {
          "indexed": true,
          "internalType": "bytes32",
          "name": "role",
          "type": "bytes32"
        },
        {
          "indexed": true,
          "internalType": "address",
          "name": "account",
          "type": "address"
        },
        {
          "indexed": true,
          "internalType": "address",
          "name": "sender",
          "type": "address"
        }
      ],
      "name": "RoleRevoked",
      "type": "event"
    },
    {
      "anonymous": false,
      "inputs": [
        {
          "indexed": true,
          "internalType": "address",
          "name": "from",
          "type": "address"
        },
        {
          "indexed": true,
          "internalType": "address",
          "name": "to",
          "type": "address"
        },
        {
          "indexed": false,
          "internalType": "uint256",
          "name": "value",
          "type": "uint256"
        }
      ],
      "name": "Transfer",
      "type": "event"
    },
    {
      "anonymous": false,
      "inputs": [
        {
          "indexed": false,
          "internalType": "address",
          "name": "account",
          "type": "address"
        }
      ],
      "name": "Unpaused",
      "type": "event"
    },
    {
      "anonymous": false,
      "inputs": [
        {
          "indexed": false,
          "internalType": "uint256",
          "name": "assets",
          "type": "uint256"
        },
        {
          "indexed": false,
          "internalType": "uint256",
          "name": "shares",
          "type": "uint256"
        }
      ],
      "name": "VaultBootstrapped",
      "type": "event"
    },
    {
      "anonymous": false,
      "inputs": [
        {
          "indexed": true,
          "internalType": "address",
          "name": "sender",
          "type": "address"
        },
        {
          "indexed": true,
          "internalType": "address",
          "name": "receiver",
          "type": "address"
        },
        {
          "indexed": true,
          "internalType": "address",
          "name": "owner",
          "type": "address"
        },
        {
          "indexed": false,
          "internalType": "uint256",
          "name": "assets",
          "type": "uint256"
        },
        {
          "indexed": false,
          "internalType": "uint256",
          "name": "shares",
          "type": "uint256"
        }
      ],
      "name": "Withdraw",
      "type": "event"
    },
    {
      "anonymous": false,
      "inputs": [
        {
          "indexed": true,
          "internalType": "address",
          "name": "user",
          "type": "address"
        },
        {
          "indexed": true,
          "internalType": "address",
          "name": "receiver",
          "type": "address"
        },
        {
          "indexed": false,
          "internalType": "uint256",
          "name": "assets",
          "type": "uint256"
        }
      ],
      "name": "WithdrawExecuted",
      "type": "event"
    },
    {
      "stateMutability": "payable",
      "type": "fallback"
    },
    {
      "inputs": [],
      "name": "ADMIN_ROLE",
      "outputs": [
        {
          "internalType": "bytes32",
          "name": "",
          "type": "bytes32"
        }
      ],
      "stateMutability": "view",
      "type": "function"
    },
    {
      "inputs": [],
      "name": "DEFAULT_ADMIN_ROLE",
      "outputs": [
        {
          "internalType": "bytes32",
          "name": "",
          "type": "bytes32"
        }
      ],
      "stateMutability": "view",
      "type": "function"
    },
    {
      "inputs": [],
      "name": "MANAGEMENT_FEE_COOLDOWN",
      "outputs": [
        {
          "internalType": "uint256",
          "name": "",
          "type": "uint256"
        }
      ],
      "stateMutability": "view",
      "type": "function"
    },
    {
      "inputs": [],
      "name": "MAX_FEE_BPS",
      "outputs": [
        {
          "internalType": "uint256",
          "name": "",
          "type": "uint256"
        }
      ],
      "stateMutability": "view",
      "type": "function"
    },
    {
      "inputs": [
        {
          "internalType": "uint256",
          "name": "shares",
          "type": "uint256"
        }
      ],
      "name": "accrueManagementFee",
      "outputs": [],
      "stateMutability": "nonpayable",
      "type": "function"
    },
    {
      "inputs": [
        {
          "internalType": "uint256",
          "name": "",
          "type": "uint256"
        }
      ],
      "name": "allocations",
      "outputs": [
        {
          "internalType": "address",
          "name": "token",
          "type": "address"
        },
        {
          "internalType": "uint256",
          "name": "weight",
          "type": "uint256"
        },
        {
          "internalType": "bool",
          "name": "active",
          "type": "bool"
        }
      ],
      "stateMutability": "view",
      "type": "function"
    },
    {
      "inputs": [
        {
          "internalType": "address",
          "name": "owner",
          "type": "address"
        },
        {
          "internalType": "address",
          "name": "spender",
          "type": "address"
        }
      ],
      "name": "allowance",
      "outputs": [
        {
          "internalType": "uint256",
          "name": "",
          "type": "uint256"
        }
      ],
      "stateMutability": "view",
      "type": "function"
    },
    {
      "inputs": [
        {
          "internalType": "address",
          "name": "spender",
          "type": "address"
        },
        {
          "internalType": "uint256",
          "name": "value",
          "type": "uint256"
        }
      ],
      "name": "approve",
      "outputs": [
        {
          "internalType": "bool",
          "name": "",
          "type": "bool"
        }
      ],
      "stateMutability": "nonpayable",
      "type": "function"
    },
    {
      "inputs": [],
      "name": "asset",
      "outputs": [
        {
          "internalType": "address",
          "name": "",
          "type": "address"
        }
      ],
      "stateMutability": "view",
      "type": "function"
    },
    {
      "inputs": [
        {
          "internalType": "address",
          "name": "account",
          "type": "address"
        }
      ],
      "name": "balanceOf",
      "outputs": [
        {
          "internalType": "uint256",
          "name": "",
          "type": "uint256"
        }
      ],
      "stateMutability": "view",
      "type": "function"
    },
    {
      "inputs": [],
      "name": "bootstrapVault",
      "outputs": [],
      "stateMutability": "nonpayable",
      "type": "function"
    },
    {
      "inputs": [],
      "name": "calculateManagementFee",
      "outputs": [
        {
          "internalType": "uint256",
          "name": "",
          "type": "uint256"
        }
      ],
      "stateMutability": "view",
      "type": "function"
    },
    {
      "inputs": [
        {
          "internalType": "uint256",
          "name": "shares",
          "type": "uint256"
        }
      ],
      "name": "convertToAssets",
      "outputs": [
        {
          "internalType": "uint256",
          "name": "",
          "type": "uint256"
        }
      ],
      "stateMutability": "view",
      "type": "function"
    },
    {
      "inputs": [
        {
          "internalType": "uint256",
          "name": "assets",
          "type": "uint256"
        }
      ],
      "name": "convertToShares",
      "outputs": [
        {
          "internalType": "uint256",
          "name": "",
          "type": "uint256"
        }
      ],
      "stateMutability": "view",
      "type": "function"
    },
    {
      "inputs": [],
      "name": "decimals",
      "outputs": [
        {
          "internalType": "uint8",
          "name": "",
          "type": "uint8"
        }
      ],
      "stateMutability": "view",
      "type": "function"
    },
    {
      "inputs": [
        {
          "internalType": "uint256",
          "name": "assets",
          "type": "uint256"
        },
        {
          "internalType": "address",
          "name": "receiver",
          "type": "address"
        }
      ],
      "name": "deposit",
      "outputs": [
        {
          "internalType": "uint256",
          "name": "",
          "type": "uint256"
        }
      ],
      "stateMutability": "nonpayable",
      "type": "function"
    },
    {
      "inputs": [],
      "name": "exitFeeBps",
      "outputs": [
        {
          "internalType": "uint256",
          "name": "",
          "type": "uint256"
        }
      ],
      "stateMutability": "view",
      "type": "function"
    },
    {
      "inputs": [],
      "name": "feeReceiver",
      "outputs": [
        {
          "internalType": "address",
          "name": "",
          "type": "address"
        }
      ],
      "stateMutability": "view",
      "type": "function"
    },
    {
      "inputs": [],
      "name": "getAllocations",
      "outputs": [
        {
          "components": [
            {
              "internalType": "address",
              "name": "token",
              "type": "address"
            },
            {
              "internalType": "uint256",
              "name": "weight",
              "type": "uint256"
            },
            {
              "internalType": "bool",
              "name": "active",
              "type": "bool"
            }
          ],
          "internalType": "struct Vault.AssetAllocation[]",
          "name": "",
          "type": "tuple[]"
        }
      ],
      "stateMutability": "view",
      "type": "function"
    },
    {
      "inputs": [
        {
          "internalType": "bytes32",
          "name": "role",
          "type": "bytes32"
        }
      ],
      "name": "getRoleAdmin",
      "outputs": [
        {
          "internalType": "bytes32",
          "name": "",
          "type": "bytes32"
        }
      ],
      "stateMutability": "view",
      "type": "function"
    },
    {
      "inputs": [
        {
          "internalType": "bytes32",
          "name": "role",
          "type": "bytes32"
        },
        {
          "internalType": "address",
          "name": "account",
          "type": "address"
        }
      ],
      "name": "grantRole",
      "outputs": [],
      "stateMutability": "nonpayable",
      "type": "function"
    },
    {
      "inputs": [
        {
          "internalType": "bytes32",
          "name": "role",
          "type": "bytes32"
        },
        {
          "internalType": "address",
          "name": "account",
          "type": "address"
        }
      ],
      "name": "hasRole",
      "outputs": [
        {
          "internalType": "bool",
          "name": "",
          "type": "bool"
        }
      ],
      "stateMutability": "view",
      "type": "function"
    },
    {
      "inputs": [],
      "name": "lastManagementFeeTimestamp",
      "outputs": [
        {
          "internalType": "uint256",
          "name": "",
          "type": "uint256"
        }
      ],
      "stateMutability": "view",
      "type": "function"
    },
    {
      "inputs": [],
      "name": "managementFeeBps",
      "outputs": [
        {
          "internalType": "uint256",
          "name": "",
          "type": "uint256"
        }
      ],
      "stateMutability": "view",
      "type": "function"
    },
    {
      "inputs": [
        {
          "internalType": "address",
          "name": "",
          "type": "address"
        }
      ],
      "name": "maxDeposit",
      "outputs": [
        {
          "internalType": "uint256",
          "name": "",
          "type": "uint256"
        }
      ],
      "stateMutability": "view",
      "type": "function"
    },
    {
      "inputs": [
        {
          "internalType": "address",
          "name": "",
          "type": "address"
        }
      ],
      "name": "maxMint",
      "outputs": [
        {
          "internalType": "uint256",
          "name": "",
          "type": "uint256"
        }
      ],
      "stateMutability": "view",
      "type": "function"
    },
    {
      "inputs": [
        {
          "internalType": "address",
          "name": "owner",
          "type": "address"
        }
      ],
      "name": "maxRedeem",
      "outputs": [
        {
          "internalType": "uint256",
          "name": "",
          "type": "uint256"
        }
      ],
      "stateMutability": "view",
      "type": "function"
    },
    {
      "inputs": [
        {
          "internalType": "address",
          "name": "owner",
          "type": "address"
        }
      ],
      "name": "maxWithdraw",
      "outputs": [
        {
          "internalType": "uint256",
          "name": "",
          "type": "uint256"
        }
      ],
      "stateMutability": "view",
      "type": "function"
    },
    {
      "inputs": [
        {
          "internalType": "uint256",
          "name": "shares",
          "type": "uint256"
        },
        {
          "internalType": "address",
          "name": "receiver",
          "type": "address"
        }
      ],
      "name": "mint",
      "outputs": [
        {
          "internalType": "uint256",
          "name": "",
          "type": "uint256"
        }
      ],
      "stateMutability": "nonpayable",
      "type": "function"
    },
    {
      "inputs": [],
      "name": "name",
      "outputs": [
        {
          "internalType": "string",
          "name": "",
          "type": "string"
        }
      ],
      "stateMutability": "view",
      "type": "function"
    },
    {
      "inputs": [],
      "name": "oracle",
      "outputs": [
        {
          "internalType": "contract IPriceOracle",
          "name": "",
          "type": "address"
        }
      ],
      "stateMutability": "view",
      "type": "function"
    },
    {
      "inputs": [],
      "name": "pause",
      "outputs": [],
      "stateMutability": "nonpayable",
      "type": "function"
    },
    {
      "inputs": [],
      "name": "paused",
      "outputs": [
        {
          "internalType": "bool",
          "name": "",
          "type": "bool"
        }
      ],
      "stateMutability": "view",
      "type": "function"
    },
    {
      "inputs": [
        {
          "internalType": "uint256",
          "name": "assets",
          "type": "uint256"
        }
      ],
      "name": "previewDeposit",
      "outputs": [
        {
          "internalType": "uint256",
          "name": "",
          "type": "uint256"
        }
      ],
      "stateMutability": "view",
      "type": "function"
    },
    {
      "inputs": [
        {
          "internalType": "uint256",
          "name": "shares",
          "type": "uint256"
        }
      ],
      "name": "previewMint",
      "outputs": [
        {
          "internalType": "uint256",
          "name": "",
          "type": "uint256"
        }
      ],
      "stateMutability": "view",
      "type": "function"
    },
    {
      "inputs": [
        {
          "internalType": "uint256",
          "name": "shares",
          "type": "uint256"
        }
      ],
      "name": "previewRedeem",
      "outputs": [
        {
          "internalType": "uint256",
          "name": "",
          "type": "uint256"
        }
      ],
      "stateMutability": "view",
      "type": "function"
    },
    {
      "inputs": [
        {
          "internalType": "uint256",
          "name": "assets",
          "type": "uint256"
        }
      ],
      "name": "previewWithdraw",
      "outputs": [
        {
          "internalType": "uint256",
          "name": "",
          "type": "uint256"
        }
      ],
      "stateMutability": "view",
      "type": "function"
    },
    {
      "inputs": [
        {
          "internalType": "uint256",
          "name": "shares",
          "type": "uint256"
        },
        {
          "internalType": "address",
          "name": "receiver",
          "type": "address"
        },
        {
          "internalType": "address",
          "name": "owner",
          "type": "address"
        }
      ],
      "name": "redeem",
      "outputs": [
        {
          "internalType": "uint256",
          "name": "",
          "type": "uint256"
        }
      ],
      "stateMutability": "nonpayable",
      "type": "function"
    },
    {
      "inputs": [],
      "name": "registry",
      "outputs": [
        {
          "internalType": "contract TokenRegistry",
          "name": "",
          "type": "address"
        }
      ],
      "stateMutability": "view",
      "type": "function"
    },
    {
      "inputs": [
        {
          "internalType": "bytes32",
          "name": "role",
          "type": "bytes32"
        },
        {
          "internalType": "address",
          "name": "callerConfirmation",
          "type": "address"
        }
      ],
      "name": "renounceRole",
      "outputs": [],
      "stateMutability": "nonpayable",
      "type": "function"
    },
    {
      "inputs": [
        {
          "internalType": "bytes32",
          "name": "role",
          "type": "bytes32"
        },
        {
          "internalType": "address",
          "name": "account",
          "type": "address"
        }
      ],
      "name": "revokeRole",
      "outputs": [],
      "stateMutability": "nonpayable",
      "type": "function"
    },
    {
      "inputs": [],
      "name": "scheduleManagementFee",
      "outputs": [],
      "stateMutability": "nonpayable",
      "type": "function"
    },
    {
      "inputs": [
        {
          "internalType": "address",
          "name": "_addr",
          "type": "address"
        },
        {
          "internalType": "bool",
          "name": "_status",
          "type": "bool"
        }
      ],
      "name": "setAdmin",
      "outputs": [],
      "stateMutability": "nonpayable",
      "type": "function"
    },
    {
      "inputs": [
        {
          "components": [
            {
              "internalType": "address",
              "name": "token",
              "type": "address"
            },
            {
              "internalType": "uint256",
              "name": "weight",
              "type": "uint256"
            },
            {
              "internalType": "bool",
              "name": "active",
              "type": "bool"
            }
          ],
          "internalType": "struct Vault.AssetAllocation[]",
          "name": "newAllocations",
          "type": "tuple[]"
        }
      ],
      "name": "setAllocations",
      "outputs": [],
      "stateMutability": "nonpayable",
      "type": "function"
    },
    {
      "inputs": [
        {
          "internalType": "address",
          "name": "newReceiver",
          "type": "address"
        }
      ],
      "name": "setFeeReceiver",
      "outputs": [],
      "stateMutability": "nonpayable",
      "type": "function"
    },
    {
      "inputs": [
        {
          "internalType": "uint256",
          "name": "_exitFeeBps",
          "type": "uint256"
        },
        {
          "internalType": "uint256",
          "name": "_managementFeeBps",
          "type": "uint256"
        }
      ],
      "name": "setFees",
      "outputs": [],
      "stateMutability": "nonpayable",
      "type": "function"
    },
    {
      "inputs": [],
      "name": "strategyLabel",
      "outputs": [
        {
          "internalType": "string",
          "name": "",
          "type": "string"
        }
      ],
      "stateMutability": "view",
      "type": "function"
    },
    {
      "inputs": [
        {
          "internalType": "bytes4",
          "name": "interfaceId",
          "type": "bytes4"
        }
      ],
      "name": "supportsInterface",
      "outputs": [
        {
          "internalType": "bool",
          "name": "",
          "type": "bool"
        }
      ],
      "stateMutability": "view",
      "type": "function"
    },
    {
      "inputs": [],
      "name": "symbol",
      "outputs": [
        {
          "internalType": "string",
          "name": "",
          "type": "string"
        }
      ],
      "stateMutability": "view",
      "type": "function"
    },
    {
      "inputs": [],
      "name": "totalAssets",
      "outputs": [
        {
          "internalType": "uint256",
          "name": "",
          "type": "uint256"
        }
      ],
      "stateMutability": "view",
      "type": "function"
    },
    {
      "inputs": [],
      "name": "totalSupply",
      "outputs": [
        {
          "internalType": "uint256",
          "name": "",
          "type": "uint256"
        }
      ],
      "stateMutability": "view",
      "type": "function"
    },
    {
      "inputs": [
        {
          "internalType": "address",
          "name": "to",
          "type": "address"
        },
        {
          "internalType": "uint256",
          "name": "value",
          "type": "uint256"
        }
      ],
      "name": "transfer",
      "outputs": [
        {
          "internalType": "bool",
          "name": "",
          "type": "bool"
        }
      ],
      "stateMutability": "nonpayable",
      "type": "function"
    },
    {
      "inputs": [
        {
          "internalType": "address",
          "name": "from",
          "type": "address"
        },
        {
          "internalType": "address",
          "name": "to",
          "type": "address"
        },
        {
          "internalType": "uint256",
          "name": "value",
          "type": "uint256"
        }
      ],
      "name": "transferFrom",
      "outputs": [
        {
          "internalType": "bool",
          "name": "",
          "type": "bool"
        }
      ],
      "stateMutability": "nonpayable",
      "type": "function"
    },
    {
      "inputs": [],
      "name": "treasury",
      "outputs": [
        {
          "internalType": "address",
          "name": "",
          "type": "address"
        }
      ],
      "stateMutability": "view",
      "type": "function"
    },
    {
      "inputs": [],
      "name": "unpause",
      "outputs": [],
      "stateMutability": "nonpayable",
      "type": "function"
    },
    {
      "inputs": [
        {
          "internalType": "uint256",
          "name": "",
          "type": "uint256"
        },
        {
          "internalType": "address",
          "name": "",
          "type": "address"
        },
        {
          "internalType": "address",
          "name": "",
          "type": "address"
        }
      ],
      "name": "withdraw",
      "outputs": [
        {
          "internalType": "uint256",
          "name": "",
          "type": "uint256"
        }
      ],
      "stateMutability": "pure",
      "type": "function"
    },
    {
      "stateMutability": "payable",
      "type": "receive"
    }
  ],
  "bytecode": "0x61012060405234801561001157600080fd5b50604051615ff0380380615ff08339818101604052810190610033919061086e565b846040518060400160405280601481526020017f4b696e6f736869205661756c74204d656469756d0000000000000000000000008152506040518060400160405280600581526020017f4b53484d4400000000000000000000000000000000000000000000000000000081525081600390816100af9190610b26565b5080600490816100bf9190610b26565b5050506000806100d48361036060201b60201c565b91509150816100e45760126100e6565b805b60ff1660a08160ff16815250508273ffffffffffffffffffffffffffffffffffffffff1660808173ffffffffffffffffffffffffffffffffffffffff16815250505050506001600781905550600073ffffffffffffffffffffffffffffffffffffffff168373ffffffffffffffffffffffffffffffffffffffff1603610198576040517fd92e233d00000000000000000000000000000000000000000000000000000000815260040160405180910390fd5b600073ffffffffffffffffffffffffffffffffffffffff168273ffffffffffffffffffffffffffffffffffffffff16036101fe576040517fd92e233d00000000000000000000000000000000000000000000000000000000815260040160405180910390fd5b600073ffffffffffffffffffffffffffffffffffffffff168173ffffffffffffffffffffffffffffffffffffffff1603610264576040517fd92e233d00000000000000000000000000000000000000000000000000000000815260040160405180910390fd5b83600990816102739190610b26565b508273ffffffffffffffffffffffffffffffffffffffff1660c08173ffffffffffffffffffffffffffffffffffffffff16815250508173ffffffffffffffffffffffffffffffffffffffff1660e08173ffffffffffffffffffffffffffffffffffffffff16815250508073ffffffffffffffffffffffffffffffffffffffff166101008173ffffffffffffffffffffffffffffffffffffffff16815250506103246000801b3361047060201b60201c565b506103557fa49807205ce4d355092ef5a8a18f56e8913cf4a201fbe287825b095693c217753361047060201b60201c565b505050505050610caf565b6000806000808473ffffffffffffffffffffffffffffffffffffffff1660405160240160405160208183030381529060405263313ce56760e01b6020820180517bffffffffffffffffffffffffffffffffffffffffffffffffffffffff83818316178352505050506040516103d59190610c3f565b600060405180830381855afa9150503d8060008114610410576040519150601f19603f3d011682016040523d82523d6000602084013e610415565b606091505b509150915081801561042957506020815110155b15610461576000818060200190518101906104449190610c82565b905060ff8016811161045f576001819450945050505061046b565b505b6000809350935050505b915091565b6000610482838361056e60201b60201c565b6105635760016005600085815260200190815260200160002060000160008473ffffffffffffffffffffffffffffffffffffffff1673ffffffffffffffffffffffffffffffffffffffff16815260200190815260200160002060006101000a81548160ff0219169083151502179055506105006105d960201b60201c565b73ffffffffffffffffffffffffffffffffffffffff168273ffffffffffffffffffffffffffffffffffffffff16847f2f8788117e7eff1d82e926ec794901d17c78024a50270940304540a733656f0d60405160405180910390a460019050610568565b600090505b92915050565b60006005600084815260200190815260200160002060000160008373ffffffffffffffffffffffffffffffffffffffff1673ffffffffffffffffffffffffffffffffffffffff16815260200190815260200160002060009054906101000a900460ff16905092915050565b600033905090565b6000604051905090565b600080fd5b600080fd5b600073ffffffffffffffffffffffffffffffffffffffff82169050919050565b6000610620826105f5565b9050919050565b600061063282610615565b9050919050565b61064281610627565b811461064d57600080fd5b50565b60008151905061065f81610639565b92915050565b600080fd5b600080fd5b6000601f19601f8301169050919050565b7f4e487b7100000000000000000000000000000000000000000000000000000000600052604160045260246000fd5b6106b88261066f565b810181811067ffffffffffffffff821117156106d7576106d6610680565b5b80604052505050565b60006106ea6105e1565b90506106f682826106af565b919050565b600067ffffffffffffffff82111561071657610715610680565b5b61071f8261066f565b9050602081019050919050565b60005b8381101561074a57808201518184015260208101905061072f565b60008484015250505050565b6000610769610764846106fb565b6106e0565b9050828152602081018484840111156107855761078461066a565b5b61079084828561072c565b509392505050565b600082601f8301126107ad576107ac610665565b5b81516107bd848260208601610756565b91505092915050565b6107cf81610615565b81146107da57600080fd5b50565b6000815190506107ec816107c6565b92915050565b60006107fd82610615565b9050919050565b61080d816107f2565b811461081857600080fd5b50565b60008151905061082a81610804565b92915050565b600061083b82610615565b9050919050565b61084b81610830565b811461085657600080fd5b50565b60008151905061086881610842565b92915050565b600080600080600060a0868803121561088a576108896105eb565b5b600061089888828901610650565b955050602086015167ffffffffffffffff8111156108b9576108b86105f0565b5b6108c588828901610798565b94505060406108d6888289016107dd565b93505060606108e78882890161081b565b92505060806108f888828901610859565b9150509295509295909350565b600081519050919050565b7f4e487b7100000000000000000000000000000000000000000000000000000000600052602260045260246000fd5b6000600282049050600182168061095757607f821691505b60208210810361096a57610969610910565b5b50919050565b60008190508160005260206000209050919050565b60006020601f8301049050919050565b600082821b905092915050565b6000600883026109d27fffffffffffffffffffffffffffffffffffffffffffffffffffffffffffffffff82610995565b6109dc8683610995565b95508019841693508086168417925050509392505050565b6000819050919050565b6000819050919050565b6000610a23610a1e610a19846109f4565b6109fe565b6109f4565b9050919050565b6000819050919050565b610a3d83610a08565b610a51610a4982610a2a565b8484546109a2565b825550505050565b600090565b610a66610a59565b610a71818484610a34565b505050565b5b81811015610a9557610a8a600082610a5e565b600181019050610a77565b5050565b601f821115610ada57610aab81610970565b610ab484610985565b81016020851015610ac3578190505b610ad7610acf85610985565b830182610a76565b50505b505050565b600082821c905092915050565b6000610afd60001984600802610adf565b1980831691505092915050565b6000610b168383610aec565b9150826002028217905092915050565b610b2f82610905565b67ffffffffffffffff811115610b4857610b47610680565b5b610b52825461093f565b610b5d828285610a99565b600060209050601f831160018114610b905760008415610b7e578287015190505b610b888582610b0a565b865550610bf0565b601f198416610b9e86610970565b60005b82811015610bc657848901518255600182019150602085019450602081019050610ba1565b86831015610be35784890151610bdf601f891682610aec565b8355505b6001600288020188555050505b505050505050565b600081519050919050565b600081905092915050565b6000610c1982610bf8565b610c238185610c03565b9350610c3381856020860161072c565b80840191505092915050565b6000610c4b8284610c0e565b915081905092915050565b610c5f816109f4565b8114610c6a57600080fd5b50565b600081519050610c7c81610c56565b92915050565b600060208284031215610c9857610c976105eb565b5b6000610ca684828501610c6d565b91505092915050565b60805160a05160c05160e051610100516152c5610d2b60003960008181611dc2015281816123c3015281816129ad01526132550152600081816114b60152611d9e0152600081816117200152818161183c0152818161189c01528181611b4a01526125aa0152600061193b015260006119ee01526152c56000f3fe60806040526004361061036f5760003560e01c806370a08231116101c6578063b460af94116100f7578063d905777e11610095578063eca740901161006f578063eca7409014610dc4578063ef8b30f714610def578063efdcd97414610e2c578063fc97bccc14610e55576103a6565b8063d905777e14610d21578063dd62ed3e14610d5e578063ddc563ca14610d9b576103a6565b8063c6e6f592116100d1578063c6e6f59214610c53578063ce96cb7714610c90578063d547741f14610ccd578063d55be8c614610cf6576103a6565b8063b460af9414610b9c578063ba08765214610bd9578063c63d75b614610c16576103a6565b806395d89b4111610164578063a217fddf1161013e578063a217fddf14610acc578063a9059cbb14610af7578063b3d7f6b914610b34578063b3f0067414610b71576103a6565b806395d89b4114610a5f5780639733fa8014610a8a5780639f75494114610ab5576103a6565b80637dc0d1d0116101a05780637dc0d1d0146109a35780638456cb59146109ce57806391d14854146109e557806394bf804d14610a22576103a6565b806370a082311461091057806375b238fc1461094d5780637b10399914610978576103a6565b8063313ce567116102a05780634cdad5061161023e5780635c975abb116102185780635c975abb1461085257806361d027b31461087d57806365ed6e23146108a85780636e553f65146108d3576103a6565b80634cdad506146107bf57806357b17a52146107fc578063592b79fe14610827576103a6565b806338d52e0f1161027a57806338d52e0f146107175780633f4ba83a14610742578063402d267d146107595780634b0bddd214610796576103a6565b8063313ce5671461069857806336568abe146106c35780633813c35a146106ec576103a6565b80630b78f9c01161030d57806323b872dd116102e757806323b872dd146105de578063248a9ca31461061b57806328f72834146106585780632f2ff15d1461066f576103a6565b80630b78f9c014610561578063134666791461058a57806318160ddd146105b3576103a6565b806307a2d13a1161034957806307a2d13a1461046b578063095ea7b3146104a85780630a2642bf146104e55780630a28a47714610524576103a6565b806301e1d114146103d857806301ffc9a71461040357806306fdde0314610440576103a6565b366103a6576040517f3733483400000000000000000000000000000000000000000000000000000000815260040160405180910390fd5b6040517f3733483400000000000000000000000000000000000000000000000000000000815260040160405180910390fd5b3480156103e457600080fd5b506103ed610e80565b6040516103fa9190614043565b60405180910390f35b34801561040f57600080fd5b5061042a600480360381019061042591906140ca565b611008565b6040516104379190614112565b60405180910390f35b34801561044c57600080fd5b50610455611082565b60405161046291906141bd565b60405180910390f35b34801561047757600080fd5b50610492600480360381019061048d919061420b565b611114565b60405161049f9190614043565b60405180910390f35b3480156104b457600080fd5b506104cf60048036038101906104ca9190614296565b611128565b6040516104dc9190614112565b60405180910390f35b3480156104f157600080fd5b5061050c6004803603810190610507919061420b565b61114b565b60405161051b939291906142e5565b60405180910390f35b34801561053057600080fd5b5061054b6004803603810190610546919061420b565b6111b2565b6040516105589190614043565b60405180910390f35b34801561056d57600080fd5b506105886004803603810190610583919061431c565b6111c6565b005b34801561059657600080fd5b506105b160048036038101906105ac9190614539565b6112c6565b005b3480156105bf57600080fd5b506105c8611666565b6040516105d59190614043565b60405180910390f35b3480156105ea57600080fd5b5061060560048036038101906106009190614582565b611670565b6040516106129190614112565b60405180910390f35b34801561062757600080fd5b50610642600480360381019061063d919061460b565b61169f565b60405161064f9190614647565b60405180910390f35b34801561066457600080fd5b5061066d6116bf565b005b34801561067b57600080fd5b5061069660048036038101906106919190614662565b61190d565b005b3480156106a457600080fd5b506106ad61192f565b6040516106ba91906146be565b60405180910390f35b3480156106cf57600080fd5b506106ea60048036038101906106e59190614662565b611969565b005b3480156106f857600080fd5b506107016119e4565b60405161070e9190614043565b60405180910390f35b34801561072357600080fd5b5061072c6119ea565b60405161073991906146d9565b60405180910390f35b34801561074e57600080fd5b50610757611a12565b005b34801561076557600080fd5b50610780600480360381019061077b91906146f4565b611a2a565b60405161078d9190614043565b60405180910390f35b3480156107a257600080fd5b506107bd60048036038101906107b89190614721565b611a54565b005b3480156107cb57600080fd5b506107e660048036038101906107e1919061420b565b611ac8565b6040516107f39190614043565b60405180910390f35b34801561080857600080fd5b50610811611adc565b60405161081e9190614043565b60405180910390f35b34801561083357600080fd5b5061083c611ae2565b6040516108499190614043565b60405180910390f35b34801561085e57600080fd5b50610867611b31565b6040516108749190614112565b60405180910390f35b34801561088957600080fd5b50610892611b48565b60405161089f91906146d9565b60405180910390f35b3480156108b457600080fd5b506108bd611b6c565b6040516108ca919061487f565b60405180910390f35b3480156108df57600080fd5b506108fa60048036038101906108f591906148a1565b611c46565b6040516109079190614043565b60405180910390f35b34801561091c57600080fd5b50610937600480360381019061093291906146f4565b611d30565b6040516109449190614043565b60405180910390f35b34801561095957600080fd5b50610962611d78565b60405161096f9190614647565b60405180910390f35b34801561098457600080fd5b5061098d611d9c565b60405161099a9190614940565b60405180910390f35b3480156109af57600080fd5b506109b8611dc0565b6040516109c5919061497c565b60405180910390f35b3480156109da57600080fd5b506109e3611de4565b005b3480156109f157600080fd5b50610a0c6004803603810190610a079190614662565b611dfc565b604051610a199190614112565b60405180910390f35b348015610a2e57600080fd5b50610a496004803603810190610a4491906148a1565b611e67565b604051610a569190614043565b60405180910390f35b348015610a6b57600080fd5b50610a74611ee9565b604051610a8191906141bd565b60405180910390f35b348015610a9657600080fd5b50610a9f611f7b565b604051610aac9190614043565b60405180910390f35b348015610ac157600080fd5b50610aca611f81565b005b348015610ad857600080fd5b50610ae1612129565b604051610aee9190614647565b60405180910390f35b348015610b0357600080fd5b50610b1e6004803603810190610b199190614296565b612130565b604051610b2b9190614112565b60405180910390f35b348015610b4057600080fd5b50610b5b6004803603810190610b56919061420b565b612153565b604051610b689190614043565b60405180910390f35b348015610b7d57600080fd5b50610b86612167565b604051610b9391906146d9565b60405180910390f35b348015610ba857600080fd5b50610bc36004803603810190610bbe9190614997565b61218d565b604051610bd09190614043565b60405180910390f35b348015610be557600080fd5b50610c006004803603810190610bfb9190614997565b6121c1565b604051610c0d9190614043565b60405180910390f35b348015610c2257600080fd5b50610c3d6004803603810190610c3891906146f4565b6126e4565b604051610c4a9190614043565b60405180910390f35b348015610c5f57600080fd5b50610c7a6004803603810190610c75919061420b565b61270e565b604051610c879190614043565b60405180910390f35b348015610c9c57600080fd5b50610cb76004803603810190610cb291906146f4565b612722565b604051610cc49190614043565b60405180910390f35b348015610cd957600080fd5b50610cf46004803603810190610cef9190614662565b61273e565b005b348015610d0257600080fd5b50610d0b612760565b604051610d189190614043565b60405180910390f35b348015610d2d57600080fd5b50610d486004803603810190610d4391906146f4565b612766565b604051610d559190614043565b60405180910390f35b348015610d6a57600080fd5b50610d856004803603810190610d8091906149ea565b612778565b604051610d929190614043565b60405180910390f35b348015610da757600080fd5b50610dc26004803603810190610dbd919061420b565b6127ff565b005b348015610dd057600080fd5b50610dd9612836565b604051610de69190614043565b60405180910390f35b348015610dfb57600080fd5b50610e166004803603810190610e11919061420b565b61283d565b604051610e239190614043565b60405180910390f35b348015610e3857600080fd5b50610e536004803603810190610e4e91906146f4565b612851565b005b348015610e6157600080fd5b50610e6a612909565b604051610e7791906141bd565b60405180910390f35b6000806000905060005b60088054905081101561100057600060088281548110610ead57610eac614a2a565b5b90600052602060002090600302016040518060600160405290816000820160009054906101000a900473ffffffffffffffffffffffffffffffffffffffff1673ffffffffffffffffffffffffffffffffffffffff1673ffffffffffffffffffffffffffffffffffffffff168152602001600182015481526020016002820160009054906101000a900460ff1615151515815250509050806040015115610ff2576000816000015173ffffffffffffffffffffffffffffffffffffffff166370a08231306040518263ffffffff1660e01b8152600401610f8c91906146d9565b602060405180830381865afa158015610fa9573d6000803e3d6000fd5b505050506040513d601f19601f82011682018060405250810190610fcd9190614a6e565b90506000610fdf836000015183612997565b90508085610fed9190614aca565b945050505b508080600101915050610e8a565b508091505090565b60007f7965db0b000000000000000000000000000000000000000000000000000000007bffffffffffffffffffffffffffffffffffffffffffffffffffffffff1916827bffffffffffffffffffffffffffffffffffffffffffffffffffffffff1916148061107b575061107a82612a76565b5b9050919050565b60606003805461109190614b2d565b80601f01602080910402602001604051908101604052809291908181526020018280546110bd90614b2d565b801561110a5780601f106110df5761010080835404028352916020019161110a565b820191906000526020600020905b8154815290600101906020018083116110ed57829003601f168201915b5050505050905090565b6000611121826000612ae0565b9050919050565b600080611133612b39565b9050611140818585612b41565b600191505092915050565b6008818154811061115b57600080fd5b90600052602060002090600302016000915090508060000160009054906101000a900473ffffffffffffffffffffffffffffffffffffffff16908060010154908060020160009054906101000a900460ff16905083565b60006111bf826001612b53565b9050919050565b7fa49807205ce4d355092ef5a8a18f56e8913cf4a201fbe287825b095693c217756111f081612bac565b6103e8831115611235576040517f08c379a000000000000000000000000000000000000000000000000000000000815260040161122c90614baa565b60405180910390fd5b6103e882111561127a576040517f08c379a000000000000000000000000000000000000000000000000000000000815260040161127190614c16565b60405180910390fd5b82600a8190555081600b819055507f5c6323bf1c2d7aaea2c091a4751c1c87af7f2864650c336507a77d0557af37a183836040516112b9929190614c36565b60405180910390a1505050565b7fa49807205ce4d355092ef5a8a18f56e8913cf4a201fbe287825b095693c217756112f081612bac565b6000825111611334576040517f08c379a000000000000000000000000000000000000000000000000000000000815260040161132b90614cab565b60405180910390fd5b600860006113429190613fac565b600080600090505b83518110156115dc57600073ffffffffffffffffffffffffffffffffffffffff1684828151811061137e5761137d614a2a565b5b60200260200101516000015173ffffffffffffffffffffffffffffffffffffffff16036113d7576040517fd92e233d00000000000000000000000000000000000000000000000000000000815260040160405180910390fd5b60088482815181106113ec576113eb614a2a565b5b6020026020010151908060018154018082558091505060019003906000526020600020906003020160009091909190915060008201518160000160006101000a81548173ffffffffffffffffffffffffffffffffffffffff021916908373ffffffffffffffffffffffffffffffffffffffff1602179055506020820151816001015560408201518160020160006101000a81548160ff02191690831515021790555050508381815181106114a3576114a2614a2a565b5b602002602001015160400151156115cf577f000000000000000000000000000000000000000000000000000000000000000073ffffffffffffffffffffffffffffffffffffffff166326aa101f85838151811061150357611502614a2a565b5b6020026020010151600001516040518263ffffffff1660e01b815260040161152b91906146d9565b602060405180830381865afa158015611548573d6000803e3d6000fd5b505050506040513d601f19601f8201168201806040525081019061156c9190614ce0565b6115a2576040517f259ba1ad00000000000000000000000000000000000000000000000000000000815260040160405180910390fd5b8381815181106115b5576115b4614a2a565b5b602002602001015160200151826115cc9190614aca565b91505b808060010191505061134a565b50670de0b6b3a7640000811461161e576040517f940addc700000000000000000000000000000000000000000000000000000000815260040160405180910390fd5b3373ffffffffffffffffffffffffffffffffffffffff167fe12b8d1d4a7f7412a024aee54caca7fbc2f384591f10a085a28f47f518661c6460405160405180910390a2505050565b6000600254905090565b60008061167b612b39565b9050611688858285612bc0565b611693858585612c55565b60019150509392505050565b600060056000838152602001908152602001600020600101549050919050565b6000801b6116cc81612bac565b60006116d6611666565b111561170e576040517f5f9863ad00000000000000000000000000000000000000000000000000000000815260040160405180910390fd5b6000670de0b6b3a7640000905061176f7f000000000000000000000000000000000000000000000000000000000000000030836117496119ea565b73ffffffffffffffffffffffffffffffffffffffff16612d49909392919063ffffffff16565b806117786119ea565b73ffffffffffffffffffffffffffffffffffffffff166370a08231306040518263ffffffff1660e01b81526004016117b091906146d9565b602060405180830381865afa1580156117cd573d6000803e3d6000fd5b505050506040513d601f19601f820116820180604052508101906117f19190614a6e565b1015611832576040517f08c379a000000000000000000000000000000000000000000000000000000000815260040161182990614d59565b60405180910390fd5b60008190506118617f000000000000000000000000000000000000000000000000000000000000000082612dcb565b7fdaae2c9a5469dd70890ae96297904a986542c0bb3ab3bd176b5e7099ccf2ed748282604051611892929190614c36565b60405180910390a17f000000000000000000000000000000000000000000000000000000000000000073ffffffffffffffffffffffffffffffffffffffff167f2da466a7b24304f47e87fa2e1e5a81b9831ce54fec19055ce277ca2f39ba42c4836040516119009190614043565b60405180910390a2505050565b6119168261169f565b61191f81612bac565b6119298383612e4d565b50505050565b6000611939612f3f565b7f00000000000000000000000000000000000000000000000000000000000000006119649190614d79565b905090565b611971612b39565b73ffffffffffffffffffffffffffffffffffffffff168173ffffffffffffffffffffffffffffffffffffffff16146119d5576040517f6697b23200000000000000000000000000000000000000000000000000000000815260040160405180910390fd5b6119df8282612f44565b505050565b600b5481565b60007f0000000000000000000000000000000000000000000000000000000000000000905090565b6000801b611a1f81612bac565b611a27613037565b50565b60007fffffffffffffffffffffffffffffffffffffffffffffffffffffffffffffffff9050919050565b6000801b611a6181612bac565b8115611a9757611a917fa49807205ce4d355092ef5a8a18f56e8913cf4a201fbe287825b095693c2177584612e4d565b50611ac3565b611ac17fa49807205ce4d355092ef5a8a18f56e8913cf4a201fbe287825b095693c2177584612f44565b505b505050565b6000611ad5826000612ae0565b9050919050565b600a5481565b600080600b541480611afb57506000611af9611666565b145b15611b095760009050611b2e565b612710600b54611b17611666565b611b219190614dae565b611b2b9190614e1f565b90505b90565b6000600660009054906101000a900460ff16905090565b7f000000000000000000000000000000000000000000000000000000000000000081565b60606008805480602002602001604051908101604052809291908181526020016000905b82821015611c3d57838290600052602060002090600302016040518060600160405290816000820160009054906101000a900473ffffffffffffffffffffffffffffffffffffffff1673ffffffffffffffffffffffffffffffffffffffff1673ffffffffffffffffffffffffffffffffffffffff168152602001600182015481526020016002820160009054906101000a900460ff16151515158152505081526020019060010190611b90565b50505050905090565b6000611c50611b31565b15611c87576040517f059519da00000000000000000000000000000000000000000000000000000000815260040160405180910390fd5b60008303611cc1576040517f2c5211c600000000000000000000000000000000000000000000000000000000815260040160405180910390fd5b6000611ccd848461309a565b90508273ffffffffffffffffffffffffffffffffffffffff167f2da466a7b24304f47e87fa2e1e5a81b9831ce54fec19055ce277ca2f39ba42c485604051611d159190614043565b60405180910390a2611d268461311c565b8091505092915050565b60008060008373ffffffffffffffffffffffffffffffffffffffff1673ffffffffffffffffffffffffffffffffffffffff168152602001908152602001600020549050919050565b7fa49807205ce4d355092ef5a8a18f56e8913cf4a201fbe287825b095693c2177581565b7f000000000000000000000000000000000000000000000000000000000000000081565b7f000000000000000000000000000000000000000000000000000000000000000081565b6000801b611df181612bac565b611df96134bf565b50565b60006005600084815260200190815260200160002060000160008373ffffffffffffffffffffffffffffffffffffffff1673ffffffffffffffffffffffffffffffffffffffff16815260200190815260200160002060009054906101000a900460ff16905092915050565b600080611e73836126e4565b905080841115611ebe578284826040517f284ff667000000000000000000000000000000000000000000000000000000008152600401611eb593929190614e50565b60405180910390fd5b6000611ec985612153565b9050611ede611ed6612b39565b858388613522565b809250505092915050565b606060048054611ef890614b2d565b80601f0160208091040260200160405190810160405280929190818152602001828054611f2490614b2d565b8015611f715780601f10611f4657610100808354040283529160200191611f71565b820191906000526020600020905b815481529060010190602001808311611f5457829003601f168201915b5050505050905090565b600d5481565b7fa49807205ce4d355092ef5a8a18f56e8913cf4a201fbe287825b095693c21775611fab81612bac565b600073ffffffffffffffffffffffffffffffffffffffff16600c60009054906101000a900473ffffffffffffffffffffffffffffffffffffffff1673ffffffffffffffffffffffffffffffffffffffff1603612033576040517fd92e233d00000000000000000000000000000000000000000000000000000000815260040160405180910390fd5b6000600b540361206f576040517f02a578dd00000000000000000000000000000000000000000000000000000000815260040160405180910390fd5b60003073ffffffffffffffffffffffffffffffffffffffff1663592b79fe6040518163ffffffff1660e01b8152600401602060405180830381865afa1580156120bc573d6000803e3d6000fd5b505050506040513d601f19601f820116820180604052508101906120e09190614a6e565b90506000810361211c576040517f2c5211c600000000000000000000000000000000000000000000000000000000815260040160405180910390fd5b612125816135ac565b5050565b6000801b81565b60008061213b612b39565b9050612148818585612c55565b600191505092915050565b6000612160826001612ae0565b9050919050565b600c60009054906101000a900473ffffffffffffffffffffffffffffffffffffffff1681565b60006040517f328abb9600000000000000000000000000000000000000000000000000000000815260040160405180910390fd5b60006121cb611b31565b15612202576040517f059519da00000000000000000000000000000000000000000000000000000000815260040160405180910390fd5b61220a6137ae565b60008403612244576040517f2c5211c600000000000000000000000000000000000000000000000000000000815260040160405180910390fd5b600061224f85611114565b90506000612710600a54836122649190614dae565b61226e9190614e1f565b90506000818361227e9190614e87565b905061228a85886137f4565b60005b600880549050811015612507576000600882815481106122b0576122af614a2a565b5b90600052602060002090600302016040518060600160405290816000820160009054906101000a900473ffffffffffffffffffffffffffffffffffffffff1673ffffffffffffffffffffffffffffffffffffffff1673ffffffffffffffffffffffffffffffffffffffff168152602001600182015481526020016002820160009054906101000a900460ff16151515158152505090508060400151158061238d575061235a6119ea565b73ffffffffffffffffffffffffffffffffffffffff16816000015173ffffffffffffffffffffffffffffffffffffffff16145b1561239857506124fa565b6000670de0b6b3a76400008260200151876123b39190614dae565b6123bd9190614e1f565b905060007f000000000000000000000000000000000000000000000000000000000000000073ffffffffffffffffffffffffffffffffffffffff166341976e0984600001516040518263ffffffff1660e01b815260040161241e91906146d9565b6040805180830381865afa15801561243a573d6000803e3d6000fd5b505050506040513d601f19601f8201168201806040525081019061245e9190614ee7565b509050600081670de0b6b3a7640000846124789190614dae565b6124829190614e1f565b9050836000015173ffffffffffffffffffffffffffffffffffffffff16639dc29fac30836040518363ffffffff1660e01b81526004016124c3929190614f27565b600060405180830381600087803b1580156124dd57600080fd5b505af11580156124f1573d6000803e3d6000fd5b50505050505050505b808060010191505061228d565b506125106119ea565b73ffffffffffffffffffffffffffffffffffffffff166340c10f1987836040518363ffffffff1660e01b815260040161254a929190614f27565b600060405180830381600087803b15801561256457600080fd5b505af1158015612578573d6000803e3d6000fd5b50505050600082111561266a5761258d6119ea565b73ffffffffffffffffffffffffffffffffffffffff166340c10f197f0000000000000000000000000000000000000000000000000000000000000000846040518363ffffffff1660e01b81526004016125e7929190614f27565b600060405180830381600087803b15801561260157600080fd5b505af1158015612615573d6000803e3d6000fd5b505050508473ffffffffffffffffffffffffffffffffffffffff167f4391a67a435a77473a1d86760bc62594cba49fd7a8d4a69696f4a52709fc3c1c8484604051612661929190614c36565b60405180910390a25b8573ffffffffffffffffffffffffffffffffffffffff168573ffffffffffffffffffffffffffffffffffffffff167f29a0bcf57d42cd9503e61240cef8d4ae3c5982196af8c0f63b0585b3a3e87f39836040516126c79190614043565b60405180910390a38093505050506126dd613876565b9392505050565b60007fffffffffffffffffffffffffffffffffffffffffffffffffffffffffffffffff9050919050565b600061271b826000612b53565b9050919050565b600061273761273083611d30565b6000612ae0565b9050919050565b6127478261169f565b61275081612bac565b61275a8383612f44565b50505050565b6103e881565b600061277182611d30565b9050919050565b6000600160008473ffffffffffffffffffffffffffffffffffffffff1673ffffffffffffffffffffffffffffffffffffffff16815260200190815260200160002060008373ffffffffffffffffffffffffffffffffffffffff1673ffffffffffffffffffffffffffffffffffffffff16815260200190815260200160002054905092915050565b7fa49807205ce4d355092ef5a8a18f56e8913cf4a201fbe287825b095693c2177561282981612bac565b612832826135ac565b5050565b6201518081565b600061284a826000612b53565b9050919050565b6000801b61285e81612bac565b600073ffffffffffffffffffffffffffffffffffffffff168273ffffffffffffffffffffffffffffffffffffffff16036128c4576040517fd92e233d00000000000000000000000000000000000000000000000000000000815260040160405180910390fd5b81600c60006101000a81548173ffffffffffffffffffffffffffffffffffffffff021916908373ffffffffffffffffffffffffffffffffffffffff1602179055505050565b6009805461291690614b2d565b80601f016020809104026020016040519081016040528092919081815260200182805461294290614b2d565b801561298f5780601f106129645761010080835404028352916020019161298f565b820191906000526020600020905b81548152906001019060200180831161297257829003601f168201915b505050505081565b60008082036129a95760009050612a70565b60007f000000000000000000000000000000000000000000000000000000000000000073ffffffffffffffffffffffffffffffffffffffff166341976e09856040518263ffffffff1660e01b8152600401612a0491906146d9565b6040805180830381865afa158015612a20573d6000803e3d6000fd5b505050506040513d601f19601f82011682018060405250810190612a449190614ee7565b5090506000670de0b6b3a76400008285612a5e9190614dae565b612a689190614e1f565b905080925050505b92915050565b60007f01ffc9a7000000000000000000000000000000000000000000000000000000007bffffffffffffffffffffffffffffffffffffffffffffffffffffffff1916827bffffffffffffffffffffffffffffffffffffffffffffffffffffffff1916149050919050565b6000612b316001612aef610e80565b612af99190614aca565b612b01612f3f565b600a612b0d9190615083565b612b15611666565b612b1f9190614aca565b8486613880909392919063ffffffff16565b905092915050565b600033905090565b612b4e83838360016138cf565b505050565b6000612ba4612b60612f3f565b600a612b6c9190615083565b612b74611666565b612b7e9190614aca565b6001612b88610e80565b612b929190614aca565b8486613880909392919063ffffffff16565b905092915050565b612bbd81612bb8612b39565b613aa6565b50565b6000612bcc8484612778565b90507fffffffffffffffffffffffffffffffffffffffffffffffffffffffffffffffff811015612c4f5781811015612c3f578281836040517ffb8f41b2000000000000000000000000000000000000000000000000000000008152600401612c3693929190614e50565b60405180910390fd5b612c4e848484840360006138cf565b5b50505050565b600073ffffffffffffffffffffffffffffffffffffffff168373ffffffffffffffffffffffffffffffffffffffff1603612cc75760006040517f96c6fd1e000000000000000000000000000000000000000000000000000000008152600401612cbe91906146d9565b60405180910390fd5b600073ffffffffffffffffffffffffffffffffffffffff168273ffffffffffffffffffffffffffffffffffffffff1603612d395760006040517fec442f05000000000000000000000000000000000000000000000000000000008152600401612d3091906146d9565b60405180910390fd5b612d44838383613af7565b505050565b612dc5848573ffffffffffffffffffffffffffffffffffffffff166323b872dd868686604051602401612d7e939291906150ce565b604051602081830303815290604052915060e01b6020820180517bffffffffffffffffffffffffffffffffffffffffffffffffffffffff8381831617835250505050613d1c565b50505050565b600073ffffffffffffffffffffffffffffffffffffffff168273ffffffffffffffffffffffffffffffffffffffff1603612e3d5760006040517fec442f05000000000000000000000000000000000000000000000000000000008152600401612e3491906146d9565b60405180910390fd5b612e4960008383613af7565b5050565b6000612e598383611dfc565b612f345760016005600085815260200190815260200160002060000160008473ffffffffffffffffffffffffffffffffffffffff1673ffffffffffffffffffffffffffffffffffffffff16815260200190815260200160002060006101000a81548160ff021916908315150217905550612ed1612b39565b73ffffffffffffffffffffffffffffffffffffffff168273ffffffffffffffffffffffffffffffffffffffff16847f2f8788117e7eff1d82e926ec794901d17c78024a50270940304540a733656f0d60405160405180910390a460019050612f39565b600090505b92915050565b600090565b6000612f508383611dfc565b1561302c5760006005600085815260200190815260200160002060000160008473ffffffffffffffffffffffffffffffffffffffff1673ffffffffffffffffffffffffffffffffffffffff16815260200190815260200160002060006101000a81548160ff021916908315150217905550612fc9612b39565b73ffffffffffffffffffffffffffffffffffffffff168273ffffffffffffffffffffffffffffffffffffffff16847ff6391f5c32d9c69d2a47ea670b442974b53935d1edc7fd64eb21e047a839171b60405160405180910390a460019050613031565b600090505b92915050565b61303f613dbe565b6000600660006101000a81548160ff0219169083151502179055507f5db9ee0a495bf2e6ff9c91a7834c1ba4fdd244a5e8aa4e537bd38aeae4b073aa613083612b39565b60405161309091906146d9565b60405180910390a1565b6000806130a683611a2a565b9050808411156130f1578284826040517f79012fb20000000000000000000000000000000000000000000000000000000081526004016130e893929190614e50565b60405180910390fd5b60006130fc8561283d565b9050613111613109612b39565b858784613522565b809250505092915050565b60005b6008805490508110156134bb5760006008828154811061314257613141614a2a565b5b90600052602060002090600302016040518060600160405290816000820160009054906101000a900473ffffffffffffffffffffffffffffffffffffffff1673ffffffffffffffffffffffffffffffffffffffff1673ffffffffffffffffffffffffffffffffffffffff168152602001600182015481526020016002820160009054906101000a900460ff16151515158152505090508060400151158061321f57506131ec6119ea565b73ffffffffffffffffffffffffffffffffffffffff16816000015173ffffffffffffffffffffffffffffffffffffffff16145b1561322a57506134ae565b6000670de0b6b3a76400008260200151856132459190614dae565b61324f9190614e1f565b905060007f000000000000000000000000000000000000000000000000000000000000000073ffffffffffffffffffffffffffffffffffffffff166341976e0984600001516040518263ffffffff1660e01b81526004016132b091906146d9565b6040805180830381865afa1580156132cc573d6000803e3d6000fd5b505050506040513d601f19601f820116820180604052508101906132f09190614ee7565b509050600081670de0b6b3a76400008461330a9190614dae565b6133149190614e1f565b90506000846000015173ffffffffffffffffffffffffffffffffffffffff163083604051602401613346929190614f27565b6040516020818303038152906040527f40c10f19000000000000000000000000000000000000000000000000000000007bffffffffffffffffffffffffffffffffffffffffffffffffffffffff19166020820180517bffffffffffffffffffffffffffffffffffffffffffffffffffffffff83818316178352505050506040516133d0919061514c565b6000604051808303816000865af19150503d806000811461340d576040519150601f19603f3d011682016040523d82523d6000602084013e613412565b606091505b5050905080613456576040517f08c379a000000000000000000000000000000000000000000000000000000000815260040161344d906151af565b60405180910390fd5b846000015173ffffffffffffffffffffffffffffffffffffffff167f472f36e28bb47edb7c69c9e2ac00a77c66b505df54e9c818ac57110b0629e8c3836040516134a09190614043565b60405180910390a250505050505b808060010191505061311f565b5050565b6134c7613dfe565b6001600660006101000a81548160ff0219169083151502179055507f62e78cea01bee320cd4e420270b5ea74000d11b0c9f74754ebdbfc544b05a25861350b612b39565b60405161351891906146d9565b60405180910390a1565b61353561352d6119ea565b853085612d49565b61353f8382612dcb565b8273ffffffffffffffffffffffffffffffffffffffff168473ffffffffffffffffffffffffffffffffffffffff167fdcbc1c05240f31ff3ad067ef1ee35ce4997762752e3a095284754544f4c709d7848460405161359e929190614c36565b60405180910390a350505050565b600081036135e6576040517f2c5211c600000000000000000000000000000000000000000000000000000000815260040160405180910390fd5b600073ffffffffffffffffffffffffffffffffffffffff16600c60009054906101000a900473ffffffffffffffffffffffffffffffffffffffff1673ffffffffffffffffffffffffffffffffffffffff160361366e576040517fd92e233d00000000000000000000000000000000000000000000000000000000815260040160405180910390fd5b6000600d5411801561368f575062015180600d5461368c9190614aca565b42105b156136c6576040517fd92d770300000000000000000000000000000000000000000000000000000000815260040160405180910390fd5b42600d819055506136f9600c60009054906101000a900473ffffffffffffffffffffffffffffffffffffffff1682612dcb565b600c60009054906101000a900473ffffffffffffffffffffffffffffffffffffffff1673ffffffffffffffffffffffffffffffffffffffff167f7fee81b17a478a24780e52511d61b5efa31505eb290535ab360f99a30f7407d6826040516137619190614043565b60405180910390a27fa3b6bf16d8fbac0e474e8924c4d1d5f0e23f97a448878e5207395b8ce7431ad64282613794611666565b6040516137a3939291906151cf565b60405180910390a150565b6002600754036137ea576040517f3ee5aeb500000000000000000000000000000000000000000000000000000000815260040160405180910390fd5b6002600781905550565b600073ffffffffffffffffffffffffffffffffffffffff168273ffffffffffffffffffffffffffffffffffffffff16036138665760006040517f96c6fd1e00000000000000000000000000000000000000000000000000000000815260040161385d91906146d9565b60405180910390fd5b61387282600083613af7565b5050565b6001600781905550565b60006138b061388e83613e3f565b80156138ab5750600084806138a6576138a5614df0565b5b868809115b613e6d565b6138bb868686613e79565b6138c59190614aca565b9050949350505050565b600073ffffffffffffffffffffffffffffffffffffffff168473ffffffffffffffffffffffffffffffffffffffff16036139415760006040517fe602df0500000000000000000000000000000000000000000000000000000000815260040161393891906146d9565b60405180910390fd5b600073ffffffffffffffffffffffffffffffffffffffff168373ffffffffffffffffffffffffffffffffffffffff16036139b35760006040517f94280d620000000000000000000000000000000000000000000000000000000081526004016139aa91906146d9565b60405180910390fd5b81600160008673ffffffffffffffffffffffffffffffffffffffff1673ffffffffffffffffffffffffffffffffffffffff16815260200190815260200160002060008573ffffffffffffffffffffffffffffffffffffffff1673ffffffffffffffffffffffffffffffffffffffff168152602001908152602001600020819055508015613aa0578273ffffffffffffffffffffffffffffffffffffffff168473ffffffffffffffffffffffffffffffffffffffff167f8c5be1e5ebec7d5bd14f71427d1e84f3dd0314c0f7b2291e5b200ac8c7c3b92584604051613a979190614043565b60405180910390a35b50505050565b613ab08282611dfc565b613af35780826040517fe2517d3f000000000000000000000000000000000000000000000000000000008152600401613aea929190615206565b60405180910390fd5b5050565b600073ffffffffffffffffffffffffffffffffffffffff168373ffffffffffffffffffffffffffffffffffffffff1603613b49578060026000828254613b3d9190614aca565b92505081905550613c1c565b60008060008573ffffffffffffffffffffffffffffffffffffffff1673ffffffffffffffffffffffffffffffffffffffff16815260200190815260200160002054905081811015613bd5578381836040517fe450d38c000000000000000000000000000000000000000000000000000000008152600401613bcc93929190614e50565b60405180910390fd5b8181036000808673ffffffffffffffffffffffffffffffffffffffff1673ffffffffffffffffffffffffffffffffffffffff16815260200190815260200160002081905550505b600073ffffffffffffffffffffffffffffffffffffffff168273ffffffffffffffffffffffffffffffffffffffff1603613c655780600260008282540392505081905550613cb2565b806000808473ffffffffffffffffffffffffffffffffffffffff1673ffffffffffffffffffffffffffffffffffffffff168152602001908152602001600020600082825401925050819055505b8173ffffffffffffffffffffffffffffffffffffffff168373ffffffffffffffffffffffffffffffffffffffff167fddf252ad1be2c89b69c2b068fc378daa952ba7f163c4a11628f55a4df523b3ef83604051613d0f9190614043565b60405180910390a3505050565b600080602060008451602086016000885af180613d3f576040513d6000823e3d81fd5b3d925060005191505060008214613d5a576001811415613d76565b60008473ffffffffffffffffffffffffffffffffffffffff163b145b15613db857836040517f5274afe7000000000000000000000000000000000000000000000000000000008152600401613daf91906146d9565b60405180910390fd5b50505050565b613dc6611b31565b613dfc576040517f8dfc202b00000000000000000000000000000000000000000000000000000000815260040160405180910390fd5b565b613e06611b31565b15613e3d576040517fd93c066500000000000000000000000000000000000000000000000000000000815260040160405180910390fd5b565b600060016002836003811115613e5857613e5761522f565b5b613e62919061525e565b60ff16149050919050565b60008115159050919050565b6000806000613e888686613f61565b9150915060008203613eae57838181613ea457613ea3614df0565b5b0492505050613f5a565b818411613ece57613ecd613ec86000861460126011613f80565b613f9a565b5b600084868809905081811183039250808203915060008560000386169050808604955080830492506001818260000304019050808402831792506000600287600302189050808702600203810290508087026002038102905080870260020381029050808702600203810290508087026002038102905080870260020381029050808402955050505050505b9392505050565b6000806000198385098385029150818110828203039250509250929050565b6000613f8b84613e6d565b82841802821890509392505050565b634e487b71600052806020526024601cfd5b5080546000825560030290600052602060002090810190613fcd9190613fd0565b50565b5b8082111561402657600080820160006101000a81549073ffffffffffffffffffffffffffffffffffffffff021916905560018201600090556002820160006101000a81549060ff021916905550600301613fd1565b5090565b6000819050919050565b61403d8161402a565b82525050565b60006020820190506140586000830184614034565b92915050565b6000604051905090565b600080fd5b600080fd5b60007fffffffff0000000000000000000000000000000000000000000000000000000082169050919050565b6140a781614072565b81146140b257600080fd5b50565b6000813590506140c48161409e565b92915050565b6000602082840312156140e0576140df614068565b5b60006140ee848285016140b5565b91505092915050565b60008115159050919050565b61410c816140f7565b82525050565b60006020820190506141276000830184614103565b92915050565b600081519050919050565b600082825260208201905092915050565b60005b8381101561416757808201518184015260208101905061414c565b60008484015250505050565b6000601f19601f8301169050919050565b600061418f8261412d565b6141998185614138565b93506141a9818560208601614149565b6141b281614173565b840191505092915050565b600060208201905081810360008301526141d78184614184565b905092915050565b6141e88161402a565b81146141f357600080fd5b50565b600081359050614205816141df565b92915050565b60006020828403121561422157614220614068565b5b600061422f848285016141f6565b91505092915050565b600073ffffffffffffffffffffffffffffffffffffffff82169050919050565b600061426382614238565b9050919050565b61427381614258565b811461427e57600080fd5b50565b6000813590506142908161426a565b92915050565b600080604083850312156142ad576142ac614068565b5b60006142bb85828601614281565b92505060206142cc858286016141f6565b9150509250929050565b6142df81614258565b82525050565b60006060820190506142fa60008301866142d6565b6143076020830185614034565b6143146040830184614103565b949350505050565b6000806040838503121561433357614332614068565b5b6000614341858286016141f6565b9250506020614352858286016141f6565b9150509250929050565b600080fd5b7f4e487b7100000000000000000000000000000000000000000000000000000000600052604160045260246000fd5b61439982614173565b810181811067ffffffffffffffff821117156143b8576143b7614361565b5b80604052505050565b60006143cb61405e565b90506143d78282614390565b919050565b600067ffffffffffffffff8211156143f7576143f6614361565b5b602082029050602081019050919050565b600080fd5b600080fd5b61441b816140f7565b811461442657600080fd5b50565b60008135905061443881614412565b92915050565b6000606082840312156144545761445361440d565b5b61445e60606143c1565b9050600061446e84828501614281565b6000830152506020614482848285016141f6565b602083015250604061449684828501614429565b60408301525092915050565b60006144b56144b0846143dc565b6143c1565b905080838252602082019050606084028301858111156144d8576144d7614408565b5b835b8181101561450157806144ed888261443e565b8452602084019350506060810190506144da565b5050509392505050565b600082601f8301126145205761451f61435c565b5b81356145308482602086016144a2565b91505092915050565b60006020828403121561454f5761454e614068565b5b600082013567ffffffffffffffff81111561456d5761456c61406d565b5b6145798482850161450b565b91505092915050565b60008060006060848603121561459b5761459a614068565b5b60006145a986828701614281565b93505060206145ba86828701614281565b92505060406145cb868287016141f6565b9150509250925092565b6000819050919050565b6145e8816145d5565b81146145f357600080fd5b50565b600081359050614605816145df565b92915050565b60006020828403121561462157614620614068565b5b600061462f848285016145f6565b91505092915050565b614641816145d5565b82525050565b600060208201905061465c6000830184614638565b92915050565b6000806040838503121561467957614678614068565b5b6000614687858286016145f6565b925050602061469885828601614281565b9150509250929050565b600060ff82169050919050565b6146b8816146a2565b82525050565b60006020820190506146d360008301846146af565b92915050565b60006020820190506146ee60008301846142d6565b92915050565b60006020828403121561470a57614709614068565b5b600061471884828501614281565b91505092915050565b6000806040838503121561473857614737614068565b5b600061474685828601614281565b925050602061475785828601614429565b9150509250929050565b600081519050919050565b600082825260208201905092915050565b6000819050602082019050919050565b61479681614258565b82525050565b6147a58161402a565b82525050565b6147b4816140f7565b82525050565b6060820160008201516147d0600085018261478d565b5060208201516147e3602085018261479c565b5060408201516147f660408501826147ab565b50505050565b600061480883836147ba565b60608301905092915050565b6000602082019050919050565b600061482c82614761565b614836818561476c565b93506148418361477d565b8060005b8381101561487257815161485988826147fc565b975061486483614814565b925050600181019050614845565b5085935050505092915050565b600060208201905081810360008301526148998184614821565b905092915050565b600080604083850312156148b8576148b7614068565b5b60006148c6858286016141f6565b92505060206148d785828601614281565b9150509250929050565b6000819050919050565b60006149066149016148fc84614238565b6148e1565b614238565b9050919050565b6000614918826148eb565b9050919050565b600061492a8261490d565b9050919050565b61493a8161491f565b82525050565b60006020820190506149556000830184614931565b92915050565b60006149668261490d565b9050919050565b6149768161495b565b82525050565b6000602082019050614991600083018461496d565b92915050565b6000806000606084860312156149b0576149af614068565b5b60006149be868287016141f6565b93505060206149cf86828701614281565b92505060406149e086828701614281565b9150509250925092565b60008060408385031215614a0157614a00614068565b5b6000614a0f85828601614281565b9250506020614a2085828601614281565b9150509250929050565b7f4e487b7100000000000000000000000000000000000000000000000000000000600052603260045260246000fd5b600081519050614a68816141df565b92915050565b600060208284031215614a8457614a83614068565b5b6000614a9284828501614a59565b91505092915050565b7f4e487b7100000000000000000000000000000000000000000000000000000000600052601160045260246000fd5b6000614ad58261402a565b9150614ae08361402a565b9250828201905080821115614af857614af7614a9b565b5b92915050565b7f4e487b7100000000000000000000000000000000000000000000000000000000600052602260045260246000fd5b60006002820490506001821680614b4557607f821691505b602082108103614b5857614b57614afe565b5b50919050565b7f457869742066656520746f6f2068696768000000000000000000000000000000600082015250565b6000614b94601183614138565b9150614b9f82614b5e565b602082019050919050565b60006020820190508181036000830152614bc381614b87565b9050919050565b7f4d616e6167656d656e742066656520746f6f2068696768000000000000000000600082015250565b6000614c00601783614138565b9150614c0b82614bca565b602082019050919050565b60006020820190508181036000830152614c2f81614bf3565b9050919050565b6000604082019050614c4b6000830185614034565b614c586020830184614034565b9392505050565b7f416c6c6f636174696f6e732063616e6e6f7420626520656d7074790000000000600082015250565b6000614c95601b83614138565b9150614ca082614c5f565b602082019050919050565b60006020820190508181036000830152614cc481614c88565b9050919050565b600081519050614cda81614412565b92915050565b600060208284031215614cf657614cf5614068565b5b6000614d0484828501614ccb565b91505092915050565b7f5472616e73666572206661696c65640000000000000000000000000000000000600082015250565b6000614d43600f83614138565b9150614d4e82614d0d565b602082019050919050565b60006020820190508181036000830152614d7281614d36565b9050919050565b6000614d84826146a2565b9150614d8f836146a2565b9250828201905060ff811115614da857614da7614a9b565b5b92915050565b6000614db98261402a565b9150614dc48361402a565b9250828202614dd28161402a565b91508282048414831517614de957614de8614a9b565b5b5092915050565b7f4e487b7100000000000000000000000000000000000000000000000000000000600052601260045260246000fd5b6000614e2a8261402a565b9150614e358361402a565b925082614e4557614e44614df0565b5b828204905092915050565b6000606082019050614e6560008301866142d6565b614e726020830185614034565b614e7f6040830184614034565b949350505050565b6000614e928261402a565b9150614e9d8361402a565b9250828203905081811115614eb557614eb4614a9b565b5b92915050565b614ec4816146a2565b8114614ecf57600080fd5b50565b600081519050614ee181614ebb565b92915050565b60008060408385031215614efe57614efd614068565b5b6000614f0c85828601614a59565b9250506020614f1d85828601614ed2565b9150509250929050565b6000604082019050614f3c60008301856142d6565b614f496020830184614034565b9392505050565b60008160011c9050919050565b6000808291508390505b6001851115614fa757808604811115614f8357614f82614a9b565b5b6001851615614f925780820291505b8081029050614fa085614f50565b9450614f67565b94509492505050565b600082614fc0576001905061507c565b81614fce576000905061507c565b8160018114614fe45760028114614fee5761501d565b600191505061507c565b60ff84111561500057614fff614a9b565b5b8360020a91508482111561501757615016614a9b565b5b5061507c565b5060208310610133831016604e8410600b84101617156150525782820a90508381111561504d5761504c614a9b565b5b61507c565b61505f8484846001614f5d565b9250905081840481111561507657615075614a9b565b5b81810290505b9392505050565b600061508e8261402a565b9150615099836146a2565b92506150c67fffffffffffffffffffffffffffffffffffffffffffffffffffffffffffffffff8484614fb0565b905092915050565b60006060820190506150e360008301866142d6565b6150f060208301856142d6565b6150fd6040830184614034565b949350505050565b600081519050919050565b600081905092915050565b600061512682615105565b6151308185615110565b9350615140818560208601614149565b80840191505092915050565b6000615158828461511b565b915081905092915050565b7f4d696e7420525741206661696c65640000000000000000000000000000000000600082015250565b6000615199600f83614138565b91506151a482615163565b602082019050919050565b600060208201905081810360008301526151c88161518c565b9050919050565b60006060820190506151e46000830186614034565b6151f16020830185614034565b6151fe6040830184614034565b949350505050565b600060408201905061521b60008301856142d6565b6152286020830184614638565b9392505050565b7f4e487b7100000000000000000000000000000000000000000000000000000000600052602160045260246000fd5b6000615269826146a2565b9150615274836146a2565b92508261528457615283614df0565b5b82820690509291505056fea26469706673582212203617b9b8d7f895083407e7c7d0dda2921731f2d5b74b3bb4951f7597458189ef64736f6c634300081c0033",
  "linkReferences": {},
  "deployedLinkReferences": {}
}