{
  "_format": "hh-sol-artifact-1",
  "contractName": "Vault",
  "sourceName": "contracts/Vault.sol",
  "abi": [
    {
      "inputs": [
        {
          "internalType": "contract IERC20",
          "name": "asset_",
          "type": "address"
        },
        {
          "internalType": "string",
          "name": "label",
          "type": "string"
        },
        {
          "internalType": "address",
          "name": "treasury_",
          "type": "address"
        },
        {
          "internalType": "contract TokenRegistry",
          "name": "registry_",
          "type": "address"
        },
        {
          "internalType": "contract IPriceOracle",
          "name": "oracle_",
          "type": "address"
        }
      ],
      "stateMutability": "nonpayable",
      "type": "constructor"
    },
    {
      "inputs": [
        {
          "internalType": "address",
          "name": "spender",
          "type": "address"
        },
        {
          "internalType": "uint256",
          "name": "allowance",
          "type": "uint256"
        },
        {
          "internalType": "uint256",
          "name": "needed",
          "type": "uint256"
        }
      ],
      "name": "ERC20InsufficientAllowance",
      "type": "error"
    },
    {
      "inputs": [
        {
          "internalType": "address",
          "name": "sender",
          "type": "address"
        },
        {
          "internalType": "uint256",
          "name": "balance",
          "type": "uint256"
        },
        {
          "internalType": "uint256",
          "name": "needed",
          "type": "uint256"
        }
      ],
      "name": "ERC20InsufficientBalance",
      "type": "error"
    },
    {
      "inputs": [
        {
          "internalType": "address",
          "name": "approver",
          "type": "address"
        }
      ],
      "name": "ERC20InvalidApprover",
      "type": "error"
    },
    {
      "inputs": [
        {
          "internalType": "address",
          "name": "receiver",
          "type": "address"
        }
      ],
      "name": "ERC20InvalidReceiver",
      "type": "error"
    },
    {
      "inputs": [
        {
          "internalType": "address",
          "name": "sender",
          "type": "address"
        }
      ],
      "name": "ERC20InvalidSender",
      "type": "error"
    },
    {
      "inputs": [
        {
          "internalType": "address",
          "name": "spender",
          "type": "address"
        }
      ],
      "name": "ERC20InvalidSpender",
      "type": "error"
    },
    {
      "inputs": [
        {
          "internalType": "address",
          "name": "receiver",
          "type": "address"
        },
        {
          "internalType": "uint256",
          "name": "assets",
          "type": "uint256"
        },
        {
          "internalType": "uint256",
          "name": "max",
          "type": "uint256"
        }
      ],
      "name": "ERC4626ExceededMaxDeposit",
      "type": "error"
    },
    {
      "inputs": [
        {
          "internalType": "address",
          "name": "receiver",
          "type": "address"
        },
        {
          "internalType": "uint256",
          "name": "shares",
          "type": "uint256"
        },
        {
          "internalType": "uint256",
          "name": "max",
          "type": "uint256"
        }
      ],
      "name": "ERC4626ExceededMaxMint",
      "type": "error"
    },
    {
      "inputs": [
        {
          "internalType": "address",
          "name": "owner",
          "type": "address"
        },
        {
          "internalType": "uint256",
          "name": "shares",
          "type": "uint256"
        },
        {
          "internalType": "uint256",
          "name": "max",
          "type": "uint256"
        }
      ],
      "name": "ERC4626ExceededMaxRedeem",
      "type": "error"
    },
    {
      "inputs": [
        {
          "internalType": "address",
          "name": "owner",
          "type": "address"
        },
        {
          "internalType": "uint256",
          "name": "assets",
          "type": "uint256"
        },
        {
          "internalType": "uint256",
          "name": "max",
          "type": "uint256"
        }
      ],
      "name": "ERC4626ExceededMaxWithdraw",
      "type": "error"
    },
    {
      "inputs": [],
      "name": "EnforcedPause",
      "type": "error"
    },
    {
      "inputs": [],
      "name": "EtherNotAccepted",
      "type": "error"
    },
    {
      "inputs": [],
      "name": "ExpectedPause",
      "type": "error"
    },
    {
      "inputs": [],
      "name": "InvalidAmount",
      "type": "error"
    },
    {
      "inputs": [],
      "name": "InvalidWeightSum",
      "type": "error"
    },
    {
      "inputs": [
        {
          "internalType": "address",
          "name": "owner",
          "type": "address"
        }
      ],
      "name": "OwnableInvalidOwner",
      "type": "error"
    },
    {
      "inputs": [
        {
          "internalType": "address",
          "name": "account",
          "type": "address"
        }
      ],
      "name": "OwnableUnauthorizedAccount",
      "type": "error"
    },
    {
      "inputs": [],
      "name": "Pausable__Paused",
      "type": "error"
    },
    {
      "inputs": [],
      "name": "ReentrancyGuardReentrantCall",
      "type": "error"
    },
    {
      "inputs": [
        {
          "internalType": "address",
          "name": "token",
          "type": "address"
        }
      ],
      "name": "SafeERC20FailedOperation",
      "type": "error"
    },
    {
      "inputs": [],
      "name": "TokenNotRegistered",
      "type": "error"
    },
    {
      "inputs": [],
      "name": "VaultAlreadyBootstrapped",
      "type": "error"
    },
    {
      "inputs": [],
      "name": "ZeroAddress",
      "type": "error"
    },
    {
      "anonymous": false,
      "inputs": [
        {
          "indexed": true,
          "internalType": "address",
          "name": "admin",
          "type": "address"
        }
      ],
      "name": "AllocationsUpdated",
      "type": "event"
    },
    {
      "anonymous": false,
      "inputs": [
        {
          "indexed": true,
          "internalType": "address",
          "name": "owner",
          "type": "address"
        },
        {
          "indexed": true,
          "internalType": "address",
          "name": "spender",
          "type": "address"
        },
        {
          "indexed": false,
          "internalType": "uint256",
          "name": "value",
          "type": "uint256"
        }
      ],
      "name": "Approval",
      "type": "event"
    },
    {
      "anonymous": false,
      "inputs": [
        {
          "indexed": true,
          "internalType": "address",
          "name": "sender",
          "type": "address"
        },
        {
          "indexed": true,
          "internalType": "address",
          "name": "owner",
          "type": "address"
        },
        {
          "indexed": false,
          "internalType": "uint256",
          "name": "assets",
          "type": "uint256"
        },
        {
          "indexed": false,
          "internalType": "uint256",
          "name": "shares",
          "type": "uint256"
        }
      ],
      "name": "Deposit",
      "type": "event"
    },
    {
      "anonymous": false,
      "inputs": [
        {
          "indexed": true,
          "internalType": "address",
          "name": "user",
          "type": "address"
        },
        {
          "indexed": false,
          "internalType": "uint256",
          "name": "amount",
          "type": "uint256"
        }
      ],
      "name": "Deposited",
      "type": "event"
    },
    {
      "anonymous": false,
      "inputs": [
        {
          "indexed": true,
          "internalType": "address",
          "name": "user",
          "type": "address"
        },
        {
          "indexed": false,
          "internalType": "uint256",
          "name": "assets",
          "type": "uint256"
        },
        {
          "indexed": false,
          "internalType": "uint256",
          "name": "fee",
          "type": "uint256"
        }
      ],
      "name": "ExitFeeApplied",
      "type": "event"
    },
    {
      "anonymous": false,
      "inputs": [
        {
          "indexed": true,
          "internalType": "address",
          "name": "receiver",
          "type": "address"
        },
        {
          "indexed": false,
          "internalType": "uint256",
          "name": "shares",
          "type": "uint256"
        }
      ],
      "name": "ManagementFeeAccrued",
      "type": "event"
    },
    {
      "anonymous": false,
      "inputs": [
        {
          "indexed": true,
          "internalType": "address",
          "name": "previousOwner",
          "type": "address"
        },
        {
          "indexed": true,
          "internalType": "address",
          "name": "newOwner",
          "type": "address"
        }
      ],
      "name": "OwnershipTransferred",
      "type": "event"
    },
    {
      "anonymous": false,
      "inputs": [
        {
          "indexed": false,
          "internalType": "address",
          "name": "account",
          "type": "address"
        }
      ],
      "name": "Paused",
      "type": "event"
    },
    {
      "anonymous": false,
      "inputs": [
        {
          "indexed": true,
          "internalType": "address",
          "name": "from",
          "type": "address"
        },
        {
          "indexed": true,
          "internalType": "address",
          "name": "to",
          "type": "address"
        },
        {
          "indexed": false,
          "internalType": "uint256",
          "name": "value",
          "type": "uint256"
        }
      ],
      "name": "Transfer",
      "type": "event"
    },
    {
      "anonymous": false,
      "inputs": [
        {
          "indexed": false,
          "internalType": "address",
          "name": "account",
          "type": "address"
        }
      ],
      "name": "Unpaused",
      "type": "event"
    },
    {
      "anonymous": false,
      "inputs": [
        {
          "indexed": true,
          "internalType": "address",
          "name": "sender",
          "type": "address"
        },
        {
          "indexed": true,
          "internalType": "address",
          "name": "receiver",
          "type": "address"
        },
        {
          "indexed": true,
          "internalType": "address",
          "name": "owner",
          "type": "address"
        },
        {
          "indexed": false,
          "internalType": "uint256",
          "name": "assets",
          "type": "uint256"
        },
        {
          "indexed": false,
          "internalType": "uint256",
          "name": "shares",
          "type": "uint256"
        }
      ],
      "name": "Withdraw",
      "type": "event"
    },
    {
      "anonymous": false,
      "inputs": [
        {
          "indexed": true,
          "internalType": "address",
          "name": "user",
          "type": "address"
        },
        {
          "indexed": true,
          "internalType": "address",
          "name": "receiver",
          "type": "address"
        },
        {
          "indexed": false,
          "internalType": "uint256",
          "name": "assets",
          "type": "uint256"
        }
      ],
      "name": "WithdrawExecuted",
      "type": "event"
    },
    {
      "stateMutability": "payable",
      "type": "fallback"
    },
    {
      "inputs": [],
      "name": "MAX_FEE_BPS",
      "outputs": [
        {
          "internalType": "uint256",
          "name": "",
          "type": "uint256"
        }
      ],
      "stateMutability": "view",
      "type": "function"
    },
    {
      "inputs": [
        {
          "internalType": "uint256",
          "name": "shares",
          "type": "uint256"
        }
      ],
      "name": "accrueManagementFee",
      "outputs": [],
      "stateMutability": "nonpayable",
      "type": "function"
    },
    {
      "inputs": [
        {
          "internalType": "uint256",
          "name": "",
          "type": "uint256"
        }
      ],
      "name": "allocations",
      "outputs": [
        {
          "internalType": "address",
          "name": "token",
          "type": "address"
        },
        {
          "internalType": "uint256",
          "name": "weight",
          "type": "uint256"
        },
        {
          "internalType": "bool",
          "name": "active",
          "type": "bool"
        }
      ],
      "stateMutability": "view",
      "type": "function"
    },
    {
      "inputs": [
        {
          "internalType": "address",
          "name": "owner",
          "type": "address"
        },
        {
          "internalType": "address",
          "name": "spender",
          "type": "address"
        }
      ],
      "name": "allowance",
      "outputs": [
        {
          "internalType": "uint256",
          "name": "",
          "type": "uint256"
        }
      ],
      "stateMutability": "view",
      "type": "function"
    },
    {
      "inputs": [
        {
          "internalType": "address",
          "name": "spender",
          "type": "address"
        },
        {
          "internalType": "uint256",
          "name": "value",
          "type": "uint256"
        }
      ],
      "name": "approve",
      "outputs": [
        {
          "internalType": "bool",
          "name": "",
          "type": "bool"
        }
      ],
      "stateMutability": "nonpayable",
      "type": "function"
    },
    {
      "inputs": [],
      "name": "asset",
      "outputs": [
        {
          "internalType": "address",
          "name": "",
          "type": "address"
        }
      ],
      "stateMutability": "view",
      "type": "function"
    },
    {
      "inputs": [
        {
          "internalType": "address",
          "name": "account",
          "type": "address"
        }
      ],
      "name": "balanceOf",
      "outputs": [
        {
          "internalType": "uint256",
          "name": "",
          "type": "uint256"
        }
      ],
      "stateMutability": "view",
      "type": "function"
    },
    {
      "inputs": [],
      "name": "bootstrapVault",
      "outputs": [],
      "stateMutability": "nonpayable",
      "type": "function"
    },
    {
      "inputs": [
        {
          "internalType": "uint256",
          "name": "shares",
          "type": "uint256"
        }
      ],
      "name": "convertToAssets",
      "outputs": [
        {
          "internalType": "uint256",
          "name": "",
          "type": "uint256"
        }
      ],
      "stateMutability": "view",
      "type": "function"
    },
    {
      "inputs": [
        {
          "internalType": "uint256",
          "name": "assets",
          "type": "uint256"
        }
      ],
      "name": "convertToShares",
      "outputs": [
        {
          "internalType": "uint256",
          "name": "",
          "type": "uint256"
        }
      ],
      "stateMutability": "view",
      "type": "function"
    },
    {
      "inputs": [],
      "name": "decimals",
      "outputs": [
        {
          "internalType": "uint8",
          "name": "",
          "type": "uint8"
        }
      ],
      "stateMutability": "view",
      "type": "function"
    },
    {
      "inputs": [
        {
          "internalType": "uint256",
          "name": "assets",
          "type": "uint256"
        },
        {
          "internalType": "address",
          "name": "receiver",
          "type": "address"
        }
      ],
      "name": "deposit",
      "outputs": [
        {
          "internalType": "uint256",
          "name": "",
          "type": "uint256"
        }
      ],
      "stateMutability": "nonpayable",
      "type": "function"
    },
    {
      "inputs": [],
      "name": "exitFeeBps",
      "outputs": [
        {
          "internalType": "uint256",
          "name": "",
          "type": "uint256"
        }
      ],
      "stateMutability": "view",
      "type": "function"
    },
    {
      "inputs": [],
      "name": "feeReceiver",
      "outputs": [
        {
          "internalType": "address",
          "name": "",
          "type": "address"
        }
      ],
      "stateMutability": "view",
      "type": "function"
    },
    {
      "inputs": [],
      "name": "getAllocations",
      "outputs": [
        {
          "components": [
            {
              "internalType": "address",
              "name": "token",
              "type": "address"
            },
            {
              "internalType": "uint256",
              "name": "weight",
              "type": "uint256"
            },
            {
              "internalType": "bool",
              "name": "active",
              "type": "bool"
            }
          ],
          "internalType": "struct Vault.AssetAllocation[]",
          "name": "",
          "type": "tuple[]"
        }
      ],
      "stateMutability": "view",
      "type": "function"
    },
    {
      "inputs": [
        {
          "internalType": "address",
          "name": "",
          "type": "address"
        }
      ],
      "name": "maxDeposit",
      "outputs": [
        {
          "internalType": "uint256",
          "name": "",
          "type": "uint256"
        }
      ],
      "stateMutability": "view",
      "type": "function"
    },
    {
      "inputs": [
        {
          "internalType": "address",
          "name": "",
          "type": "address"
        }
      ],
      "name": "maxMint",
      "outputs": [
        {
          "internalType": "uint256",
          "name": "",
          "type": "uint256"
        }
      ],
      "stateMutability": "view",
      "type": "function"
    },
    {
      "inputs": [
        {
          "internalType": "address",
          "name": "owner",
          "type": "address"
        }
      ],
      "name": "maxRedeem",
      "outputs": [
        {
          "internalType": "uint256",
          "name": "",
          "type": "uint256"
        }
      ],
      "stateMutability": "view",
      "type": "function"
    },
    {
      "inputs": [
        {
          "internalType": "address",
          "name": "owner",
          "type": "address"
        }
      ],
      "name": "maxWithdraw",
      "outputs": [
        {
          "internalType": "uint256",
          "name": "",
          "type": "uint256"
        }
      ],
      "stateMutability": "view",
      "type": "function"
    },
    {
      "inputs": [
        {
          "internalType": "uint256",
          "name": "shares",
          "type": "uint256"
        },
        {
          "internalType": "address",
          "name": "receiver",
          "type": "address"
        }
      ],
      "name": "mint",
      "outputs": [
        {
          "internalType": "uint256",
          "name": "",
          "type": "uint256"
        }
      ],
      "stateMutability": "nonpayable",
      "type": "function"
    },
    {
      "inputs": [],
      "name": "name",
      "outputs": [
        {
          "internalType": "string",
          "name": "",
          "type": "string"
        }
      ],
      "stateMutability": "view",
      "type": "function"
    },
    {
      "inputs": [],
      "name": "oracle",
      "outputs": [
        {
          "internalType": "contract IPriceOracle",
          "name": "",
          "type": "address"
        }
      ],
      "stateMutability": "view",
      "type": "function"
    },
    {
      "inputs": [],
      "name": "owner",
      "outputs": [
        {
          "internalType": "address",
          "name": "",
          "type": "address"
        }
      ],
      "stateMutability": "view",
      "type": "function"
    },
    {
      "inputs": [],
      "name": "pause",
      "outputs": [],
      "stateMutability": "nonpayable",
      "type": "function"
    },
    {
      "inputs": [],
      "name": "paused",
      "outputs": [
        {
          "internalType": "bool",
          "name": "",
          "type": "bool"
        }
      ],
      "stateMutability": "view",
      "type": "function"
    },
    {
      "inputs": [
        {
          "internalType": "uint256",
          "name": "assets",
          "type": "uint256"
        }
      ],
      "name": "previewDeposit",
      "outputs": [
        {
          "internalType": "uint256",
          "name": "",
          "type": "uint256"
        }
      ],
      "stateMutability": "view",
      "type": "function"
    },
    {
      "inputs": [
        {
          "internalType": "uint256",
          "name": "shares",
          "type": "uint256"
        }
      ],
      "name": "previewMint",
      "outputs": [
        {
          "internalType": "uint256",
          "name": "",
          "type": "uint256"
        }
      ],
      "stateMutability": "view",
      "type": "function"
    },
    {
      "inputs": [
        {
          "internalType": "uint256",
          "name": "shares",
          "type": "uint256"
        }
      ],
      "name": "previewRedeem",
      "outputs": [
        {
          "internalType": "uint256",
          "name": "",
          "type": "uint256"
        }
      ],
      "stateMutability": "view",
      "type": "function"
    },
    {
      "inputs": [
        {
          "internalType": "uint256",
          "name": "assets",
          "type": "uint256"
        }
      ],
      "name": "previewWithdraw",
      "outputs": [
        {
          "internalType": "uint256",
          "name": "",
          "type": "uint256"
        }
      ],
      "stateMutability": "view",
      "type": "function"
    },
    {
      "inputs": [
        {
          "internalType": "uint256",
          "name": "shares",
          "type": "uint256"
        },
        {
          "internalType": "address",
          "name": "receiver",
          "type": "address"
        },
        {
          "internalType": "address",
          "name": "owner",
          "type": "address"
        }
      ],
      "name": "redeem",
      "outputs": [
        {
          "internalType": "uint256",
          "name": "",
          "type": "uint256"
        }
      ],
      "stateMutability": "nonpayable",
      "type": "function"
    },
    {
      "inputs": [],
      "name": "registry",
      "outputs": [
        {
          "internalType": "contract TokenRegistry",
          "name": "",
          "type": "address"
        }
      ],
      "stateMutability": "view",
      "type": "function"
    },
    {
      "inputs": [],
      "name": "renounceOwnership",
      "outputs": [],
      "stateMutability": "nonpayable",
      "type": "function"
    },
    {
      "inputs": [
        {
          "components": [
            {
              "internalType": "address",
              "name": "token",
              "type": "address"
            },
            {
              "internalType": "uint256",
              "name": "weight",
              "type": "uint256"
            },
            {
              "internalType": "bool",
              "name": "active",
              "type": "bool"
            }
          ],
          "internalType": "struct Vault.AssetAllocation[]",
          "name": "newAllocations",
          "type": "tuple[]"
        }
      ],
      "name": "setAllocations",
      "outputs": [],
      "stateMutability": "nonpayable",
      "type": "function"
    },
    {
      "inputs": [
        {
          "internalType": "uint256",
          "name": "newFeeBps",
          "type": "uint256"
        }
      ],
      "name": "setExitFeeBps",
      "outputs": [],
      "stateMutability": "nonpayable",
      "type": "function"
    },
    {
      "inputs": [
        {
          "internalType": "address",
          "name": "newReceiver",
          "type": "address"
        }
      ],
      "name": "setFeeReceiver",
      "outputs": [],
      "stateMutability": "nonpayable",
      "type": "function"
    },
    {
      "inputs": [],
      "name": "strategyLabel",
      "outputs": [
        {
          "internalType": "string",
          "name": "",
          "type": "string"
        }
      ],
      "stateMutability": "view",
      "type": "function"
    },
    {
      "inputs": [],
      "name": "symbol",
      "outputs": [
        {
          "internalType": "string",
          "name": "",
          "type": "string"
        }
      ],
      "stateMutability": "view",
      "type": "function"
    },
    {
      "inputs": [],
      "name": "totalAssets",
      "outputs": [
        {
          "internalType": "uint256",
          "name": "",
          "type": "uint256"
        }
      ],
      "stateMutability": "view",
      "type": "function"
    },
    {
      "inputs": [],
      "name": "totalSupply",
      "outputs": [
        {
          "internalType": "uint256",
          "name": "",
          "type": "uint256"
        }
      ],
      "stateMutability": "view",
      "type": "function"
    },
    {
      "inputs": [
        {
          "internalType": "address",
          "name": "to",
          "type": "address"
        },
        {
          "internalType": "uint256",
          "name": "value",
          "type": "uint256"
        }
      ],
      "name": "transfer",
      "outputs": [
        {
          "internalType": "bool",
          "name": "",
          "type": "bool"
        }
      ],
      "stateMutability": "nonpayable",
      "type": "function"
    },
    {
      "inputs": [
        {
          "internalType": "address",
          "name": "from",
          "type": "address"
        },
        {
          "internalType": "address",
          "name": "to",
          "type": "address"
        },
        {
          "internalType": "uint256",
          "name": "value",
          "type": "uint256"
        }
      ],
      "name": "transferFrom",
      "outputs": [
        {
          "internalType": "bool",
          "name": "",
          "type": "bool"
        }
      ],
      "stateMutability": "nonpayable",
      "type": "function"
    },
    {
      "inputs": [
        {
          "internalType": "address",
          "name": "newOwner",
          "type": "address"
        }
      ],
      "name": "transferOwnership",
      "outputs": [],
      "stateMutability": "nonpayable",
      "type": "function"
    },
    {
      "inputs": [],
      "name": "treasury",
      "outputs": [
        {
          "internalType": "address",
          "name": "",
          "type": "address"
        }
      ],
      "stateMutability": "view",
      "type": "function"
    },
    {
      "inputs": [],
      "name": "unpause",
      "outputs": [],
      "stateMutability": "nonpayable",
      "type": "function"
    },
    {
      "inputs": [
        {
          "internalType": "uint256",
          "name": "assets",
          "type": "uint256"
        },
        {
          "internalType": "address",
          "name": "receiver",
          "type": "address"
        },
        {
          "internalType": "address",
          "name": "owner",
          "type": "address"
        }
      ],
      "name": "withdraw",
      "outputs": [
        {
          "internalType": "uint256",
          "name": "",
          "type": "uint256"
        }
      ],
      "stateMutability": "nonpayable",
      "type": "function"
    },
    {
      "stateMutability": "payable",
      "type": "receive"
    }
  ],
  "bytecode": "0x61012060405234801561001157600080fd5b50604051614d5b380380614d5b833981810160405281019061003391906106cf565b33856040518060400160405280601381526020017f4b696e6f736869205661756c74205368617265000000000000000000000000008152506040518060400160405280600681526020017f4b4e53485653000000000000000000000000000000000000000000000000000081525081600390816100b09190610987565b5080600490816100c09190610987565b5050506000806100d58361026c60201b60201c565b91509150816100e55760126100e7565b805b60ff1660a08160ff16815250508273ffffffffffffffffffffffffffffffffffffffff1660808173ffffffffffffffffffffffffffffffffffffffff1681525050505050600073ffffffffffffffffffffffffffffffffffffffff168173ffffffffffffffffffffffffffffffffffffffff160361019d5760006040517f1e4fbdf70000000000000000000000000000000000000000000000000000000081526004016101949190610a68565b60405180910390fd5b6101ac8161037c60201b60201c565b50600160068190555083600890816101c49190610987565b508273ffffffffffffffffffffffffffffffffffffffff1660c08173ffffffffffffffffffffffffffffffffffffffff16815250508173ffffffffffffffffffffffffffffffffffffffff1660e08173ffffffffffffffffffffffffffffffffffffffff16815250508073ffffffffffffffffffffffffffffffffffffffff166101008173ffffffffffffffffffffffffffffffffffffffff16815250505050505050610b3a565b6000806000808473ffffffffffffffffffffffffffffffffffffffff1660405160240160405160208183030381529060405263313ce56760e01b6020820180517bffffffffffffffffffffffffffffffffffffffffffffffffffffffff83818316178352505050506040516102e19190610aca565b600060405180830381855afa9150503d806000811461031c576040519150601f19603f3d011682016040523d82523d6000602084013e610321565b606091505b509150915081801561033557506020815110155b1561036d576000818060200190518101906103509190610b0d565b905060ff8016811161036b5760018194509450505050610377565b505b6000809350935050505b915091565b6000600560009054906101000a900473ffffffffffffffffffffffffffffffffffffffff16905081600560006101000a81548173ffffffffffffffffffffffffffffffffffffffff021916908373ffffffffffffffffffffffffffffffffffffffff1602179055508173ffffffffffffffffffffffffffffffffffffffff168173ffffffffffffffffffffffffffffffffffffffff167f8be0079c531659141344cd1fd0a4f28419497f9722a3daafe3b4186f6b6457e060405160405180910390a35050565b6000604051905090565b600080fd5b600080fd5b600073ffffffffffffffffffffffffffffffffffffffff82169050919050565b600061048182610456565b9050919050565b600061049382610476565b9050919050565b6104a381610488565b81146104ae57600080fd5b50565b6000815190506104c08161049a565b92915050565b600080fd5b600080fd5b6000601f19601f8301169050919050565b7f4e487b7100000000000000000000000000000000000000000000000000000000600052604160045260246000fd5b610519826104d0565b810181811067ffffffffffffffff82111715610538576105376104e1565b5b80604052505050565b600061054b610442565b90506105578282610510565b919050565b600067ffffffffffffffff821115610577576105766104e1565b5b610580826104d0565b9050602081019050919050565b60005b838110156105ab578082015181840152602081019050610590565b60008484015250505050565b60006105ca6105c58461055c565b610541565b9050828152602081018484840111156105e6576105e56104cb565b5b6105f184828561058d565b509392505050565b600082601f83011261060e5761060d6104c6565b5b815161061e8482602086016105b7565b91505092915050565b61063081610476565b811461063b57600080fd5b50565b60008151905061064d81610627565b92915050565b600061065e82610476565b9050919050565b61066e81610653565b811461067957600080fd5b50565b60008151905061068b81610665565b92915050565b600061069c82610476565b9050919050565b6106ac81610691565b81146106b757600080fd5b50565b6000815190506106c9816106a3565b92915050565b600080600080600060a086880312156106eb576106ea61044c565b5b60006106f9888289016104b1565b955050602086015167ffffffffffffffff81111561071a57610719610451565b5b610726888289016105f9565b94505060406107378882890161063e565b93505060606107488882890161067c565b9250506080610759888289016106ba565b9150509295509295909350565b600081519050919050565b7f4e487b7100000000000000000000000000000000000000000000000000000000600052602260045260246000fd5b600060028204905060018216806107b857607f821691505b6020821081036107cb576107ca610771565b5b50919050565b60008190508160005260206000209050919050565b60006020601f8301049050919050565b600082821b905092915050565b6000600883026108337fffffffffffffffffffffffffffffffffffffffffffffffffffffffffffffffff826107f6565b61083d86836107f6565b95508019841693508086168417925050509392505050565b6000819050919050565b6000819050919050565b600061088461087f61087a84610855565b61085f565b610855565b9050919050565b6000819050919050565b61089e83610869565b6108b26108aa8261088b565b848454610803565b825550505050565b600090565b6108c76108ba565b6108d2818484610895565b505050565b5b818110156108f6576108eb6000826108bf565b6001810190506108d8565b5050565b601f82111561093b5761090c816107d1565b610915846107e6565b81016020851015610924578190505b610938610930856107e6565b8301826108d7565b50505b505050565b600082821c905092915050565b600061095e60001984600802610940565b1980831691505092915050565b6000610977838361094d565b9150826002028217905092915050565b61099082610766565b67ffffffffffffffff8111156109a9576109a86104e1565b5b6109b382546107a0565b6109be8282856108fa565b600060209050601f8311600181146109f157600084156109df578287015190505b6109e9858261096b565b865550610a51565b601f1984166109ff866107d1565b60005b82811015610a2757848901518255600182019150602085019450602081019050610a02565b86831015610a445784890151610a40601f89168261094d565b8355505b6001600288020188555050505b505050505050565b610a6281610476565b82525050565b6000602082019050610a7d6000830184610a59565b92915050565b600081519050919050565b600081905092915050565b6000610aa482610a83565b610aae8185610a8e565b9350610abe81856020860161058d565b80840191505092915050565b6000610ad68284610a99565b915081905092915050565b610aea81610855565b8114610af557600080fd5b50565b600081519050610b0781610ae1565b92915050565b600060208284031215610b2357610b2261044c565b5b6000610b3184828501610af8565b91505092915050565b60805160a05160c05160e051610100516141ba610ba1600039600081816115d20152611f33015260008181611040015281816115ae0152611fd201526000818161127b015281816113730152611a2a015260006112ae015260006112e001526141ba6000f3fe6080604052600436106102765760003560e01c80637b1039991161014f578063c63d75b6116100c1578063dd62ed3e1161007a578063dd62ed3e14610a5e578063ddc563ca14610a9b578063ef8b30f714610ac4578063efdcd97414610b01578063f2fde38b14610b2a578063fc97bccc14610b53576102ad565b8063c63d75b614610916578063c6e6f59214610953578063ce96cb7714610990578063d55be8c6146109cd578063d905777e146109f8578063dd2d173b14610a35576102ad565b806395d89b411161011357806395d89b41146107cc578063a9059cbb146107f7578063b3d7f6b914610834578063b3f0067414610871578063b460af941461089c578063ba087652146108d9576102ad565b80637b103999146106f75780637dc0d1d0146107225780638456cb591461074d5780638da5cb5b1461076457806394bf804d1461078f576102ad565b806338d52e0f116101e85780635c975abb116101ac5780635c975abb146105e557806361d027b31461061057806365ed6e231461063b5780636e553f651461066657806370a08231146106a3578063715018a6146106e0576102ad565b806338d52e0f146104fe5780633f4ba83a14610529578063402d267d146105405780634cdad5061461057d57806357b17a52146105ba576102ad565b80630a28a4771161023a5780630a28a477146103ee578063134666791461042b57806318160ddd1461045457806323b872dd1461047f57806328f72834146104bc578063313ce567146104d3576102ad565b806301e1d114146102df57806306fdde031461030a57806307a2d13a14610335578063095ea7b3146103725780630a2642bf146103af576102ad565b366102ad576040517f3733483400000000000000000000000000000000000000000000000000000000815260040160405180910390fd5b6040517f3733483400000000000000000000000000000000000000000000000000000000815260040160405180910390fd5b3480156102eb57600080fd5b506102f4610b7e565b604051610301919061325f565b60405180910390f35b34801561031657600080fd5b5061031f610d2e565b60405161032c919061330a565b60405180910390f35b34801561034157600080fd5b5061035c6004803603810190610357919061336c565b610dc0565b604051610369919061325f565b60405180910390f35b34801561037e57600080fd5b50610399600480360381019061039491906133f7565b610dd4565b6040516103a69190613452565b60405180910390f35b3480156103bb57600080fd5b506103d660048036038101906103d1919061336c565b610df7565b6040516103e59392919061347c565b60405180910390f35b3480156103fa57600080fd5b506104156004803603810190610410919061336c565b610e5e565b604051610422919061325f565b60405180910390f35b34801561043757600080fd5b50610452600480360381019061044d9190613690565b610e72565b005b34801561046057600080fd5b506104696111ef565b604051610476919061325f565b60405180910390f35b34801561048b57600080fd5b506104a660048036038101906104a191906136d9565b6111f9565b6040516104b39190613452565b60405180910390f35b3480156104c857600080fd5b506104d1611228565b005b3480156104df57600080fd5b506104e86112a2565b6040516104f59190613748565b60405180910390f35b34801561050a57600080fd5b506105136112dc565b6040516105209190613763565b60405180910390f35b34801561053557600080fd5b5061053e611304565b005b34801561054c57600080fd5b506105676004803603810190610562919061377e565b611316565b604051610574919061325f565b60405180910390f35b34801561058957600080fd5b506105a4600480360381019061059f919061336c565b611340565b6040516105b1919061325f565b60405180910390f35b3480156105c657600080fd5b506105cf611354565b6040516105dc919061325f565b60405180910390f35b3480156105f157600080fd5b506105fa61135a565b6040516106079190613452565b60405180910390f35b34801561061c57600080fd5b50610625611371565b6040516106329190613763565b60405180910390f35b34801561064757600080fd5b50610650611395565b60405161065d91906138c9565b60405180910390f35b34801561067257600080fd5b5061068d600480360381019061068891906138eb565b61146f565b60405161069a919061325f565b60405180910390f35b3480156106af57600080fd5b506106ca60048036038101906106c5919061377e565b611550565b6040516106d7919061325f565b60405180910390f35b3480156106ec57600080fd5b506106f5611598565b005b34801561070357600080fd5b5061070c6115ac565b604051610719919061398a565b60405180910390f35b34801561072e57600080fd5b506107376115d0565b60405161074491906139c6565b60405180910390f35b34801561075957600080fd5b506107626115f4565b005b34801561077057600080fd5b50610779611606565b6040516107869190613763565b60405180910390f35b34801561079b57600080fd5b506107b660048036038101906107b191906138eb565b611630565b6040516107c3919061325f565b60405180910390f35b3480156107d857600080fd5b506107e16116b2565b6040516107ee919061330a565b60405180910390f35b34801561080357600080fd5b5061081e600480360381019061081991906133f7565b611744565b60405161082b9190613452565b60405180910390f35b34801561084057600080fd5b5061085b6004803603810190610856919061336c565b611767565b604051610868919061325f565b60405180910390f35b34801561087d57600080fd5b5061088661177b565b6040516108939190613763565b60405180910390f35b3480156108a857600080fd5b506108c360048036038101906108be91906139e1565b6117a1565b6040516108d0919061325f565b60405180910390f35b3480156108e557600080fd5b5061090060048036038101906108fb91906139e1565b6118ab565b60405161090d919061325f565b60405180910390f35b34801561092257600080fd5b5061093d6004803603810190610938919061377e565b611b11565b60405161094a919061325f565b60405180910390f35b34801561095f57600080fd5b5061097a6004803603810190610975919061336c565b611b3b565b604051610987919061325f565b60405180910390f35b34801561099c57600080fd5b506109b760048036038101906109b2919061377e565b611b4f565b6040516109c4919061325f565b60405180910390f35b3480156109d957600080fd5b506109e2611b6b565b6040516109ef919061325f565b60405180910390f35b348015610a0457600080fd5b50610a1f6004803603810190610a1a919061377e565b611b71565b604051610a2c919061325f565b60405180910390f35b348015610a4157600080fd5b50610a5c6004803603810190610a57919061336c565b611b83565b005b348015610a6a57600080fd5b50610a856004803603810190610a809190613a34565b611bda565b604051610a92919061325f565b60405180910390f35b348015610aa757600080fd5b50610ac26004803603810190610abd919061336c565b611c61565b005b348015610ad057600080fd5b50610aeb6004803603810190610ae6919061336c565b611d42565b604051610af8919061325f565b60405180910390f35b348015610b0d57600080fd5b50610b286004803603810190610b23919061377e565b611d56565b005b348015610b3657600080fd5b50610b516004803603810190610b4c919061377e565b611e08565b005b348015610b5f57600080fd5b50610b68611e8e565b604051610b75919061330a565b60405180910390f35b6000806000905060005b600780549050811015610d2657600060078281548110610bab57610baa613a74565b5b90600052602060002090600302016040518060600160405290816000820160009054906101000a900473ffffffffffffffffffffffffffffffffffffffff1673ffffffffffffffffffffffffffffffffffffffff1673ffffffffffffffffffffffffffffffffffffffff168152602001600182015481526020016002820160009054906101000a900460ff1615151515815250509050806040015115610d18576000816000015173ffffffffffffffffffffffffffffffffffffffff166370a08231306040518263ffffffff1660e01b8152600401610c8a9190613763565b602060405180830381865afa158015610ca7573d6000803e3d6000fd5b505050506040513d601f19601f82011682018060405250810190610ccb9190613ab8565b90506000610cdd836000015183611f1c565b90506000670de0b6b3a7640000846020015183610cfa9190613b14565b610d049190613b85565b90508086610d129190613bb6565b95505050505b508080600101915050610b88565b508091505090565b606060038054610d3d90613c19565b80601f0160208091040260200160405190810160405280929190818152602001828054610d6990613c19565b8015610db65780601f10610d8b57610100808354040283529160200191610db6565b820191906000526020600020905b815481529060010190602001808311610d9957829003601f168201915b5050505050905090565b6000610dcd826000612133565b9050919050565b600080610ddf61218c565b9050610dec818585612194565b600191505092915050565b60078181548110610e0757600080fd5b90600052602060002090600302016000915090508060000160009054906101000a900473ffffffffffffffffffffffffffffffffffffffff16908060010154908060020160009054906101000a900460ff16905083565b6000610e6b8260016121a6565b9050919050565b610e7a6121ff565b6000815111610ebe576040517f08c379a0000000000000000000000000000000000000000000000000000000008152600401610eb590613c96565b60405180910390fd5b60076000610ecc91906131c8565b600080600090505b825181101561116657600073ffffffffffffffffffffffffffffffffffffffff16838281518110610f0857610f07613a74565b5b60200260200101516000015173ffffffffffffffffffffffffffffffffffffffff1603610f61576040517fd92e233d00000000000000000000000000000000000000000000000000000000815260040160405180910390fd5b6007838281518110610f7657610f75613a74565b5b6020026020010151908060018154018082558091505060019003906000526020600020906003020160009091909190915060008201518160000160006101000a81548173ffffffffffffffffffffffffffffffffffffffff021916908373ffffffffffffffffffffffffffffffffffffffff1602179055506020820151816001015560408201518160020160006101000a81548160ff021916908315150217905550505082818151811061102d5761102c613a74565b5b60200260200101516040015115611159577f000000000000000000000000000000000000000000000000000000000000000073ffffffffffffffffffffffffffffffffffffffff166326aa101f84838151811061108d5761108c613a74565b5b6020026020010151600001516040518263ffffffff1660e01b81526004016110b59190613763565b602060405180830381865afa1580156110d2573d6000803e3d6000fd5b505050506040513d601f19601f820116820180604052508101906110f69190613ccb565b61112c576040517f259ba1ad00000000000000000000000000000000000000000000000000000000815260040160405180910390fd5b82818151811061113f5761113e613a74565b5b602002602001015160200151826111569190613bb6565b91505b8080600101915050610ed4565b50670de0b6b3a764000081146111a8576040517f940addc700000000000000000000000000000000000000000000000000000000815260040160405180910390fd5b3373ffffffffffffffffffffffffffffffffffffffff167fe12b8d1d4a7f7412a024aee54caca7fbc2f384591f10a085a28f47f518661c6460405160405180910390a25050565b6000600254905090565b60008061120461218c565b9050611211858285612286565b61121c85858561231b565b60019150509392505050565b6112306121ff565b600061123a6111ef565b1115611272576040517f5f9863ad00000000000000000000000000000000000000000000000000000000815260040160405180910390fd5b61129f620f42407f000000000000000000000000000000000000000000000000000000000000000061146f565b50565b60006112ac61240f565b7f00000000000000000000000000000000000000000000000000000000000000006112d79190613cf8565b905090565b60007f0000000000000000000000000000000000000000000000000000000000000000905090565b61130c6121ff565b611314612418565b565b60007fffffffffffffffffffffffffffffffffffffffffffffffffffffffffffffffff9050919050565b600061134d826000612133565b9050919050565b60095481565b6000600560149054906101000a900460ff16905090565b7f000000000000000000000000000000000000000000000000000000000000000081565b60606007805480602002602001604051908101604052809291908181526020016000905b8282101561146657838290600052602060002090600302016040518060600160405290816000820160009054906101000a900473ffffffffffffffffffffffffffffffffffffffff1673ffffffffffffffffffffffffffffffffffffffff1673ffffffffffffffffffffffffffffffffffffffff168152602001600182015481526020016002820160009054906101000a900460ff161515151581525050815260200190600101906113b9565b50505050905090565b600061147961135a565b156114b0576040517f059519da00000000000000000000000000000000000000000000000000000000815260040160405180910390fd5b600083036114ea576040517f2c5211c600000000000000000000000000000000000000000000000000000000815260040160405180910390fd5b60006114f6848461247b565b90508273ffffffffffffffffffffffffffffffffffffffff167f2da466a7b24304f47e87fa2e1e5a81b9831ce54fec19055ce277ca2f39ba42c48560405161153e919061325f565b60405180910390a28091505092915050565b60008060008373ffffffffffffffffffffffffffffffffffffffff1673ffffffffffffffffffffffffffffffffffffffff168152602001908152602001600020549050919050565b6115a06121ff565b6115aa60006124fd565b565b7f000000000000000000000000000000000000000000000000000000000000000081565b7f000000000000000000000000000000000000000000000000000000000000000081565b6115fc6121ff565b6116046125c3565b565b6000600560009054906101000a900473ffffffffffffffffffffffffffffffffffffffff16905090565b60008061163c83611b11565b905080841115611687578284826040517f284ff66700000000000000000000000000000000000000000000000000000000815260040161167e93929190613d2d565b60405180910390fd5b600061169285611767565b90506116a761169f61218c565b858388612626565b809250505092915050565b6060600480546116c190613c19565b80601f01602080910402602001604051908101604052809291908181526020018280546116ed90613c19565b801561173a5780601f1061170f5761010080835404028352916020019161173a565b820191906000526020600020905b81548152906001019060200180831161171d57829003601f168201915b5050505050905090565b60008061174f61218c565b905061175c81858561231b565b600191505092915050565b6000611774826001612133565b9050919050565b600a60009054906101000a900473ffffffffffffffffffffffffffffffffffffffff1681565b60006117ab61135a565b156117e2576040517f059519da00000000000000000000000000000000000000000000000000000000815260040160405180910390fd5b6117ea6126b0565b60008403611824576040517f2c5211c600000000000000000000000000000000000000000000000000000000815260040160405180910390fd5b60006118318585856126f6565b90508373ffffffffffffffffffffffffffffffffffffffff168373ffffffffffffffffffffffffffffffffffffffff167f29a0bcf57d42cd9503e61240cef8d4ae3c5982196af8c0f63b0585b3a3e87f3987604051611890919061325f565b60405180910390a3809150506118a461277a565b9392505050565b60006118b561135a565b156118ec576040517f059519da00000000000000000000000000000000000000000000000000000000815260040160405180910390fd5b6118f46126b0565b6000840361192e576040517f2c5211c600000000000000000000000000000000000000000000000000000000815260040160405180910390fd5b600061193985610dc0565b905060006127106009548361194e9190613b14565b6119589190613b85565b9050600081836119689190613d64565b9050611975873087612784565b5061197e6112dc565b73ffffffffffffffffffffffffffffffffffffffff1663a9059cbb87836040518363ffffffff1660e01b81526004016119b8929190613d98565b6020604051808303816000875af11580156119d7573d6000803e3d6000fd5b505050506040513d601f19601f820116820180604052508101906119fb9190613ccb565b506000821115611afc57611a0d6112dc565b73ffffffffffffffffffffffffffffffffffffffff1663a9059cbb7f0000000000000000000000000000000000000000000000000000000000000000846040518363ffffffff1660e01b8152600401611a67929190613d98565b6020604051808303816000875af1158015611a86573d6000803e3d6000fd5b505050506040513d601f19601f82011682018060405250810190611aaa9190613ccb565b508473ffffffffffffffffffffffffffffffffffffffff167f4391a67a435a77473a1d86760bc62594cba49fd7a8d4a69696f4a52709fc3c1c8484604051611af3929190613dc1565b60405180910390a25b809350505050611b0a61277a565b9392505050565b60007fffffffffffffffffffffffffffffffffffffffffffffffffffffffffffffffff9050919050565b6000611b488260006121a6565b9050919050565b6000611b64611b5d83611550565b6000612133565b9050919050565b6103e881565b6000611b7c82611550565b9050919050565b611b8b6121ff565b6103e8811115611bd0576040517f08c379a0000000000000000000000000000000000000000000000000000000008152600401611bc790613e36565b60405180910390fd5b8060098190555050565b6000600160008473ffffffffffffffffffffffffffffffffffffffff1673ffffffffffffffffffffffffffffffffffffffff16815260200190815260200160002060008373ffffffffffffffffffffffffffffffffffffffff1673ffffffffffffffffffffffffffffffffffffffff16815260200190815260200160002054905092915050565b611c696121ff565b60008103611ca3576040517f2c5211c600000000000000000000000000000000000000000000000000000000815260040160405180910390fd5b611ccf600a60009054906101000a900473ffffffffffffffffffffffffffffffffffffffff1682612808565b600a60009054906101000a900473ffffffffffffffffffffffffffffffffffffffff1673ffffffffffffffffffffffffffffffffffffffff167f7fee81b17a478a24780e52511d61b5efa31505eb290535ab360f99a30f7407d682604051611d37919061325f565b60405180910390a250565b6000611d4f8260006121a6565b9050919050565b611d5e6121ff565b600073ffffffffffffffffffffffffffffffffffffffff168173ffffffffffffffffffffffffffffffffffffffff1603611dc4576040517fd92e233d00000000000000000000000000000000000000000000000000000000815260040160405180910390fd5b80600a60006101000a81548173ffffffffffffffffffffffffffffffffffffffff021916908373ffffffffffffffffffffffffffffffffffffffff16021790555050565b611e106121ff565b600073ffffffffffffffffffffffffffffffffffffffff168173ffffffffffffffffffffffffffffffffffffffff1603611e825760006040517f1e4fbdf7000000000000000000000000000000000000000000000000000000008152600401611e799190613763565b60405180910390fd5b611e8b816124fd565b50565b60088054611e9b90613c19565b80601f0160208091040260200160405190810160405280929190818152602001828054611ec790613c19565b8015611f145780601f10611ee957610100808354040283529160200191611f14565b820191906000526020600020905b815481529060010190602001808311611ef757829003601f168201915b505050505081565b6000808203611f2e576000905061212d565b6000807f000000000000000000000000000000000000000000000000000000000000000073ffffffffffffffffffffffffffffffffffffffff166341976e09866040518263ffffffff1660e01b8152600401611f8a9190613763565b6040805180830381865afa158015611fa6573d6000803e3d6000fd5b505050506040513d601f19601f82011682018060405250810190611fca9190613e82565b9150915060007f000000000000000000000000000000000000000000000000000000000000000073ffffffffffffffffffffffffffffffffffffffff1663785c7cf6876040518263ffffffff1660e01b81526004016120299190613763565b602060405180830381865afa158015612046573d6000803e3d6000fd5b505050506040513d601f19601f8201168201806040525081019061206a9190613ec2565b60ff16905060068260ff1610158015612084575060068111155b156120d95780600a6120969190614022565b856006846120a4919061406d565b600a6120b091906140a2565b856120bb9190613b85565b6120c59190613b14565b6120cf9190613b85565b935050505061212d565b600082600a6120e891906140a2565b84876120f49190613b14565b6120fe9190613b85565b905081600a61210d9190614022565b620f42408261211c9190613b14565b6121269190613b85565b9450505050505b92915050565b60006121846001612142610b7e565b61214c9190613bb6565b61215461240f565b600a61216091906140a2565b6121686111ef565b6121729190613bb6565b848661288a909392919063ffffffff16565b905092915050565b600033905090565b6121a183838360016128d9565b505050565b60006121f76121b361240f565b600a6121bf91906140a2565b6121c76111ef565b6121d19190613bb6565b60016121db610b7e565b6121e59190613bb6565b848661288a909392919063ffffffff16565b905092915050565b61220761218c565b73ffffffffffffffffffffffffffffffffffffffff16612225611606565b73ffffffffffffffffffffffffffffffffffffffff16146122845761224861218c565b6040517f118cdaa700000000000000000000000000000000000000000000000000000000815260040161227b9190613763565b60405180910390fd5b565b60006122928484611bda565b90507fffffffffffffffffffffffffffffffffffffffffffffffffffffffffffffffff8110156123155781811015612305578281836040517ffb8f41b20000000000000000000000000000000000000000000000000000000081526004016122fc93929190613d2d565b60405180910390fd5b612314848484840360006128d9565b5b50505050565b600073ffffffffffffffffffffffffffffffffffffffff168373ffffffffffffffffffffffffffffffffffffffff160361238d5760006040517f96c6fd1e0000000000000000000000000000000000000000000000000000000081526004016123849190613763565b60405180910390fd5b600073ffffffffffffffffffffffffffffffffffffffff168273ffffffffffffffffffffffffffffffffffffffff16036123ff5760006040517fec442f050000000000000000000000000000000000000000000000000000000081526004016123f69190613763565b60405180910390fd5b61240a838383612ab0565b505050565b6000600c905090565b612420612cd5565b6000600560146101000a81548160ff0219169083151502179055507f5db9ee0a495bf2e6ff9c91a7834c1ba4fdd244a5e8aa4e537bd38aeae4b073aa61246461218c565b6040516124719190613763565b60405180910390a1565b60008061248783611316565b9050808411156124d2578284826040517f79012fb20000000000000000000000000000000000000000000000000000000081526004016124c993929190613d2d565b60405180910390fd5b60006124dd85611d42565b90506124f26124ea61218c565b858784612626565b809250505092915050565b6000600560009054906101000a900473ffffffffffffffffffffffffffffffffffffffff16905081600560006101000a81548173ffffffffffffffffffffffffffffffffffffffff021916908373ffffffffffffffffffffffffffffffffffffffff1602179055508173ffffffffffffffffffffffffffffffffffffffff168173ffffffffffffffffffffffffffffffffffffffff167f8be0079c531659141344cd1fd0a4f28419497f9722a3daafe3b4186f6b6457e060405160405180910390a35050565b6125cb612d15565b6001600560146101000a81548160ff0219169083151502179055507f62e78cea01bee320cd4e420270b5ea74000d11b0c9f74754ebdbfc544b05a25861260f61218c565b60405161261c9190613763565b60405180910390a1565b6126396126316112dc565b853085612d56565b6126438382612808565b8273ffffffffffffffffffffffffffffffffffffffff168473ffffffffffffffffffffffffffffffffffffffff167fdcbc1c05240f31ff3ad067ef1ee35ce4997762752e3a095284754544f4c709d784846040516126a2929190613dc1565b60405180910390a350505050565b6002600654036126ec576040517f3ee5aeb500000000000000000000000000000000000000000000000000000000815260040160405180910390fd5b6002600681905550565b60008061270283611b4f565b90508085111561274d578285826040517ffe9cceec00000000000000000000000000000000000000000000000000000000815260040161274493929190613d2d565b60405180910390fd5b600061275886610e5e565b905061276e61276561218c565b86868985612dd8565b80925050509392505050565b6001600681905550565b60008061279083611b71565b9050808511156127db578285826040517fb94abeec0000000000000000000000000000000000000000000000000000000081526004016127d293929190613d2d565b60405180910390fd5b60006127e686611340565b90506127fc6127f361218c565b8686848a612dd8565b80925050509392505050565b600073ffffffffffffffffffffffffffffffffffffffff168273ffffffffffffffffffffffffffffffffffffffff160361287a5760006040517fec442f050000000000000000000000000000000000000000000000000000000081526004016128719190613763565b60405180910390fd5b61288660008383612ab0565b5050565b60006128ba61289883612eb8565b80156128b55750600084806128b0576128af613b56565b5b868809115b612ee6565b6128c5868686612ef2565b6128cf9190613bb6565b9050949350505050565b600073ffffffffffffffffffffffffffffffffffffffff168473ffffffffffffffffffffffffffffffffffffffff160361294b5760006040517fe602df050000000000000000000000000000000000000000000000000000000081526004016129429190613763565b60405180910390fd5b600073ffffffffffffffffffffffffffffffffffffffff168373ffffffffffffffffffffffffffffffffffffffff16036129bd5760006040517f94280d620000000000000000000000000000000000000000000000000000000081526004016129b49190613763565b60405180910390fd5b81600160008673ffffffffffffffffffffffffffffffffffffffff1673ffffffffffffffffffffffffffffffffffffffff16815260200190815260200160002060008573ffffffffffffffffffffffffffffffffffffffff1673ffffffffffffffffffffffffffffffffffffffff168152602001908152602001600020819055508015612aaa578273ffffffffffffffffffffffffffffffffffffffff168473ffffffffffffffffffffffffffffffffffffffff167f8c5be1e5ebec7d5bd14f71427d1e84f3dd0314c0f7b2291e5b200ac8c7c3b92584604051612aa1919061325f565b60405180910390a35b50505050565b600073ffffffffffffffffffffffffffffffffffffffff168373ffffffffffffffffffffffffffffffffffffffff1603612b02578060026000828254612af69190613bb6565b92505081905550612bd5565b60008060008573ffffffffffffffffffffffffffffffffffffffff1673ffffffffffffffffffffffffffffffffffffffff16815260200190815260200160002054905081811015612b8e578381836040517fe450d38c000000000000000000000000000000000000000000000000000000008152600401612b8593929190613d2d565b60405180910390fd5b8181036000808673ffffffffffffffffffffffffffffffffffffffff1673ffffffffffffffffffffffffffffffffffffffff16815260200190815260200160002081905550505b600073ffffffffffffffffffffffffffffffffffffffff168273ffffffffffffffffffffffffffffffffffffffff1603612c1e5780600260008282540392505081905550612c6b565b806000808473ffffffffffffffffffffffffffffffffffffffff1673ffffffffffffffffffffffffffffffffffffffff168152602001908152602001600020600082825401925050819055505b8173ffffffffffffffffffffffffffffffffffffffff168373ffffffffffffffffffffffffffffffffffffffff167fddf252ad1be2c89b69c2b068fc378daa952ba7f163c4a11628f55a4df523b3ef83604051612cc8919061325f565b60405180910390a3505050565b612cdd61135a565b612d13576040517f8dfc202b00000000000000000000000000000000000000000000000000000000815260040160405180910390fd5b565b612d1d61135a565b15612d54576040517fd93c066500000000000000000000000000000000000000000000000000000000815260040160405180910390fd5b565b612dd2848573ffffffffffffffffffffffffffffffffffffffff166323b872dd868686604051602401612d8b939291906140ed565b604051602081830303815290604052915060e01b6020820180517bffffffffffffffffffffffffffffffffffffffffffffffffffffffff8381831617835250505050612fda565b50505050565b8273ffffffffffffffffffffffffffffffffffffffff168573ffffffffffffffffffffffffffffffffffffffff1614612e1757612e16838683612286565b5b612e21838261307c565b612e33612e2c6112dc565b85846130fe565b8273ffffffffffffffffffffffffffffffffffffffff168473ffffffffffffffffffffffffffffffffffffffff168673ffffffffffffffffffffffffffffffffffffffff167ffbde797d201c681b91056529119e0b02407c7bb96a4a2c75c01fc9667232c8db8585604051612ea9929190613dc1565b60405180910390a45050505050565b600060016002836003811115612ed157612ed0614124565b5b612edb9190614153565b60ff16149050919050565b60008115159050919050565b6000806000612f01868661317d565b9150915060008203612f2757838181612f1d57612f1c613b56565b5b0492505050612fd3565b818411612f4757612f46612f41600086146012601161319c565b6131b6565b5b600084868809905081811183039250808203915060008560000386169050808604955080830492506001818260000304019050808402831792506000600287600302189050808702600203810290508087026002038102905080870260020381029050808702600203810290508087026002038102905080870260020381029050808402955050505050505b9392505050565b600080602060008451602086016000885af180612ffd576040513d6000823e3d81fd5b3d925060005191505060008214613018576001811415613034565b60008473ffffffffffffffffffffffffffffffffffffffff163b145b1561307657836040517f5274afe700000000000000000000000000000000000000000000000000000000815260040161306d9190613763565b60405180910390fd5b50505050565b600073ffffffffffffffffffffffffffffffffffffffff168273ffffffffffffffffffffffffffffffffffffffff16036130ee5760006040517f96c6fd1e0000000000000000000000000000000000000000000000000000000081526004016130e59190613763565b60405180910390fd5b6130fa82600083612ab0565b5050565b613178838473ffffffffffffffffffffffffffffffffffffffff1663a9059cbb8585604051602401613131929190613d98565b604051602081830303815290604052915060e01b6020820180517bffffffffffffffffffffffffffffffffffffffffffffffffffffffff8381831617835250505050612fda565b505050565b6000806000198385098385029150818110828203039250509250929050565b60006131a784612ee6565b82841802821890509392505050565b634e487b71600052806020526024601cfd5b50805460008255600302906000526020600020908101906131e991906131ec565b50565b5b8082111561324257600080820160006101000a81549073ffffffffffffffffffffffffffffffffffffffff021916905560018201600090556002820160006101000a81549060ff0219169055506003016131ed565b5090565b6000819050919050565b61325981613246565b82525050565b60006020820190506132746000830184613250565b92915050565b600081519050919050565b600082825260208201905092915050565b60005b838110156132b4578082015181840152602081019050613299565b60008484015250505050565b6000601f19601f8301169050919050565b60006132dc8261327a565b6132e68185613285565b93506132f6818560208601613296565b6132ff816132c0565b840191505092915050565b6000602082019050818103600083015261332481846132d1565b905092915050565b6000604051905090565b600080fd5b600080fd5b61334981613246565b811461335457600080fd5b50565b60008135905061336681613340565b92915050565b60006020828403121561338257613381613336565b5b600061339084828501613357565b91505092915050565b600073ffffffffffffffffffffffffffffffffffffffff82169050919050565b60006133c482613399565b9050919050565b6133d4816133b9565b81146133df57600080fd5b50565b6000813590506133f1816133cb565b92915050565b6000806040838503121561340e5761340d613336565b5b600061341c858286016133e2565b925050602061342d85828601613357565b9150509250929050565b60008115159050919050565b61344c81613437565b82525050565b60006020820190506134676000830184613443565b92915050565b613476816133b9565b82525050565b6000606082019050613491600083018661346d565b61349e6020830185613250565b6134ab6040830184613443565b949350505050565b600080fd5b7f4e487b7100000000000000000000000000000000000000000000000000000000600052604160045260246000fd5b6134f0826132c0565b810181811067ffffffffffffffff8211171561350f5761350e6134b8565b5b80604052505050565b600061352261332c565b905061352e82826134e7565b919050565b600067ffffffffffffffff82111561354e5761354d6134b8565b5b602082029050602081019050919050565b600080fd5b600080fd5b61357281613437565b811461357d57600080fd5b50565b60008135905061358f81613569565b92915050565b6000606082840312156135ab576135aa613564565b5b6135b56060613518565b905060006135c5848285016133e2565b60008301525060206135d984828501613357565b60208301525060406135ed84828501613580565b60408301525092915050565b600061360c61360784613533565b613518565b9050808382526020820190506060840283018581111561362f5761362e61355f565b5b835b8181101561365857806136448882613595565b845260208401935050606081019050613631565b5050509392505050565b600082601f830112613677576136766134b3565b5b81356136878482602086016135f9565b91505092915050565b6000602082840312156136a6576136a5613336565b5b600082013567ffffffffffffffff8111156136c4576136c361333b565b5b6136d084828501613662565b91505092915050565b6000806000606084860312156136f2576136f1613336565b5b6000613700868287016133e2565b9350506020613711868287016133e2565b925050604061372286828701613357565b9150509250925092565b600060ff82169050919050565b6137428161372c565b82525050565b600060208201905061375d6000830184613739565b92915050565b6000602082019050613778600083018461346d565b92915050565b60006020828403121561379457613793613336565b5b60006137a2848285016133e2565b91505092915050565b600081519050919050565b600082825260208201905092915050565b6000819050602082019050919050565b6137e0816133b9565b82525050565b6137ef81613246565b82525050565b6137fe81613437565b82525050565b60608201600082015161381a60008501826137d7565b50602082015161382d60208501826137e6565b50604082015161384060408501826137f5565b50505050565b60006138528383613804565b60608301905092915050565b6000602082019050919050565b6000613876826137ab565b61388081856137b6565b935061388b836137c7565b8060005b838110156138bc5781516138a38882613846565b97506138ae8361385e565b92505060018101905061388f565b5085935050505092915050565b600060208201905081810360008301526138e3818461386b565b905092915050565b6000806040838503121561390257613901613336565b5b600061391085828601613357565b9250506020613921858286016133e2565b9150509250929050565b6000819050919050565b600061395061394b61394684613399565b61392b565b613399565b9050919050565b600061396282613935565b9050919050565b600061397482613957565b9050919050565b61398481613969565b82525050565b600060208201905061399f600083018461397b565b92915050565b60006139b082613957565b9050919050565b6139c0816139a5565b82525050565b60006020820190506139db60008301846139b7565b92915050565b6000806000606084860312156139fa576139f9613336565b5b6000613a0886828701613357565b9350506020613a19868287016133e2565b9250506040613a2a868287016133e2565b9150509250925092565b60008060408385031215613a4b57613a4a613336565b5b6000613a59858286016133e2565b9250506020613a6a858286016133e2565b9150509250929050565b7f4e487b7100000000000000000000000000000000000000000000000000000000600052603260045260246000fd5b600081519050613ab281613340565b92915050565b600060208284031215613ace57613acd613336565b5b6000613adc84828501613aa3565b91505092915050565b7f4e487b7100000000000000000000000000000000000000000000000000000000600052601160045260246000fd5b6000613b1f82613246565b9150613b2a83613246565b9250828202613b3881613246565b91508282048414831517613b4f57613b4e613ae5565b5b5092915050565b7f4e487b7100000000000000000000000000000000000000000000000000000000600052601260045260246000fd5b6000613b9082613246565b9150613b9b83613246565b925082613bab57613baa613b56565b5b828204905092915050565b6000613bc182613246565b9150613bcc83613246565b9250828201905080821115613be457613be3613ae5565b5b92915050565b7f4e487b7100000000000000000000000000000000000000000000000000000000600052602260045260246000fd5b60006002820490506001821680613c3157607f821691505b602082108103613c4457613c43613bea565b5b50919050565b7f416c6c6f636174696f6e732063616e6e6f7420626520656d7074790000000000600082015250565b6000613c80601b83613285565b9150613c8b82613c4a565b602082019050919050565b60006020820190508181036000830152613caf81613c73565b9050919050565b600081519050613cc581613569565b92915050565b600060208284031215613ce157613ce0613336565b5b6000613cef84828501613cb6565b91505092915050565b6000613d038261372c565b9150613d0e8361372c565b9250828201905060ff811115613d2757613d26613ae5565b5b92915050565b6000606082019050613d42600083018661346d565b613d4f6020830185613250565b613d5c6040830184613250565b949350505050565b6000613d6f82613246565b9150613d7a83613246565b9250828203905081811115613d9257613d91613ae5565b5b92915050565b6000604082019050613dad600083018561346d565b613dba6020830184613250565b9392505050565b6000604082019050613dd66000830185613250565b613de36020830184613250565b9392505050565b7f4665652065786365656473206d6178696d756d00000000000000000000000000600082015250565b6000613e20601383613285565b9150613e2b82613dea565b602082019050919050565b60006020820190508181036000830152613e4f81613e13565b9050919050565b613e5f8161372c565b8114613e6a57600080fd5b50565b600081519050613e7c81613e56565b92915050565b60008060408385031215613e9957613e98613336565b5b6000613ea785828601613aa3565b9250506020613eb885828601613e6d565b9150509250929050565b600060208284031215613ed857613ed7613336565b5b6000613ee684828501613e6d565b91505092915050565b60008160011c9050919050565b6000808291508390505b6001851115613f4657808604811115613f2257613f21613ae5565b5b6001851615613f315780820291505b8081029050613f3f85613eef565b9450613f06565b94509492505050565b600082613f5f576001905061401b565b81613f6d576000905061401b565b8160018114613f835760028114613f8d57613fbc565b600191505061401b565b60ff841115613f9f57613f9e613ae5565b5b8360020a915084821115613fb657613fb5613ae5565b5b5061401b565b5060208310610133831016604e8410600b8410161715613ff15782820a905083811115613fec57613feb613ae5565b5b61401b565b613ffe8484846001613efc565b9250905081840481111561401557614014613ae5565b5b81810290505b9392505050565b600061402d82613246565b915061403883613246565b92506140657fffffffffffffffffffffffffffffffffffffffffffffffffffffffffffffffff8484613f4f565b905092915050565b60006140788261372c565b91506140838361372c565b9250828203905060ff81111561409c5761409b613ae5565b5b92915050565b60006140ad82613246565b91506140b88361372c565b92506140e57fffffffffffffffffffffffffffffffffffffffffffffffffffffffffffffffff8484613f4f565b905092915050565b6000606082019050614102600083018661346d565b61410f602083018561346d565b61411c6040830184613250565b949350505050565b7f4e487b7100000000000000000000000000000000000000000000000000000000600052602160045260246000fd5b600061415e8261372c565b91506141698361372c565b92508261417957614178613b56565b5b82820690509291505056fea2646970667358221220185a863203bb0143ae04c486ba1f4ac0a45f1505ee3615fb7f11c7665223060e64736f6c634300081c0033",
  "linkReferences": {},
  "deployedLinkReferences": {}
}