{
  "_format": "hh-sol-artifact-1",
  "contractName": "Vault",
  "sourceName": "contracts/Vault.sol",
  "abi": [
    {
      "inputs": [
        {
          "internalType": "contract IERC20",
          "name": "asset_",
          "type": "address"
        },
        {
          "internalType": "string",
          "name": "label",
          "type": "string"
        },
        {
          "internalType": "address",
          "name": "treasury_",
          "type": "address"
        },
        {
          "internalType": "contract TokenRegistry",
          "name": "registry_",
          "type": "address"
        },
        {
          "internalType": "contract IPriceOracle",
          "name": "oracle_",
          "type": "address"
        }
      ],
      "stateMutability": "nonpayable",
      "type": "constructor"
    },
    {
      "inputs": [
        {
          "internalType": "address",
          "name": "spender",
          "type": "address"
        },
        {
          "internalType": "uint256",
          "name": "allowance",
          "type": "uint256"
        },
        {
          "internalType": "uint256",
          "name": "needed",
          "type": "uint256"
        }
      ],
      "name": "ERC20InsufficientAllowance",
      "type": "error"
    },
    {
      "inputs": [
        {
          "internalType": "address",
          "name": "sender",
          "type": "address"
        },
        {
          "internalType": "uint256",
          "name": "balance",
          "type": "uint256"
        },
        {
          "internalType": "uint256",
          "name": "needed",
          "type": "uint256"
        }
      ],
      "name": "ERC20InsufficientBalance",
      "type": "error"
    },
    {
      "inputs": [
        {
          "internalType": "address",
          "name": "approver",
          "type": "address"
        }
      ],
      "name": "ERC20InvalidApprover",
      "type": "error"
    },
    {
      "inputs": [
        {
          "internalType": "address",
          "name": "receiver",
          "type": "address"
        }
      ],
      "name": "ERC20InvalidReceiver",
      "type": "error"
    },
    {
      "inputs": [
        {
          "internalType": "address",
          "name": "sender",
          "type": "address"
        }
      ],
      "name": "ERC20InvalidSender",
      "type": "error"
    },
    {
      "inputs": [
        {
          "internalType": "address",
          "name": "spender",
          "type": "address"
        }
      ],
      "name": "ERC20InvalidSpender",
      "type": "error"
    },
    {
      "inputs": [
        {
          "internalType": "address",
          "name": "receiver",
          "type": "address"
        },
        {
          "internalType": "uint256",
          "name": "assets",
          "type": "uint256"
        },
        {
          "internalType": "uint256",
          "name": "max",
          "type": "uint256"
        }
      ],
      "name": "ERC4626ExceededMaxDeposit",
      "type": "error"
    },
    {
      "inputs": [
        {
          "internalType": "address",
          "name": "receiver",
          "type": "address"
        },
        {
          "internalType": "uint256",
          "name": "shares",
          "type": "uint256"
        },
        {
          "internalType": "uint256",
          "name": "max",
          "type": "uint256"
        }
      ],
      "name": "ERC4626ExceededMaxMint",
      "type": "error"
    },
    {
      "inputs": [
        {
          "internalType": "address",
          "name": "owner",
          "type": "address"
        },
        {
          "internalType": "uint256",
          "name": "shares",
          "type": "uint256"
        },
        {
          "internalType": "uint256",
          "name": "max",
          "type": "uint256"
        }
      ],
      "name": "ERC4626ExceededMaxRedeem",
      "type": "error"
    },
    {
      "inputs": [
        {
          "internalType": "address",
          "name": "owner",
          "type": "address"
        },
        {
          "internalType": "uint256",
          "name": "assets",
          "type": "uint256"
        },
        {
          "internalType": "uint256",
          "name": "max",
          "type": "uint256"
        }
      ],
      "name": "ERC4626ExceededMaxWithdraw",
      "type": "error"
    },
    {
      "inputs": [],
      "name": "EnforcedPause",
      "type": "error"
    },
    {
      "inputs": [],
      "name": "EtherNotAccepted",
      "type": "error"
    },
    {
      "inputs": [],
      "name": "ExpectedPause",
      "type": "error"
    },
    {
      "inputs": [],
      "name": "InvalidAmount",
      "type": "error"
    },
    {
      "inputs": [],
      "name": "InvalidWeightSum",
      "type": "error"
    },
    {
      "inputs": [
        {
          "internalType": "address",
          "name": "owner",
          "type": "address"
        }
      ],
      "name": "OwnableInvalidOwner",
      "type": "error"
    },
    {
      "inputs": [
        {
          "internalType": "address",
          "name": "account",
          "type": "address"
        }
      ],
      "name": "OwnableUnauthorizedAccount",
      "type": "error"
    },
    {
      "inputs": [],
      "name": "Pausable__Paused",
      "type": "error"
    },
    {
      "inputs": [],
      "name": "ReentrancyGuardReentrantCall",
      "type": "error"
    },
    {
      "inputs": [
        {
          "internalType": "address",
          "name": "token",
          "type": "address"
        }
      ],
      "name": "SafeERC20FailedOperation",
      "type": "error"
    },
    {
      "inputs": [],
      "name": "TokenNotRegistered",
      "type": "error"
    },
    {
      "inputs": [],
      "name": "VaultAlreadyBootstrapped",
      "type": "error"
    },
    {
      "inputs": [],
      "name": "ZeroAddress",
      "type": "error"
    },
    {
      "anonymous": false,
      "inputs": [
        {
          "indexed": true,
          "internalType": "address",
          "name": "admin",
          "type": "address"
        }
      ],
      "name": "AllocationsUpdated",
      "type": "event"
    },
    {
      "anonymous": false,
      "inputs": [
        {
          "indexed": true,
          "internalType": "address",
          "name": "owner",
          "type": "address"
        },
        {
          "indexed": true,
          "internalType": "address",
          "name": "spender",
          "type": "address"
        },
        {
          "indexed": false,
          "internalType": "uint256",
          "name": "value",
          "type": "uint256"
        }
      ],
      "name": "Approval",
      "type": "event"
    },
    {
      "anonymous": false,
      "inputs": [
        {
          "indexed": true,
          "internalType": "address",
          "name": "sender",
          "type": "address"
        },
        {
          "indexed": true,
          "internalType": "address",
          "name": "owner",
          "type": "address"
        },
        {
          "indexed": false,
          "internalType": "uint256",
          "name": "assets",
          "type": "uint256"
        },
        {
          "indexed": false,
          "internalType": "uint256",
          "name": "shares",
          "type": "uint256"
        }
      ],
      "name": "Deposit",
      "type": "event"
    },
    {
      "anonymous": false,
      "inputs": [
        {
          "indexed": true,
          "internalType": "address",
          "name": "user",
          "type": "address"
        },
        {
          "indexed": false,
          "internalType": "uint256",
          "name": "amount",
          "type": "uint256"
        }
      ],
      "name": "Deposited",
      "type": "event"
    },
    {
      "anonymous": false,
      "inputs": [
        {
          "indexed": true,
          "internalType": "address",
          "name": "user",
          "type": "address"
        },
        {
          "indexed": false,
          "internalType": "uint256",
          "name": "assets",
          "type": "uint256"
        },
        {
          "indexed": false,
          "internalType": "uint256",
          "name": "fee",
          "type": "uint256"
        }
      ],
      "name": "ExitFeeApplied",
      "type": "event"
    },
    {
      "anonymous": false,
      "inputs": [
        {
          "indexed": true,
          "internalType": "address",
          "name": "receiver",
          "type": "address"
        },
        {
          "indexed": false,
          "internalType": "uint256",
          "name": "shares",
          "type": "uint256"
        }
      ],
      "name": "ManagementFeeAccrued",
      "type": "event"
    },
    {
      "anonymous": false,
      "inputs": [
        {
          "indexed": true,
          "internalType": "address",
          "name": "previousOwner",
          "type": "address"
        },
        {
          "indexed": true,
          "internalType": "address",
          "name": "newOwner",
          "type": "address"
        }
      ],
      "name": "OwnershipTransferred",
      "type": "event"
    },
    {
      "anonymous": false,
      "inputs": [
        {
          "indexed": false,
          "internalType": "address",
          "name": "account",
          "type": "address"
        }
      ],
      "name": "Paused",
      "type": "event"
    },
    {
      "anonymous": false,
      "inputs": [
        {
          "indexed": true,
          "internalType": "address",
          "name": "from",
          "type": "address"
        },
        {
          "indexed": true,
          "internalType": "address",
          "name": "to",
          "type": "address"
        },
        {
          "indexed": false,
          "internalType": "uint256",
          "name": "value",
          "type": "uint256"
        }
      ],
      "name": "Transfer",
      "type": "event"
    },
    {
      "anonymous": false,
      "inputs": [
        {
          "indexed": false,
          "internalType": "address",
          "name": "account",
          "type": "address"
        }
      ],
      "name": "Unpaused",
      "type": "event"
    },
    {
      "anonymous": false,
      "inputs": [
        {
          "indexed": true,
          "internalType": "address",
          "name": "sender",
          "type": "address"
        },
        {
          "indexed": true,
          "internalType": "address",
          "name": "receiver",
          "type": "address"
        },
        {
          "indexed": true,
          "internalType": "address",
          "name": "owner",
          "type": "address"
        },
        {
          "indexed": false,
          "internalType": "uint256",
          "name": "assets",
          "type": "uint256"
        },
        {
          "indexed": false,
          "internalType": "uint256",
          "name": "shares",
          "type": "uint256"
        }
      ],
      "name": "Withdraw",
      "type": "event"
    },
    {
      "anonymous": false,
      "inputs": [
        {
          "indexed": true,
          "internalType": "address",
          "name": "user",
          "type": "address"
        },
        {
          "indexed": true,
          "internalType": "address",
          "name": "receiver",
          "type": "address"
        },
        {
          "indexed": false,
          "internalType": "uint256",
          "name": "assets",
          "type": "uint256"
        }
      ],
      "name": "WithdrawExecuted",
      "type": "event"
    },
    {
      "stateMutability": "payable",
      "type": "fallback"
    },
    {
      "inputs": [],
      "name": "MAX_FEE_BPS",
      "outputs": [
        {
          "internalType": "uint256",
          "name": "",
          "type": "uint256"
        }
      ],
      "stateMutability": "view",
      "type": "function"
    },
    {
      "inputs": [
        {
          "internalType": "uint256",
          "name": "shares",
          "type": "uint256"
        }
      ],
      "name": "accrueManagementFee",
      "outputs": [],
      "stateMutability": "nonpayable",
      "type": "function"
    },
    {
      "inputs": [
        {
          "internalType": "uint256",
          "name": "",
          "type": "uint256"
        }
      ],
      "name": "allocations",
      "outputs": [
        {
          "internalType": "address",
          "name": "token",
          "type": "address"
        },
        {
          "internalType": "uint256",
          "name": "weight",
          "type": "uint256"
        },
        {
          "internalType": "bool",
          "name": "active",
          "type": "bool"
        }
      ],
      "stateMutability": "view",
      "type": "function"
    },
    {
      "inputs": [
        {
          "internalType": "address",
          "name": "owner",
          "type": "address"
        },
        {
          "internalType": "address",
          "name": "spender",
          "type": "address"
        }
      ],
      "name": "allowance",
      "outputs": [
        {
          "internalType": "uint256",
          "name": "",
          "type": "uint256"
        }
      ],
      "stateMutability": "view",
      "type": "function"
    },
    {
      "inputs": [
        {
          "internalType": "address",
          "name": "spender",
          "type": "address"
        },
        {
          "internalType": "uint256",
          "name": "value",
          "type": "uint256"
        }
      ],
      "name": "approve",
      "outputs": [
        {
          "internalType": "bool",
          "name": "",
          "type": "bool"
        }
      ],
      "stateMutability": "nonpayable",
      "type": "function"
    },
    {
      "inputs": [],
      "name": "asset",
      "outputs": [
        {
          "internalType": "address",
          "name": "",
          "type": "address"
        }
      ],
      "stateMutability": "view",
      "type": "function"
    },
    {
      "inputs": [
        {
          "internalType": "address",
          "name": "account",
          "type": "address"
        }
      ],
      "name": "balanceOf",
      "outputs": [
        {
          "internalType": "uint256",
          "name": "",
          "type": "uint256"
        }
      ],
      "stateMutability": "view",
      "type": "function"
    },
    {
      "inputs": [],
      "name": "bootstrapVault",
      "outputs": [],
      "stateMutability": "nonpayable",
      "type": "function"
    },
    {
      "inputs": [
        {
          "internalType": "uint256",
          "name": "shares",
          "type": "uint256"
        }
      ],
      "name": "convertToAssets",
      "outputs": [
        {
          "internalType": "uint256",
          "name": "",
          "type": "uint256"
        }
      ],
      "stateMutability": "view",
      "type": "function"
    },
    {
      "inputs": [
        {
          "internalType": "uint256",
          "name": "assets",
          "type": "uint256"
        }
      ],
      "name": "convertToShares",
      "outputs": [
        {
          "internalType": "uint256",
          "name": "",
          "type": "uint256"
        }
      ],
      "stateMutability": "view",
      "type": "function"
    },
    {
      "inputs": [],
      "name": "decimals",
      "outputs": [
        {
          "internalType": "uint8",
          "name": "",
          "type": "uint8"
        }
      ],
      "stateMutability": "view",
      "type": "function"
    },
    {
      "inputs": [
        {
          "internalType": "uint256",
          "name": "assets",
          "type": "uint256"
        },
        {
          "internalType": "address",
          "name": "receiver",
          "type": "address"
        }
      ],
      "name": "deposit",
      "outputs": [
        {
          "internalType": "uint256",
          "name": "",
          "type": "uint256"
        }
      ],
      "stateMutability": "nonpayable",
      "type": "function"
    },
    {
      "inputs": [],
      "name": "exitFeeBps",
      "outputs": [
        {
          "internalType": "uint256",
          "name": "",
          "type": "uint256"
        }
      ],
      "stateMutability": "view",
      "type": "function"
    },
    {
      "inputs": [],
      "name": "feeReceiver",
      "outputs": [
        {
          "internalType": "address",
          "name": "",
          "type": "address"
        }
      ],
      "stateMutability": "view",
      "type": "function"
    },
    {
      "inputs": [],
      "name": "getAllocations",
      "outputs": [
        {
          "components": [
            {
              "internalType": "address",
              "name": "token",
              "type": "address"
            },
            {
              "internalType": "uint256",
              "name": "weight",
              "type": "uint256"
            },
            {
              "internalType": "bool",
              "name": "active",
              "type": "bool"
            }
          ],
          "internalType": "struct Vault.AssetAllocation[]",
          "name": "",
          "type": "tuple[]"
        }
      ],
      "stateMutability": "view",
      "type": "function"
    },
    {
      "inputs": [
        {
          "internalType": "address",
          "name": "",
          "type": "address"
        }
      ],
      "name": "isAdmin",
      "outputs": [
        {
          "internalType": "bool",
          "name": "",
          "type": "bool"
        }
      ],
      "stateMutability": "view",
      "type": "function"
    },
    {
      "inputs": [
        {
          "internalType": "address",
          "name": "",
          "type": "address"
        }
      ],
      "name": "isWhitelisted",
      "outputs": [
        {
          "internalType": "bool",
          "name": "",
          "type": "bool"
        }
      ],
      "stateMutability": "view",
      "type": "function"
    },
    {
      "inputs": [
        {
          "internalType": "address",
          "name": "",
          "type": "address"
        }
      ],
      "name": "maxDeposit",
      "outputs": [
        {
          "internalType": "uint256",
          "name": "",
          "type": "uint256"
        }
      ],
      "stateMutability": "view",
      "type": "function"
    },
    {
      "inputs": [
        {
          "internalType": "address",
          "name": "",
          "type": "address"
        }
      ],
      "name": "maxMint",
      "outputs": [
        {
          "internalType": "uint256",
          "name": "",
          "type": "uint256"
        }
      ],
      "stateMutability": "view",
      "type": "function"
    },
    {
      "inputs": [
        {
          "internalType": "address",
          "name": "owner",
          "type": "address"
        }
      ],
      "name": "maxRedeem",
      "outputs": [
        {
          "internalType": "uint256",
          "name": "",
          "type": "uint256"
        }
      ],
      "stateMutability": "view",
      "type": "function"
    },
    {
      "inputs": [
        {
          "internalType": "address",
          "name": "owner",
          "type": "address"
        }
      ],
      "name": "maxWithdraw",
      "outputs": [
        {
          "internalType": "uint256",
          "name": "",
          "type": "uint256"
        }
      ],
      "stateMutability": "view",
      "type": "function"
    },
    {
      "inputs": [
        {
          "internalType": "uint256",
          "name": "shares",
          "type": "uint256"
        },
        {
          "internalType": "address",
          "name": "receiver",
          "type": "address"
        }
      ],
      "name": "mint",
      "outputs": [
        {
          "internalType": "uint256",
          "name": "",
          "type": "uint256"
        }
      ],
      "stateMutability": "nonpayable",
      "type": "function"
    },
    {
      "inputs": [],
      "name": "name",
      "outputs": [
        {
          "internalType": "string",
          "name": "",
          "type": "string"
        }
      ],
      "stateMutability": "view",
      "type": "function"
    },
    {
      "inputs": [],
      "name": "oracle",
      "outputs": [
        {
          "internalType": "contract IPriceOracle",
          "name": "",
          "type": "address"
        }
      ],
      "stateMutability": "view",
      "type": "function"
    },
    {
      "inputs": [],
      "name": "owner",
      "outputs": [
        {
          "internalType": "address",
          "name": "",
          "type": "address"
        }
      ],
      "stateMutability": "view",
      "type": "function"
    },
    {
      "inputs": [],
      "name": "pause",
      "outputs": [],
      "stateMutability": "nonpayable",
      "type": "function"
    },
    {
      "inputs": [],
      "name": "paused",
      "outputs": [
        {
          "internalType": "bool",
          "name": "",
          "type": "bool"
        }
      ],
      "stateMutability": "view",
      "type": "function"
    },
    {
      "inputs": [
        {
          "internalType": "uint256",
          "name": "assets",
          "type": "uint256"
        }
      ],
      "name": "previewDeposit",
      "outputs": [
        {
          "internalType": "uint256",
          "name": "",
          "type": "uint256"
        }
      ],
      "stateMutability": "view",
      "type": "function"
    },
    {
      "inputs": [
        {
          "internalType": "uint256",
          "name": "shares",
          "type": "uint256"
        }
      ],
      "name": "previewMint",
      "outputs": [
        {
          "internalType": "uint256",
          "name": "",
          "type": "uint256"
        }
      ],
      "stateMutability": "view",
      "type": "function"
    },
    {
      "inputs": [
        {
          "internalType": "uint256",
          "name": "shares",
          "type": "uint256"
        }
      ],
      "name": "previewRedeem",
      "outputs": [
        {
          "internalType": "uint256",
          "name": "",
          "type": "uint256"
        }
      ],
      "stateMutability": "view",
      "type": "function"
    },
    {
      "inputs": [
        {
          "internalType": "uint256",
          "name": "assets",
          "type": "uint256"
        }
      ],
      "name": "previewWithdraw",
      "outputs": [
        {
          "internalType": "uint256",
          "name": "",
          "type": "uint256"
        }
      ],
      "stateMutability": "view",
      "type": "function"
    },
    {
      "inputs": [
        {
          "internalType": "uint256",
          "name": "shares",
          "type": "uint256"
        },
        {
          "internalType": "address",
          "name": "receiver",
          "type": "address"
        },
        {
          "internalType": "address",
          "name": "owner",
          "type": "address"
        }
      ],
      "name": "redeem",
      "outputs": [
        {
          "internalType": "uint256",
          "name": "",
          "type": "uint256"
        }
      ],
      "stateMutability": "nonpayable",
      "type": "function"
    },
    {
      "inputs": [],
      "name": "registry",
      "outputs": [
        {
          "internalType": "contract TokenRegistry",
          "name": "",
          "type": "address"
        }
      ],
      "stateMutability": "view",
      "type": "function"
    },
    {
      "inputs": [],
      "name": "renounceOwnership",
      "outputs": [],
      "stateMutability": "nonpayable",
      "type": "function"
    },
    {
      "inputs": [
        {
          "internalType": "address",
          "name": "_addr",
          "type": "address"
        },
        {
          "internalType": "bool",
          "name": "_status",
          "type": "bool"
        }
      ],
      "name": "setAdmin",
      "outputs": [],
      "stateMutability": "nonpayable",
      "type": "function"
    },
    {
      "inputs": [
        {
          "components": [
            {
              "internalType": "address",
              "name": "token",
              "type": "address"
            },
            {
              "internalType": "uint256",
              "name": "weight",
              "type": "uint256"
            },
            {
              "internalType": "bool",
              "name": "active",
              "type": "bool"
            }
          ],
          "internalType": "struct Vault.AssetAllocation[]",
          "name": "newAllocations",
          "type": "tuple[]"
        }
      ],
      "name": "setAllocations",
      "outputs": [],
      "stateMutability": "nonpayable",
      "type": "function"
    },
    {
      "inputs": [
        {
          "internalType": "uint256",
          "name": "newFeeBps",
          "type": "uint256"
        }
      ],
      "name": "setExitFeeBps",
      "outputs": [],
      "stateMutability": "nonpayable",
      "type": "function"
    },
    {
      "inputs": [
        {
          "internalType": "address",
          "name": "newReceiver",
          "type": "address"
        }
      ],
      "name": "setFeeReceiver",
      "outputs": [],
      "stateMutability": "nonpayable",
      "type": "function"
    },
    {
      "inputs": [
        {
          "internalType": "address",
          "name": "_addr",
          "type": "address"
        },
        {
          "internalType": "bool",
          "name": "_status",
          "type": "bool"
        }
      ],
      "name": "setWhitelisted",
      "outputs": [],
      "stateMutability": "nonpayable",
      "type": "function"
    },
    {
      "inputs": [],
      "name": "strategyLabel",
      "outputs": [
        {
          "internalType": "string",
          "name": "",
          "type": "string"
        }
      ],
      "stateMutability": "view",
      "type": "function"
    },
    {
      "inputs": [],
      "name": "symbol",
      "outputs": [
        {
          "internalType": "string",
          "name": "",
          "type": "string"
        }
      ],
      "stateMutability": "view",
      "type": "function"
    },
    {
      "inputs": [],
      "name": "totalAssets",
      "outputs": [
        {
          "internalType": "uint256",
          "name": "",
          "type": "uint256"
        }
      ],
      "stateMutability": "view",
      "type": "function"
    },
    {
      "inputs": [],
      "name": "totalSupply",
      "outputs": [
        {
          "internalType": "uint256",
          "name": "",
          "type": "uint256"
        }
      ],
      "stateMutability": "view",
      "type": "function"
    },
    {
      "inputs": [
        {
          "internalType": "address",
          "name": "to",
          "type": "address"
        },
        {
          "internalType": "uint256",
          "name": "value",
          "type": "uint256"
        }
      ],
      "name": "transfer",
      "outputs": [
        {
          "internalType": "bool",
          "name": "",
          "type": "bool"
        }
      ],
      "stateMutability": "nonpayable",
      "type": "function"
    },
    {
      "inputs": [
        {
          "internalType": "address",
          "name": "from",
          "type": "address"
        },
        {
          "internalType": "address",
          "name": "to",
          "type": "address"
        },
        {
          "internalType": "uint256",
          "name": "value",
          "type": "uint256"
        }
      ],
      "name": "transferFrom",
      "outputs": [
        {
          "internalType": "bool",
          "name": "",
          "type": "bool"
        }
      ],
      "stateMutability": "nonpayable",
      "type": "function"
    },
    {
      "inputs": [
        {
          "internalType": "address",
          "name": "newOwner",
          "type": "address"
        }
      ],
      "name": "transferOwnership",
      "outputs": [],
      "stateMutability": "nonpayable",
      "type": "function"
    },
    {
      "inputs": [],
      "name": "treasury",
      "outputs": [
        {
          "internalType": "address",
          "name": "",
          "type": "address"
        }
      ],
      "stateMutability": "view",
      "type": "function"
    },
    {
      "inputs": [],
      "name": "unpause",
      "outputs": [],
      "stateMutability": "nonpayable",
      "type": "function"
    },
    {
      "inputs": [
        {
          "internalType": "uint256",
          "name": "assets",
          "type": "uint256"
        },
        {
          "internalType": "address",
          "name": "receiver",
          "type": "address"
        },
        {
          "internalType": "address",
          "name": "owner",
          "type": "address"
        }
      ],
      "name": "withdraw",
      "outputs": [
        {
          "internalType": "uint256",
          "name": "",
          "type": "uint256"
        }
      ],
      "stateMutability": "nonpayable",
      "type": "function"
    },
    {
      "stateMutability": "payable",
      "type": "receive"
    }
  ],
  "bytecode": "0x61012060405234801561001157600080fd5b50604051614fa9380380614fa9833981810160405281019061003391906106cf565b33856040518060400160405280601381526020017f4b696e6f736869205661756c74205368617265000000000000000000000000008152506040518060400160405280600681526020017f4b4e53485653000000000000000000000000000000000000000000000000000081525081600390816100b09190610987565b5080600490816100c09190610987565b5050506000806100d58361026c60201b60201c565b91509150816100e55760126100e7565b805b60ff1660a08160ff16815250508273ffffffffffffffffffffffffffffffffffffffff1660808173ffffffffffffffffffffffffffffffffffffffff1681525050505050600073ffffffffffffffffffffffffffffffffffffffff168173ffffffffffffffffffffffffffffffffffffffff160361019d5760006040517f1e4fbdf70000000000000000000000000000000000000000000000000000000081526004016101949190610a68565b60405180910390fd5b6101ac8161037c60201b60201c565b50600160068190555083600890816101c49190610987565b508273ffffffffffffffffffffffffffffffffffffffff1660c08173ffffffffffffffffffffffffffffffffffffffff16815250508173ffffffffffffffffffffffffffffffffffffffff1660e08173ffffffffffffffffffffffffffffffffffffffff16815250508073ffffffffffffffffffffffffffffffffffffffff166101008173ffffffffffffffffffffffffffffffffffffffff16815250505050505050610b3a565b6000806000808473ffffffffffffffffffffffffffffffffffffffff1660405160240160405160208183030381529060405263313ce56760e01b6020820180517bffffffffffffffffffffffffffffffffffffffffffffffffffffffff83818316178352505050506040516102e19190610aca565b600060405180830381855afa9150503d806000811461031c576040519150601f19603f3d011682016040523d82523d6000602084013e610321565b606091505b509150915081801561033557506020815110155b1561036d576000818060200190518101906103509190610b0d565b905060ff8016811161036b5760018194509450505050610377565b505b6000809350935050505b915091565b6000600560009054906101000a900473ffffffffffffffffffffffffffffffffffffffff16905081600560006101000a81548173ffffffffffffffffffffffffffffffffffffffff021916908373ffffffffffffffffffffffffffffffffffffffff1602179055508173ffffffffffffffffffffffffffffffffffffffff168173ffffffffffffffffffffffffffffffffffffffff167f8be0079c531659141344cd1fd0a4f28419497f9722a3daafe3b4186f6b6457e060405160405180910390a35050565b6000604051905090565b600080fd5b600080fd5b600073ffffffffffffffffffffffffffffffffffffffff82169050919050565b600061048182610456565b9050919050565b600061049382610476565b9050919050565b6104a381610488565b81146104ae57600080fd5b50565b6000815190506104c08161049a565b92915050565b600080fd5b600080fd5b6000601f19601f8301169050919050565b7f4e487b7100000000000000000000000000000000000000000000000000000000600052604160045260246000fd5b610519826104d0565b810181811067ffffffffffffffff82111715610538576105376104e1565b5b80604052505050565b600061054b610442565b90506105578282610510565b919050565b600067ffffffffffffffff821115610577576105766104e1565b5b610580826104d0565b9050602081019050919050565b60005b838110156105ab578082015181840152602081019050610590565b60008484015250505050565b60006105ca6105c58461055c565b610541565b9050828152602081018484840111156105e6576105e56104cb565b5b6105f184828561058d565b509392505050565b600082601f83011261060e5761060d6104c6565b5b815161061e8482602086016105b7565b91505092915050565b61063081610476565b811461063b57600080fd5b50565b60008151905061064d81610627565b92915050565b600061065e82610476565b9050919050565b61066e81610653565b811461067957600080fd5b50565b60008151905061068b81610665565b92915050565b600061069c82610476565b9050919050565b6106ac81610691565b81146106b757600080fd5b50565b6000815190506106c9816106a3565b92915050565b600080600080600060a086880312156106eb576106ea61044c565b5b60006106f9888289016104b1565b955050602086015167ffffffffffffffff81111561071a57610719610451565b5b610726888289016105f9565b94505060406107378882890161063e565b93505060606107488882890161067c565b9250506080610759888289016106ba565b9150509295509295909350565b600081519050919050565b7f4e487b7100000000000000000000000000000000000000000000000000000000600052602260045260246000fd5b600060028204905060018216806107b857607f821691505b6020821081036107cb576107ca610771565b5b50919050565b60008190508160005260206000209050919050565b60006020601f8301049050919050565b600082821b905092915050565b6000600883026108337fffffffffffffffffffffffffffffffffffffffffffffffffffffffffffffffff826107f6565b61083d86836107f6565b95508019841693508086168417925050509392505050565b6000819050919050565b6000819050919050565b600061088461087f61087a84610855565b61085f565b610855565b9050919050565b6000819050919050565b61089e83610869565b6108b26108aa8261088b565b848454610803565b825550505050565b600090565b6108c76108ba565b6108d2818484610895565b505050565b5b818110156108f6576108eb6000826108bf565b6001810190506108d8565b5050565b601f82111561093b5761090c816107d1565b610915846107e6565b81016020851015610924578190505b610938610930856107e6565b8301826108d7565b50505b505050565b600082821c905092915050565b600061095e60001984600802610940565b1980831691505092915050565b6000610977838361094d565b9150826002028217905092915050565b61099082610766565b67ffffffffffffffff8111156109a9576109a86104e1565b5b6109b382546107a0565b6109be8282856108fa565b600060209050601f8311600181146109f157600084156109df578287015190505b6109e9858261096b565b865550610a51565b601f1984166109ff866107d1565b60005b82811015610a2757848901518255600182019150602085019450602081019050610a02565b86831015610a445784890151610a40601f89168261094d565b8355505b6001600288020188555050505b505050505050565b610a6281610476565b82525050565b6000602082019050610a7d6000830184610a59565b92915050565b600081519050919050565b600081905092915050565b6000610aa482610a83565b610aae8185610a8e565b9350610abe81856020860161058d565b80840191505092915050565b6000610ad68284610a99565b915081905092915050565b610aea81610855565b8114610af557600080fd5b50565b600081519050610b0781610ae1565b92915050565b600060208284031215610b2357610b2261044c565b5b6000610b3184828501610af8565b91505092915050565b60805160a05160c05160e05161010051614408610ba16000396000818161177d01526121410152600081816111480152818161175901526121e00152600081816113a30152818161151e0152611c38015260006113d60152600061140801526144086000f3fe6080604052600436106102b25760003560e01c8063715018a611610175578063ba087652116100dc578063dd2d173b11610095578063ef8b30f71161006f578063ef8b30f714610bcc578063efdcd97414610c09578063f2fde38b14610c32578063fc97bccc14610c5b576102e9565b8063dd2d173b14610b3d578063dd62ed3e14610b66578063ddc563ca14610ba3576102e9565b8063ba087652146109e1578063c63d75b614610a1e578063c6e6f59214610a5b578063ce96cb7714610a98578063d55be8c614610ad5578063d905777e14610b00576102e9565b806394bf804d1161012e57806394bf804d1461089757806395d89b41146108d4578063a9059cbb146108ff578063b3d7f6b91461093c578063b3f0067414610979578063b460af94146109a4576102e9565b8063715018a6146107bf5780637b103999146107d65780637dc0d1d0146108015780638456cb591461082c5780638da5cb5b146108435780639281aa0b1461086e576102e9565b806338d52e0f1161021957806357b17a52116101d257806357b17a52146106995780635c975abb146106c457806361d027b3146106ef57806365ed6e231461071a5780636e553f651461074557806370a0823114610782576102e9565b806338d52e0f146105775780633af32abf146105a25780633f4ba83a146105df578063402d267d146105f65780634b0bddd2146106335780634cdad5061461065c576102e9565b8063134666791161026b578063134666791461046757806318160ddd1461049057806323b872dd146104bb57806324d7806c146104f857806328f7283414610535578063313ce5671461054c576102e9565b806301e1d1141461031b57806306fdde031461034657806307a2d13a14610371578063095ea7b3146103ae5780630a2642bf146103eb5780630a28a4771461042a576102e9565b366102e9576040517f3733483400000000000000000000000000000000000000000000000000000000815260040160405180910390fd5b6040517f3733483400000000000000000000000000000000000000000000000000000000815260040160405180910390fd5b34801561032757600080fd5b50610330610c86565b60405161033d919061346d565b60405180910390f35b34801561035257600080fd5b5061035b610e36565b6040516103689190613518565b60405180910390f35b34801561037d57600080fd5b506103986004803603810190610393919061357a565b610ec8565b6040516103a5919061346d565b60405180910390f35b3480156103ba57600080fd5b506103d560048036038101906103d09190613605565b610edc565b6040516103e29190613660565b60405180910390f35b3480156103f757600080fd5b50610412600480360381019061040d919061357a565b610eff565b6040516104219392919061368a565b60405180910390f35b34801561043657600080fd5b50610451600480360381019061044c919061357a565b610f66565b60405161045e919061346d565b60405180910390f35b34801561047357600080fd5b5061048e6004803603810190610489919061389e565b610f7a565b005b34801561049c57600080fd5b506104a56112f7565b6040516104b2919061346d565b60405180910390f35b3480156104c757600080fd5b506104e260048036038101906104dd91906138e7565b611301565b6040516104ef9190613660565b60405180910390f35b34801561050457600080fd5b5061051f600480360381019061051a919061393a565b611330565b60405161052c9190613660565b60405180910390f35b34801561054157600080fd5b5061054a611350565b005b34801561055857600080fd5b506105616113ca565b60405161056e9190613983565b60405180910390f35b34801561058357600080fd5b5061058c611404565b604051610599919061399e565b60405180910390f35b3480156105ae57600080fd5b506105c960048036038101906105c4919061393a565b61142c565b6040516105d69190613660565b60405180910390f35b3480156105eb57600080fd5b506105f461144c565b005b34801561060257600080fd5b5061061d6004803603810190610618919061393a565b61145e565b60405161062a919061346d565b60405180910390f35b34801561063f57600080fd5b5061065a600480360381019061065591906139b9565b611488565b005b34801561066857600080fd5b50610683600480360381019061067e919061357a565b6114eb565b604051610690919061346d565b60405180910390f35b3480156106a557600080fd5b506106ae6114ff565b6040516106bb919061346d565b60405180910390f35b3480156106d057600080fd5b506106d9611505565b6040516106e69190613660565b60405180910390f35b3480156106fb57600080fd5b5061070461151c565b604051610711919061399e565b60405180910390f35b34801561072657600080fd5b5061072f611540565b60405161073c9190613b17565b60405180910390f35b34801561075157600080fd5b5061076c60048036038101906107679190613b39565b61161a565b604051610779919061346d565b60405180910390f35b34801561078e57600080fd5b506107a960048036038101906107a4919061393a565b6116fb565b6040516107b6919061346d565b60405180910390f35b3480156107cb57600080fd5b506107d4611743565b005b3480156107e257600080fd5b506107eb611757565b6040516107f89190613bd8565b60405180910390f35b34801561080d57600080fd5b5061081661177b565b6040516108239190613c14565b60405180910390f35b34801561083857600080fd5b5061084161179f565b005b34801561084f57600080fd5b506108586117b1565b604051610865919061399e565b60405180910390f35b34801561087a57600080fd5b50610895600480360381019061089091906139b9565b6117db565b005b3480156108a357600080fd5b506108be60048036038101906108b99190613b39565b61183e565b6040516108cb919061346d565b60405180910390f35b3480156108e057600080fd5b506108e96118c0565b6040516108f69190613518565b60405180910390f35b34801561090b57600080fd5b5061092660048036038101906109219190613605565b611952565b6040516109339190613660565b60405180910390f35b34801561094857600080fd5b50610963600480360381019061095e919061357a565b611975565b604051610970919061346d565b60405180910390f35b34801561098557600080fd5b5061098e611989565b60405161099b919061399e565b60405180910390f35b3480156109b057600080fd5b506109cb60048036038101906109c69190613c2f565b6119af565b6040516109d8919061346d565b60405180910390f35b3480156109ed57600080fd5b50610a086004803603810190610a039190613c2f565b611ab9565b604051610a15919061346d565b60405180910390f35b348015610a2a57600080fd5b50610a456004803603810190610a40919061393a565b611d1f565b604051610a52919061346d565b60405180910390f35b348015610a6757600080fd5b50610a826004803603810190610a7d919061357a565b611d49565b604051610a8f919061346d565b60405180910390f35b348015610aa457600080fd5b50610abf6004803603810190610aba919061393a565b611d5d565b604051610acc919061346d565b60405180910390f35b348015610ae157600080fd5b50610aea611d79565b604051610af7919061346d565b60405180910390f35b348015610b0c57600080fd5b50610b276004803603810190610b22919061393a565b611d7f565b604051610b34919061346d565b60405180910390f35b348015610b4957600080fd5b50610b646004803603810190610b5f919061357a565b611d91565b005b348015610b7257600080fd5b50610b8d6004803603810190610b889190613c82565b611de8565b604051610b9a919061346d565b60405180910390f35b348015610baf57600080fd5b50610bca6004803603810190610bc5919061357a565b611e6f565b005b348015610bd857600080fd5b50610bf36004803603810190610bee919061357a565b611f50565b604051610c00919061346d565b60405180910390f35b348015610c1557600080fd5b50610c306004803603810190610c2b919061393a565b611f64565b005b348015610c3e57600080fd5b50610c596004803603810190610c54919061393a565b612016565b005b348015610c6757600080fd5b50610c7061209c565b604051610c7d9190613518565b60405180910390f35b6000806000905060005b600780549050811015610e2e57600060078281548110610cb357610cb2613cc2565b5b90600052602060002090600302016040518060600160405290816000820160009054906101000a900473ffffffffffffffffffffffffffffffffffffffff1673ffffffffffffffffffffffffffffffffffffffff1673ffffffffffffffffffffffffffffffffffffffff168152602001600182015481526020016002820160009054906101000a900460ff1615151515815250509050806040015115610e20576000816000015173ffffffffffffffffffffffffffffffffffffffff166370a08231306040518263ffffffff1660e01b8152600401610d92919061399e565b602060405180830381865afa158015610daf573d6000803e3d6000fd5b505050506040513d601f19601f82011682018060405250810190610dd39190613d06565b90506000610de583600001518361212a565b90506000670de0b6b3a7640000846020015183610e029190613d62565b610e0c9190613dd3565b90508086610e1a9190613e04565b95505050505b508080600101915050610c90565b508091505090565b606060038054610e4590613e67565b80601f0160208091040260200160405190810160405280929190818152602001828054610e7190613e67565b8015610ebe5780601f10610e9357610100808354040283529160200191610ebe565b820191906000526020600020905b815481529060010190602001808311610ea157829003601f168201915b5050505050905090565b6000610ed5826000612341565b9050919050565b600080610ee761239a565b9050610ef48185856123a2565b600191505092915050565b60078181548110610f0f57600080fd5b90600052602060002090600302016000915090508060000160009054906101000a900473ffffffffffffffffffffffffffffffffffffffff16908060010154908060020160009054906101000a900460ff16905083565b6000610f738260016123b4565b9050919050565b610f8261240d565b6000815111610fc6576040517f08c379a0000000000000000000000000000000000000000000000000000000008152600401610fbd90613ee4565b60405180910390fd5b60076000610fd491906133d6565b600080600090505b825181101561126e57600073ffffffffffffffffffffffffffffffffffffffff168382815181106110105761100f613cc2565b5b60200260200101516000015173ffffffffffffffffffffffffffffffffffffffff1603611069576040517fd92e233d00000000000000000000000000000000000000000000000000000000815260040160405180910390fd5b600783828151811061107e5761107d613cc2565b5b6020026020010151908060018154018082558091505060019003906000526020600020906003020160009091909190915060008201518160000160006101000a81548173ffffffffffffffffffffffffffffffffffffffff021916908373ffffffffffffffffffffffffffffffffffffffff1602179055506020820151816001015560408201518160020160006101000a81548160ff021916908315150217905550505082818151811061113557611134613cc2565b5b60200260200101516040015115611261577f000000000000000000000000000000000000000000000000000000000000000073ffffffffffffffffffffffffffffffffffffffff166326aa101f84838151811061119557611194613cc2565b5b6020026020010151600001516040518263ffffffff1660e01b81526004016111bd919061399e565b602060405180830381865afa1580156111da573d6000803e3d6000fd5b505050506040513d601f19601f820116820180604052508101906111fe9190613f19565b611234576040517f259ba1ad00000000000000000000000000000000000000000000000000000000815260040160405180910390fd5b82818151811061124757611246613cc2565b5b6020026020010151602001518261125e9190613e04565b91505b8080600101915050610fdc565b50670de0b6b3a764000081146112b0576040517f940addc700000000000000000000000000000000000000000000000000000000815260040160405180910390fd5b3373ffffffffffffffffffffffffffffffffffffffff167fe12b8d1d4a7f7412a024aee54caca7fbc2f384591f10a085a28f47f518661c6460405160405180910390a25050565b6000600254905090565b60008061130c61239a565b9050611319858285612494565b611324858585612529565b60019150509392505050565b600b6020528060005260406000206000915054906101000a900460ff1681565b61135861240d565b60006113626112f7565b111561139a576040517f5f9863ad00000000000000000000000000000000000000000000000000000000815260040160405180910390fd5b6113c7620f42407f000000000000000000000000000000000000000000000000000000000000000061161a565b50565b60006113d461261d565b7f00000000000000000000000000000000000000000000000000000000000000006113ff9190613f46565b905090565b60007f0000000000000000000000000000000000000000000000000000000000000000905090565b600c6020528060005260406000206000915054906101000a900460ff1681565b61145461240d565b61145c612626565b565b60007fffffffffffffffffffffffffffffffffffffffffffffffffffffffffffffffff9050919050565b61149061240d565b80600b60008473ffffffffffffffffffffffffffffffffffffffff1673ffffffffffffffffffffffffffffffffffffffff16815260200190815260200160002060006101000a81548160ff0219169083151502179055505050565b60006114f8826000612341565b9050919050565b60095481565b6000600560149054906101000a900460ff16905090565b7f000000000000000000000000000000000000000000000000000000000000000081565b60606007805480602002602001604051908101604052809291908181526020016000905b8282101561161157838290600052602060002090600302016040518060600160405290816000820160009054906101000a900473ffffffffffffffffffffffffffffffffffffffff1673ffffffffffffffffffffffffffffffffffffffff1673ffffffffffffffffffffffffffffffffffffffff168152602001600182015481526020016002820160009054906101000a900460ff16151515158152505081526020019060010190611564565b50505050905090565b6000611624611505565b1561165b576040517f059519da00000000000000000000000000000000000000000000000000000000815260040160405180910390fd5b60008303611695576040517f2c5211c600000000000000000000000000000000000000000000000000000000815260040160405180910390fd5b60006116a18484612689565b90508273ffffffffffffffffffffffffffffffffffffffff167f2da466a7b24304f47e87fa2e1e5a81b9831ce54fec19055ce277ca2f39ba42c4856040516116e9919061346d565b60405180910390a28091505092915050565b60008060008373ffffffffffffffffffffffffffffffffffffffff1673ffffffffffffffffffffffffffffffffffffffff168152602001908152602001600020549050919050565b61174b61240d565b611755600061270b565b565b7f000000000000000000000000000000000000000000000000000000000000000081565b7f000000000000000000000000000000000000000000000000000000000000000081565b6117a761240d565b6117af6127d1565b565b6000600560009054906101000a900473ffffffffffffffffffffffffffffffffffffffff16905090565b6117e361240d565b80600c60008473ffffffffffffffffffffffffffffffffffffffff1673ffffffffffffffffffffffffffffffffffffffff16815260200190815260200160002060006101000a81548160ff0219169083151502179055505050565b60008061184a83611d1f565b905080841115611895578284826040517f284ff66700000000000000000000000000000000000000000000000000000000815260040161188c93929190613f7b565b60405180910390fd5b60006118a085611975565b90506118b56118ad61239a565b858388612834565b809250505092915050565b6060600480546118cf90613e67565b80601f01602080910402602001604051908101604052809291908181526020018280546118fb90613e67565b80156119485780601f1061191d57610100808354040283529160200191611948565b820191906000526020600020905b81548152906001019060200180831161192b57829003601f168201915b5050505050905090565b60008061195d61239a565b905061196a818585612529565b600191505092915050565b6000611982826001612341565b9050919050565b600a60009054906101000a900473ffffffffffffffffffffffffffffffffffffffff1681565b60006119b9611505565b156119f0576040517f059519da00000000000000000000000000000000000000000000000000000000815260040160405180910390fd5b6119f86128be565b60008403611a32576040517f2c5211c600000000000000000000000000000000000000000000000000000000815260040160405180910390fd5b6000611a3f858585612904565b90508373ffffffffffffffffffffffffffffffffffffffff168373ffffffffffffffffffffffffffffffffffffffff167f29a0bcf57d42cd9503e61240cef8d4ae3c5982196af8c0f63b0585b3a3e87f3987604051611a9e919061346d565b60405180910390a380915050611ab2612988565b9392505050565b6000611ac3611505565b15611afa576040517f059519da00000000000000000000000000000000000000000000000000000000815260040160405180910390fd5b611b026128be565b60008403611b3c576040517f2c5211c600000000000000000000000000000000000000000000000000000000815260040160405180910390fd5b6000611b4785610ec8565b9050600061271060095483611b5c9190613d62565b611b669190613dd3565b905060008183611b769190613fb2565b9050611b83873087612992565b50611b8c611404565b73ffffffffffffffffffffffffffffffffffffffff1663a9059cbb87836040518363ffffffff1660e01b8152600401611bc6929190613fe6565b6020604051808303816000875af1158015611be5573d6000803e3d6000fd5b505050506040513d601f19601f82011682018060405250810190611c099190613f19565b506000821115611d0a57611c1b611404565b73ffffffffffffffffffffffffffffffffffffffff1663a9059cbb7f0000000000000000000000000000000000000000000000000000000000000000846040518363ffffffff1660e01b8152600401611c75929190613fe6565b6020604051808303816000875af1158015611c94573d6000803e3d6000fd5b505050506040513d601f19601f82011682018060405250810190611cb89190613f19565b508473ffffffffffffffffffffffffffffffffffffffff167f4391a67a435a77473a1d86760bc62594cba49fd7a8d4a69696f4a52709fc3c1c8484604051611d0192919061400f565b60405180910390a25b809350505050611d18612988565b9392505050565b60007fffffffffffffffffffffffffffffffffffffffffffffffffffffffffffffffff9050919050565b6000611d568260006123b4565b9050919050565b6000611d72611d6b836116fb565b6000612341565b9050919050565b6103e881565b6000611d8a826116fb565b9050919050565b611d9961240d565b6103e8811115611dde576040517f08c379a0000000000000000000000000000000000000000000000000000000008152600401611dd590614084565b60405180910390fd5b8060098190555050565b6000600160008473ffffffffffffffffffffffffffffffffffffffff1673ffffffffffffffffffffffffffffffffffffffff16815260200190815260200160002060008373ffffffffffffffffffffffffffffffffffffffff1673ffffffffffffffffffffffffffffffffffffffff16815260200190815260200160002054905092915050565b611e7761240d565b60008103611eb1576040517f2c5211c600000000000000000000000000000000000000000000000000000000815260040160405180910390fd5b611edd600a60009054906101000a900473ffffffffffffffffffffffffffffffffffffffff1682612a16565b600a60009054906101000a900473ffffffffffffffffffffffffffffffffffffffff1673ffffffffffffffffffffffffffffffffffffffff167f7fee81b17a478a24780e52511d61b5efa31505eb290535ab360f99a30f7407d682604051611f45919061346d565b60405180910390a250565b6000611f5d8260006123b4565b9050919050565b611f6c61240d565b600073ffffffffffffffffffffffffffffffffffffffff168173ffffffffffffffffffffffffffffffffffffffff1603611fd2576040517fd92e233d00000000000000000000000000000000000000000000000000000000815260040160405180910390fd5b80600a60006101000a81548173ffffffffffffffffffffffffffffffffffffffff021916908373ffffffffffffffffffffffffffffffffffffffff16021790555050565b61201e61240d565b600073ffffffffffffffffffffffffffffffffffffffff168173ffffffffffffffffffffffffffffffffffffffff16036120905760006040517f1e4fbdf7000000000000000000000000000000000000000000000000000000008152600401612087919061399e565b60405180910390fd5b6120998161270b565b50565b600880546120a990613e67565b80601f01602080910402602001604051908101604052809291908181526020018280546120d590613e67565b80156121225780601f106120f757610100808354040283529160200191612122565b820191906000526020600020905b81548152906001019060200180831161210557829003601f168201915b505050505081565b600080820361213c576000905061233b565b6000807f000000000000000000000000000000000000000000000000000000000000000073ffffffffffffffffffffffffffffffffffffffff166341976e09866040518263ffffffff1660e01b8152600401612198919061399e565b6040805180830381865afa1580156121b4573d6000803e3d6000fd5b505050506040513d601f19601f820116820180604052508101906121d891906140d0565b9150915060007f000000000000000000000000000000000000000000000000000000000000000073ffffffffffffffffffffffffffffffffffffffff1663785c7cf6876040518263ffffffff1660e01b8152600401612237919061399e565b602060405180830381865afa158015612254573d6000803e3d6000fd5b505050506040513d601f19601f820116820180604052508101906122789190614110565b60ff16905060068260ff1610158015612292575060068111155b156122e75780600a6122a49190614270565b856006846122b291906142bb565b600a6122be91906142f0565b856122c99190613dd3565b6122d39190613d62565b6122dd9190613dd3565b935050505061233b565b600082600a6122f691906142f0565b84876123029190613d62565b61230c9190613dd3565b905081600a61231b9190614270565b620f42408261232a9190613d62565b6123349190613dd3565b9450505050505b92915050565b60006123926001612350610c86565b61235a9190613e04565b61236261261d565b600a61236e91906142f0565b6123766112f7565b6123809190613e04565b8486612a98909392919063ffffffff16565b905092915050565b600033905090565b6123af8383836001612ae7565b505050565b60006124056123c161261d565b600a6123cd91906142f0565b6123d56112f7565b6123df9190613e04565b60016123e9610c86565b6123f39190613e04565b8486612a98909392919063ffffffff16565b905092915050565b61241561239a565b73ffffffffffffffffffffffffffffffffffffffff166124336117b1565b73ffffffffffffffffffffffffffffffffffffffff16146124925761245661239a565b6040517f118cdaa7000000000000000000000000000000000000000000000000000000008152600401612489919061399e565b60405180910390fd5b565b60006124a08484611de8565b90507fffffffffffffffffffffffffffffffffffffffffffffffffffffffffffffffff8110156125235781811015612513578281836040517ffb8f41b200000000000000000000000000000000000000000000000000000000815260040161250a93929190613f7b565b60405180910390fd5b61252284848484036000612ae7565b5b50505050565b600073ffffffffffffffffffffffffffffffffffffffff168373ffffffffffffffffffffffffffffffffffffffff160361259b5760006040517f96c6fd1e000000000000000000000000000000000000000000000000000000008152600401612592919061399e565b60405180910390fd5b600073ffffffffffffffffffffffffffffffffffffffff168273ffffffffffffffffffffffffffffffffffffffff160361260d5760006040517fec442f05000000000000000000000000000000000000000000000000000000008152600401612604919061399e565b60405180910390fd5b612618838383612cbe565b505050565b6000600c905090565b61262e612ee3565b6000600560146101000a81548160ff0219169083151502179055507f5db9ee0a495bf2e6ff9c91a7834c1ba4fdd244a5e8aa4e537bd38aeae4b073aa61267261239a565b60405161267f919061399e565b60405180910390a1565b6000806126958361145e565b9050808411156126e0578284826040517f79012fb20000000000000000000000000000000000000000000000000000000081526004016126d793929190613f7b565b60405180910390fd5b60006126eb85611f50565b90506127006126f861239a565b858784612834565b809250505092915050565b6000600560009054906101000a900473ffffffffffffffffffffffffffffffffffffffff16905081600560006101000a81548173ffffffffffffffffffffffffffffffffffffffff021916908373ffffffffffffffffffffffffffffffffffffffff1602179055508173ffffffffffffffffffffffffffffffffffffffff168173ffffffffffffffffffffffffffffffffffffffff167f8be0079c531659141344cd1fd0a4f28419497f9722a3daafe3b4186f6b6457e060405160405180910390a35050565b6127d9612f23565b6001600560146101000a81548160ff0219169083151502179055507f62e78cea01bee320cd4e420270b5ea74000d11b0c9f74754ebdbfc544b05a25861281d61239a565b60405161282a919061399e565b60405180910390a1565b61284761283f611404565b853085612f64565b6128518382612a16565b8273ffffffffffffffffffffffffffffffffffffffff168473ffffffffffffffffffffffffffffffffffffffff167fdcbc1c05240f31ff3ad067ef1ee35ce4997762752e3a095284754544f4c709d784846040516128b092919061400f565b60405180910390a350505050565b6002600654036128fa576040517f3ee5aeb500000000000000000000000000000000000000000000000000000000815260040160405180910390fd5b6002600681905550565b60008061291083611d5d565b90508085111561295b578285826040517ffe9cceec00000000000000000000000000000000000000000000000000000000815260040161295293929190613f7b565b60405180910390fd5b600061296686610f66565b905061297c61297361239a565b86868985612fe6565b80925050509392505050565b6001600681905550565b60008061299e83611d7f565b9050808511156129e9578285826040517fb94abeec0000000000000000000000000000000000000000000000000000000081526004016129e093929190613f7b565b60405180910390fd5b60006129f4866114eb565b9050612a0a612a0161239a565b8686848a612fe6565b80925050509392505050565b600073ffffffffffffffffffffffffffffffffffffffff168273ffffffffffffffffffffffffffffffffffffffff1603612a885760006040517fec442f05000000000000000000000000000000000000000000000000000000008152600401612a7f919061399e565b60405180910390fd5b612a9460008383612cbe565b5050565b6000612ac8612aa6836130c6565b8015612ac3575060008480612abe57612abd613da4565b5b868809115b6130f4565b612ad3868686613100565b612add9190613e04565b9050949350505050565b600073ffffffffffffffffffffffffffffffffffffffff168473ffffffffffffffffffffffffffffffffffffffff1603612b595760006040517fe602df05000000000000000000000000000000000000000000000000000000008152600401612b50919061399e565b60405180910390fd5b600073ffffffffffffffffffffffffffffffffffffffff168373ffffffffffffffffffffffffffffffffffffffff1603612bcb5760006040517f94280d62000000000000000000000000000000000000000000000000000000008152600401612bc2919061399e565b60405180910390fd5b81600160008673ffffffffffffffffffffffffffffffffffffffff1673ffffffffffffffffffffffffffffffffffffffff16815260200190815260200160002060008573ffffffffffffffffffffffffffffffffffffffff1673ffffffffffffffffffffffffffffffffffffffff168152602001908152602001600020819055508015612cb8578273ffffffffffffffffffffffffffffffffffffffff168473ffffffffffffffffffffffffffffffffffffffff167f8c5be1e5ebec7d5bd14f71427d1e84f3dd0314c0f7b2291e5b200ac8c7c3b92584604051612caf919061346d565b60405180910390a35b50505050565b600073ffffffffffffffffffffffffffffffffffffffff168373ffffffffffffffffffffffffffffffffffffffff1603612d10578060026000828254612d049190613e04565b92505081905550612de3565b60008060008573ffffffffffffffffffffffffffffffffffffffff1673ffffffffffffffffffffffffffffffffffffffff16815260200190815260200160002054905081811015612d9c578381836040517fe450d38c000000000000000000000000000000000000000000000000000000008152600401612d9393929190613f7b565b60405180910390fd5b8181036000808673ffffffffffffffffffffffffffffffffffffffff1673ffffffffffffffffffffffffffffffffffffffff16815260200190815260200160002081905550505b600073ffffffffffffffffffffffffffffffffffffffff168273ffffffffffffffffffffffffffffffffffffffff1603612e2c5780600260008282540392505081905550612e79565b806000808473ffffffffffffffffffffffffffffffffffffffff1673ffffffffffffffffffffffffffffffffffffffff168152602001908152602001600020600082825401925050819055505b8173ffffffffffffffffffffffffffffffffffffffff168373ffffffffffffffffffffffffffffffffffffffff167fddf252ad1be2c89b69c2b068fc378daa952ba7f163c4a11628f55a4df523b3ef83604051612ed6919061346d565b60405180910390a3505050565b612eeb611505565b612f21576040517f8dfc202b00000000000000000000000000000000000000000000000000000000815260040160405180910390fd5b565b612f2b611505565b15612f62576040517fd93c066500000000000000000000000000000000000000000000000000000000815260040160405180910390fd5b565b612fe0848573ffffffffffffffffffffffffffffffffffffffff166323b872dd868686604051602401612f999392919061433b565b604051602081830303815290604052915060e01b6020820180517bffffffffffffffffffffffffffffffffffffffffffffffffffffffff83818316178352505050506131e8565b50505050565b8273ffffffffffffffffffffffffffffffffffffffff168573ffffffffffffffffffffffffffffffffffffffff161461302557613024838683612494565b5b61302f838261328a565b61304161303a611404565b858461330c565b8273ffffffffffffffffffffffffffffffffffffffff168473ffffffffffffffffffffffffffffffffffffffff168673ffffffffffffffffffffffffffffffffffffffff167ffbde797d201c681b91056529119e0b02407c7bb96a4a2c75c01fc9667232c8db85856040516130b792919061400f565b60405180910390a45050505050565b6000600160028360038111156130df576130de614372565b5b6130e991906143a1565b60ff16149050919050565b60008115159050919050565b600080600061310f868661338b565b91509150600082036131355783818161312b5761312a613da4565b5b04925050506131e1565b8184116131555761315461314f60008614601260116133aa565b6133c4565b5b600084868809905081811183039250808203915060008560000386169050808604955080830492506001818260000304019050808402831792506000600287600302189050808702600203810290508087026002038102905080870260020381029050808702600203810290508087026002038102905080870260020381029050808402955050505050505b9392505050565b600080602060008451602086016000885af18061320b576040513d6000823e3d81fd5b3d925060005191505060008214613226576001811415613242565b60008473ffffffffffffffffffffffffffffffffffffffff163b145b1561328457836040517f5274afe700000000000000000000000000000000000000000000000000000000815260040161327b919061399e565b60405180910390fd5b50505050565b600073ffffffffffffffffffffffffffffffffffffffff168273ffffffffffffffffffffffffffffffffffffffff16036132fc5760006040517f96c6fd1e0000000000000000000000000000000000000000000000000000000081526004016132f3919061399e565b60405180910390fd5b61330882600083612cbe565b5050565b613386838473ffffffffffffffffffffffffffffffffffffffff1663a9059cbb858560405160240161333f929190613fe6565b604051602081830303815290604052915060e01b6020820180517bffffffffffffffffffffffffffffffffffffffffffffffffffffffff83818316178352505050506131e8565b505050565b6000806000198385098385029150818110828203039250509250929050565b60006133b5846130f4565b82841802821890509392505050565b634e487b71600052806020526024601cfd5b50805460008255600302906000526020600020908101906133f791906133fa565b50565b5b8082111561345057600080820160006101000a81549073ffffffffffffffffffffffffffffffffffffffff021916905560018201600090556002820160006101000a81549060ff0219169055506003016133fb565b5090565b6000819050919050565b61346781613454565b82525050565b6000602082019050613482600083018461345e565b92915050565b600081519050919050565b600082825260208201905092915050565b60005b838110156134c25780820151818401526020810190506134a7565b60008484015250505050565b6000601f19601f8301169050919050565b60006134ea82613488565b6134f48185613493565b93506135048185602086016134a4565b61350d816134ce565b840191505092915050565b6000602082019050818103600083015261353281846134df565b905092915050565b6000604051905090565b600080fd5b600080fd5b61355781613454565b811461356257600080fd5b50565b6000813590506135748161354e565b92915050565b6000602082840312156135905761358f613544565b5b600061359e84828501613565565b91505092915050565b600073ffffffffffffffffffffffffffffffffffffffff82169050919050565b60006135d2826135a7565b9050919050565b6135e2816135c7565b81146135ed57600080fd5b50565b6000813590506135ff816135d9565b92915050565b6000806040838503121561361c5761361b613544565b5b600061362a858286016135f0565b925050602061363b85828601613565565b9150509250929050565b60008115159050919050565b61365a81613645565b82525050565b60006020820190506136756000830184613651565b92915050565b613684816135c7565b82525050565b600060608201905061369f600083018661367b565b6136ac602083018561345e565b6136b96040830184613651565b949350505050565b600080fd5b7f4e487b7100000000000000000000000000000000000000000000000000000000600052604160045260246000fd5b6136fe826134ce565b810181811067ffffffffffffffff8211171561371d5761371c6136c6565b5b80604052505050565b600061373061353a565b905061373c82826136f5565b919050565b600067ffffffffffffffff82111561375c5761375b6136c6565b5b602082029050602081019050919050565b600080fd5b600080fd5b61378081613645565b811461378b57600080fd5b50565b60008135905061379d81613777565b92915050565b6000606082840312156137b9576137b8613772565b5b6137c36060613726565b905060006137d3848285016135f0565b60008301525060206137e784828501613565565b60208301525060406137fb8482850161378e565b60408301525092915050565b600061381a61381584613741565b613726565b9050808382526020820190506060840283018581111561383d5761383c61376d565b5b835b81811015613866578061385288826137a3565b84526020840193505060608101905061383f565b5050509392505050565b600082601f830112613885576138846136c1565b5b8135613895848260208601613807565b91505092915050565b6000602082840312156138b4576138b3613544565b5b600082013567ffffffffffffffff8111156138d2576138d1613549565b5b6138de84828501613870565b91505092915050565b600080600060608486031215613900576138ff613544565b5b600061390e868287016135f0565b935050602061391f868287016135f0565b925050604061393086828701613565565b9150509250925092565b6000602082840312156139505761394f613544565b5b600061395e848285016135f0565b91505092915050565b600060ff82169050919050565b61397d81613967565b82525050565b60006020820190506139986000830184613974565b92915050565b60006020820190506139b3600083018461367b565b92915050565b600080604083850312156139d0576139cf613544565b5b60006139de858286016135f0565b92505060206139ef8582860161378e565b9150509250929050565b600081519050919050565b600082825260208201905092915050565b6000819050602082019050919050565b613a2e816135c7565b82525050565b613a3d81613454565b82525050565b613a4c81613645565b82525050565b606082016000820151613a686000850182613a25565b506020820151613a7b6020850182613a34565b506040820151613a8e6040850182613a43565b50505050565b6000613aa08383613a52565b60608301905092915050565b6000602082019050919050565b6000613ac4826139f9565b613ace8185613a04565b9350613ad983613a15565b8060005b83811015613b0a578151613af18882613a94565b9750613afc83613aac565b925050600181019050613add565b5085935050505092915050565b60006020820190508181036000830152613b318184613ab9565b905092915050565b60008060408385031215613b5057613b4f613544565b5b6000613b5e85828601613565565b9250506020613b6f858286016135f0565b9150509250929050565b6000819050919050565b6000613b9e613b99613b94846135a7565b613b79565b6135a7565b9050919050565b6000613bb082613b83565b9050919050565b6000613bc282613ba5565b9050919050565b613bd281613bb7565b82525050565b6000602082019050613bed6000830184613bc9565b92915050565b6000613bfe82613ba5565b9050919050565b613c0e81613bf3565b82525050565b6000602082019050613c296000830184613c05565b92915050565b600080600060608486031215613c4857613c47613544565b5b6000613c5686828701613565565b9350506020613c67868287016135f0565b9250506040613c78868287016135f0565b9150509250925092565b60008060408385031215613c9957613c98613544565b5b6000613ca7858286016135f0565b9250506020613cb8858286016135f0565b9150509250929050565b7f4e487b7100000000000000000000000000000000000000000000000000000000600052603260045260246000fd5b600081519050613d008161354e565b92915050565b600060208284031215613d1c57613d1b613544565b5b6000613d2a84828501613cf1565b91505092915050565b7f4e487b7100000000000000000000000000000000000000000000000000000000600052601160045260246000fd5b6000613d6d82613454565b9150613d7883613454565b9250828202613d8681613454565b91508282048414831517613d9d57613d9c613d33565b5b5092915050565b7f4e487b7100000000000000000000000000000000000000000000000000000000600052601260045260246000fd5b6000613dde82613454565b9150613de983613454565b925082613df957613df8613da4565b5b828204905092915050565b6000613e0f82613454565b9150613e1a83613454565b9250828201905080821115613e3257613e31613d33565b5b92915050565b7f4e487b7100000000000000000000000000000000000000000000000000000000600052602260045260246000fd5b60006002820490506001821680613e7f57607f821691505b602082108103613e9257613e91613e38565b5b50919050565b7f416c6c6f636174696f6e732063616e6e6f7420626520656d7074790000000000600082015250565b6000613ece601b83613493565b9150613ed982613e98565b602082019050919050565b60006020820190508181036000830152613efd81613ec1565b9050919050565b600081519050613f1381613777565b92915050565b600060208284031215613f2f57613f2e613544565b5b6000613f3d84828501613f04565b91505092915050565b6000613f5182613967565b9150613f5c83613967565b9250828201905060ff811115613f7557613f74613d33565b5b92915050565b6000606082019050613f90600083018661367b565b613f9d602083018561345e565b613faa604083018461345e565b949350505050565b6000613fbd82613454565b9150613fc883613454565b9250828203905081811115613fe057613fdf613d33565b5b92915050565b6000604082019050613ffb600083018561367b565b614008602083018461345e565b9392505050565b6000604082019050614024600083018561345e565b614031602083018461345e565b9392505050565b7f4665652065786365656473206d6178696d756d00000000000000000000000000600082015250565b600061406e601383613493565b915061407982614038565b602082019050919050565b6000602082019050818103600083015261409d81614061565b9050919050565b6140ad81613967565b81146140b857600080fd5b50565b6000815190506140ca816140a4565b92915050565b600080604083850312156140e7576140e6613544565b5b60006140f585828601613cf1565b9250506020614106858286016140bb565b9150509250929050565b60006020828403121561412657614125613544565b5b6000614134848285016140bb565b91505092915050565b60008160011c9050919050565b6000808291508390505b6001851115614194578086048111156141705761416f613d33565b5b600185161561417f5780820291505b808102905061418d8561413d565b9450614154565b94509492505050565b6000826141ad5760019050614269565b816141bb5760009050614269565b81600181146141d157600281146141db5761420a565b6001915050614269565b60ff8411156141ed576141ec613d33565b5b8360020a91508482111561420457614203613d33565b5b50614269565b5060208310610133831016604e8410600b841016171561423f5782820a90508381111561423a57614239613d33565b5b614269565b61424c848484600161414a565b9250905081840481111561426357614262613d33565b5b81810290505b9392505050565b600061427b82613454565b915061428683613454565b92506142b37fffffffffffffffffffffffffffffffffffffffffffffffffffffffffffffffff848461419d565b905092915050565b60006142c682613967565b91506142d183613967565b9250828203905060ff8111156142ea576142e9613d33565b5b92915050565b60006142fb82613454565b915061430683613967565b92506143337fffffffffffffffffffffffffffffffffffffffffffffffffffffffffffffffff848461419d565b905092915050565b6000606082019050614350600083018661367b565b61435d602083018561367b565b61436a604083018461345e565b949350505050565b7f4e487b7100000000000000000000000000000000000000000000000000000000600052602160045260246000fd5b60006143ac82613967565b91506143b783613967565b9250826143c7576143c6613da4565b5b82820690509291505056fea26469706673582212201bade2acc4ce3f379e8d479e82d82507b3b35bf1fb07ba42a4fbbdfdff7d974064736f6c634300081c0033",
  "linkReferences": {},
  "deployedLinkReferences": {}
}